:020000040800F2
:10000000A0290020DD010008AD4000086737000886
:10001000D13C000809130008C54B0008000000008F
:100020000000000000000000000000004501000882
:10003000FF1600080000000089010008FF430008C7
:10004000F7010008F7010008F7010008F7010008B0
:10005000F7010008F7010008F7010008F7010008A0
:10006000F7010008F7010008F7010008F701000890
:10007000F7010008F7010008F7010008A5160008BD
:10008000B1160008BD160008F7010008F7010008C6
:10009000F7010008F7010008F7010008F701000860
:1000A000F7010008F7010008F7010008F701000850
:1000B000F7010008F7010008F7010008F701000840
:1000C000F7010008F7010008F7010008F701000830
:1000D000F7010008AD4B0008B94B0008F701000814
:1000E00025170008F7010008F7010008F7010008CC
:1000F000F7010008F7010008F7010008F701000800
:10010000F7010008F7010008F7010008F7010008EF
:100110002D47000839470008F70100087944000816
:10012000F7010008F7010008C9160008F7010008E8
:10013000DFF80CD000F026FF00480047055B000800
:10014000A0290020224B19680868B0E8F00F80F35E
:100150000988BFF36F8F4FF0000080F311884EF0D5
:100160000D0E70470000000006480068006880F32C
:10017000088862B661B6BFF34F8FBFF36F8F00DFA1
:1001800000BF00BF08ED00E0EFF30980BFF36F8F01
:100190000F4B1A6820E9F00F106008B54FF05000BF
:1001A00080F31188BFF34F8FBFF36F8F06F082FC8F
:1001B0004FF0000080F31188BDE808401968086816
:1001C000B0E8F00F80F30988BFF36F8F704700BF6E
:1001D0005C000020EFF30580704700000648804770
:1001E00006480047FEE7FEE7FEE7FEE7FEE7FEE71C
:1001F000FEE7FEE7FEE7FEE777440008310100086E
:10020000202A04DB203A21FA02F00021704721FA6B
:1002100002F3D040C2F120029140084319467047D2
:1002200040EA01039B0703D009E008C9121F08C078
:10023000042AFAD203E011F8013B00F8013B521EF8
:10024000F9D27047D2B201E000F8012B491EFBD26F
:1002500070470022F6E710B513460A4604461946D1
:10026000FFF7F0FF204610BD10B5002200E0521C41
:10027000835C8C5CA34201D1002BF8D1D8B2E1B2EF
:10028000401A10BD0FB400B58DB010A909900B90A5
:1002900000914FF0FF300A9000200C900548069026
:1002A000054807906A4609A80F9900F06DFD0DB04A
:1002B0005DF814FBA50D0008C30D00082DE9FF5FD4
:1002C000D2E901A74FF00008916999461446DDF87C
:1002D00038B0464601988847054659EA0B0005D0D4
:1002E00009E0A169761C019888470546216A2846DD
:1002F00088470028F5D1681C03D05FEACA7005D092
:1003000015E04FF0FF3004B0BDE8F09F2068011DFC
:100310002160D0F800800AE05FEACA7001D108F8D5
:10032000015BA169761C7F1E019888470546002F56
:100330001ADD681C18D0B9F1000F0DD0E81705EBD5
:10034000D060421120F01F0059F822102A1A012013
:1003500090400142E0D107E0BBF1000FDCD1216AFF
:10036000284688470028D7D0E16901988847BBF123
:10037000000F07D1002E05DD5FEACA7002D100210F
:1003800088F80010A068B84203DDBBF1000F03D06D
:1003900017B16FF00100B6E73046B4E72DE9FF4F23
:1003A000087883B09946FF2805D0491C2D2804D031
:1003B0000024002008E000200BE00124F9E700EB16
:1003C000800003EB4000491C0B78FF2BF7D104B1F0
:1003D000404200230293147819461D462D2C01D06B
:1003E0002B2C04D1521C2D2C13D000240294AA468D
:1003F0001478FF2C0FD00A25A3FB057801FB05819B
:100400004FF0000C03FB0C11521CE3194AEB0101E5
:10041000EEE70124EAE7814453EA010002D019F52E
:10042000C87F06DA03980021C0E9001107B0BDE8D3
:10043000F08F0025AE4E2F46DFF8B882184600F048
:1004400065FDCDE90001B9F1000002DAC9F100044F
:1004500000E004460023A74A1AEB030B42EB045AC0
:1004600012E0E00707D02A4633463846414600F0FE
:10047000C0FA074688462A4633461046194600F019
:10048000B8FA05460E466410002CEAD1DDE90001F9
:10049000B9F1000F5A46534606DA00F01CFB3A4603
:1004A000434600F018FB05E000F0A3FA3A46434645
:1004B00000F09FFA029A0AB181F00041039AC2E962
:1004C0000001B3E72DE9FF4F1F468DB0D7E9014684
:1004D0004FF0FF382E2045464FF000090B90B969C8
:1004E0006D1C0E988847396A824688470028F6D1E5
:1004F000BAF1FF3F0AD024F4D064002E11DDBAF126
:100500002B0F08D0BAF12D0F0BD102E0404611B0ED
:100510008DE744F48064B9696D1C0E988847824663
:10052000761E6946600501D52D2000E02B208DF850
:10053000000001F1010B0DF1200809E0B9696D1C03
:100540000E98884782460F9844F40074761E056022
:10055000002E02DDBAF1300FF0D00B998A453ED162
:1005600044F0800406E00F99681CA9F1010944F4E5
:1005700000740860B9696D1C761E0E988847824623
:100580003028F0D02BE00B998A4505D1200603D402
:1005900044F08004761E18E0504604F087FD08B34E
:1005A0000DF11301761E44F400748B4508D2AAF1B4
:1005B00030000BF8010B200607D5A9F1010003E07C
:1005C000200602D409F101008146A00502D50F9949
:1005D000681C0860B9696D1C0E9888478246002E19
:1005E000D1DC53E0002E51DDBAF1650F02D0BAF133
:1005F000450F4BD1A00549D5B9696D1C24F4407451
:10060000761E0E9888478246002E0CDD2B2804D0DB
:10061000BAF12D0F07D144F48074B9696D1C0E989E
:1006200088478246761EE00501D52D2100E02B216A
:1006300008F8011BCDF82C8021E00DF12901761E70
:1006400044F4007488450CD2AAF1300010F0FF0089
:1006500088F8000002D10B99884509D908F10108F2
:1006600006E0E00501D5244801E042F20F70814622
:10067000B9696D1C0E98884782460F980560002E58
:1006800004DD504604F012FD0028D6D1F9690E9819
:100690008847FF208BF8000088F8000000200690B3
:1006A00007904B466A4608A906A8FFF777FEA00503
:1006B00002D46FF001002AE714F0240F0AD0E007FB
:1006C00014D1DDE906123868031D3B600068C0E9FB
:1006D00000120BE0DDE9060100F0B8FA0146E00780
:1006E00004D13868021D3A600068016028460EE7B0
:1006F000000014400000F03FF1D8FFFFF0B480EAA2
:100700000102D40F4200B2EB410F02D2024608466A
:1007100011464A0042D0C30DDDB2C1F3C752AD1A33
:10072000202D35DAC1F3160141F4000204B1524222
:10073000C5F1200602FA06F12A411044B3EBD05F5E
:1007400023D0C4B1012DA0EBC35009DCF0BC4FF0A5
:10075000004202EAC352DBB200F5000000F04BBBDE
:10076000400000F1807000EBC350A0F1807040EABF
:10077000D170490009E0490841EAC071A0EBC350BB
:1007800000F50000400800EBC350F0BC00F02ABBAD
:100790006142012202EB4101001BF6E7F0BC704709
:1007A00081F00041AAE780F00040A7E780EA01025B
:1007B00010B502F00043400022D04A001FD0010EC5
:1007C00001EB1261C0F35600C2F3560240F4000080
:1007D00042F40002A0FB022000047F39140400D080
:1007E000401C50EA124001D44000491EC2B20C061F
:1007F00004EBD010401C4008802A02D003E0002007
:1008000010BD20F00100002900DA0020184310BDBF
:1008100030B480EA010202F0004530F0004221F0DD
:10082000004013D090B1C30DD40DC2F31601C0F334
:100830001600E41A41F4000140F400027D349142B4
:1008400001D3641C00E04900002C02DA30BC002017
:1008500070474FF400000023914201D3891A0343EB
:1008600040084FEA4101F7D151B1914202D14FF016
:10087000004105E002D24FF0010101E06FF00101FB
:1008800003EBC450284430BC00F0ACBA420005D0A1
:10089000C0F3C7525242914201DC0020704700EB86
:1008A000C15070472DE9FE4F804681EA0300C00F1A
:1008B0000C46009021F0004123F00045B8EB020007
:1008C000A94105D24046214690461C460B460246A9
:1008D00023F00040104347D0270DC7F30A00C3F3AD
:1008E0000A510290401A019040286BDAC3F31300BA
:1008F00040F4801B0098924620B10023D2EB030AFB
:1009000063EB0B0B01985946C0F14002504600F0D2
:1009100014FA06460D4650465946019A00F01CFA54
:1009200010EB08006141002487EA115284EAE77362
:100930001A4340D0009A62B3019A012A4FEA075243
:1009400015DC001B61EB02014FF0004202EA075286
:10095000CDE90042001C41F5801132462B4600F0E3
:1009600087FA03B0BDE8F08F40462146F9E7001B47
:1009700061EB0201001C41F5801300185B41201857
:10098000A2F5001747EB030140EAD570B6196D4197
:1009900011E06D084FEA360645EAC0754FEA075286
:1009A000001B61EB0201001C41F5801149084FEA70
:1009B00030000019514132462B4603B0BDE8F04FDC
:1009C00000F047BA0098012240000023D0EB020259
:1009D00063EBE073009821464FEAE074B8EB000047
:1009E00061EB0401E9E783F000435BE781F000413C
:1009F00058E72DE9FE4F81EA030404F0004421F09A
:100A0000004100944FF0000B23F0004350EA010432
:100A10005ED052EA03045BD0C3F30A54C1F30A5513
:100A20002C44A4F2F3340194A0FB0254C1F313014B
:100A300041F48011C3F3130343F4801301FB024418
:100A400000FB034E840A970A44EA815447EA83571D
:100A5000A4FB076802958D0A05FB07854FEA932CD6
:100A600004FB0C542705029D4FEA065847EA163747
:100A7000B5EB08056EEB070C870E920E47EA81175F
:100A800042EA8312A7FB0201B6EB0B0164EB000400
:100A90002B0D43EA0C335E1844EB1C50DA465146EA
:100AA000E7FB0201C5F313044FEA0B3343EA145387
:100AB0004FEA0432019C43EA0603A4F10C040294B9
:100AC000009CCDE900B400F0D3F903B0BDE8F08F8D
:100AD00000200146F9E72DE9F04D81EA030404F016
:100AE000004B21F0004514464FF0000A23F000416E
:100AF00050EA050220D054EA01021DD0C5F30A577E
:100B00000246C5F31303C1F31300C1F30A5640F4C0
:100B1000801543F48013A7EB0608101BD64608F295
:100B2000FD3873EB050002D308F1010801E09218CB
:100B30005B41B8F1000F03DA00200146BDE8F08DFB
:100B400000204FF48011064684460EE0171B73EB1D
:100B5000050705D3121B63EB050306434CEA010CA2
:100B600049084FEA300092185B4150EA0107EDD185
:100B700052EA030012D082EA040083EA0501084326
:100B800005D0101BAB4106D20122002306E0002253
:100B90004FF0004302E06FF0010253101AEB060021
:100BA0004CEB085110EB0A0041EB0B01BDE8F04D96
:100BB00000F04FB970B521F0004303430CD0C1F3EE
:100BC0000A550024D5EB040564EB0403D617AD1ACF
:100BD000B34102DB0020014670BD201841EB0251F9
:100BE00070BDC10F80EAE0700844CA079623002157
:100BF00000F001B996230022114600F0FCB820F065
:100C00000040C10DC0F3160040F400007F2901DA56
:100C100000207047962903DCC1F19601C840704757
:100C200096398840704700F0004230F000400AD00A
:100C3000C10D01F56071C0F3160042EA0151C2080E
:100C400040071143704700200146704701F0004300
:100C500030B421F0004150EA010206D00A0DA2F59D
:100C60006072C1F31301002A02DC30BC002070471F
:100C7000440F44EAC104C100E01830BC00EBC2508C
:100C800000F0B0B8002801DBC0F10040002901DB12
:100C9000C1F1004181427047002801DBC0F10040F2
:100CA000002901DBC1F100418842704730B50B4695
:100CB000014600202022012409E021FA02F59D428C
:100CC00005D303FA02F5491B04FA02F52844151E60
:100CD000A2F10102F1DC30BD2DE9F05F05460020F4
:100CE00092469B4688460646814640241BE028469D
:100CF000414647462246FFF783FA53465A46C01AF2
:100D0000914110D311461846224600F016F82D1ACC
:100D100067EB01084F4622460120002100F00DF844
:100D200017EB00094E41201EA4F10104DFDC484608
:100D300031462A464346BDE8F09F202A04DB203A8C
:100D400000FA02F1002070479140C2F1200320FA1E
:100D500003F3194390407047202A06DBCB17203A53
:100D600041FA02F043EAE07306E041FA02F3D040B0
:100D7000C2F12002914008431946704702681144AD
:100D80001378016018467047D160044951610449E5
:100D9000116200211161114600F00CB97D0D0008AF
:100DA000A90F0008426842B1016811F8013B23B164
:100DB000521EC0E90012184670470121C160881E0A
:100DC000704742685AB1C368016843B983688B426F
:100DD00005D0491E521CC0E90012002070474FF098
:100DE000FF3070470029A8BF7047401C490008BF6A
:100DF00020F00100704710B4B0FA80FC00FA0CF04B
:100E000050EA010404BF10BC704749B1CCF1200482
:100E100021FA04F411FA0CF118BF0121214308430F
:100E2000A3EB0C01CB1D4FEA00614FEA102042BF3B
:100E3000002010BC704700EBC35010440029A4BF31
:100E400010BC7047401C490008BF20F0010010BCD6
:100E5000704710B5141E73F1000408DA401C41F10C
:100E6000000192185B411A4301D120F0010010BD2E
:100E70002DE9F04D92469B4611B1B1FA81F202E0A4
:100E8000B0FA80F220329046FFF757FF04460F4633
:100E900040EA0A0041EA0B0153465A46084313D080
:100EA000114653EA010019D0C8F140025046FFF73D
:100EB000A7F905460E46504659464246FFF73DFF04
:100EC000084305D0012004E020463946BDE8F08DF6
:100ED0000020054346EAE0762C4337430A98630531
:100EE000E40AA0EB08000022FD0A44EA47540A3055
:100EF00002D500200146E9E7010510196941DDE945
:100F0000084500196941BDE8F04DA2E70EB540F271
:100F1000334202920022CDE900221346FFF7A8FFD8
:100F200003B000BDC1F30A52C1F3130140F2FF3315
:100F300041F480119A4202DA00200146704740F2E3
:100F400033439A42A2F2334202DC5242FFF758B9CD
:100F5000FFF7F3BE30B5041E71F1000404DB4FF05F
:100F60000044404264EB0101141E73F1000405DBF0
:100F70001C464FF00043524263EB0403994208BF02
:100F8000904230BD064C074D06E0E06840F001039A
:100F900094E8070098471034AC42F6D3FFF7CCF83A
:100FA000E4790008047A0008C0B24FF4F05100F070
:100FB00097B900002DE9F34F8BB04FF0000801F115
:100FC0000C000C464FF0010B46460DF1080A01904B
:100FD0006269012101989047051E2DD0252D2CD046
:100FE000216A8847C0B16269012101989047216A4E
:100FF00088470028F7D1411E62690198904700E0B8
:10100000761CA1690B988847216A88470028F7D188
:10101000E1690B988847DBE7A1690B988847074689
:10102000A84201D1761CD3E7E1690B9888477F1C61
:1010300002D1B8F1000F6FD046E1002762693D464A
:101040003946019890472A2804D162690121019804
:1010500090470125DFF88492626901210198904749
:10106000A0F130010A290AD24F45E5DC07EB8701E0
:1010700000EB4107303FDFD445F01005ECE7E9060F
:1010800001D46FF000476C280AD04C2814D068288F
:1010900015D06A280DD074281CD07A281AD01DE0EB
:1010A00062690121019890476C2802D045F004053F
:1010B00014E045F002050DE045F020050AE0626904
:1010C000012101989047682802D045F0080505E005
:1010D00045F400656269012101989047C4E9015710
:1010E00065283DD019DC58287AD00CDC452837D04B
:1010F00004DC252826D0412831D131E046282FD0E4
:1011000047282CD12CE05B2877D0612828D0632891
:101110007CD0642823D15AE0D0E06F2848D008DC86
:1011200066281DD067281BD0692821D06E2816D1CB
:1011300027E0702845D0732868D0752847D07828D4
:101140000DD14DE0A1690B988847054625283FF44D
:1011500069AFE1690B9888476D1C3FF46AAFB3E053
:1011600023466A466FF001000B99FFF7ABF99EE04A
:1011700045F040006060A80723464FF0000236D4D7
:101180003EE0E8077FF447AF2068011D216000685A
:10119000290501D506701BE7290701D5068017E749
:1011A000A90703D5F117C0E9006111E706600FE751
:1011B00045F040006060A80723464FF0080216D4AF
:1011C0001EE040F60E0125EA0100606016E045F0E1
:1011D00040006060A80723464FF00A0207D40FE0E2
:1011E00045F040006060A80708D5234610226FF044
:1011F00001000B99AFF3008059E007E0234610226D
:101200006FF001000B99AFF3008050E04FF0000940
:101210004F464B46632802D05B2806D040E0E806E4
:1012200001D40120A06001273AE062690121019800
:1012300090475E2805D14FF001096269494601983F
:101240009047216939B900210A46534643F82120C5
:10125000491C0829FADBB0B3216969B9C11700EB51
:10126000D16253110AEB830122F01F02821A01207E
:101270000B68904003430B6062690121019890471D
:101280005D28E8D1B9F1000F09D00020514651F88E
:101290002020D24341F82020401C0828F7DB02AB75
:1012A000224600976FF001000B99FFF707F800281E
:1012B0000CDA401C08D1BBF1000F05D04FF0FF3015
:1012C0000DB0BDE8F08FFFE74046F9E7E90701D12F
:1012D00008F1010806444FF0000B79E6CCCCCC0CA9
:1012E0007F2801D9002208E0064A02EB5002C0071D
:1012F000127800D1120902F00F020120904008403C
:10130000704700000A790008FEE700002DE9F05F51
:1013100080462248816122488168204802F086FF89
:1013200004461E48443002F049FFFFF77CFC1D4A8A
:101330001D4BFFF75EFB894606464F462046FFF7EA
:1013400072FC4FF03332194BFFF753FB8B460546C7
:101350005C464046FFF767FC8A46804623462A469D
:10136000FFF741FB3B463246FFF73DFBFFF76EFCC4
:10137000074634464E462A465B4640465146FFF7EE
:1013800091FA22463346FFF78DFAFFF75FFC0146DC
:10139000384602F0F7FC0020BDE8F09F142500203D
:1013A0003C0100209A9999999999D93F3333E33FA9
:1013B0002DE9F04180462548254D0E46C0F80C80A9
:1013C0002C69174621464046FFF7EAF92149A0F566
:1013D00000028A4203D300F1FF40884208D800216E
:1013E000084602F077FC02F063FE0120BDE8F081C0
:1013F0002146164802F0B8FE14490446CC31134881
:101400008F61CC30A96802F011FF074686F00045D5
:1014100018F1FF4F06D231462046FFF73DFC07D2B8
:10142000344605E028462146FFF736FC00D22C461C
:1014300039462046FFF762F9054639462046FFF750
:10144000AFF9294602F09EFC0020CFE74824002097
:101450003C0100209A99193E2DE9F05F424801684D
:10146000486A00244C624EF66025A84202DDA0F5D1
:101470007F40FF38FFF7B5FBDFF8F0A05146FFF7DC
:10148000C7F9FFF7D0FBDFF8E8B03A4B5A46FFF751
:10149000B0FADFF8E48000224346FFF7AAFAFFF72C
:1014A000D5FB364F064631463868FFF727F98146A7
:1014B00038603046FFF7B7FB314A324BFFF70BFB82
:1014C000FFF7C4FB064678602F480168486A4C6203
:1014D000A84202DDA0F57F40FF38FFF782FB5146AE
:1014E000FFF796F9FFF79FFB5A46224BFFF781FA69
:1014F00000224346FFF77DFAFFF7A8FB1F4C074683
:10150000083439462068FFF7F9F805462060384668
:10151000FFF789FB1A4A1B4BFFF7DDFAFFF796FB33
:1015200031466060FFF7EAF84FF0FF363146FFF7CB
:10153000ADF9164C0746294660604846FFF7DEF8CD
:101540003146FFF7A3F920613846FFF76CFB3246BE
:10155000FFF730FB00224346FFF7BDFAFFF776FBAB
:101560002060BDE8F09F0000500100200000AF4463
:101570004AD8124DFB21094000001A40E00000202B
:101580007B14AE47E17AA43F980100203C01002083
:1015900010B50021084602F0F5FB0448406810F041
:1015A000FF4F01D0002010BD012010BDE000002041
:1015B0002DE9F041274E1F461546B061304602F036
:1015C00035FE0446FFF72FFB234AC2E90001706A8B
:1015D000224EB04202D22249884204DB214900F166
:1015E000FF40884208D80021084602F073FB02F051
:1015F0005FFD0120BDE8F0814FF40008444505DBA4
:1016000029462046FFF748FB00D22C4685F00045CE
:10161000B44205D328462146FFF73EFB00D22C46B4
:10162000444505DB39462046FFF72CFB00D23C46FB
:1016300087F00045B44205D328462146FFF722FB38
:1016400000D22C4684F00040214602F09BFB002093
:10165000D0E7000014250020F0000020000080806A
:101660009A99993E9A99193E10B5034CE168FFF793
:1016700045F8E06010BD00003C0100200349002057
:10168000086008310860024908617047E0000020E6
:101690003C010020024800210170C1708170704738
:1016A00018000020014800F03FBA0000D4030020D9
:1016B000014800F039BA000018040020014800F089
:1016C00033BA00005C040020014800F02DBA00008D
:1016D0009003002030B590F840500124AC40C56B19
:1016E0006C60046863604368102B036803D09960E2
:1016F0000068C26030BD9A600068C16030BD70474C
:10170000064908B50968064AC908B1FBF2F1414328
:10171000009100BF491E0091FBD208BD5800002077
:1017200040420F0010B54FF4804000F0A3FBBDE82D
:1017300010404FF4004000F09DBB72B6FEE7000081
:1017400098B04422564902A8FEF76AFD554CDFF8CE
:101750005C910027DFF850B1E51E09F1200A01264F
:1017600004F11108207830B1432202A9504801F059
:10177000A3FF27700DE06421E86A05F007FD01284A
:101780000ED0A07828B1432202A9494801F094FF65
:10179000A7706421286B05F0F9FC012802D07BE0DA
:1017A0006770F6E717A8009013AB16AA41A144484A
:1017B000FEF768FD43A116A8FEF756FD60B9A878AC
:1017C000012809D01399C9F80010DAF80810C9F8EF
:1017D0000C1088F800605FE03BA116A8FEF744FDFE
:1017E000A8BBA878012833D017981490C9F8040032
:1017F000DAF8081013981590FEF780FF5946C9F8DB
:101800000C00584506DDFEF7CBFF5946FEF7C8FF32
:10181000C9F80C002D4AD9F80C00904207D9594656
:10182000FEF76CFF5946FEF769FFC9F80C001598E2
:10183000FFF7F9F9CDE900011498FFF7F4F9024632
:101840000B4623A003F040FB88F8026024E0FFE78A
:101850002DA116A8FEF708FD78B9A87801280CD0AC
:10186000DAF80810C9F80C101399C9F81010179974
:10187000C9F8041088F803600EE024A116A8FEF74A
:10188000F3FC30B9A878012803D088F8016020A0C3
:1018900000E024A003F018FB642005F00FF861E7D6
:1018A0004C79000807000020000034431C01002090
:1018B00048030020255B5E7C5D7C25667C256600F8
:1018C000100100203100000032000000000034C38D
:1018D000474554204F5246455220212121212121A4
:1018E000212020205455524E2056414C203A20258C
:1018F00066202054415247455420534954413A20D0
:101900002025660D0A0000003300000034000000AE
:101910004745545F4F524445525F53544F500D0A50
:1019200000000000554E20444F4E4520210D0A0076
:101930002DE9F0470546804681460860501E17464F
:101940000E46C4B21FE000BF56F824002946FFF738
:10195000A3F902D256F8245007E056F82400414675
:10196000FFF790F901D256F8248056F82410484623
:10197000FEF7C4FE814606EB840050F8040C46F8DE
:101980002400641EE4B2002CDED1BF1EFCB2294646
:101990004846FEF705FF4146FEF702FF0546204692
:1019A000FFF728F901462846BDE8F047FEF730BFAB
:1019B00010B590F821100022022905D0042181637E
:1019C00080F82020012010BD01680B6823F00E0371
:1019D0000B6001680B6823F001030B6090F8403046
:1019E000C46B012101FA03F3636080F8211080F8D1
:1019F0002020104610BD00002DE9F05F90F8211066
:101A00000024022903D004218163012485E00168B8
:101A10000A6822F00E020A6001680A6822F00102D8
:101A20000A603F4E3E4FB215DFF8F4C0DFF8F09089
:101A3000DFF8ECA0DFF8E8B0DFF8E4E00168783F19
:101A400013011502ACF1640CA9F15009AAF13C0A8A
:101A5000ABF1280BAEF1140E4FF48018B14227D928
:101A6000B9420ED0614512D049451DD0514518D01C
:101A7000594518D0714501D1424615E0294EB14271
:101A800001D1012210E0274E1436B14201D11022BB
:101A90000AE0244E2836B14206D0224A3C32914216
:101AA00001D11A4600E02A461E49091F0A602BE0B0
:101AB000B94213D0614517D0494522D051451DD0B8
:101AC00059451DD0714501D142461AE0B14202D1BB
:101AD0004FF0807215E0134EB14201D1012210E0A7
:101AE000104E1436B14201D110220AE00D4E2836B4
:101AF000B14206D00B4A3C32914201D11A4600E075
:101B00002A46074980394A60012180F821100021C6
:101B100080F82010416B01B188472046BDE8F09F56
:101B200080000240080402402DE9F05FC16B0A68A2
:101B300001680B68046C4FF0040808FA04F8844D3F
:101B4000844E854FDFF814C2DFF81492DFF814A238
:101B5000DFF814B2DFF814E218EA020F65D05FEA8A
:101B6000437862D50A68920603D40A6822F0040218
:101B70000A60DFF8F0814FF48062016808F1140810
:101B800013011402414524D9A9420DD0B1420FD00E
:101B9000B9421AD0614515D0494515D0514501D1FA
:101BA000120312E0594501D104220EE0714501D122
:101BB00040220AE06D4D1435A94206D06B4A283206
:101BC000914201D11A4600E022466749091F0A6086
:101BD00029E0A94213D0B14215D0B94220D06145C5
:101BE0001BD049451BD0514502D14FF4800217E06C
:101BF000414502D14FF0806212E0594501D10422E3
:101C00000EE0714501D140220AE0584D1435A94239
:101C100006D0564A2832914201D11A4600E02246A7
:101C20004B4908394A60C16A71E04FF0020808FA6E
:101C300004F818EA020F70D05FEA83786DD50A685D
:101C4000920606D40A6822F00A020A60012180F88E
:101C50002110DFF810814FF40072016808F11408B8
:101C600013011402414524D9A9420DD0B1420FD02D
:101C7000B9421AD0614515D0494515D0514501D119
:101C8000120312E0594501D102220EE0714501D143
:101C900020220AE0354D1435A94206D0334A2832B5
:101CA000914201D11A4600E022462F49091F0A60DD
:101CB00029E0A94213D0B14215D0B94220D06145E4
:101CC0001BD049451BD0514502D14FF4001217E0FB
:101CD000414502D14FF0007212E0594501D1022274
:101CE0000EE0714501D120220AE0204D1435A942B1
:101CF00006D01E4A2832914201D11A4600E02246FF
:101D0000134908394A60002180F82010816A0029AF
:101D10001CD0BDE8F05F0847FFE70825A540154245
:101D200014D01A0712D50A6822F00E020A6090F841
:101D30004020C36B012101FA02F25A60816380F8EE
:101D40002110002180F82010016BE0E7BDE8F09F32
:101D5000080002401C0002403000024044000240E3
:101D6000580002406C000240080402401C0402407B
:101D700030B560B11A4B026814219A4209D2194B4E
:101D80001344B3FBF1F18900016417490AE0012013
:101D900030BD134B5B421344B3FBF1F18900016486
:101DA0000F490839C163022180F82110136843F6F6
:101DB000F0718B43F0E901142143D0E902452C4333
:101DC0002143046921434469214384692143194320
:101DD000116000214163012242770177084630BD3E
:101DE00008040240F8FFFDBF0000024070B5044641
:101DF00090F82000002501280CD0012084F8200054
:101E000094F821600020012E06D084F820000225DD
:101E1000284670BD022070BD022684F82160A063B0
:101E20002068066826F0010606602046FFF752FC8F
:101E3000E06A00282068016802D041F00E0106E047
:101E400021F0040101602068016841F00A0101608D
:101E50002068016841F001010160D9E7B0F5004F49
:101E600002D0B0F5804F02D101490120487070477F
:101E700018000020044910B50A68024202D0086028
:101E8000FFF7ECFF10BD0000140401402DE9F84FEE
:101E9000DFF8C8910024A9F1040B23460F2709F1AC
:101EA000040AABF1040ED1E00125A54006EA0502C3
:101EB000AA4276D1DFF8A8C14E68A6EB0C086645A9
:101EC0002BD00DDC032E34D005DC36B3012E19D017
:101ED000022E2FD11BE0112E16D0122E2AD119E07E
:101EE000B8F5881F19D006DCB8F5803F15D0B8F5D5
:101EF000801F1FD111E0B8F5001F0ED0B8F5041FE8
:101F000018D10AE0CB6815E0CB681B1D12E0CB6846
:101F100008330FE0CB680C330CE08B682BB1012B3E
:101F20004FF0080303D0456104E0042302E005619B
:101F300000E00023FF2A01D8064601E000F1040674
:101F40004FEA840501D9A5F12005D6F8008007FAEB
:101F500005FC28EA0C0803FA05F548EA0508C6F866
:101F600000804D68ED0070D53E4DAE6946F001062B
:101F7000AE61AD6924F0030605F0010500953A4D08
:101F800006EB050CDCF80850A607360F07FA06F832
:101F900025EA0805DFF8D480404503D14FF000085A
:101FA00025E052E0DFF8C880404502D14FF001083B
:101FB0001DE0DFF8C080404502D14FF0020816E076
:101FC000DFF8B480404502D14FF003080FE0DFF89E
:101FD000AC80404502D14FF0040808E0DFF8A08053
:101FE000404502D14FF0050801E04FF0060808FA1D
:101FF00006F848EA0508CCF808804D68D9F8006072
:10200000ED024D4601D5164300E096432E604D6823
:10201000DAF80060AD02554601D5164300E096435C
:102020002E604D68DBF80060AD035D4601D51643B8
:1020300000E096432E604D68DEF80060ED037546C3
:1020400001D5164300E096432E60641C0A681646CC
:10205000E2407FF429AFBDE8F88F0000080401409A
:102060000000111000100240000001400008014073
:10207000000C014000100140001401400018014014
:10208000001C01408068084000D001207047C268F1
:1020900021EA02030A4043EA0241016170470AB1A2
:1020A000016170470904FBE7014880687047000040
:1020B0004C0000200248816802781144816070471A
:1020C0004C000020074810B5016841F01001016084
:1020D000032000F0A7F80F2000F006F800F050F8F9
:1020E000002010BD0020024030B505461F4887B0D3
:1020F000C16941F02001C161C06906A900F020005A
:10210000009001A800F036F90498B0B100F052F93F
:1021100040001749174AB0FBF1F11748491E026009
:10212000416040F2E7320021C0E903218160816112
:1021300000F080FB040003D015E000F03BF9E8E775
:102140000D4800F0B9FB04000DD1372000F03CF839
:10215000102D07D200222946372000F043F8074807
:10216000056000E0012407B0204630BD00100240A9
:1021700040420F0000140040A00400205000002046
:102180000F4808B5816941F001018161816901F061
:1021900001010091C16941F08051C161C069002213
:1021A00000F0805000900F21901E00F01BF80548B1
:1021B000416821F0E06141F00071416008BD00001C
:1021C0000010024000000140002809DB00F01F025F
:1021D000012191404009800000F1E020C0F8001189
:1021E00070470000F0B40E4B1B680C46C3F302238B
:1021F000C3F10705042D00D90425191D072901D2B3
:10220000002300E0DB1E012606FA05F1491E2140ED
:1022100099409E40761E16403143F0BC02F064BEE9
:102220000CED00E0064900F0070208684FF6FF03D6
:10223000184040EA0220034A10430860704700003B
:102240000CED00E00000FA052DE9F0470F4605000F
:1022500061D0434E306800F00700B84209D23068C0
:1022600020F0070038433060306800F00700B842C3
:1022700051D128683B4C810712D5400703D56068CF
:1022800040F4E06060602878000703D5606840F49F
:10229000605060606068A96820F0F00008436060EA
:1022A0002878C00728D06868012810D02168022843
:1022B00010D0890700292EDA616821F0030101435B
:1022C0006160FFF7F1FE804641F288390DE0216838
:1022D0008903EFE78901EDE7FFF7E6FEA0EB0801D0
:1022E000494502D90320BDE8F0876068696800F0BD
:1022F0000C00B0EB810FEFD1306800F00700B8425E
:102300000BD9306820F0070038433060306800F0A7
:102310000700B84201D00120E5E72878400705D53D
:102320006068E96820F4E06008436060287800078E
:1023300006D56068296920F4605040EAC1006060F9
:1023400000F058F86168084AC1F30311515CC840B5
:102350000649086006480068FFF7C6FE0020C2E78D
:102360000020024000100240F278000858000020CF
:10237000500000200F2202600C4A536803F0030350
:102380004360536803F0F0038360536803F4E06331
:10239000C36052684FF4E06303EAD202026104486A
:1023A000006800F00700086070470000001002405D
:1023B000002002400448054900684968044AC1F306
:1023C0000221515CC84070475800002000100240B4
:1023D000027900080448054900684968044AC1F3C5
:1023E000C221515CC84070475800002000100240D4
:1023F000027900080E4A51680E4801F00C03042BC4
:1024000011D0082B0FD10C48C1F38343C903C05C22
:102410000AD55168084AC1F34041921E515C054AF1
:102420005043B0FBF1F07047044948437047000047
:102430000010024000127A00E278000800093D0016
:102440002DE9F84F040070D02078C04DC00749D066
:102450006868C0F38100012807D06868C0F3810074
:10246000022809D16868C00306D52868800339D5D9
:1024700060680028E7D035E06068B0F5803F0BD099
:1024800010B1B0F5A02F11D0286820F4803028605A
:10249000286820F4802002E0286840F4803028601A
:1024A000606890B1FFF700FE06460AE0286840F435
:1024B00080202860F0E700BFFFF7F6FD801B64284E
:1024C00073D828688003F7D50CE0FFF7EDFD0646CA
:1024D00005E000BFFFF7E8FD801B6428F0D82868FE
:1024E0008003F7D420789A4E80074FF001094FF00F
:1024F000000839D5686810F00C0F07D06868C0F381
:102500008100022809D16868C00306D428688007C2
:1025100014D52069012808D110E02069B0B1C6F8AF
:102520000090FFF7C1FD074605E00AE1FFF7BCFD9B
:10253000C01B0228C4D828688007F7D528686169BD
:1025400020F0F80040EAC10028600DE0C6F80080E5
:10255000FFF7AAFD074604E0FFF7A6FDC01B02280F
:1025600023D828688007F7D4207800072CD579482D
:10257000A169D9B1C0F80090FFF796FD074604E0C5
:10258000FFF792FDC01B02280FD8686A8007F7D5B5
:1025900071484FF4FA510068B0FBF1F0009000BFB1
:1025A0000098411E0091FAD20EE080E0C0F8008051
:1025B000FFF77AFD074604E0FFF776FDC01B02280F
:1025C00075D8686A8007F7D42078400760D5E86935
:1025D0000027C00008D4E86940F08050E861E8694D
:1025E000012700F0805000905C480168C90513D4B1
:1025F0000168834641F480710160FFF755FD824612
:1026000006E000BFFFF750FDA0EB0A0064284ED89B
:10261000DBF80000C005F5D5E06801280AD008B154
:10262000052813D0286A20F001002862286A20F0CB
:10263000040002E0286A40F001002862E06841F2EC
:10264000883B98B1FFF730FD82460BE0286A40F0E6
:1026500004002862EEE700BFFFF726FDA0EB0A01A9
:1026600059455AD8286A8007F6D50CE0FFF71CFDBB
:10267000824605E0FFF718FDA0EB0A0159454CD84A
:10268000286A8007F6D41FB1E86920F08050E8611D
:10269000E06988B36968C1F38101022944D0022846
:1026A000C6F8608004D0FFF7FFFC044638E034E051
:1026B000FFF7FAFC074604E0FFF7F6FCC01B022810
:1026C0002BD828688001F7D4206AB0F5803F05D167
:1026D0006868A16820F4003008436860D4E9080104
:1026E0000843696821F4741108436860C6F8609073
:1026F000FFF7DAFC044606E025E000BFFFF7D4FC54
:10270000001B022809D828688001F7D51BE000BF0C
:10271000FFF7CAFC001B022802D90320BDE8F88F8E
:1027200028688001F4D40EE00128F7D06868226A96
:1027300000F48031914204D1616A00F47010884243
:1027400001D00120EAE70020E8E700000010024085
:1027500000004242800442425800002000700040C5
:102760007047704710B590F83C20012A22D0012212
:1027700080F83C20CA688C6822F4407222434C687E
:1027800022F4806222430C6822F4006222430C6926
:1027900022F4805222434C6922F400522243C96938
:1027A000002322F480420A4301684A6480F83C30E6
:1027B000002010BD022010BD70B590F83C20012A09
:1027C0002CD0012480F83C40022280F83D20036890
:1027D0005A689D6822F070060A6832435A60104BAE
:1027E00002689A420ED00F4B9A420BD0B2F1804F42
:1027F00008D00D4B9A4205D00C4B9A4202D00C4B9C
:102800009A4204D1496825F080031943916080F809
:102810003D40002180F83C10084670BD022070BD8C
:10282000002C01400034014000040040000800403A
:10283000000C004010B5040003D094F83D0010B126
:1028400007E0012010BD002084F83C00204600F085
:102850001FF8022084F83D00211D206801F012FEBF
:10286000012084F8460084F83E0084F83F0084F894
:10287000400084F8410084F8420084F8430084F862
:10288000440084F8450084F83D00002010BD00009D
:1028900008B500680649884208D10648C16941F078
:1028A0000201C161C06900F00200009008BD000093
:1028B000000400400010024090F83D10012901D0B2
:1028C00001207047022180F83D100168CA6842F07B
:1028D0000102CA6000680E4988420ED00D49884244
:1028E0000BD0B0F1804F08D00B49884205D00B497E
:1028F000884202D00A49884204D1816801F0070168
:10290000062903D0016841F00101016000207047F1
:10291000002C014000340140000400400008004049
:10292000000C004070B5044690F83C0000250128DA
:1029300017D0012684F83C60022084F83D0020680E
:10294000826822F0770222F47F4282600868502871
:1029500038D00DDC20284FD005DC90B3102811D1E1
:102960004AE0022070BD302846D040280AD13BE022
:1029700060282FD070280DD0B0F5805F03D0B0F55F
:10298000005F12D0012584F83D60002084F83C00EF
:10299000284670BDCB68D1E90121206801F0CDFD4A
:1029A0002068816841F0770109E0CB68D1E9012115
:1029B000206801F0C2FD2068816841F48041816097
:1029C000E1E719E0CA684968206801F08BFE5021F0
:1029D000206806E0CA684968206801F094FE60211A
:1029E000206801F0B4FDCEE7CA684968206801F0AC
:1029F00079FE40212068F4E7226801461046F0E79E
:102A00002DE9F0410D46040003D094F83D0018B1C3
:102A100008E00120BDE8F081002084F83C00204659
:102A200000F040F8022084F83D002068816844F2FC
:102A3000070291438160211D206801F023FD226877
:102A400090689169166A2B68AF69034340F20330BE
:102A5000814341EA0721A868EF6908434FF6FC412A
:102A60008843E96840EA0720014328692F6A00018A
:102A700040EA0730084369686D6926F0220646EA95
:102A80000515294393602268906154F8460B016252
:102A9000012004F81F09E0752076E0762077A07504
:102AA0000020B7E700B585B00021009101910291A7
:102AB0000391194B0268194919489A4212D18A693F
:102AC00042F400628A618A6902F4006204928A69AF
:102AD00042F004028A61896901F0040104914FF413
:102AE000407113E0B2F1804F14D1CA6942F0010283
:102AF000CA61CA6902F0010204928A6942F00402C2
:102B00008A61896901F004010491032100916946F9
:102B1000FFF7BCF905B000BD002C014000100240D9
:102B20000008014070B590F83E60044690F83F50B0
:102B300090F8423090F84320022021B104290ED0B1
:102B4000012E1BD114E0012E18D1012B16D184F8CF
:102B50003E0084F8420001220021206820E0012D7F
:102B60000CD1012A0AD184F83F0084F8430014E014
:102B7000012D03D1012B01D1012A01D0012070BD0B
:102B800084F83E0084F83F0084F8420084F8430053
:102B900001220021206801F0C3FC012204212068E9
:102BA00001F0BEFC2068016841F0010101600020D5
:102BB00070BD70472DE9F04104460068C66805699C
:102BC0004FF00007A90713D5B10711D5F91E016110
:102BD00001202077206880698007204602D0FFF717
:102BE000E8FF04E000F0CCF8204600F071F9277708
:102BF000680716D5700714D521686FF004000861C6
:102C0000022020772068806910F4407F204602D09F
:102C1000FFF7CFFF04E000F0B3F8204600F058F9CA
:102C20002777280715D5300713D521686FF00800DE
:102C30000861042020772068C0698007204602D000
:102C4000FFF7B7FF04E000F09BF8204600F040F9E2
:102C50002777E80616D5F00614D521686FF0100026
:102C60000861082020772068C06910F4407F204662
:102C700002D0FFF79EFF04E000F082F8204600F04B
:102C800027F92777E80708D0F00706D021686FF00A
:102C900001000861204600F077F9280608D53006C3
:102CA00006D521686FF0800008612046FFF758FDC7
:102CB000680608D5700606D521686FF040000861E7
:102CC000204600F06BF9A8060AD5B00608D52168A1
:102CD0006FF0200008612046BDE8F041FFF741BDDC
:102CE000BDE8F08130B585B00021009101910291DD
:102CF00003911D4A01681D48022591421ED1816938
:102D000041F004018161816901F00401049181694C
:102D100041F0080181618069032400F008000490FB
:102D2000C020CDE90005694603941148FFF7AEF8CD
:102D3000CDE9004569460F48039411E00E4A9142DF
:102D400010D1816941F0100181618069694600F00C
:102D5000100004904FF41070CDE90005074803956A
:102D6000FFF794F805B030BD0004004000100240A9
:102D700000080140000C01400034014000100140F7
:102D8000704770B5044690F83C0000260D460128B7
:102D90000FD0012084F83C006AB1042A1DD0082A13
:102DA0002FD00C2A3FD00126002084F83C0030466A
:102DB00070BD022070BD206801F0D2FB20688169DF
:102DC00041F0080181612068816921F0040181617D
:102DD000206881692A69114311E0206801F0F0FB45
:102DE0002068816941F4006181612068816921F472
:102DF00080618161206881692A6941EA02218161DB
:102E0000D2E7206801F012FC2068C16941F0080196
:102E1000C1612068C16921F00401C1612068C169F4
:102E20002A69114311E0206801F034FC2068C1696F
:102E300041F40061C1612068C16921F48061C16110
:102E40002068C1692A6941EA0221C161ACE710B575
:102E5000040003D094F83D0010B107E0012010BD3C
:102E6000002084F83C00204600F01EF8022084F880
:102E70003D00211D206801F005FB012084F846007B
:102E800084F83E0084F83F0084F8400084F8410054
:102E900084F8420084F8430084F8440084F8450034
:102EA00084F83D00002010BD08B50068064988423E
:102EB00008D10648816941F400518161806900F4BC
:102EC0000050009008BD0000003401400010024096
:102ED0007047000010B50446022249B104290ED003
:102EE000082913D094F84100012816D0012010BD04
:102EF00094F83E000128F9D184F83E200FE094F8C0
:102F00003F000128F2D184F83F2008E094F8400007
:102F10000128EBD184F8402001E084F8412001220F
:102F2000206801F0FDFA13492068134A884201D055
:102F3000904203D1436C43F40043436420688842C9
:102F40000DD090420BD0B0F1804F08D00B49884291
:102F500005D00B49884202D00A49884204D18168D1
:102F600001F00701062903D0016841F00101016069
:102F7000002010BD002C014000340140000400403E
:102F800000080040000C004000680349884201D15D
:102F9000FFF790B87047000000140040704738B544
:102FA000044690F84200202801D0022038BD51B1DB
:102FB0004AB10120206300206063204601F05AFDE1
:102FC000216B012901D0012038BD21680A684968B8
:102FD000009121680C3151E8002F42F0100241E8C5
:102FE0000023002BF5D138BD2DE9F04105461E48E0
:102FF0001E4F1F4C4FF08056854216D114221D499A
:10300000FFF7CDFF1C480068016821F00401016052
:10301000E06A50B104F10C0103F0CDFFE06820B18B
:103020003E60BFF34F8FBFF36F8F1448854218D1B6
:103030000A221349FFF7B3FF12480068016821F024
:1030400004010160206B00280BD00949103103F006
:10305000B2FF2069002804D03E60BFF34F8FBFF35A
:103060006F8FBDE8F08100000003002004ED00E058
:1030700004000020FC000020D403002048030020AE
:10308000100100201804002070470000F8B5016806
:1030900004460868CA684B6910F00F0F4FF000052E
:1030A00059D003F0010602F49077374365D0C10789
:1030B00005D0D10503D5616C41F001016164410780
:1030C00005D5D90703D0616C41F002016164810725
:1030D00005D5D90703D0616C41F004016164010793
:1030E00007D502F02001314303D0616C41F00801A3
:1030F0006164616C00293AD0800604D5900602D53F
:10310000204601F0F9FB20684069616CC0F3801033
:10311000090700D460B3204601F0B9FB206840697C
:10312000400621D52068143050E8001F21F04001EE
:1031300040E80012002AF5D1E06BA8B16D49416367
:10314000E06BFEF759FC002811D0E06B416B01B039
:10315000BDE8F040084783060FD593060DD52046FD
:10316000BDE8F84001F0C8BB2046FFF78DFFF8BD71
:103170002046FFF789FF6564F8BD266B2023012EEA
:103180007CD1C6067AD5D60678D5086848680090FE
:1031900048694FF00206400640D5E16B0868406878
:1031A0000004000CE8D0A28D8242E5D9E085886950
:1031B00020282DD020680C3050E8001F21F48071A9
:1031C00040E80012002AF5D12068143050E8001FB2
:1031D00021F0010140E80012002AF5D120681430E6
:1031E00050E8001F21F0400140E80012002AF5D10C
:1031F00084F84230256320680C3050E8001F21F02D
:10320000100140E80012002AF5D1E06BFEF7D0FB78
:103210006663A08DE18D401A81B22AE0A08DE18D18
:10322000401A81B2E08D0028A6D00029A4D02268DF
:103230000C3252E8000F20F4907042E80007002F93
:10324000F5D12068143050E8002F22F0010240E848
:103250000027002FF5D184F84230256320680C3018
:1032600050E8002F22F0100240E80023002BF5D197
:1032700066632046FFF7B8FEF8BDFFE705062BD5CD
:10328000150629D594F841002128F5D1A068B0F59C
:10329000805F01D12069B0B1206A411C21622168A0
:1032A00000784860E08C401E0004000CE084E3D10C
:1032B0002068C16821F08001C1602068C16841F0C8
:1032C0004001C160D8E7206A0088C0F30800486068
:1032D000206A801C2062E5E74006CDD55006CBD59C
:1032E000CA68204622F04002CA6084F8413000F0EB
:1032F00038FAC1E74547000870B5040004D094F8D7
:103300004100002510B106E0012070BD84F8405056
:10331000204600F023F8242084F841002068C1688A
:1033200021F40051C160204601F048FB206801698A
:1033300021F4904101612068416921F02A01416135
:103340002068C16841F40051C1606564202084F8A0
:10335000410084F842006563002070BDF0B585B07F
:10336000002500950195029503950446884ED0F8F6
:1033700000C0884802210323874A8027B44539D1F9
:10338000C66946F40026C661C66906F4002604969E
:10339000866946F0100686618069039300F010008C
:1033A00004904802CDE90001694616461046FEF732
:1033B0006DFD3801CDE90005694630460295FEF7FE
:1033C00065FD774E7548C6E90005C6E902573561C7
:1033D0007561B5613046F561FEF7CAFC08B1FEF7CC
:1033E000ACF9E66300220A2134207462FEF7FAFE8B
:1033F000342031E0DFF8ACE10426F44530D1C46973
:1034000044F48014C461C46904F48014049484698D
:1034100044F010048461846904F010040494846905
:1034200044F0200484618069039300F0200004903C
:10343000B002CDE9000169461046FEF727FDCDE94F
:103440000065694658480295FEF720FD00220A21D2
:103450003520FEF7C7FE3520FEF7B6FE05B0F0BDFD
:10346000524A944540D1826942F480428261826925
:1034700002F480420492826942F00802826180690B
:103480004B4E00F0080004904020CDE9000103936A
:1034900069463046FEF7FAFCCDE9007569463046CC
:1034A0000295FEF7F3FC4348416841F0E06141F0CA
:1034B000040141603A4E40484436C6E90005C6E979
:1034C000025735617561B5613046F561FEF750FC14
:1034D00008B1FEF732F9E663002205212520746267
:1034E000FEF780FE2520B7E7344A9445B6D1C2697D
:1034F00042F40032C261C26902F40032049282696D
:1035000042F0040282618069CDE9006100F00400AC
:10351000CDE903302A4E69463046FEF7B7FC082055
:10352000CDE90005694630460295FEF7AFFC1C4E1A
:10353000214888361430C6E90005C6E902573561CE
:103540007561B5613046F561FEF712FC08B1FEF712
:10355000F4F8E6637462124E1748CC36283001C680
:103560001020A1C60E4846F81059CC307561B561DF
:10357000F561FEF7FDFB08B1FEF7DFF8A663002258
:10358000052126207462FEF72DFE262064E7000048
:10359000004C004000100240001001403004024086
:1035A000900300200050004000140140003801400A
:1035B000000C01400000014058000240004400405F
:1035C0000008014090F84230202B01D002207047C3
:1035D00021B11AB10023036301F094BA01207047AE
:1035E00010B50068084988420DD1006880060AD4E9
:1035F0000121064802F046FABDE8104001220349C5
:103600000348FFF7DFBF10BD00500040000000205E
:10361000B802002070472DE9F843044690F84100B5
:10362000984616460D46202802D00220BDE8F883B1
:1036300085B17EB100206064212084F84100FEF74E
:1036400033FDA6848146E684A0682027B0F5805F1C
:1036500002D003E00120E9E7206910B12E460025E1
:103660000EE000260CE08021204601F066FAA8B9A1
:10367000C6B116F8010B21684860E08C401EE0845A
:10368000E08C4B464FF00002CDF800800028EAD1D4
:103690004FF04001204601F050FA40B184F84170EB
:1036A0000320C3E735F8020BC0F30800E3E784F812
:1036B00041700020BAE7000070B5044690F8410060
:1036C000202801D0022070BD49B342B32162A284F8
:1036D000E28400206064212384F84130A56B114B03
:1036E000AB62A56B104BEB62A56B104B2B63A36B0E
:1036F0005863256813462A1DA06BFEF777FB2168E7
:103700006FF0400008602068143050E8001F41F05E
:10371000800140E80012002AF5D1002070BD012090
:1037200070BD000043480008854800085547000860
:1037300090F84130202B01D00220704779B172B14E
:1037400001628284C28400214164212180F84110F9
:103750000068C16841F08001C1600020704701200D
:10376000704770477047FEE72DE9F041044641601D
:103770000068FDF715F86062A56A06460121284633
:10378000FDF784F83146FDF70EF8E16AFCF7B6FF65
:10379000A16BFDF70BF807463146606BFDF706F8A5
:1037A000804629463046FCF7FBFFE16BFCF7FEFF45
:1037B0004146FCF7A3FF3946FCF7A0FFA168FCF7E0
:1037C0009DFFA060C4E90A65BDE8F081194808B50D
:1037D000416941F002014161416901F0020100913A
:1037E000416941F0010141614069002200F001009E
:1037F000009005210F20FEF7F5FC0F20FEF7E4FCFA
:10380000002205211020FEF7EDFC1020FEF7DCFC65
:10381000002205211120FEF7E5FC1120FEF7D4FC63
:10382000002205213A20FEF7DDFCBDE808403A20E1
:10383000FEF7CABC0010024010B5194A0021012051
:1038400002F0F6F9174C164A0021E062103201200E
:1038500002F0EEF9124A2063B43A0021124802F055
:1038600033FA0F4AA061903A0021104802F02CFA76
:103870000B4AE0616C3A00210D4802F025FA084A33
:103880002062483A00210B4802F01EFA044A6062A6
:10389000243A0021084802F017FAA06210BD000087
:1038A000C078000804000020411700087D4300088C
:1038B00011430008C13D0008E5420008F0B585B09D
:1038C000002532480095019502950395816941F0E4
:1038D00020018161816901F020010491816941F039
:1038E00010018161816901F010010491816941F049
:1038F00004018161816901F004010491816941F051
:10390000080181618069224E00F0080004900022C5
:1039100006213046FEF7C3FB1E4F01224FF47161B2
:103920003846FEF7BCFB062001248DE83100022555
:10393000694630460395FEF7A9FA4FF4706000908F
:103940001120CDE901040320039069463846FEF7B3
:103950009DFA4FF4404000900F48CDE901056946BB
:103960003846FEF793FA1020CDE900046946384640
:10397000CDE90245FEF78AFA002205212820FEF74C
:1039800031FC2820FEF720FC05B0F0BD00100240FD
:1039900000100140000C01400000111010B58CB067
:1039A00024216846FCF755FC002417480994154962
:1039B0000A94C0E900144FF6FF71C0E902410461A6
:1039C000446184610320CDE9000401200521022225
:1039D000CDE90204CDE904120690CDE9074169461C
:1039E0000948FFF70DF808B1FDF7A7FE099409A9EA
:1039F00005480A94FEF7E0FE002801D0FDF79DFE81
:103A00000CB010BD002C01405001002010B58CB04E
:103A100024216846FCF71DFC0024164809944FF049
:103A200080410A94C0E900144FF6FF71C0E90241D9
:103A3000046184610320CDE90004012005210222F4
:103A4000CDE90204CDE904120690CDE907416946AB
:103A50000848FEF7D5FF08B1FDF76FFE099409A9E4
:103A600004480A94FEF7A8FE002801D0FDF765FE81
:103A70000CB010BD9801002010B58EB00024079442
:103A8000089409940A940B941C2168460C94FCF742
:103A9000E0FB2A48284901600821C0E9011440F2EE
:103AA000E731C0E903148461FEF7C4FE08B1FDF7F5
:103AB00044FE4FF48050079007A92048FEF732FFDC
:103AC00008B1FDF73AFE1D48FFF7C1F908B1FDF74F
:103AD00034FE0B940BA919480C94FEF76DFE08B147
:103AE000FDF72BFE6020CDE9000402940022694618
:103AF00012480494FFF745F908B1FDF71EFE0422B1
:103B000069460E48FFF73DF908B1FDF716FE082299
:103B100069460A48FFF735F908B1FDF70EFE0C2299
:103B200069460648FFF72DF908B1FDF706FE034880
:103B3000FFF7D8F80EB010BD00040040E0010020EF
:103B400010B592B000240F941C2168461094FCF725
:103B500080FB202107A8FCF77CFB24482249C0E910
:103B600000144FF6FF71C0E90241046144618461B1
:103B7000FFF76DF908B1FDF7E0FD0F940FA91B48A1
:103B80001094FEF719FE08B1FDF7D7FD6020CDE9CE
:103B90000004029403940494059400226946134897
:103BA0000694FFF7EEF808B1FDF7C7FD0C22694651
:103BB0000E48FFF7E6F808B1FDF7BFFD079408943B
:103BC00009944FF400500A94CDE90B4007A9074827
:103BD0000E94FEF7C7FD08B1FDF7AFFD0348FFF7F0
:103BE00081F812B010BD000000340140280200200E
:103BF0000C4810B50A4901604FF4E13141600021E1
:103C000081600C22C160C0E904128161C161FFF7CB
:103C100073FB002803D0BDE81040FDF78EBD10BD3A
:103C2000004C0040700200200C4810B50A490160A9
:103C30004FF4E1314160002181600C22C160C0E994
:103C400004128161C161FFF757FB002803D0BDE872
:103C50001040FDF772BD10BD00500040B8020020BA
:103C60000C4810B50A4901604FF41651416000211B
:103C700081600C22C160C0E904128161C161FFF75B
:103C80003BFB002803D0BDE81040FDF756BD10BD3A
:103C900000380140000300200C4810B50A490160BB
:103CA0004FF4E1314160002181600C22C160C0E924
:103CB00004128161C161FFF71FFB002803D0BDE83A
:103CC0001040FDF73ABD10BD0044004048030020FD
:103CD000FEE700002DE9F0474FF40008DFF898A058
:103CE000264EDFF89C900C4605464FF47A77404507
:103CF0000EDA30688763554500D95546494628464F
:103D0000FCF7FCFCFCF77BFF3168486345450CDBA6
:103D10003068476349468D4200DD4D462846FCF732
:103D200042FDFCF76CFF316888634546AC420EDA11
:103D300030680764544500D9544649462046FCF78C
:103D4000DDFCFCF75CFF3168C863AC4211DB306816
:103D5000C7634846844201DD4C4603E014F1FF4F3F
:103D600000D300242146FCF71BFDFCF748FF316817
:103D70000864BDE8F087000000007AC4E00100207C
:103D800000007A440B4A10B5106002F14400016053
:103D9000094841681046FFF7E7FC044607484168B8
:103DA00004484430FFF7E0FC01462046BDE81040DF
:103DB000FFF790BF8C240020E0000020E8000020E6
:103DC000002400F075F9FDF765FCFDF757FC444D44
:103DD00002E0322002F072FD687829780842F8D0BB
:103DE00040A001F071F83E4EDFF810911436012723
:103DF0004FF0020AA6F1110B4FF00008FDF72CFB63
:103E00007078E8B1AF703EA001F05EF8FDF742FCBB
:103E1000FDF734FCFDF7BCFB2044C4B2032C5BD39C
:103E2000002185F802A00846FFF754FF39A001F0F1
:103E30004BF88BF8007086F80180FDF71FFC47E017
:103E4000307878B1D9F80C10D9F80000FDF75EFA97
:103E50002044C4B2AF70032C3ED385F802A086F88C
:103E6000008031E0B078D8B12449D9F8042020315D
:103E70004FF07C538968D9F80C00FDF799FB20447A
:103E8000C4B2AF70032C27D326A001F01DF885F82B
:103E900002A086F80280D9F80C00FDF7E5FB13E0DC
:103EA000F078B8B11548D9F8041020308268D9F8F4
:103EB0001000FDF77DFA2044C4B2AF70032C0BD381
:103EC00085F802A086F80380FDF7D8FB8BF8007018
:103ED000002401E085F80280282002F0EFFC8DE745
:103EE000040000200A20414C4C5F49535F52454179
:103EF000444559202121210D0A0000001C01002009
:103F000052554E5F53544F505F4F524445520D0A25
:103F10000000000053544F50204F564552210D0AC7
:103F2000000000005455524E204F564552200D0AB5
:103F30000000000010B50A4A012802D0022803D070
:103F400008E04FF4007101E04FF400611046FEF705
:103F500099F804460420FDF7D3FB204610BD00006D
:103F6000000C014070B504460146012000F086F8BF
:103F70002146012000F06AF82046FFF7DBFF0546E6
:103F80002146002000F062F8284670BD2DE9F0417E
:103F9000074601460024012000F070F80025802625
:103FA0003946012000F052F83846FFF7C3FF0128D8
:103FB00002D126FA05F004433946002000F046F805
:103FC0006D1CEDB2082DEBD32046BDE8F0812DE944
:103FD000F04100240F460646802525FA04F03040C3
:103FE000394600F04BF83946012000F02FF83946E9
:103FF000002000F02BF8641CE4B2082CEDD3BDE8DF
:10400000F08110B504460146012000F037F8214642
:10401000012000F01BF82146002000F02FF8214677
:10402000BDE81040002000F011B810B5044601466C
:10403000002000F023F82146012000F007F8214677
:10404000BDE81040012000F019B8000010B50A4B7F
:10405000012902D0022904D009E002464FF4807100
:1040600002E002464FF480611846FEF718F8BDE8FA
:1040700010400420FDF744BB000C014010B50A4B72
:10408000012902D0022904D009E002464FF4007150
:1040900002E002464FF400611846FEF700F8BDE862
:1040A00010400420FDF72CBB000C0140FEE700008F
:1040B00010B523490020234AC8600861486148625E
:1040C0008862C1E90C02204A8A634FF04042CA6309
:1040D00044314FF08142486041F8080B1B4B41F8D6
:1040E0001C0B1B4C01C101C101C181E81D00144919
:1040F0008831486041F8080B41F81C0B01C101C12F
:1041000001C181E81D000E49124ACC318861C861A5
:10411000086248628862C862C1E90C020E4A8A637A
:104120000E4ACA6344310F4AC86008614861486258
:10413000886208630A48C1E90D02C86310BD000027
:1041400048240020000040400AD7233C0AD7A33B64
:104150000000C0406666663E99BB963A1F85EB3DFF
:10416000CDCCCC3D17B7D1382DE9F04104460161E3
:10417000C068FCF715FB054660622946206BFCF71A
:10418000BDFA206307462846A16AFCF709FBE16BEC
:10419000FCF70CFB06463946A06BFCF707FB07460D
:1041A0002946606BFCF702FB3946FCF7A7FA31465B
:1041B000FCF7A4FAA5626061BDE8F0812DE9F04149
:1041C00004461748017A407A081A2064FCF709FD72
:1041D0000646216BFCF792FA01462063A06BFCF7C0
:1041E000E5FA05460F48854202DC0F48854200D9B2
:1041F00005463046A16AFCF7D3FAE16BFCF7D6FA24
:1042000007463046616BFCF7D1FA2946FCF776FA8F
:104210003946FCF773FAA6626061BDE8F0810000E0
:104220003001002000004040000040C02DE9F04770
:104230000446C16180690D468046FCF7B1FA254FFE
:10424000254E6062B8420CD931464046FCF756FA1A
:10425000814629463046FCF7A3FA4946FCF74EFA58
:1042600060620146304681420BDD2946FCF798FA30
:10427000054641463846FCF793FA2946FCF790FA82
:104280006062616A206B0E46FCF738FA01462063D3
:10429000A06BFCF78BFA05461048854202DC1048FB
:1042A000854200D905463046A16AFCF779FAE16BF0
:1042B000FCF77CFA07463146606BFCF777FA294633
:1042C000FCF71CFA3946FCF719FAA6622062BDE831
:1042D000F0870000000034C3000034430000404079
:1042E000000040C0084E094D4FF0FF37002439460A
:1042F000F06A02F04BFF0128F9D100202C54401C39
:104300000428FBD9F3E7000004000020FC00002093
:104310000024012000F057FC022000F054FC05228C
:104320002D21134800F027FD114DDFF84880124E73
:104330000127012000F077FD2978401A2872022019
:1043400000F071FD29790A4A401A68720A48B1687A
:10435000343000F041F810214046FDF798FE641C0F
:10436000E4B2052C00D17770192002F0A7FAE0E73B
:1043700030010020000C01400400002086B0002421
:1043800001F0ECFA0A2001F031FB10490090019095
:104390000290039004900E4DDFF8388001F1200662
:1043A0000127C8600F210A4801F020FA052269465A
:1043B000A868FDF7BDFA641CE4B2B060052C01D119
:1043C00088F800701E2002F079FAEBE71C0100204B
:1043D000B42300200400002010B5137A527A13444D
:1043E0000022491E06E000BF00EB8204646840F82A
:1043F0002240521C8A42F7DB40F8213010BD10B534
:104400004FF0E020006903F00FF8012803D0BDE869
:10441000104002F0D5BB10BD30B58FB028216846E2
:10442000FBF717FF14210AA8FBF713FF012108046B
:10443000CDE900100024029402250491CDE9075033
:104440004FF4E01009906846FDF7FAFF08B172B624
:10445000FEE70F20CDE90A054FF48060CDE90C405E
:1044600002210AA80E94FDF7EFFE002801D072B6D3
:10447000FEE70FB030BD70470148FEF79BBB000060
:10448000A0040020F0B50268204C214D214E224F9F
:10449000224B4FF0804CA04209D0984207D0604593
:1044A00005D0A84203D0B04201D0B84204D122F0D6
:1044B000700E4A6842EA0E02A04209D0984207D024
:1044C000604505D0A84203D0B04201D0B84203D124
:1044D00022F44075CA682A434D6922F080022A43BB
:1044E00002608A68C2620A688262A04201D0984271
:1044F00001D109690163012141610169C90703D043
:10450000016921F001010161F0BD0000002C0140B2
:104510000004004000080040000C0040003401404E
:1045200010B501F01F030121046A99408C43046215
:10453000016A9A401143016210BD10B5846842EAD5
:10454000032224F47F440A432243826010BD826820
:1045500022F070020A4342F00701816070470000B8
:10456000F0B5036A026A22F00102026242688469BD
:10457000124E24F073050C682C4323F002058B685F
:104580002B430D4DA84201D0B04205D123F00807BE
:10459000CB683B4323F00403A84201D0B04205D1CD
:1045A0004D6922F4407215438A692A43426084614E
:1045B000496841630362F0BD002C014000340140B2
:1045C000F0B5026A036A23F010030362436884694A
:1045D0000D6824F4E64444EA05248D6822F02002A4
:1045E00042EA05120F4D104EA84201D0B04206D14A
:1045F000CF6822F0800242EA071222F04002A8426D
:1046000001D0B04207D14D6923F4406343EA8503EA
:104610008D6943EA8503436084614968816302626E
:10462000F0BD0000002C014000340140F0B5026AEA
:10463000036A23F4807303624368C46922F400723E
:1046400024F073050C68124E2C438D6842EA052253
:104650000E4DA84201D0B04206D1CF6822F40062CC
:1046600042EA072222F48062A84201D0B04207D178
:104670004D6923F4405343EA05138D6943EA05135A
:104680004360C4614968C1630262F0BD002C01400F
:104690000034014030B5046A026A22F4805202629A
:1046A0004268C3690D6823F4E64343EA05238D6835
:1046B00024F4005444EA0534084DA84202D0084DC1
:1046C000A84204D14D6922F4804242EA8512426038
:1046D000C36149680164046230BD0000002C0140E0
:1046E0000034014010B5036A046A24F00104046236
:1046F000846924F0F00444EA021423F00A020A4315
:104700008461026210BD10B5036A046A24F01004CB
:104710000462846923F0A00324F4704444EA023262
:1047200043EA01118261016210BD00000148FEF7F9
:10473000ADBC0000700200200148FEF7A7BC0000DD
:10474000B802002010B5406A0021C185C184FEF77F
:104750009BFC10BD70B5446A2068406994F8411014
:10476000C0F3C0100025212904D118B1E5842046EA
:1047700000F0B4F82068406994F84210C0F380104B
:10478000222904D118B1E585204600F080F8606C3C
:1047900040F0100060642046FEF776FC70BD10B556
:1047A0000146406A096809684FF0000289062ED464
:1047B000C28501680C3151E8003F23F4807341E861
:1047C0000034002CF5D10168143151E8003F23F08A
:1047D000010341E80034002CF5D10168143151E89F
:1047E000003F23F0400341E80034002CF5D12021A4
:1047F00080F84210016B012909D101680C3151E8A0
:10480000003F23F0100341E80034002CF5D142634F
:10481000016B012902D0FEF7E3FE10BD818DFEF78A
:10482000E3FB10BD10B5406A01214163016B012912
:1048300002D0FEF7EFFE10BD818D4908FEF7D4FBD4
:1048400010BD10B50146406A09680968890616D48A
:104850000021C1840168143151E8002F22F0800248
:1048600041E80023002BF5D101680C3151E8002FFD
:1048700042F0400241E80023002BF5D110BDFEF7C5
:1048800070FF10BD10B5406AFEF76CFF10BD0168E7
:104890000C3151E8002F22F4907241E80023002BE4
:1048A000F5D10168143151E8002F22F0010241E8EE
:1048B0000023002BF5D1016B012909D101680C31CE
:1048C00051E8002F22F0100241E80023002BF5D11F
:1048D000202180F8421000210163704701680C31EB
:1048E00051E8002F22F0C00241E80023002BF5D14F
:1048F000202180F84110704708B590F84210222915
:1049000001D0022008BD82684FF480539A4201D141
:10491000016921B1816A9A421BD04AB10AE002685A
:10492000816A5268C2F308020A80816A891C08E021
:10493000026972B10268526802F07F020A70816AED
:10494000491C8162C18D491E0904090CC18503D02F
:104950001BE002685268F1E70168CA6822F0200291
:10496000CA600168CA6822F48072CA6001684A6934
:1049700022F001024A61202180F8421000214163A7
:10498000026B012A03D0FEF72BFE002008BD016355
:1049900001680C3151E8002F22F0100241E8002399
:1049A000002BF5D101680A68D20602D50A68496869
:1049B0000091818DFEF718FBE7E7000070B5044613
:1049C00000680169E26821F44051114301612169E5
:1049D000A0680843616908432168CA6841F20C6312
:1049E0009A430243CA6020684169A26921F4407178
:1049F000114341611E492068884202D1FDF7EAFC5B
:104A000001E0FDF7D7FC00EBC00101EB001260688C
:104A100064218000B2FBF0F3B3FBF1F36FF01806F2
:104A20007343B2FBF0F5B2FBF0F605EB83053223DE
:104A300003EB0515B5FBF1F5B6FBF1F605F0F00556
:104A400005EB0615B2FBF0F6B2FBF0F0B0FBF1F0AF
:104A50006FF01802504306EB800003EB0010B0FB30
:104A6000F1F0216800F00F002844886070BD00005C
:104A70000038014038B58162044682850020134623
:104A80006064222284F84220E56B1B4AAA62E56B2F
:104A90001A4AEA62E56B1A4A2A63E26B50630A46D5
:104AA0002168E06B091DFDF7A1F9206801684068E5
:104AB0000090206948B120680C3050E8001F41F494
:104AC000807140E80012002AF5D12068143050E8C7
:104AD000001F41F0010140E80012002AF5D12068D2
:104AE000143050E8001F41F0400140E80012002A55
:104AF000F5D1002038BD00009F4700082548000878
:104B00005547000881628285C285002141642221C7
:104B100080F84210016921B10168CA6842F48072CC
:104B2000CA6001684A6942F001024A610068C168CE
:104B300041F02001C160002070472DE9F8439846FC
:104B400017460D460446089E24E0701C22D0FDF74F
:104B5000ABFAA0EB0800B0421AD8CEB12068C16809
:104B6000490717D5802D15D0402D13D00168C943B2
:104B700009070FD401680025406800902046FFF720
:104B800086FE0820606484F840500120BDE8F88368
:104B90000320FBE72068006835EA000004D000200D
:104BA000B842D2D00020F1E70120F9E70148FEF732
:104BB0006DBA0000000300200148FEF767BA00004C
:104BC00048030020FEE710B5044600F028F9B42899
:104BD00001D0012010BD2246012140F2072000F043
:104BE00041F9224601214FF4027000F03BF92246C0
:104BF0000021962000F036F92246FD21972000F092
:104C000031F922460021E32000F02CF9224604214C
:104C1000E42000F027F922460221E52000F022F9E5
:104C200022460121E62000F01DF922460321E7205B
:104C300000F018F922460221F52000F013F922466F
:104C40000521D92000F00EF92246CE21DB2000F00C
:104C500009F922460321DC2000F004F92246F8215C
:104C6000DD2000F0FFF8224600219F2000F0FAF836
:104C700022463C21A32000F0F5F822460021B7206F
:104C800000F0F0F822463C21BB2000F0EBF8224671
:104C90000921B22000F0E6F822460921CA2000F0DE
:104CA000E1F8224601214FF4CC7000F0DBF82246F7
:104CB00017214FF4D87000F0D5F82246002140F2B9
:104CC000AD1000F0CFF822460521FF2000F0CAF811
:104CD000224605214FF4807000F0C4F822460521D9
:104CE00040F2991000F0BEF822461B214FF4D37019
:104CF00000F0B8F822463E214FF4D67000F0B2F82A
:104D000022461F2140F2A71000F0ACF822460021F5
:104D1000302000F0A7F822461021112000F0A2F860
:104D2000224630214FF4857000F09CF8224646213F
:104D30003F2000F097F82246FF21312000F092F842
:104D400022466321402000F08DF8224601212E20CA
:104D500000F088F8224609211B2000F083F8224643
:104D600031213E2000F07EF822462421142000F05C
:104D700079F8002010BD2DE9F041002714460E46B9
:104D80008046012504E0012000F04DF807446D1C29
:104D9000A542F8DD97FBF4F0811B00270125C8F838
:104DA000001004E0022000F03EF807446D1CA5420C
:104DB000F8DD97FBF4F0811BC8F80410BDE8F08122
:104DC00070B5040AC5B20E460846FFF71AF9314617
:104DD0005220FFF7FCF83046FFF7C4F83146204672
:104DE000FFF7F5F83046FFF7BDF831462846FFF7E4
:104DF000EEF83046FFF7B6F83046FFF702F93146D5
:104E00005320FFF7E4F83046FFF7ACF83046FFF7E1
:104E1000BDF804463046FFF708F9204670BD01464C
:104E20000020FFF7CDBF70B5054629464D20FFF79E
:104E3000C7FFC007F9D02A460121182000F012F858
:104E400029464F20FFF7BCFF4007F9D529466220CD
:104E5000FFF7B6FF04462A460721152000F002F8A6
:104E6000204670BD2DE9F041040AC7B215460E4632
:104E70001046FFF7C6F829465220FFF7A8F8284643
:104E8000FFF770F8A8B929462046FFF7A0F8284692
:104E9000FFF768F829463846FFF799F82846FFF7E4
:104EA00061F829463046FFF792F82846FFF75AF88E
:104EB00028B12846FFF7B9F80120BDE8F08128465F
:104EC000FFF7B3F80020F8E70FB4054B10B503A9BE
:104ED000044A029800F0F2F810BC5DF814FB0000E0
:104EE000ED5A0008F80000200907090E002804DB2D
:104EF00000F1E02080F80014704700F00F0000F18E
:104F0000E02080F8141D704702E008C8121F08C195
:104F1000002AFAD170477047002001E001C1121F3A
:104F2000002AFBD1704700002DE9FF5F82B000210D
:104F3000DDE90430020DDDF840B0034318D044F63B
:104F40001050A2F2FF3242431514119801281FD0CD
:104F5000A5EB0B00401C5FEA000A4FF000064E4F25
:104F6000DFF83891B046504615D5CAF1000413E079
:104F7000119801244AA3012801D16FEA0B0102987C
:104F8000119AC0E90031C0E9024206B0BDE8F09FC5
:104F9000CBF10000DFE704460021404A491842EB0C
:104FA0000450CDE9001012E0E00707D032463B463E
:104FB00040464946FBF71DFD8046894632463B4642
:104FC00010461946FBF715FD06460F466410002CE7
:104FD000EAD1DDE90401DDE90023BAF1000F06DAC8
:104FE000FBF707FD42464B46FBF703FD05E0FBF7E9
:104FF00072FD42464B46FBF76EFD04460E4600220C
:10500000284BFBF7A7FF03D84FF0FF30014607E01E
:105010000022254B20463146FBF744FCFBF782FF7C
:10502000102409E0002C0ADB0A220023FBF754FEBF
:10503000039B30321A55641E50EA0102F2D1641CFF
:10504000039AC4F111031444119A012A03D00122D6
:1050500008430DD10AE0084304D000204FF0110BA3
:10506000119072E7A3EB0B056D1E0DE05B4504DDAF
:105070004FF0000205F1010504E003DA4FF00002F1
:10508000A5F10105002AECD002981199C0E902317E
:10509000C0E9004579E70000000014400000F03F3F
:1050A000300000000000F0430000E03F30380A28E4
:1050B00001D2012070470020704700002DE9FF4F0A
:1050C00095B09B468946064600250FE2252877D1F4
:1050D00000242746F84A0121059400E0044316F80D
:1050E000013F203B01FA03F01042F7D130782A2823
:1050F00011D06FF02F033078A0F13002092A16D8B2
:10510000059A44F0020402EB820203EB42021044CF
:10511000761C0590EFE759F8042B0592002A03DA74
:10512000504244F40054059044F00204761C307858
:105130002E2816D116F8010F44F004042A280DD0A9
:105140006FF02F023078A0F13003092B09D807EB5C
:10515000870302EB4303C718761CF3E759F8047B77
:10516000761C30786C280FD006DC4C2817D06828C5
:105170000DD06A2814D104E0742810D07A280FD1F9
:105180000DE044F400140AE044F4801401E044F417
:1051900040147278824202D104F58014761C761C89
:1051A000307866280BD013DC582877D009DC00282B
:1051B00075D04528F6D04628F4D047281AD19DE16D
:1051C00018E0632835D0642879D0652812D195E19C
:1051D000702873D008DC6728F1D069286FD06E285A
:1051E0000DD06F2806D1B5E073282CD0752875D066
:1051F000782874D05A46179990476D1C75E1C4F30E
:105200000250022809D003280DD0D9F80010042834
:105210000DD00D6009F1040967E1D9F80010EA1713
:10522000C1E90052F6E7D9F800100D80F2E70D70E1
:10523000F0E719F8041B8DF8001000208DF801002C
:10524000EA46012003E059F804AB4FF0FF30610754
:105250004FF0000102D40DE008F101018846B94287
:105260000FDA8045F8DB1AF808100029F4D108E0BD
:1052700008F1010188468142FADB1AF8081000297A
:10528000F6D105985B46A0EB080721463846179AE9
:1052900000F094FA284400EB080507E04DE029E10E
:1052A0000DE01AF8010B5A4617999047B8F101081A
:1052B000F7D25B4621463846179A13E142E00A22AC
:1052C0000092C4F302524FF0000A022A08D059F8A3
:1052D00004CB032A4FEAEC710AD00DE029E02AE062
:1052E00009F1070121F00702F2E802C1914609E045
:1052F0000FFA8CFC4FEAEC71042A03D14FFA8CFCB4
:105300004FEAEC71002907DA0A460021DCF1000CB3
:1053100061EB02012D2202E0220504D52B228DF83B
:105320000420012203E0E20701D02022F7E79046A3
:1053300059E00A2102E010220DE010214FF0000A8E
:1053400000910BE010224FF0000A44F004040827FB
:10535000009203E008224FF0000A0092C4F30252C8
:10536000022A05D059F804CB0021032A08D009E00D
:1053700009F1070121F00702F2E802C1914605E0B8
:105380001FFA8CFC042A01D10CF0FF0C4FF000082E
:10539000220728D5702806D0009B83F0100353EA1B
:1053A0000A0305D00EE040228DF80420012208E017
:1053B0005CEA010206D030228DF804208DF8050049
:1053C00002229046009B83F0080353EA0A030AD1A5
:1053D0005CEA010201D1620705D530228DF8042074
:1053E0004FF001087F1E582804D034A003900EA867
:1053F00002900DE036A0F9E753466046009AFBF7AD
:105400006BFC84460398825C0298401E02900270F6
:105410005CEA0100F0D1029806A9081A00F1200AFE
:10542000600702D524F4803400E00127574502DDEF
:10543000A7EB0A0000E0002000EB0A0100900598AD
:105440004144401A0590E00306D45B462146179A72
:10545000059800F0B3F90544002706E001A85A4674
:10546000C05D179990476D1C7F1C4745F6DBE00334
:105470000CD55B462146179A059800F09FF9054424
:1054800004E030205A46179990476D1C0099481E39
:1054900000900029F5DC08E0029802995A4600784D
:1054A000491C0291179990476D1CBAF10001AAF1AD
:1054B000010AF1DC65E100000928010030313233D6
:1054C0003435363738396162636465660000000040
:1054D000303132333435363738394142434445462A
:1054E0000000000000F058F90544761C30780028D0
:1054F0007FF4ECAD19B02846BDE8F08F620700D408
:10550000062709F1070222F0070CFCE80223E14616
:1055100003F000485FEA080C02D00FF2702C0DE097
:105520005FEA045C02D50FF2682C07E05FEAC47CF6
:1055300002D00FF2602C01E0AFF2700C4FF0FF3898
:1055400023F00043CDF850C065280CD006DC452878
:1055500009D046281DD047283DD13DE0662818D007
:1055600067287ED138E00021112F01DB112000E0F7
:10557000781CCDE9000106A90EA8FFF7D5FCDDE9EE
:105580000F010E9A03910021009207F1010A049184
:105590004DE04FF000400097CDE9011006A90EA89C
:1055A000FFF7C2FCDDE90F0203920E9B1199002266
:1055B000DDF80CA00093049211B9791C00EB010AEC
:1055C000B7EB0A0004D4C0F1FF3007F1010A0490E0
:1055D000AAEB0700019044E0012F00DA0127002127
:1055E000112F01DD112000E03846CDE9000106A9A8
:1055F0000EA8FFF799FCDDE90F010E9A0391002137
:1056000004910092BA4621070CD40399514500DA5F
:105610008A46BAF1010F05DD009AAAF10101515C39
:10562000302908D0B84202DA10F1040F06DA01215D
:10563000CDE9011015E0AAF10101E9E7002805DC38
:10564000049901440491AAEB000102E0411C514578
:1056500000DD8A460499401A401C01904FF000403A
:105660000290200704D40198504501DBCDF8048056
:1056700000208DF84F0002980DF14F07B0F1004F58
:1056800025D02B200E9002984FF0020800280CDA4B
:10569000404202902D200E9007E00A210298FBF76D
:1056A00005FB3031029007F8011DB8F10001A8F1A7
:1056B0000108F2DC02980028EFD1791E0E980870DC
:1056C000307800F0200040F0450007F8020D12A8E5
:1056D000C01B00F107081498007800B1012000EB0E
:1056E0000A01019801EBE07105984144401A401EFF
:1056F0000590E00306D45B462146179A059800F012
:105700005DF805441498007818B15A4617999047E7
:105710006D1CE00324D55B462146179A059800F0DE
:105720004DF805441CE00498002807DBDDE903017F
:10573000884203DD0098405C179901E017993020FA
:105740005A469047049805F10105401C04900198C1
:10575000401E019004D12E205A46179990476D1C87
:10576000BAF10001AAF1010ADDDC05E017F8010B2E
:105770005A46179990476D1CB8F10001A8F101082D
:10578000F4DC5B462146179A0598ABE62D00000035
:105790002B000000200000002DE9F0410446002508
:1057A0001E461746880404D405E039462020B04739
:1057B0006D1C641EF9D52846BDE8F0812DE9F04145
:1057C000044600251E469046C80301D5302700E058
:1057D0002027880404D505E041463846B0476D1CB3
:1057E000641EF9D52846BDE8F081000030B589B0C7
:1057F0000D46044624216846FAF72BFD34B12B46AA
:1058000000220121684600F019F810B1012009B00A
:1058100030BD9DF809009DF80810000200B2084351
:10582000FBF7DFF96FF00E01FBF730F80249FAF7EA
:10583000BDFFA0600020EAE7000034432DE9F84FE7
:1058400000241F4692468B468146264625464FF445
:105850007A786FB10121684600F0EAF8C0B3042CF1
:1058600044D008DC64B1012C14D0022C42D130E0C9
:105870000320BDE8F88F082C4AD0162C3AD159E005
:105880009DF80000552835D189F8000089F82000DE
:10589000012457E05FEA0A0004D0BAF1010F0BD0EF
:1058A0000220E6E79DF80000552823D189F8010081
:1058B00099F82000553008E09DF80000AF2819D174
:1058C00089F8010099F82000AF3089F820000224FF
:1058D00038E09DF8000058450CD189F8020099F88D
:1058E00020100424084489F820002BE09DF80000D3
:1058F0001C2801D9002425E089F8030099F820101C
:10590000014489F8201008B108241BE0162419E08E
:1059100009EB06019DF80000087199F82010761C2B
:10592000084489F8200099F80300F6B2B04209D182
:105930000026EBE799F820009DF800108842D9D1A5
:10594000002096E7012000F0C1F86D1CADB245457E
:105950007FF47FAF00257F1E7BE7000010B500F0CD
:105960005DF864220449032000F008F808B1002023
:1059700010BD012010BD0000DC000020F0B58BB090
:105980000E460546174624216846FAF762FC552064
:105990008DF82400AF208DF8250045F080048DF8A7
:1059A000264001208DF8270000208DF82800641D76
:1059B0008DF82940062109A800F080F83B46012215
:1059C00029466846FFF73AFF00284FF000000BD148
:1059D000694604E00A1812793254401CC0B29DF89E
:1059E00003208242F6D8D0B20BB0F0BD70B50546A8
:1059F000002086B00446084E09E00F210648FFF754
:105A0000F5FE05226946B068FBF792FF641CAC42C4
:105A1000F3DB06B070BD0000B423002003488021F2
:105A200020F8801F0021418081807047C023002022
:105A300070B5054612480446B0F88420B0F88230AC
:105A4000B4F880409A4201D3D21A01E0E31A1A4412
:105A500092B2914200D9114600220CE0B0F8823097
:105A6000C65CAE545B1CB3FBF4F604FB1633521C4D
:105A7000A0F8823092B28A42F0D3084670BD00008E
:105A8000C023002070B500220B4B10E0B3F8845007
:105A9000845C5C55B3F88440B3F88050641CB4FB5C
:105AA000F5F605FB1644521CA3F8844092B28A42D4
:105AB000ECD3002070BD0000C02300200A46014640
:105AC0000148FDF735BE0000700200200CB5002132
:105AD0000B22009107E011460192491E0191FCD171
