:020000040800F2
:10000000E0290020DD010008ED4C0008D542000881
:1000100011490008F5120008015B0008000000000B
:100020000000000000000000000000004501000882
:10003000A51800080000000089010008F35000081E
:10004000F7010008F7010008F7010008F7010008B0
:10005000F7010008F7010008F7010008F7010008A0
:10006000F7010008F7010008F7010008F701000890
:10007000F7010008F7010008F70100083918000827
:100080004918000859180008F7010008F70100088E
:10009000F7010008F7010008F7010008F701000860
:1000A000F7010008F7010008F7010008F701000850
:1000B000F7010008F7010008F7010008F701000840
:1000C000F7010008F7010008F7010008F701000830
:1000D000F7010008E15A0008F15A0008F70100088A
:1000E000D5180008F7010008F7010008F70100081B
:1000F000F7010008F7010008F7010008F701000800
:10010000F7010008F7010008F7010008F7010008EF
:100110008154000891540008F7010008715100084B
:10012000F7010008F701000869180008F701000846
:10013000DFF80CD000F01CFF00480047A56B00085A
:10014000E0290020224B19680868B0E8F00F80F31E
:100150000988BFF36F8F4FF0000080F311884EF0D5
:100160000D0E70470000000006480068006880F32C
:10017000088862B661B6BFF34F8FBFF36F8F00DFA1
:1001800000BF00BF08ED00E0EFF30980BFF36F8F01
:100190000F4B1A6820E9F00F106008B54FF05000BF
:1001A00080F31188BFF34F8FBFF36F8F07F056FFB7
:1001B0004FF0000080F31188BDE808401968086816
:1001C000B0E8F00F80F30988BFF36F8F704700BF6E
:1001D00064000020EFF30580704700000648804768
:1001E00006480047FEE7FEE7FEE7FEE7FEE7FEE71C
:1001F000FEE7FEE7FEE7FEE76F5100083101000869
:10020000202A04DB203A21FA02F00021704721FA6B
:1002100002F3D040C2F120029140084319467047D2
:1002200040EA01039B0703D009E008C9121F08C078
:10023000042AFAD203E011F8013B00F8013B521EF8
:10024000F9D27047D2B201E000F8012B491EFBD26F
:1002500070470022F6E710B513460A4604461946D1
:10026000FFF7F0FF204610BD10B5002200E0521C41
:10027000835C8C5CA34201D1002BF8D1D8B2E1B2EF
:10028000401A10BD0FB400B58DB010A909900B90A5
:1002900000914FF0FF300A9000200C900548069026
:1002A000054807906A4609A80F9900F07BFD0DB03C
:1002B0005DF814FBC10D0008DF0D00082DE9FF5F9C
:1002C000D2E901A74FF00008916999461446DDF87C
:1002D00038B0464601988847054659EA0B0005D0D4
:1002E00009E0A169761C019888470546216A2846DD
:1002F00088470028F5D1681C03D05FEACA7005D092
:1003000015E04FF0FF3004B0BDE8F09F2068011DFC
:100310002160D0F800800AE05FEACA7001D108F8D5
:10032000015BA169761C7F1E019888470546002F56
:100330001ADD681C18D0B9F1000F0DD0E81705EBD5
:10034000D060421120F01F0059F822102A1A012013
:1003500090400142E0D107E0BBF1000FDCD1216AFF
:10036000284688470028D7D0E16901988847BBF123
:10037000000F07D1002E05DD5FEACA7002D100210F
:1003800088F80010A068B84203DDBBF1000F03D06D
:1003900017B16FF00100B6E73046B4E72DE9FF4F23
:1003A000087883B09946FF2805D0491C2D2804D031
:1003B0000024002008E000200BE00124F9E700EB16
:1003C000800003EB4000491C0B78FF2BF7D104B1F0
:1003D000404200230293147819461D462D2C01D06B
:1003E0002B2C04D1521C2D2C13D000240294AA468D
:1003F0001478FF2C0FD00A25A3FB057801FB05819B
:100400004FF0000C03FB0C11521CE3194AEB0101E5
:10041000EEE70124EAE7814453EA010002D019F52E
:10042000C87F06DA03980021C0E9001107B0BDE8D3
:10043000F08F0025AE4E2F46DFF8B882184600F048
:1004400073FDCDE90001B9F1000002DAC9F1000441
:1004500000E004460023A74A1AEB030B42EB045AC0
:1004600012E0E00707D02A4633463846414600F0FE
:10047000B4FA074688462A4633461046194600F025
:10048000ACFA05460E466410002CEAD1DDE9000105
:10049000B9F1000F5A46534606DA00F010FB3A460F
:1004A000434600F00CFB05E000F097FA3A4643465D
:1004B00000F093FA029A0AB181F00041039AC2E96E
:1004C0000001B3E72DE9FF4F1F468DB0D7E9014684
:1004D0004FF0FF382E2045464FF000090B90B969C8
:1004E0006D1C0E988847396A824688470028F6D1E5
:1004F000BAF1FF3F0AD024F4D064002E11DDBAF126
:100500002B0F08D0BAF12D0F0BD102E0404611B0ED
:100510008DE744F48064B9696D1C0E988847824663
:10052000761E6946600501D52D2000E02B208DF850
:10053000000001F1010B0DF1200809E0B9696D1C03
:100540000E98884782460F9844F40074761E056022
:10055000002E02DDBAF1300FF0D00B998A453ED162
:1005600044F0800406E00F99681CA9F1010944F4E5
:1005700000740860B9696D1C761E0E988847824623
:100580003028F0D02BE00B998A4505D1200603D402
:1005900044F08004761E18E0504605F051FD08B383
:1005A0000DF11301761E44F400748B4508D2AAF1B4
:1005B00030000BF8010B200607D5A9F1010003E07C
:1005C000200602D409F101008146A00502D50F9949
:1005D000681C0860B9696D1C0E9888478246002E19
:1005E000D1DC53E0002E51DDBAF1650F02D0BAF133
:1005F000450F4BD1A00549D5B9696D1C24F4407451
:10060000761E0E9888478246002E0CDD2B2804D0DB
:10061000BAF12D0F07D144F48074B9696D1C0E989E
:1006200088478246761EE00501D52D2100E02B216A
:1006300008F8011BCDF82C8021E00DF12901761E70
:1006400044F4007488450CD2AAF1300010F0FF0089
:1006500088F8000002D10B99884509D908F10108F2
:1006600006E0E00501D5244801E042F20F70814622
:10067000B9696D1C0E98884782460F980560002E58
:1006800004DD504605F0DCFC0028D6D1F9690E984F
:100690008847FF208BF8000088F8000000200690B3
:1006A00007904B466A4608A906A8FFF777FEA00503
:1006B00002D46FF001002AE714F0240F0AD0E007FB
:1006C00014D1DDE906123868031D3B600068C0E9FB
:1006D00000120BE0DDE9060100F0C6FA0146E00772
:1006E00004D13868021D3A600068016028460EE7B0
:1006F000000014400000F03FF1D8FFFFF0B480EAA2
:100700000102D40F4200B2EB410F02D2024608466A
:1007100011464A0042D0C30DDDB2C1F3C752AD1A33
:10072000202D35DAC1F3160141F4000204B1524222
:10073000C5F1200602FA06F12A411044B3EBD05F5E
:1007400023D0C4B1012DA0EBC35009DCF0BC4FF0A5
:10075000004202EAC352DBB200F5000000F059BBD0
:10076000400000F1807000EBC350A0F1807040EABF
:10077000D170490009E0490841EAC071A0EBC350BB
:1007800000F50000400800EBC350F0BC00F038BB9F
:100790006142012202EB4101001BF6E7F0BC704709
:1007A00081F00041AAE780F00040A7E780EA01025B
:1007B00010B502F00043400022D04A001FD0010EC5
:1007C00001EB1261C0F35600C2F3560240F4000080
:1007D00042F40002A0FB022000047F39140400D080
:1007E000401C50EA124001D44000491EC2B20C061F
:1007F00004EBD010401C4008802A02D003E0002007
:1008000010BD20F00100002900DA0020184310BDBF
:1008100030B480EA010202F0004530F0004221F0DD
:10082000004013D090B1C30DD40DC2F31601C0F334
:100830001600E41A41F4000140F400027D349142B4
:1008400001D3641C00E04900002C02DA30BC002017
:1008500070474FF400000023914201D3891A0343EB
:1008600040084FEA4101F7D151B1914202D14FF016
:10087000004105E002D24FF0010101E06FF00101FB
:1008800003EBC450284430BC00F0BABA2DE9FE4F47
:10089000804681EA0300C00F0C46009021F0004121
:1008A00023F00045B8EB0200A94105D2404621469D
:1008B00090461C460B46024623F00040104347D0AA
:1008C000270DC7F30A00C3F30A510290401A0190A2
:1008D00040286BDAC3F3130040F4801B0098924663
:1008E00020B10023D2EB030A63EB0B0B01985946AE
:1008F000C0F14002504600F02EFA06460D46504622
:100900005946019A00F036FA10EB080061410024C4
:1009100087EA115284EAE7731A4340D0009A62B31F
:10092000019A012A4FEA075215DC001B61EB020114
:100930004FF0004202EA0752CDE90042001C41F5A7
:10094000801132462B4600F0A1FA03B0BDE8F08FCB
:1009500040462146F9E7001B61EB0201001C41F50E
:10096000801300185B412018A2F5001747EB030124
:1009700040EAD570B6196D4111E06D084FEA3606B0
:1009800045EAC0754FEA0752001B61EB0201001CEB
:1009900041F5801149084FEA3000001951413246B3
:1009A0002B4603B0BDE8F04F00F061BA0098012279
:1009B00040000023D0EB020263EBE0730098214675
:1009C0004FEAE074B8EB000061EB0401E9E783F063
:1009D00000435BE781F0004158E72DE9FE4F81EAD3
:1009E000030404F0004421F0004100944FF0000B98
:1009F00023F0004350EA01045ED052EA03045BD0C6
:100A0000C3F30A54C1F30A552C44A4F2F3340194FD
:100A1000A0FB0254C1F3130141F48011C3F313038B
:100A200043F4801301FB024400FB034E840A970A3F
:100A300044EA815447EA8357A4FB076802958D0A6C
:100A400005FB07854FEA932C04FB0C542705029DF8
:100A50004FEA065847EA1637B5EB08056EEB070C68
:100A6000870E920E47EA811742EA8312A7FB020122
:100A7000B6EB0B0164EB00042B0D43EA0C335E185C
:100A800044EB1C50DA465146E7FB0201C5F3130460
:100A90004FEA0B3343EA14534FEA0432019C43EA12
:100AA0000603A4F10C040294009CCDE900B400F00C
:100AB000EDF903B0BDE8F08F00200146F9E72DE91C
:100AC000F04D81EA030404F0004B21F00045144688
:100AD0004FF0000A23F0004150EA050220D054EA0A
:100AE00001021DD0C5F30A570246C5F31303C1F333
:100AF0001300C1F30A5640F4801543F48013A7EBAA
:100B00000608101BD64608F2FD3873EB050002D329
:100B100008F1010801E092185B41B8F1000F03DA17
:100B200000200146BDE8F08D00204FF480110646FC
:100B300084460EE0171B73EB050705D3121B63EB0E
:100B4000050306434CEA010C49084FEA30009218AD
:100B50005B4150EA0107EDD152EA030012D082EA6C
:100B6000040083EA0501084305D0101BAB4106D2FF
:100B70000122002306E000224FF0004302E06FF064
:100B8000010253101AEB06004CEB085110EB0A005F
:100B900041EB0B01BDE8F04D00F069B9C10F80EAEF
:100BA000E0700844CA079623002100F032B996236A
:100BB0000022114600F02DB920F00040C10DC0F315
:100BC000160040F400007F2901DA002070479629C2
:100BD00003DCC1F19601C8407047963988407047E0
:100BE00000F0004230F000400AD0C10D01F5607104
:100BF000C0F3160042EA0151C20840071143704792
:100C0000002001467047000030B5041E71F1000459
:100C100004DB4FF00044404264EB0101141E73F109
:100C2000000405DB1C464FF00043524263EB040313
:100C30008B4208BF824230BD30B5041E71F1000402
:100C400004DB4FF00044404264EB0101141E73F1D9
:100C5000000405DB1C464FF00043524263EB0403E3
:100C6000994208BF904230BD01F0004330B421F0FA
:100C7000004150EA010206D00A0DA2F56072C1F3EC
:100C80001301002A02DC30BC00207047440F44EA04
:100C9000C104C100E01830BC00EBC25000F0B0B895
:100CA000002801DBC0F10040002901DBC1F1004157
:100CB00081427047002801DBC0F10040002901DBC0
:100CC000C1F100418842704730B50B460146002013
:100CD0002022012409E021FA02F59D4205D303FAFE
:100CE00002F5491B04FA02F52844151EA2F101027F
:100CF000F1DC30BD2DE9F05F0546002092469B46B1
:100D000088460646814640241BE028464146474621
:100D10002246FFF775FA53465A46C01A914110D33E
:100D200011461846224600F016F82D1A67EB010806
:100D30004F4622460120002100F00DF817EB000974
:100D40004E41201EA4F10104DFDC484631462A460C
:100D50004346BDE8F09F202A04DB203A00FA02F166
:100D6000002070479140C2F1200320FA03F3194399
:100D700090407047202A06DBCB17203A41FA02F058
:100D800043EAE07306E041FA02F3D040C2F12002E8
:100D90009140084319467047026811441378016076
:100DA00018467047D160044951610449116200211D
:100DB0001161114600F0F4B8990D0008950F000874
:100DC000426842B1016811F8013B23B1521EC0E9EB
:100DD0000012184670470121C160881E70474268A2
:100DE0005AB1C368016843B983688B4205D0491E74
:100DF000521CC0E90012002070474FF0FF307047CE
:100E00000029A8BF7047401C490008BF20F001001E
:100E1000704710B4B0FA80FC00FA0CF050EA0104FC
:100E200004BF10BC704749B1CCF1200421FA04F48E
:100E300011FA0CF118BF012121430843A3EB0C0167
:100E4000CB1D4FEA00614FEA102042BF002010BCCA
:100E5000704700EBC35010440029A4BF10BC70477A
:100E6000401C490008BF20F0010010BC704710B5BD
:100E7000141E73F1000408DA401C41F100019218BD
:100E80005B411A4301D120F0010010BD2DE9F04D66
:100E900092469B4611B1B1FA81F202E0B0FA80F2BB
:100EA00020329046FFF757FF04460F4640EA0A00FB
:100EB00041EA0B0153465A46084313D0114653EA00
:100EC000010019D0C8F140025046FFF799F90546D4
:100ED0000E46504659464246FFF73DFF084305D0AF
:100EE000012004E020463946BDE8F08D002005438E
:100EF00046EAE0762C4337430A986305E40AA0EB00
:100F000008000022FD0A44EA47540A3002D50020B6
:100F10000146E9E7010510196941DDE908450019B5
:100F20006941BDE8F04DA2E70EB540F233420292AE
:100F30000022CDE900221346FFF7A8FF03B000BD51
:100F4000C1F30A52C1F3130140F2FF3341F480119F
:100F50009A4202DA00200146704740F233439A4237
:100F6000A2F2334202DC5242FFF74AB9FFF7F3BE66
:100F7000064C074D06E0E06840F0010394E80700E6
:100F800098471034AC42F6D3FFF7D6F880940008A7
:100F9000A0940008C0B24FF4F05100F097B90000DF
:100FA0002DE9F34F8BB04FF0000801F10C000C4617
:100FB0004FF0010B46460DF1080A019062690121CC
:100FC00001989047051E2DD0252D2CD0216A8847E9
:100FD000C0B16269012101989047216A88470028C1
:100FE000F7D1411E62690198904700E0761CA16923
:100FF0000B988847216A88470028F7D1E1690B9848
:101000008847DBE7A1690B9888470746A84201D1CA
:10101000761CD3E7E1690B9888477F1C02D1B8F1B1
:10102000000F6FD046E1002762693D4639460198BE
:1010300090472A2804D1626901210198904701252F
:10104000DFF884926269012101989047A0F1300194
:101050000A290AD24F45E5DC07EB870100EB41077F
:10106000303FDFD445F01005ECE7E90601D46FF01E
:1010700000476C280AD04C2814D0682815D06A285C
:101080000DD074281CD07A281AD01DE06269012185
:10109000019890476C2802D045F0040514E045F013
:1010A00002050DE045F020050AE062690121019882
:1010B0009047682802D045F0080505E045F4006532
:1010C0006269012101989047C4E9015765283DD024
:1010D00019DC58287AD00CDC452837D004DC2528C8
:1010E00026D0412831D131E046282FD047282CD1B5
:1010F0002CE05B2877D0612828D063287CD0642836
:1011000023D15AE0D0E06F2848D008DC66281DD0F3
:1011100067281BD0692821D06E2816D127E07028B7
:1011200045D0732868D0752847D078280DD14DE078
:10113000A1690B988847054625283FF469AFE16906
:101140000B9888476D1C3FF46AAFB3E023466A46AC
:101150006FF001000B99FFF7B5F99EE045F04000F4
:101160006060A80723464FF0000236D43EE0E8074F
:101170007FF447AF2068011D21600068290501D573
:1011800006701BE7290701D5068017E7A90703D5D5
:10119000F117C0E9006111E706600FE745F0400074
:1011A0006060A80723464FF0080216D41EE040F600
:1011B0000E0125EA0100606016E045F04000606025
:1011C000A80723464FF00A0207D40FE045F040007D
:1011D0006060A80708D5234610226FF001000B9924
:1011E000AFF3008059E007E0234610226FF00100C2
:1011F0000B99AFF3008050E04FF000094F464B468B
:10120000632802D05B2806D040E0E80601D4012024
:10121000A06001273AE062690121019890475E28A9
:1012200005D14FF00109626949460198904721694B
:1012300039B900210A46534643F82120491C0829A0
:10124000FADBB0B3216969B9C11700EBD162531160
:101250000AEB830122F01F02821A01200B689040E2
:1012600003430B6062690121019890475D28E8D132
:10127000B9F1000F09D00020514651F82020D24387
:1012800041F82020401C0828F7DB02AB22460097DB
:101290006FF001000B99FFF711F800280CDA401CE1
:1012A00008D1BBF1000F05D04FF0FF300DB0BDE805
:1012B000F08FFFE74046F9E7E90701D108F101089F
:1012C00006444FF0000B79E6CCCCCC0C7F2801D93A
:1012D000002208E0064A02EB5002C007127800D153
:1012E000120902F00F0201209040084070470000F0
:1012F0004A93000800BFFEE72DE9F04F8BB083460C
:101300008A460020079006903248C0F818A032485C
:101310008168304803F0D2FD0990304803F082FD27
:1013200008900898FFF75CFC04462D4A2D4BFFF708
:1013300054FBCDE904010998FFF752FC06464FF033
:101340003332294BFFF749FB04460D465846FFF759
:1013500047FC22462B46CDE90001FFF738FBCDE9DB
:101360000201DDE90423FFF732FB8046FFF77CFC36
:1013700007900898FFF734FC0446194A194BFFF709
:101380002CFB804689460998FFF72AFC4FF0333240
:10139000154BCDE90001FFF720FB04460D465846EA
:1013A000FFF71EFC064622462B46FFF76FFA424621
:1013B0004B46CDE90201FFF769FACDE90401FFF7D9
:1013C00053FC0690DDE9061003F02EFB00200BB065
:1013D000BDE8F08F5425002044010020982500200E
:1013E0009A9999999999D93F3333E33F2DE9F05F61
:1013F00006460C463748C6603748D0F81090494634
:101400003046FFF7CDF9834600215846FFF752FCDE
:1014100012D25846FFF7E4FB07464FF033322F4B0A
:10142000FFF7F2FB08D80021084603F073FA03F037
:101430005FFC0120BDE8F09F00215846FFF730FC1B
:1014400011D25846FFF7CCFB07464FF03332244BFE
:10145000FFF7F2FB07D80021084603F05BFA03F020
:1014600047FC0120E6E749461A4803F0ABFC054675
:1014700000201C498861184881681A4803F01EFD45
:10148000824600213046FFF715FC05D82146284644
:10149000FFF710FC00D2254600213046FFF700FC84
:1014A00008D284F0004729463846FFF703FC01D2F2
:1014B00084F0004551462846FFF720F9074651467B
:1014C0002846FFF76DF98046394603F0ADFA002053
:1014D000B0E7000088240020440100203333D33FCC
:1014E0003333D3BF542500202DE9F04F8DB01A4976
:1014F0004868FFF775FB04460D4618494868FFF732
:101500006FFB06460F4616490869FFF769FB8046E0
:1015100089461449C868FFF763FB82468B46104929
:101520008868FFF75DFBCDE90A010F48407A0E4954
:10153000097ACDE900ABCDE90289CDE90467CDE9AF
:101540000645CDE908100948DDE90A2304F078FCD6
:101550000DB0BDE8F08F0000F0000020E800002092
:101560004401002024010020380100208C93000851
:101570002DE9FF5F53480068D0F8249000205149BE
:10158000096848624EF66020814503DDA9F57F4970
:10159000A9F1FF094846FFF701FB4B490090FFF70F
:1015A00037F90190FFF71CFB0746484A484BFFF705
:1015B00014FA05460022474BFFF70FFACDE9020166
:1015C000FFF752FB8246444908685146FFF796F8F8
:1015D000414908605046FFF703FB07463F4A404B2E
:1015E000FFF76DFA0546FFF73FFB3B4948603D4872
:1015F0000068446A00203B49096848624EF6602052
:10160000844202DDA4F57F44FF3C2046FFF7C6FA82
:1016100080462D49FFF7FCF80746FFF7E1FA2B4A11
:101620002B4BCDE90001FFF7D8F905460022294BE5
:10163000FFF7D3F9CDE90201FFF716FB83462A49EC
:1016400008685946FFF75AF8274908605846FFF7D7
:10165000C7FA0546214A224BFFF731FA0746FFF742
:1016600003FB214948601C4A51681F4A5068FFF734
:1016700045F805464FF08041FFF7CAF81B4948601E
:10168000194A1168144A1068FFF738F805464FF0F8
:101690008041FFF7BDF8154908614868FFF7A0FAD7
:1016A0000022134BCDE90201FFF797F9054600220E
:1016B000084BFFF704FA0746FFF7D6FA0B49086014
:1016C000BDE8FF9F580100200000AF444AD8124DEA
:1016D000FB21094000001A40E80000207B14AE47BF
:1016E000E17AA43FA0010020F00000204401002086
:1016F0000000E03F2DE9F04781468A4614461D462A
:101700003C48C0F81890514603F0D8FB06463046D6
:10171000FFF766FA384A03C23649486A0021FFF7E4
:10172000C9FA13D83349486AFFF75AFA07464FF007
:101730003332324BFFF768FA08D20021084603F033
:10174000E9F803F0D5FA0120BDE8F0872949486A95
:101750000021FFF7A5FA12D22649486AFFF740FA9E
:1017600007464FF03332264BFFF766FA07D20021C7
:10177000084603F0CFF803F0BBFA0120E4E70021AC
:101780003046FFF797FA05D221463046FFF792FA26
:1017900000D2264600213046FFF782FA08D284F0B4
:1017A000004731463846FFF785FA01D284F00046FB
:1017B00000213046FFF77EFA05D229463046FFF772
:1017C0006FFA00D22E4600213046FFF769FA08D2A0
:1017D00085F0004731463846FFF762FA01D285F0BE
:1017E000004686F000473146384603F01DF90020D8
:1017F000AAE7000054250020F80000203333D33F2F
:101800003333D3BF10B504460348C1682046FEF702
:1018100075FF0149C86010BD440100200020034944
:10182000086003490860034908617047E800002028
:10183000F00000204401002010B5024800F078FAC2
:1018400010BD0000DC03002010B5024800F070FA63
:1018500010BD00002004002010B5024800F068FA16
:1018600010BD00006404002010B5024800F060FACA
:1018700010BD00009803002030B590F840500124BE
:10188000AC40C56B6C60046863604468102C04D184
:101890000468A2600468E16003E00468A160046871
:1018A000E26030BD7047000008B509490968C90801
:1018B0004FF47A72B1FBF2F1B1FBF2F141430091C6
:1018C00000BF00BF00994A1E00920029F9D108BD4F
:1018D0006000002010B54FF4804000F095FC4FF4FC
:1018E000004000F091FC10BD72B600BFFEE70000A2
:1018F00096B000BF00BF00BF44224A4905A8FEF7CA
:101900008FFC00BF4848007838B1432205A94748FA
:1019100002F07CFC0020444908704548007810B172
:101920000020434908704348007810B10020414925
:10193000087064214048006807F02EF801286CD137
:1019400002A803AB04AA3DA100903F48FEF79AFC11
:101950003EA104A8FEF788FC48B93D4903980860F9
:101960003C488068C86001203B49087054E03BA1B6
:1019700004A8FEF779FC00283ED13549029848605A
:10198000344881680398FEF7B9FE3149C860C868D9
:101990003349FFF78FF90AD22D49C8683049FEF75D
:1019A000FFFE04462E49FEF7FBFE2949C860284980
:1019B000C8682C49FFF774F90AD22549C868284934
:1019C000FEF79CFE04462649FEF798FE2049C860B3
:1019D0000398FFF705F904460D460298FFF700F952
:1019E000064632460B4620A0CDE9004504F028FA11
:1019F0000120194988700FE029A104A8FEF734FCE2
:101A000050B9144880681249C86003980861029868
:101A1000486001201049C87000BF642006F0D6F964
:101A200070E70000E89300080C000020500300203D
:101A30000D0000200E00002044000020255B5E7C8D
:101A40005D7C25667C2566001801002031000000C1
:101A50002401002044010020280000203200000062
:101A600000003443000034C3474554204F524645DC
:101A70005220212121212121212020205455524E64
:101A80002056414C203A202566202054415247459B
:101A90005420534954413A202025660D0A00000085
:101AA000330000002DE9F05F07460C46164627601C
:101AB000D4F80080D4F80090D4F800A0701EC5B20D
:101AC0001DE054F825004146FFF7F4F802D254F81F
:101AD000258007E054F825004946FFF7E1F801D2D8
:101AE00054F8259054F825105046FEF707FE82461C
:101AF000681E54F8200044F82500681EC5B2002D69
:101B0000DFD1B01EC5B241465046FEF749FE8346BE
:101B10004946FEF745FE82462846FFF748F88346C9
:101B200059465046FEF774FE82465046BDE8F09F87
:101B30000146002291F82100022808D00420886381
:101B400000BF002081F8200000BF01207047086816
:101B5000006820F00E000B6818600868006820F02C
:101B600001000B68186091F8403001209840CB6B61
:101B70005860012081F8210000BF002081F820007A
:101B800000BF1046E2E7000070B50446002594F857
:101B90002100022803D00420A0630125C1E02068B1
:101BA000006820F00E00216808602068006820F0BE
:101BB0000100216808605C492068884252D95A496E
:101BC00078392068884201D1012047E056496439BC
:101BD0002068884201D1102040E0534950392068E4
:101BE000884201D1801539E04F493C39206888424C
:101BF00001D1801432E04C4928392068884202D152
:101C00004FF480302AE0484914392068884202D1D4
:101C10004FF4801022E044492068884201D14004FA
:101C20001CE042492068884201D1012016E03F496A
:101C300014312068884201D110200FE03B4928313F
:101C40002068884201D1801508E038493C3120687D
:101C5000884201D1801401E04FF480303349091FDC
:101C6000086051E0304978392068884201D101206C
:101C700047E02D4964392068884201D1102040E0B6
:101C8000294950392068884201D1801539E0264918
:101C90003C392068884201D1801432E02249283939
:101CA0002068884202D14FF480302AE01E4914395E
:101CB0002068884202D14FF4801022E01A4920683F
:101CC000884201D140041CE018492068884201D1B3
:101CD000012016E0154914312068884201D11020F6
:101CE0000FE0124928312068884201D1801508E0B0
:101CF0000E493C312068884201D1801401E04FF444
:101D00008030094980394860012084F8210000BFF3
:101D1000002084F8200000BF606B10B12046616B8A
:101D20008847284670BD0000800002400804024039
:101D300070B50446E06B05682068066894F84010AA
:101D4000042088402840002875D006F004000028B0
:101D5000FAD02068006800F0200028B920680068E8
:101D600020F0040021680860D5492068884254D9D1
:101D7000D34978392068884201D1042049E0D0490C
:101D800064392068884201D1402042E0CC49503972
:101D90002068884201D100153BE0C9493C392068E0
:101DA000884202D14FF4804033E0C5492839206889
:101DB000884202D14FF480202BE0C14914392068B9
:101DC000884202D14FF4800023E0BD492068884258
:101DD00001D1C0041DE0BB492068884201D1042024
:101DE00017E0B84914312068884201D1402010E042
:101DF000B44928312068884201D1001509E0B14971
:101E00003C312068884202D14FF4804001E04FF419
:101E10008020AC49091F086054E0A949783920683E
:101E2000884201D104204AE0A549643920688842EB
:101E300002D1402043E04CE0A1495039206888425B
:101E400001D100153BE09E493C392068884202D10F
:101E50004FF4804033E09A4928392068884202D103
:101E60004FF480202BE0964914392068884202D133
:101E70004FF4800023E092492068884201D1C004D9
:101E80001DE090492068884201D1042017E08D4967
:101E900014312068884201D1402010E0894928315E
:101EA0002068884201D1001509E086493C3120684C
:101EB000884202D14FF4804001E04FF480208049F5
:101EC00080394860E06A002802D02046E16A8847ED
:101ED000F4E094F84010022088402840002871D097
:101EE00006F002000028FAD02068006800F0200008
:101EF00040B92068006820F00A00216808600120CD
:101F000084F821006E492068884254D96C49783998
:101F10002068884201D1022049E06949643920687B
:101F2000884201D1202042E065495039206888422A
:101F300001D140153BE062493C392068884202D11A
:101F40004FF4005033E05E4928392068884202D1BE
:101F50004FF400302BE05A4914392068884202D1EE
:101F60004FF4001023E056492068884201D18004D4
:101F70001DE054492068884201D1022017E05149F0
:101F800014312068884201D1202010E04D492831C9
:101F90002068884201D1401509E04A493C31206857
:101FA000884202D14FF4005001E04FF4003045491F
:101FB000091F086054E0424978392068884202D1FC
:101FC00002204AE057E03E4964392068884201D146
:101FD000202042E03A4950392068884201D140151A
:101FE0003BE037493C392068884202D14FF4005029
:101FF00033E0334928392068884202D14FF4003059
:102000002BE02F4914392068884202D14FF4001088
:1020100023E02B492068884201D180041DE0294932
:102020002068884201D1022017E026491431206837
:10203000884201D1202010E02249283120688842BE
:1020400001D1401509E01F493C312068884202D186
:102050004FF4005001E04FF40030194980394860D6
:1020600000BF002084F8200000BFA06A30B32046E3
:10207000A16A884722E094F8401008208840284050
:10208000E0B106F00800C8B12068006820F00E003A
:102090002168086094F8401001208840E16B486096
:1020A0000120A06384F8210000BF002084F82000F4
:1020B00000BF206B10B12046216B884770BD000027
:1020C00080000240080402400146002209B90120B4
:1020D00070471E4B086898420BD21D4B0868C01A07
:1020E0001423B0FBF3F08000086419480838C86373
:1020F0000AE0164B0868C01A1423B0FBF3F0800006
:10210000086412480838C863022081F82100086872
:10211000026843F6F0708243D1E901031843CB68AB
:1021200018430B6918434B6918438B691843CB69F3
:10213000184302430868026000208863012081F888
:102140002100002081F8200000BFC1E70804024000
:10215000080002402DE9F04104460D4616461F4690
:102160004FF0000800BF94F82000012802D102209F
:10217000BDE8F081012084F8200000BF94F8210020
:1021800001282CD1022084F821000020A0632068BF
:10219000006820F00100216808603B46324629466D
:1021A0002046FFF769FBE06A30B12068006840F024
:1021B0000E00216808600BE02068006820F0040031
:1021C000216808602068006840F00A002168086003
:1021D0002068006840F001002168086006E000BF48
:1021E000002084F8200000BF4FF002084046BFE7FF
:1021F000B0F5004F02D0B0F5804F02D10121014A65
:10220000117070470E00002010B5044604480068A5
:10221000204020B1024804602046FFF7E9FF10BDCE
:10222000140401402DE9F847024600239C467BE157
:102230004FF0010808FA03F4D1F8008008EA04001E
:10224000A0427DD1DFF8F4A2D1F80480A8EB0A09FE
:10225000D0453AD014DCB8F1030F50D009DCB8F106
:10226000000F31D0B8F1010F1CD0B8F1020F49D1E5
:1022700020E0B8F1110F18D0B8F1120F42D11EE0D2
:10228000B9F5881F25D006DCB9F5803F20D0B9F517
:10229000801F37D11AE0B9F5001F18D0B9F5041F17
:1022A00030D117E0D1F80CC02DE0D1F80C8008F146
:1022B000040C28E0D1F80C8008F1080C23E0D1F8D8
:1022C0000C8008F10C0C1EE000BF00BF00BF00BF77
:1022D00000BF00BFD1F80880B8F1000F02D14FF065
:1022E000040C0BE0D1F80880B8F1010F03D14FF0D6
:1022F000080C146102E04FF0080C546103E04FF049
:10230000000C00E000BF00BFFF2801D8904601E0AC
:1023100002F104084646FF2802D84FEA830803E08A
:10232000A3F108084FEA88084746D6F800804FF026
:102330000F0909FA07F928EA09080CFA07F900E079
:102340007AE048EA0908C6F80080D1F8048008F06D
:102350008058B8F1805F6FD100BFDFF8E481D8F812
:10236000188048F00108DFF8D891C9F81880C846ED
:10237000D8F8188008F00108CDF8008000BF00BF31
:102380004FEAB9384FEA930958F829504FEA837851
:102390004FEA18794FF00F0808FA09F825EA0805FE
:1023A000DFF8A081424502D14FF0000824E0DFF8B9
:1023B0009881424502D14FF001081DE0DFF88C8181
:1023C000424502D14FF0020816E0DFF88481424511
:1023D00002D14FF003080FE0DFF87881424502D1C7
:1023E0004FF0040808E0DFF87081424502D14FF059
:1023F000050801E04FF006084FEA83794FEA1979A2
:1024000008FA09F848EA0505DFF850814FEA930910
:1024100048F82950D1F8048008F48018B8F5801FD6
:102420000BD1DFF83C81D8F8008048EA0008DFF8DB
:102430003091C9F800800AE075E0DFF82481D8F80F
:10244000008028EA0008DFF81891C9F80080D1F868
:10245000048008F40018B8F5001F0ED1DFF80081E1
:1024600008F10408D8F8008048EA0008DFF8F09086
:1024700009F10409C9F800800DE0DFF8E48008F1F3
:102480000408D8F8008028EA0008DFF8D49009F1A1
:102490000409C9F80080D1F8048008F40038B8F5C0
:1024A000003F0ED1DFF8B880A8F10408D8F800800A
:1024B00048EA0008DFF8A890A9F10409C9F80080EB
:1024C0000DE0DFF89C80A8F10408D8F8008028EA25
:1024D0000008DFF88C90A9F10409C9F80080D1F850
:1024E000048008F48038B8F5803F0ED1DFF87080A2
:1024F000A8F10808D8F8008048EA0008DFF86090E2
:10250000A9F10809C9F800800DE0DFF85480A8F1AE
:102510000808D8F8008028EA0008DFF84490A9F1FC
:102520000809C9F800805B1CD1F8008028FA03F87C
:10253000B8F1000F7FF47CAEBDE8F8870000111001
:102540000010024000080140000C01400010014052
:102550000014014000180140001C01400800014027
:1025600008040140024693680B400BB1012000E0D3
:102570000020704710B5C26821EA020302EA010494
:1025800043EA0443036110BD0AB1016101E00B0499
:102590000361704701480068704700005400002044
:1025A00003480068034909780844014908607047F6
:1025B000540000205C00002010B50848006840F07E
:1025C000100006490860032000F0E2F80F2000F038
:1025D00007F800F05FF8002010BD00000020024066
:1025E0002DE9F04188B004460027B846002600BF18
:1025F0002348C06940F020002149C8610846C069ED
:1026000000F02000019000BF00BF02A903A800F065
:1026100099F9069F1FB900F0BDF9054602E000F0E8
:10262000B9F945001748B5FBF0F0A0F101081648CC
:102630001649086040F2E7311448C160C0F80480D0
:10264000002101618160816100F0B8FC064696B905
:102650000E4800F0FFFC06466EB9372000F04AF83D
:10266000102C07D200222146372000F053F80848EA
:10267000046000E00126304608B0BDE8F0810000AB
:102680000010024040420F0000140040A804002047
:102690005800002008B500BF1448806940F00100D0
:1026A000124988610846806900F00100009000BF6F
:1026B00000BF00BF0846C06940F08050C8610846AE
:1026C000C06900F08050009000BF00BF00220F21C1
:1026D000901E00F01FF800BF0549486820F0E06038
:1026E00040F00070486000BF08BD000000100240CC
:1026F0000000014001460846002809DB00F01F03E6
:1027000001229A4043099B0003F1E023C3F8002112
:1027100000BF70472DE9F05F80460D461646002742
:1027200003F09EFB074639462A46334601F0070070
:10273000C0F1070ABAF1040F02D94FF0040A01E010
:10274000C0F1070AD14600F1040ABAF1070F02D21C
:102750004FF0000A01E0A0F1030AD4464FF0010A4D
:102760000AFA09FAAAF1010A0AEA020A0AFA0CFAB2
:102770004FF0010B0BFA0CFBABF1010B0BEA030B57
:102780004AEA0B042146404603F072FBBDE8F09F85
:1027900000BF00F00702064B19684FF6FF0319400F
:1027A000044B0B4343EA0221014B196000BF704701
:1027B0000CED00E00000FA0570B504460D460CB9BA
:1027C000012070BD5A48006800F00700A8420ED2F0
:1027D0005748006820F0070028435549086008461C
:1027E000006800F00700A84201D00120E9E7207846
:1027F00000F0020002281DD1207800F00400042817
:1028000005D14C48406840F4E0604A49486020786F
:1028100000F00800082805D14648406840F46050A0
:10282000444948604348406820F0F000A1680843EC
:1028300040494860207800F0010078B360680128C2
:1028400006D13C48006800F4003090B90120B8E798
:102850006068022806D13748006800F0007040B96F
:102860000120AEE73348006800F0020008B90120FB
:10287000A7E73048406820F00300616808432D490D
:102880004860FFF787FE064609E0FFF783FE801BDE
:1028900041F28831884202D9032092E707E02548B7
:1028A000406800F00C006168B0EB810FEDD120486A
:1028B000006800F00700A8420ED91D48006820F00B
:1028C000070028431A4908600846006800F007001E
:1028D000A84201D0012074E7207800F00400042809
:1028E00007D11448406820F4E060E16808431149CA
:1028F0004860207800F00800082808D10D4840689A
:1029000020F46050216940EAC1000A49486000F0A3
:1029100061F808494968C1F30311074A515CC8408E
:102920000649086006480068FFF75AFE002048E79D
:102930000020024000100240329300086000002096
:10294000580000200F2202600D4A526802F0030274
:1029500042600B4A526802F0F0028260084A5268F4
:1029600002F4E062C260064A526802F46052D20881
:102970000261044A126802F007020A607047000010
:10298000001002400020024001480068704700002B
:102990006000002000B5FFF7F7FF04494968C1F364
:1029A0000221034A515CC84000BD000000100240F3
:1029B0004293000800B5FFF7E7FF04494968C1F3F7
:1029C000C221034A515CC84000BD00000010024013
:1029D0004293000870B5002100220024002300204B
:1029E000134D696801F00C05F5B1042D02D0082DD6
:1029F00019D101E00F4819E00F4DC1F38346AB5DDB
:102A000001F4803555B10A4D6D68C5F340450B4E54
:102A1000725D084D5D43B5FBF2F402E0084D03FB27
:102A200005F4204602E000BF024800BF00BF70BDB1
:102A30000010024000127A00209300083093000832
:102A400000093D00F8B504460CB90120F8BD207816
:102A500000F00100002878D0F848406800F00C0031
:102A600004280CD0F548406800F00C00082811D16B
:102A7000F248406800F48030B0F5803F0AD1EF485A
:102A8000006800F4003000285FD0606800285CD146
:102A90000120DBE700BF6068B0F5803F06D1E74862
:102AA000006840F48030E549086028E0606858B963
:102AB000E248006820F48030E04908600846006879
:102AC00020F4802008601AE06068B0F5A02F0BD1D8
:102AD000DA48006840F48020D84908600846006859
:102AE00040F4803008600AE0D448006820F4803068
:102AF000D24908600846006820F48020086000BFC2
:102B0000606888B1FFF746FD054606E0FFF742FD25
:102B1000401B642801D9032098E7C848006800F4E6
:102B200000300028F2D010E0FFF734FD054606E043
:102B3000FFF730FD401B642801D9032086E7BF481A
:102B4000006800F400300028F2D1207800F0020084
:102B5000022857D1B948406800F00C0050B1B7487E
:102B6000406800F00C00082818D1B448406800F410
:102B7000803098B9B148006800F0020020B12069A7
:102B8000012801D0012061E7AC48006820F0F8007E
:102B9000616940EAC100A949086033E02069E8B1F1
:102BA0000120A7490860FFF7F5FC054606E0FFF79E
:102BB000F1FC401B022801D9032047E79F48006829
:102BC00000F002000028F2D09C48006820F0F800D5
:102BD000616940EAC1009949086013E00020984902
:102BE0000860FFF7D7FC054606E0FFF7D3FC401B63
:102BF000022801D9032029E79048006800F002006C
:102C00000028F2D1207800F0080008282DD1A06912
:102C1000B8B101208B490860FFF7BCFC054606E00F
:102C2000FFF7B8FC401B022801D903200EE78348B8
:102C3000406A00F002000028F2D0012002F0AAF958
:102C400013E000207F490860FFF7A4FC054606E07A
:102C5000FFF7A0FC401B022801D90320F6E67748C5
:102C6000406A00F002000028F2D1207800F0040051
:102C7000042873D100277148C06900F0805070B9F2
:102C800000BF6E48C06940F080506C49C86108467A
:102C9000C06900F08050009000BF00BF01276A4863
:102CA000006800F48070B0B96748006840F4807034
:102CB00065490860FFF76EFC054606E0FFF76AFC11
:102CC000401B642801D90320C0E65F48006800F477
:102CD00080700028F2D000BFE068012806D1574874
:102CE000006A40F001005549086227E0E06858B9E1
:102CF0005248006A20F00100504908620846006A04
:102D000020F00400086219E0E06805280BD14B4868
:102D1000006A40F00400494908620846006A40F031
:102D2000010008620AE04548006A20F001004349BA
:102D300008620846006A20F00400086200BFE068EC
:102D4000A0B1FFF727FC054609E0FFF723FC401B75
:102D500041F28831884202D9032077E622E03748E1
:102D6000006A00F002000028EFD012E0FFF712FC2A
:102D7000054608E0FFF70EFC401B41F2883188420F
:102D800001D9032062E62D48006A00F00200002805
:102D9000F0D1012F05D12948C06920F08050274982
:102DA000C86100BFE069C8B32448406800F00C0067
:102DB000082860D0E069022848D100202049086630
:102DC000FFF7E8FB054606E0FFF7E4FB401B02289F
:102DD00001D903203AE61948006800F00070002885
:102DE000F2D1206AB0F5803F07D11448406820F442
:102DF0000030A168084311494860D4E9080108433C
:102E00000E49496821F4741108430C4948600120B7
:102E10000B490866FFF7BEFB054607E03DE0FFF7FC
:102E2000B9FB401B022801D903200FE603480068C4
:102E300000F000700028F2D02FE0000000100240E7
:102E400000004242800442420070004000201449C9
:102E50000866FFF79FFB054606E0FFF79BFB401B5C
:102E6000022801D90320F1E50E48006800F0007047
:102E70000028F2D111E0E069012800D1E6E5094817
:102E8000466806F48031206A814204D106F470114C
:102E9000606A814201D00120D8E50020D6E500001B
:102EA00000004242001002407047704710B50346D0
:102EB000002200BF93F83C00012801D1022010BD80
:102EC000012083F83C0000BF22F0FF00CC6840EAFC
:102ED000040222F440708C6840EA040222F480600C
:102EE0004C6840EA040222F400600C6840EA0402E4
:102EF00022F480500C6940EA040222F400504C692C
:102F000040EA040222F48040CC6940EA04021868D6
:102F1000426400BF002083F83C0000BF00BFCEE742
:102F200030B502460B4600BF92F83C00012801D1A3
:102F3000022030BD012082F83C0000BF022082F850
:102F40003D00106844681068816824F070041868B7
:102F5000044310684460144D1068A84213D0134D08
:102F60001068A8420FD01068B0F1804F0BD0104D00
:102F70001068A84207D00F4D1068A84203D00E4D2C
:102F80001068A84205D121F08001586801431068FB
:102F90008160012082F83D0000BF002082F83C00E3
:102FA00000BF00BFC5E70000002C01400034014015
:102FB0000004004000080040000C004010B504462A
:102FC0000CB9012010BD94F83D0028B9002084F808
:102FD0003C00204600F026F8022084F83D00211D28
:102FE000206802F0CDF8012084F8460000BF84F884
:102FF0003E0001213F20015540200155412001554F
:1030000000BF00BF012084F8420043200155442046
:1030100001554520015500BF012084F83D000020E6
:10302000D0E7000008B5094A016891420DD100BF00
:103030000749C96941F00201054AD1611146C969D0
:1030400001F00201009100BF00BF08BD0004004074
:1030500000100240014691F83D00012801D00120F6
:103060007047022081F83D000868C06840F0010008
:103070000B68D860164B0868984213D0154B086847
:1030800098420FD00868B0F1804F0BD0124B0868FF
:10309000984207D0114B0868984203D0104B08683B
:1030A00098420CD10868806800F00702062A0CD00C
:1030B0000868006840F001000B68186005E00868C7
:1030C000006840F001000B6818600020C8E70000AD
:1030D000002C014000340140000400400008004082
:1030E000000C00402DE9F04104460D46002700BFCA
:1030F00094F83C00012802D10220BDE8F0810120B3
:1031000084F83C0000BF022084F83D0020688668F7
:1031100026F0770626F47F462068866028685028C7
:1031200033D00CDC202850D004DC00284BD01028F1
:1031300051D149E0302849D040284CD139E06028AD
:103140002DD0702807D0B0F5805F03D0B0F5005FB8
:1031500041D10DE041E0D5E902136A68206802F030
:1031600076F82068866846F077062068866034E046
:10317000D5E902136A68206802F069F8206880685F
:1031800040F480402168886027E0EA686968206828
:1031900002F04EF95021206802F064F81DE0EA6860
:1031A0006968206802F057F96021206802F05AF837
:1031B00013E0EA686968206802F03AF94021206863
:1031C00002F050F809E000BF00BF00BF2968206886
:1031D00002F048F801E0012700BF00BF012084F899
:1031E0003D0000BF002084F83C0000BF384684E763
:1031F0002DE9F04104460D4614B90120BDE8F081E7
:1032000094F83D0028B9002084F83C00204600F0E6
:1032100051F8022084F83D002068806844F20701DC
:10322000884321688860211D206801F0A9FF20687B
:10323000D0F80880206886692068076A286840EA14
:10324000080840F203308643A969A86840EA0120D3
:10325000064340F60C4086434FF2F0008643E9698E
:10326000E86840EA0120064328690001296A40EA2B
:103270000130064327F022076969686840EA0110B7
:1032800007432068C0F808802068866120680762CC
:10329000012084F8460084F83E0001213F200155BA
:1032A000012084F8420043200155012084F83D00AC
:1032B0000020A3E710B586B00446002002900390DA
:1032C0000490059029492068884225D100BF2848EC
:1032D000806940F40060264988610846806900F4EE
:1032E0000060019000BF00BF00BF0846806940F049
:1032F000040088610846806900F00400019000BF66
:1033000000BF4FF44070029000200390049002A987
:103310001848FEF787FF27E02068B0F1804F23D1DF
:1033200000BF1348C06940F001001149C861084658
:10333000C06900F00100019000BF00BF00BF084657
:10334000806940F0040088610846806900F004004C
:10335000019000BF00BF0320029000200390049062
:1033600002A90448FEF75EFF06B010BD002C014024
:1033700000100240000801402DE9F04304460D46CC
:1033800094F83E603F20075D94F84280432010F897
:1033900004906DB9012E02D1B8F1010F02D00120C5
:1033A000BDE8F083022084F83E0084F8420025E066
:1033B000042D0CD1012F02D1B9F1010F01D0012050
:1033C000EEE702213F2001554320015516E0012E72
:1033D00007D1012F05D1B8F1010F02D1B9F1010FC9
:1033E00001D00120DCE7022084F83E0002213F20CA
:1033F0000155022084F842004320015515B1042DE7
:103400000CD105E001220021206801F00FFF10E03F
:1034100001220421206801F009FF0AE001220021B5
:10342000206801F003FF01220421206801F0FEFE64
:1034300000BF00BF2068006840F0010021680860FC
:103440000020ADE7704770B504462068C568206865
:10345000066906F00200022819D105F002000228D0
:1034600015D1401F216808610120207720688069FC
:1034700000F0030018B12046FFF7E4FF05E0204606
:1034800000F0FEF8204600F0C9F90020207706F091
:103490000400042819D105F00400042815D1C04304
:1034A00021680861022020772068806900F440705C
:1034B00018B12046FFF7C6FF05E0204600F0E0F80F
:1034C000204600F0ABF90020207706F0080008281D
:1034D00019D105F00800082815D1C04321680861FA
:1034E000042020772068C06900F0030018B120464E
:1034F000FFF7A8FF05E0204600F0C2F8204600F0E4
:103500008DF90020207706F01000102819D105F061
:103510001000102815D1C0432168086108202077C9
:103520002068C06900F4407018B12046FFF78AFF98
:1035300005E0204600F0A4F8204600F06FF90020D6
:10354000207706F0010048B105F0010030B16FF0BE
:10355000010021680861204600F0DCF906F08000D7
:10356000802809D105F08000802805D1C04321685A
:1035700008612046FFF798FC06F04000402809D17A
:1035800005F04000402805D1C0432168086120466D
:1035900000F0CCF906F02000202809D105F0200029
:1035A000202805D1C043216808612046FFF77DFC33
:1035B00070BD000010B586B0044600200290039054
:1035C000049005902849206888422FD100BF2748E1
:1035D000806940F00400254988610846806900F050
:1035E0000400019000BF00BF00BF0846806940F0A2
:1035F000080088610846806900F00800019000BF5B
:1036000000BFC0200290022003900320059002A971
:103610001748FEF707FE03200290022003900320C4
:10362000059002A91348FEF7FDFD1BE01249206832
:10363000884217D100BF0D48806940F010000B4947
:1036400088610846806900F01000019000BF00BF4B
:103650004FF41070029002200390059002A90748D1
:10366000FEF7E0FD06B010BD00040040001002406F
:1036700000080140000C01400034014000100140EE
:1036800070472DE9F04104460D461646002700BF5D
:1036900094F83C00012802D10220BDE8F08101200D
:1036A00084F83C0000BF36B1042E1BD0082E31D068
:1036B0000C2E5ED145E02946206801F0DDFD206832
:1036C000806940F00800216888612068806920F0E6
:1036D000040021688861206880692969084321689D
:1036E000886148E02946206801F0FEFD2068806975
:1036F00040F40060216888612068806920F480605F
:103700002168886120688069296940EA0120216870
:10371000886130E02946206801F024FE2068C069F5
:1037200040F008002168C8612068C06920F00400EA
:103730002168C8612068C069296908432168C86197
:1037400019E02946206801F049FE2068C06940F46C
:1037500000602168C8612068C06920F48060216829
:10376000C8612068C069296940EA01202168C861F0
:1037700001E0012700BF00BF00BF002084F83C002B
:1037800000BF384689E710B504460CB9012010BDCA
:1037900094F83D0028B9002084F83C00204600F051
:1037A00025F8022084F83D00211D206801F0E8FC86
:1037B000012084F8460000BF84F83E0001213F202C
:1037C0000155402001554120015500BF00BF012097
:1037D00084F84200432001554420015545200155FD
:1037E00000BF012084F83D000020D0E708B5094A59
:1037F000016891420DD100BF0749896941F4005128
:10380000054A91611146896901F40051009100BF98
:1038100000BF08BD003401400010024070470000A6
:1038200070B504460D4615B994F83E000BE0042D22
:1038300002D13F20005D06E0082D02D14020005D4E
:1038400001E04120005D012801D0012070BD1DB9BB
:10385000022084F83E000EE0042D03D102213F2017
:10386000015508E0082D03D102214020015502E056
:1038700002214120015501222946206801F0D6FC91
:103880001F492068884203D01E492068884201D120
:10389000012000E0002028B12068406C40F4004086
:1038A0002168486416492068884213D01549206869
:1038B00088420FD02068B0F1804F0BD012492068A9
:1038C000884207D011492068884203D010492068F7
:1038D00088420CD12068806800F00706062E0CD0C4
:1038E0002068006840F001002168086005E0206859
:1038F000006840F00100216808600020A6E7000091
:10390000002C014000340140000400400008004049
:10391000000C004010B5044603492068884201D1DC
:10392000FEF73EFE10BD0000001400407047F8B5E1
:1039300004460D46164694F8420020282DD105B1C4
:103940000EB90120F8BD01202063002060633246DB
:103950002946204601F0CAFF0746206B012819D1ED
:1039600000BF002000902068006800902068406838
:10397000009000BF00BF00BF00BF21680C3151E8BC
:10398000001F41F0100021680C3141E80002002ABC
:10399000F3D100E001273846D4E70220D2E7000047
:1039A00070B504460E462448844220D1142223498F
:1039B000FFF7BDFF22480068006820F0040020499E
:1039C000096808601F48006888B11F491D480068E1
:1039D00004F0BEFE05461C48006838B14FF0805028
:1039E0001A490860BFF34F8FBFF36F8F00BF1848AD
:1039F000844220D10A221749FFF799FF1648006830
:103A0000006820F004001449096808601348006841
:103A100088B113491148006804F09AFE0546104821
:103A2000006838B14FF0805008490860BFF34F8FED
:103A3000BFF36F8F00BF70BD08030020040100209A
:103A4000DC030020400000204C00002004ED00E0DA
:103A50005003002018010020200400204400002012
:103A600050000020704700002DE9F84F0446206800
:103A700005682068C668206847694FF00009CA4693
:103A800005F00F09B9F1000F0AD105F0200038B197
:103A900006F0200020B1204601F02CFEBDE8F88F92
:103AA000B9F1000F7BD007F0010018B906F490704F
:103AB000002874D005F0010030B106F4807018B110
:103AC000606C40F00100606405F0040030B107F064
:103AD000010018B1606C40F00200606405F0020063
:103AE00030B107F0010018B1606C40F00400606470
:103AF00005F0080048B106F0200010B907F00100F9
:103B000018B1606C40F008006064606C002845D01B
:103B100005F0200028B106F0200010B1204601F089
:103B2000E9FD20684069C0F3801A606C00F008006D
:103B300010B9BAF1000F2CD0204601F082FD2068A8
:103B4000406900F0400000B300BF00BF216814319D
:103B500051E8001F21F040002168143141E80002C3
:103B6000002AF3D100BFE06B50B17748E16B4863A6
:103B7000E06BFEF709F888B1E06B416B88470DE018
:103B80002046FFF76FFF09E009E02046FFF76AFFD4
:103B900004E02046FFF766FF002060647EE7206BAC
:103BA000012877D105F01000002873D006F010002E
:103BB0000028FAD000BF0020009020680068009024
:103BC00020684068009000BF00BF2068406900F096
:103BD000400000285FD0E06B006840681FFA80F862
:103BE000B8F1000F55D0A08D404552DDA4F82E80CD
:103BF000E06B8069202843D000BF00BF21680C31F2
:103C000051E8001F21F4807021680C3141E8000266
:103C1000002AF3D100BF00BF00BF2168143151E872
:103C2000001F21F001002168143141E80002002A40
:103C3000F3D100BF00BF00BF2168143151E8001F5D
:103C400021F040002168143141E80002002AF3D13C
:103C500000BF202084F842000020206300BF00BF86
:103C600021680C3151E8001F21F0100021680C314F
:103C700041E80002002AF3D100BFE06BFDF758FFD6
:103C800002206063A08DE28D801A81B22046FFF78A
:103C900087FE03E742E0A08DE18D401A1FFA80F80D
:103CA000E08DD0B3B8F1000F37D000BF00BF21685E
:103CB0000C3151E8001F21F4907021680C3141E86B
:103CC0000002002AF3D100BF00BF00BF21681431F9
:103CD00051E8001F21F001002168143141E8000281
:103CE000002AF3D100BF202084F842000020206386
:103CF00000BF00BF21680C3151E8001F21F0100007
:103D000021680C3141E80002002AF3D100BF0220F3
:103D1000606341462046FFF743FEBFE605F08000A2
:103D200030B106F0800018B1204601F063FEB5E620
:103D300005F0400030B106F0400018B1204601F017
:103D4000B6FCABE600BFA9E6A154000810B50446D6
:103D50000CB9012010BDA06900B100E000BF94F8CB
:103D6000410028B9002084F84000204600F02AF8DD
:103D7000242084F841002068C06820F400502168A5
:103D8000C860204601F034FD2068006920F49040AE
:103D9000216808612068406920F02A002168486194
:103DA0002068C06840F400502168C860002060644A
:103DB000202084F8410084F842000020606300BFA6
:103DC000C8E7000010B586B00446002002900390BA
:103DD00004900590B4492068884250D100BFB34890
:103DE000C06940F40020B149C8610846C06900F4C8
:103DF0000020019000BF00BF00BF0846806940F06E
:103E0000100088610846806900F01000019000BF32
:103E100000BF08150290022003900320059002A91C
:103E2000A348FEF7FFF94FF40060029000200390D2
:103E3000049002A99E48FEF7F5F99E489E49086045
:103E40000020486000219C4881608021C1600021E1
:103E5000016141618161C161FEF736F908B1FDF789
:103E600043FD00BF9448E063446200BF00220A2182
:103E70003420FEF74FFC3420FEF73CFC12E18F4962
:103E80002068884243D100BF8848C06940F4801050
:103E90008649C8610846C06900F48010019000BFDF
:103EA00000BF00BF0846806940F0100088610846E6
:103EB000806900F01000019000BF00BF00BF0846FD
:103EC000806940F0200088610846806900F0200089
:103ED000019000BF00BF88140290022003900320CD
:103EE000059002A97248FEF79DF904200290002077
:103EF0000390049002A97248FEF794F900220A2167
:103F00003520FEF707FC3520FEF7F4FBCAE06D49CB
:103F10002068884258D100BF6448806940F48040DE
:103F2000624988610846806900F48040019000BFC2
:103F300000BF00BF0846806940F00800886108465D
:103F4000806900F00800019000BF00BF402002908F
:103F5000022003900320059002A95B48FEF762F956
:103F60008020029000200390049002A95648FEF79A
:103F700059F900BF5549486840F0E06040F004003E
:103F8000486000BF52485349086000204860002143
:103F9000504881608021C1600021016141618161DF
:103FA000C161FEF791F808B1FDF79EFC00BF4948DA
:103FB000E063446200BF002205212520FEF7AAFB32
:103FC0002520FEF797FB6DE043492068884269D1C0
:103FD00000BF3648C06940F400303449C861084623
:103FE000C06900F40030019000BF00BF00BF084668
:103FF000806940F0040088610846806900F0040090
:10400000019000BF00BF0420029002200390032013
:10401000059002A93148FEF705F90820029000201A
:104020000390049002A92D48FEF7FCF828481430AC
:104030002B490860002048600021294881608021C8
:10404000C1600021016141618161C161FEF73CF8FD
:1040500008B1FDF749FC00BF2148E063446200BF9E
:104060001B4828301F4908601020486000211D4867
:1040700081608021C1600021016141618161C16174
:10408000FEF722F808B1FDF72FFC00BF1548A0632A
:10409000446200BF002205212620FEF73BFB2620BC
:1040A000FEF728FB06B010BD004C00400010024097
:1040B00000100140300402409803002000500040EE
:1040C0000014014000380140000C01400000014094
:1040D00058000240DC03002000440040000801407A
:1040E000200400206404002070B504460D461646E6
:1040F00094F8420020280BD105B10EB9012070BD03
:104100000020206332462946204601F053FCF6E7A2
:104110000220F4E710B504460949206888420DD111
:104120002068006800F0200040B90121054802F035
:10413000E9FC012203490448FFF7D6FF10BD000047
:104140000050004000000020C002002070472DE910
:10415000F84F04460E46174699464FF0000A94F869
:104160004100202850D106B117B90120BDE8F88FD1
:1041700000206064212084F84100FEF70BFA82469B
:10418000A784E784A068B0F5805F04D1206910B9E6
:104190000025B04602E035464FF000081EE05346C9
:1041A000002280212046CDF8009001F053FC20B180
:1041B000202084F841000320D8E745B9B8F8000072
:1041C000C0F308002168486008F1020803E028787D
:1041D000216848606D1CE08C401EE084E08C002863
:1041E000DDD15346002240212046CDF8009001F059
:1041F00031FC20B1202084F841000320B6E72020C4
:1042000084F841000020B1E70220AFE7F7B504468B
:10421000154694F84100202836D1019800B10DB917
:104220000120FEBD01982062A584E5840020606421
:10423000212084F841001548A16B88621448A16BC5
:10424000C8621448A16B08630020A16B486301AEEB
:1042500023681A1D31682B46A06BFDF77BFF6FF0BA
:1042600040002168086000BF00BF2168143151E898
:10427000001F41F080002168143141E80002002A4B
:10428000F3D100BF0020CCE70220CAE7DD550008CB
:1042900035560008B554000810B5034693F84100A0
:1042A000202813D101B10AB9012010BD19629A84E6
:1042B000DA8400205864212083F841001868C0681F
:1042C00040F080001C68E0600020EEE70220ECE790
:1042D0007047704700BFFEE72DE9F05F04460D46CA
:1042E0006560D4E90001FCF75BFA60624FF0804042
:1042F000A16AFCF75BFA8346616AFCF754FA8246CE
:10430000E16AFCF7FBF98146A16BFCF74FFA07461F
:10431000616A606BFCF74AFA8246D4E90901FCF74E
:104320003FFA8346E16BFCF741FA81465146FCF7C0
:10433000E5F980463946FCF7E1F90646A168FCF745
:10434000DDF9A060A06AE062606AA062A068BDE8D2
:10435000F09F000008B500BF1D48406940F0020012
:104360001B4948610846406900F00200009000BF08
:1043700000BF00BF0846406940F0010048610846A0
:10438000406900F00100009000BF00BF002205213D
:104390000F20FEF7BFF90F20FEF7ACF90022052130
:1043A0001020FEF7B7F91020FEF7A4F9002205212E
:1043B0001120FEF7AFF91120FEF79CF9002205212C
:1043C0003A20FEF7A7F93A20FEF794F908BD00005D
:1043D0000010024010B5194A0021012002F096FC9D
:1043E00017490860174A0021012002F08FFC164986
:1043F0000860164A0021164802F0EEFC15490860D4
:10440000154A0021154802F0E7FC15490860154AD5
:104410000021154802F0E0FC14490860144A00210C
:10442000144802F0D9FC14490860144A00211448C9
:1044300002F0D2FC1349086010BD00000093000890
:104440004000002010930008440000204C92000817
:10445000F11800082C000020709200086D50000830
:104460003000002094920008E94F0008340000203A
:10447000B89200086D4A000838000020DC9200085D
:10448000BD4F00083C00002000B585B00020019021
:1044900002900390049000BF3B48806940F02000E8
:1044A000394988610846806900F02000009000BF0B
:1044B00000BF00BF0846806940F0100088610846D0
:1044C000806900F01000009000BF00BF00BF0846E8
:1044D000806940F0040088610846806900F00400AB
:1044E000009000BF00BF00BF0846806940F0080090
:1044F00088610846806900F00800009000BF00BF96
:10450000002206212148FEF73FF801224FF4716195
:104510001F48FEF739F80620019001200290002084
:1045200003900220049001A91848FDF77BFE4FF488
:1045300070600190112002900120039003200490EC
:1045400001A91348FDF76EFE4FF440400190114859
:1045500002900220039001A90D48FDF763FE102090
:1045600001900120029003900220049001A90848C4
:10457000FDF758FE002205212820FEF7CBF8282061
:10458000FEF7B8F805B000BD001002400010014071
:10459000000C01400000111000B58BB0242102A8CE
:1045A000FBF757FE0020009001901A481A49086056
:1045B000002048600021184881604FF6FF71C160FB
:1045C000002101614161816103200290002003907C
:1045D00001200490002005900520069002200790FD
:1045E000012008900020099005200A9002A90A489D
:1045F000FEF7FEFD08B1FDF777F90020009001906D
:1046000069460548FEF78CFC08B1FDF76DF90BB063
:1046100000BD0000002C01405801002000B58BB007
:10462000242102A8FBF715FE0020009001904FF016
:1046300080401949086000204860002116488160C8
:104640004FF6FF71C160002101618161032002907A
:104650000020039001200490002005900520069082
:1046600002200790012008900020099005200A9060
:1046700002A90948FEF7BCFD08B1FDF735F9002095
:104680000090019069460448FEF74AFC08B1FDF726
:104690002BF90BB000BD0000A001002000B58DB0CB
:1046A000002009900A900B900C90079008901C2114
:1046B0006846FBF7CEFD2C482C490860082048606E
:1046C00000212A48816040F2E731C1600021016188
:1046D0008161FEF773FC08B1FDF706F94FF48050D5
:1046E000099009A92148FEF7FDFC08B1FDF7FCF887
:1046F0001E48FFF748F808B1FDF7F6F800200790CC
:10470000089007A91948FEF70BFC08B1FDF7ECF873
:1047100060200090002001900290049000226946E1
:104720001248FEF7AEFF08B1FDF7DEF80422694635
:104730000E48FEF7A6FF08B1FDF7D6F80822694635
:104740000A48FEF79EFF08B1FDF7CEF80C22694635
:104750000648FEF796FF08B1FDF7C6F80348FEF7D6
:1047600029FF0DB000BD000000040040E80100205A
:1047700000B591B000200F9010901C2108A8FBF705
:1047800068FD20216846FBF764FD2748274908603B
:10479000002048600021254881604FF6FF71C1600C
:1047A0000021016141618161FEF7EDFF08B1FDF774
:1047B0009BF800200F9010900FA91C48FEF7B0FB4B
:1047C00008B1FDF791F860200890002009900A9048
:1047D0000B900C900D900E90002208A91348FEF744
:1047E00050FF08B1FDF780F80C2208A90F48FEF72A
:1047F00048FF08B1FDF778F8002000900190029082
:10480000039004904FF400500590002007906946F3
:104810000648FEF74BFB08B1FDF766F80348FEF7C4
:10482000C9FE11B000BD000000340140300200207C
:1048300010B50B480B4908604FF4E1304860002187
:1048400008488160C16001610C21416100218161E2
:10485000C161FFF77BFA08B1FDF746F810BD000013
:10486000004C00407802002010B50B480B4908604E
:104870004FF4E1304860002108488160C160016167
:104880000C21416100218161C161FFF75FFA08B12C
:10489000FDF72AF810BD000000500040C0020020C3
:1048A00010B50B480B4908604FF4165048600021C2
:1048B00008488160C16001610C2141610021816172
:1048C000C161FFF743FA08B1FDF70EF810BD000013
:1048D000003801400803002010B50B480B49086060
:1048E0004FF4E1304860002108488160C1600161F7
:1048F0000C21416100218161C161FFF727FA08B1F4
:10490000FCF7F2FF10BD00000044004050030020FF
:1049100000BFFEE770B505460C4600212846FCF7AF
:10492000BFF91AD84FF47A703C49096888633C494A
:104930002846FCF7B5F900D2394D00212846FCF78E
:10494000B9F900D2002537492846FBF7D7FE0646BD
:10495000FCF732F931490968486300212846FCF721
:10496000A9F91AD24FF47A702C49096848632D4985
:104970002846FCF79FF900D22A4D00212846FCF773
:104980008FF900D8002527492846FBF70CFF06467B
:10499000FCF712F921490968886300212046FCF7D9
:1049A0007FF91AD84FF47A701C49096808641C49C9
:1049B0002046FCF775F900D2194C00212046FCF77F
:1049C00079F900D2002417492046FBF797FE0646E6
:1049D000FCF7F2F811490968C86300212046FCF78A
:1049E00069F91AD24FF47A700C490968C8630D4905
:1049F0002046FCF75FF900D20A4C00212046FCF764
:104A00004FF900D2002421460648FBF7C9FE0646AE
:104A1000FCF7D2F801490968086470BDE80100207C
:104A200000007AC400007A442DE9F04104460D46A6
:104A30000A4804600A4805600A4841680748FFF7C9
:104A40004BFC0646084841680548FFF745FC074609
:104A500039463046FFF75EFFBDE8F081CC240020E8
:104A600010250020E8000020F0000020002400F0C5
:104A70003FF902E0322003F0A9F935480078012817
:104A8000F8D1344800780128F4D133A001F0D8F9E6
:104A900000BFFCF76DFDFCF727FD3548007890B1AD
:104AA000344AD1681068FCF727FC2044C4B2032CB8
:104AB0004ADB00202E490870FCF7B0FE01202E4989
:104AC0000870002440E02A488078D8B1294B5A6801
:104AD0002A4B9968274BD8684FF07C53FCF70AFEA5
:104AE0002044C4B2032C2FDB0020214988702149C7
:104AF000C868FCF787FEFCF791FE01201E4908708C
:104B0000002421E01A48C07890B11A4A516810690F
:104B1000FCF76CFC2044C4B2032C15DB00201449C4
:104B2000C870FCF77BFE01201349087000240BE0DD
:104B30000F48407840B100210846FFF775FFFCF7A9
:104B40006DFE01200C490870282003F03FF9A0E712
:104B500005000020040000200D0A20414C4C5F4954
:104B6000535F524541444559202121210D0A00003F
:104B700028000020240100200C0000204401002017
:104B800070B50446012C05D141020848FDF7EAFC46
:104B9000054606E0022C04D1A1020448FDF7E2FC20
:104BA00005460520FCF780FE284670BD000C01403C
:104BB00070B504462146012000F080F8214601200E
:104BC00000F064F82046FFF7DBFF05462146002091
:104BD00000F05CF8284670BD70B5054600262946F1
:104BE000012000F06BF8002411E02946012000F0BC
:104BF0004DF82846FFF7C4FF012802D1802020414C
:104C000006432946002000F041F8601CC4B2082C7D
:104C1000EBDB304670BD70B505460E46002410E053
:104C20008021214101EA0500314600F047F8314674
:104C3000012000F02BF83146002000F027F8601C1E
:104C4000C4B2082CECDB70BD10B50446214601202F
:104C500000F034F82146012000F018F82146002029
:104C600000F02CF82146002000F010F810BD10B51F
:104C700004462146002000F021F82146012000F0E2
:104C800005F82146012000F019F810BD70B5054661
:104C90000C46012C05D12A4609020748FDF774FC91
:104CA00006E0022C04D12A4661020348FDF76CFCA1
:104CB0000520FCF7F9FD70BD000C014070B50546FC
:104CC0000C46012C05D12A4649020748FDF75CFC39
:104CD00006E0022C04D12A46A1020348FDF754FC49
:104CE0000520FCF7E1FD70BD000C014000BFFEE7B0
:104CF00000202649C86008614861486288620863EC
:104D000023484863234888634FF04040C86300202D
:104D1000214948600860886048628862C862086308
:104D20004FF0814048631D4888631D48C8630020D8
:104D30001C4948600860886048628862C8620863ED
:104D40004FF081404863154888631548C8630020C8
:104D500015498861C861086248628862C862086350
:104D600012484863124888631248C86300201249F9
:104D7000C860086148614862886208630F484863F8
:104D80000F4888630D48C8637047000088240020DE
:104D9000000040400AD7233CCC2400200AD7A33B84
:104DA0000000C04010250020542500206666663EA5
:104DB00099BB963A1F85EB3D98250020CDCCCC3D84
:104DC00017B7D1382DE9F04704460D462561D4E9DF
:104DD0000301FBF7E5FC6062616A206BFBF78EFC68
:104DE0002063D4E90901FBF7DBFC8046E16BFBF7AC
:104DF000DDFC0646216BA06BFBF7D8FC8046616AA0
:104E0000606BFBF7D3FC81464146FBF777FC074616
:104E10003146FBF773FC6061606AA0626069BDE8BF
:104E2000F08700002DE9F04704462148007A204928
:104E3000497A401A2064206CFBF7B0FE0646216BCD
:104E4000FBF75CFC2063216BA06BFBF7AFFC054616
:104E500018492846FBF72EFF00D2164D1649284662
:104E6000FBF71EFF00D2144D206CFBF797FE814626
:104E7000A16AFBF795FC8046E16BFBF797FC0646C1
:104E8000206CFBF78BFE8146616BFBF78FFC804645
:104E90002946FBF733FC07463146FBF72FFC6061E0
:104EA000206CFBF77BFEA0626069BDE8F087000024
:104EB0003801002000004040000040C02DE9F047CC
:104EC00004460E46E661D4E90601FBF769FC606220
:104ED0002C49606AFBF7E4FE0DD22B48A169FBF771
:104EE0000DFC07462848E169FBF75AFC8046394625
:104EF000FBF704FC60622449606AFBF7DBFE0FD21B
:104F00002148A169FBF7FAFB07461F48E169FBF757
:104F100047FC80463946FBF7F1FB80F000406062B9
:104F2000616A206BFBF7EAFB2063216BA06BFBF748
:104F30003DFC054615492846FBF7BCFE00D2134D43
:104F400013492846FBF7ACFE00D2114DD4E9090104
:104F5000FBF726FC8146E16BFBF728FC0746616AFC
:104F6000606BFBF723FC81462946FBF7C7FB8046B5
:104F70003946FBF7C3FB2062606AA062206ABDE885
:104F8000F0870000000034C30000344300004040BC
:104F9000000040C008B508490968C9084FF47A7292
:104FA000B1FBF2F14143009100BF00BF00994A1EDE
:104FB00000920029F9D108BD6000002000BF4FF029
:104FC000FF310748006803F0E7FC0128F7D1002013
:104FD00003E00021034A1154401C0428EFD8F8E7ED
:104FE00040000020040100200024012000F08AFD80
:104FF0000A2002F0EBFE022000F084FD0A2002F0FD
:10500000E5FE05222D21144800F057FE00BF1021B7
:105010001248FDF7AFFA012000F0B3FE0E490978FF
:10502000401A0D490872022000F0ABFE0A490979C6
:10503000401A094948720A4609480168094800F0BF
:1050400045F8601CC4B2052C02D101200649087045
:10505000192002F0BBFEDAE738010020000C014005
:1050600024000020100000200500002086B000254C
:1050700001F086FC0A2001F0DFFC04460194029452
:105080000394049405940D48C46000BF0F210C489C
:1050900001F076FB06460A490522886801A9FCF75B
:1050A00001FD08498860681CC5B2052D02D10120A8
:1050B000054908701E2002F089FEE7E72401002060
:1050C000F4230020440100200400002070B50B46AA
:1050D0005C1E117A567A8D19002105E000EB8106DD
:1050E000766840F82160491CA142F7DB40F8245063
:1050F00070BD10B54FF0E020006903F0FFFD0128FE
:1051000001D003F06FF810BD00B58FB0282105A8BD
:10511000FBF79FF814216846FBF79BF801200590E8
:1051200000040690002007900120099002200C90B6
:10513000C1030D914FF4E0110E9105A8FDF782FC1B
:1051400008B1FCF7D1FB0F20009002200190002055
:1051500002904FF480600390002004900221684682
:10516000FDF72AFB08B1FCF7BFFB0FB000BD70478D
:1051700010B50248FEF767F910BD0000A804002032
:1051800010B50268244B98420ED0244B98420BD0A5
:10519000B0F1804F08D0224B984205D0214B984265
:1051A00002D0214B984203D122F070024B681A437F
:1051B000194B98420ED0194B98420BD0B0F1804F4A
:1051C00008D0174B984205D0164B984202D0164B88
:1051D000984203D122F44072CB681A4322F0800334
:1051E0004C6943EA040202608B68C3620B68836205
:1051F000094B984202D0094B984201D10B690363D5
:1052000001234361036903F001031BB1036923F028
:105210000103036110BD0000002C01400034014077
:105220000004004000080040000C004030B501F0D0
:105230001F05012404FA05F3046A9C430462046A0E
:1052400001F01F0502FA05F52C43046230BD30B5AC
:105250000C46816821F47F4142EA03252543294316
:10526000816030BD0A46816821F0700142F0070379
:10527000194381607047000030B5026A056A25F065
:10528000010505624368846924F0700424F0030476
:105290000D682C4322F002028D682A43104DA8426B
:1052A00000D103E00F4DA84206D100BF22F0080252
:1052B000CD682A4322F00402094DA84202D0094DCC
:1052C000A84207D123F4807323F400734D692B4364
:1052D0008D692B43436084614D684563026230BD34
:1052E000002C01400034014030B5026A056A25F007
:1052F000100505624368846924F4E04424F4407492
:105300000D6844EA052422F020028D6842EA051265
:10531000124DA84200D103E0114DA84207D100BFB1
:1053200022F08002CD6842EA051222F040020B4DC5
:10533000A84202D00A4DA84209D123F4806323F485
:1053400000634D6943EA85038D6943EA8503436041
:1053500084614D688563026230BD0000002C01400D
:105360000034014030B5026A056A25F48075056293
:105370004368C46924F0700424F003040D682C43CE
:1053800022F400728D6842EA0522124DA84200D133
:1053900003E0114DA84207D100BF22F40062CD689E
:1053A00042EA052222F480620A4DA84202D00A4D48
:1053B000A84209D123F4805323F400534D6943EAF2
:1053C00005138D6943EA05134360C4614D68C563E5
:1053D000026230BD002C01400034014030B5036A48
:1053E000056A25F4805505624468C26922F4E042EA
:1053F00022F440720D6842EA052223F400538D68BE
:1054000043EA0533084DA84202D0084DA84204D112
:1054100024F480444D6944EA85144460C2614D68B7
:105420000564036230BD0000002C014000340140DF
:1054300030B50B461446026A056A25F0010505627F
:10544000816921F0F00141EA041122F00A021A43B5
:105450008161026230BD30B50B461446026A056AAE
:1054600025F010050562816921F4704141EA04319B
:1054700022F0A00242EA03128161026230BD000004
:1054800010B50248FEF7F0FA10BD000078020020C7
:1054900010B50248FEF7E8FA10BD0000C002002077
:1054A00070B505466C6A0020E085E0842046FEF772
:1054B000D9FA70BD70B506460025746A2068406947
:1054C000C0F3C01594F84100212805D125B1002072
:1054D000E084204600F0FBF820684069C0F38015A6
:1054E00094F84200222805D125B10020E08520460D
:1054F00000F0A7F8606C40F0100060642046FEF7F2
:10550000B1FA70BD70B505466C6A2868006800F095
:105510002000002842D1E08500BF00BF21680C3187
:1055200051E8001F21F4807021680C3141E800022D
:10553000002AF3D100BF00BF00BF2168143151E839
:10554000001F21F001002168143141E80002002A07
:10555000F3D100BF00BF00BF2168143151E8001F24
:1055600021F040002168143141E80002002AF3D103
:1055700000BF202084F84200206B01280ED100BF1C
:1055800000BF21680C3151E8001F21F01000216894
:105590000C3141E80002002AF3D100BF0020606313
:1055A000206B012804D1A18D2046FEF7F9F902E015
:1055B0002046FEF7AFFD70BD70B505466C6A012050
:1055C0006063206B012805D1A08D41082046FEF7BD
:1055D000E7F902E02046FEF7B9FD70BD70B505465B
:1055E0006C6A2868006800F02000F8B90020E084A8
:1055F00000BF00BF2168143151E8001F21F0800076
:105600002168143141E80002002AF3D100BF00BF35
:1056100000BF21680C3151E8001F41F040002168B3
:105620000C3141E80002002AF3D102E02046FEF7E7
:105630004FFE70BD70B50446656A2846FEF749FE08
:1056400070BD00BF00BF02680C3252E8002F22F488
:10565000907102680C3242E80013002BF3D100BFB6
:1056600000BF00BF0268143252E8002F22F001018F
:105670000268143242E80013002BF3D100BF016B23
:1056800001290ED100BF00BF02680C3252E8002F82
:1056900022F0100102680C3242E80013002BF3D113
:1056A00000BF202180F8421000210163704710B52F
:1056B00004462068C06820F040002168C8602020AF
:1056C00084F841002046FEF703FE002010BD00BF15
:1056D00000BF02680C3252E8002F22F0C0010268BD
:1056E0000C3242E80013002BF3D100BF202180F8D8
:1056F00041107047F8B5044694F84200222875D14D
:10570000A068B0F5805F0CD1206950B90025A66A69
:1057100020684068C0F308003080A06A801CA06246
:1057200015E0A56A0026A068B0F5805F03D0A068E8
:1057300028B9206918B920684068287004E02068FA
:10574000406800F07F002870A06A401CA062E08DD5
:10575000401E80B2E085002846D12068C06820F055
:1057600020002168C8602068C06820F4807021682B
:10577000C8602068406920F001002168486120204D
:1057800084F8420000206063206B012826D10020AD
:10579000206300BF00BF21680C3151E8001F21F0D9
:1057A000100021680C3141E80002002AF3D100BF4B
:1057B0002068006800F0100010280AD100BF002007
:1057C000009020680068009020684068009000BF4A
:1057D00000BFA18D2046FEF7E3F802E02046FEF769
:1057E00099FC0020F8BD01E00020FBE70220F9E76A
:1057F00070B504462168096921F44051E2681143FB
:10580000226811612269A1681143626941EA0205B7
:105810002168C96841F20C62914329432268D16032
:105820002168496921F44071A269114322685161DC
:105830002D4A2168914202D1FDF7BCF801E0FDF745
:10584000A9F800EBC00101EB001162689200B1FB06
:10585000F2F100EBC00202EB001263689B00B2FBA6
:10586000F3F26423B2FBF3F202EBC20303EB021286
:10587000A1EB8201322202EB01116422B1FBF2F1B1
:1058800001F0F00100EBC00202EB001263689B0024
:10589000B2FBF3F26423B2FBF3F201EB021200EB72
:1058A000C00101EB001163689B00B1FBF3F100EB59
:1058B000C00303EB00136668B600B3FBF6F364267F
:1058C000B3FBF6F303EBC30606EB0313A1EB830173
:1058D000322303EB01116423B1FBF3F101F00F015B
:1058E00011442268916070BD0038014077B581B0E5
:1058F000044615460298A062A58500206064222017
:1059000084F842002848E16B88622848E16BC8624D
:105910002748E16B08630020E16B486302AE326800
:105920002368191D2B46E06BFCF714FC00BF002018
:10593000009020680068009020684068009000BFD8
:1059400000BF206970B100BF00BF21680C3151E871
:10595000001F41F4807021680C3141E80002002AE8
:10596000F3D100BF00BF00BF2168143151E8001F10
:1059700041F001002168143141E80002002AF3D10E
:1059800000BF00BF00BF2168143151E8001F41F083
:1059900040002168143141E80002002AF3D100BF21
:1059A000002004B070BD000005550008B95500087E
:1059B000B554000810B5034699629A85DA8500202F
:1059C0005864222083F84200186928B11868C0681A
:1059D00040F480701C68E0601868406940F0010085
:1059E0001C6860611868C06840F020001C68E060B6
:1059F000002010BD014691F84100212828D1886877
:105A0000B0F5805F0BD1086948B90A6A1088C0F305
:105A100008000B685860086A801C086205E00B6A81
:105A2000581C086218780B685860C88C401E80B2F9
:105A3000C88458B90868C06820F080000B68D86036
:105A40000868C06840F040000B68D86000207047CC
:105A50000220FCE72DE9F84304460D461746984618
:105A6000089E31E0701C70B3FCF794FDA0EB0800B9
:105A7000B04200D816B90320BDE8F8832068C0689A
:105A800000F00400F8B1802D1ED0402D1CD02068FD
:105A90000068C0F3C000B0B100BF002000902068D3
:105AA0000068009020684068009000BF00BF20465A
:105AB000FFF7C7FD0820606400BF002084F84000A5
:105AC00000BF0120D8E7FFE7206800682840A8420F
:105AD00001D1012000E00020B842C3D00020CBE774
