:020000040800F2
:1000000060280020DD010008312B0008B72400081B
:10001000252A000833070008CD3000080000000042
:100020000000000000000000000000004501000882
:10003000650700080000000089010008612B000826
:10004000F7010008F7010008F7010008F7010008B0
:10005000F7010008F7010008F7010008F7010008A0
:10006000F7010008F7010008F7010008F701000890
:10007000F7010008F7010008F7010008350700083C
:10008000410700084D070008F7010008F7010008C4
:10009000F7010008F7010008F7010008F701000860
:1000A000F7010008F7010008F7010008F701000850
:1000B000F7010008F7010008F7010008F701000840
:1000C000F7010008F7010008F7010008F701000830
:1000D000F7010008B5300008C1300008F70100083A
:1000E00067070008F7010008F7010008F70100089A
:1000F000F7010008F7010008F7010008F701000800
:10010000F7010008F7010008F7010008F7010008EF
:100110008D2E0008992E0008F7010008D92B000841
:10012000F7010008F701000859070008F701000867
:10013000DFF80CD000F0DCFA004800474531000839
:1001400060280020224B19680868B0E8F00F80F39F
:100150000988BFF36F8F4FF0000080F311884EF0D5
:100160000D0E70470000000006480068006880F32C
:10017000088862B661B6BFF34F8FBFF36F8F00DFA1
:1001800000BF00BF08ED00E0EFF30980BFF36F8F01
:100190000F4B1A6820E9F00F106008B54FF05000BF
:1001A00080F31188BFF34F8FBFF36F8F03F03AFFD7
:1001B0004FF0000080F31188BDE808401968086816
:1001C000B0E8F00F80F30988BFF36F8F704700BF6E
:1001D00030000020EFF3058070470000064880479C
:1001E00006480047FEE7FEE7FEE7FEE7FEE7FEE71C
:1001F000FEE7FEE7FEE7FEE7D72B00083101000827
:10020000202A04DB203A21FA02F00021704721FA6B
:1002100002F3D040C2F120029140084319467047D2
:1002200040EA01039B0703D009E008C9121F08C078
:10023000042AFAD203E011F8013B00F8013B521EF8
:10024000F9D27047D2B201E000F8012B491EFBD26F
:1002500070470022F6E710B513460A4604461946D1
:10026000FFF7F0FF204610BDF0B480EA0102D40F82
:100270004200B2EB410F02D20246084611464A0044
:1002800042D0C30DDDB2C1F3C752AD1A202D35DA0D
:10029000C1F3160141F4000204B15242C5F1200637
:1002A00002FA06F12A411044B3EBD05F23D0C4B167
:1002B000012DA0EBC35009DCF0BC4FF0004202EA74
:1002C000C352DBB200F5000000F086B9400000F137
:1002D000807000EBC350A0F1807040EAD1704900FB
:1002E00009E0490841EAC071A0EBC35000F50000E5
:1002F000400800EBC350F0BC00F065B96142012238
:1003000002EB4101001BF6E7F0BC704781F00041B1
:10031000AAE780F00040A7E730B480EA010202F0CB
:10032000004530F0004221F0004013D090B1C30DE1
:10033000D40DC2F31601C0F31600E41A41F4000113
:1003400040F400027D34914201D3641C00E0490076
:10035000002C02DA30BC002070474FF4000000236C
:10036000914201D3891A034340084FEA4101F7D172
:1003700051B1914202D14FF0004105E002D24FF05D
:10038000010101E06FF0010103EBC450284430BCCF
:1003900000F019B92DE9FE4F81EA030404F000448E
:1003A00021F0004100944FF0000B23F0004350EA8D
:1003B00001045ED052EA03045BD0C3F30A54C1F3D4
:1003C0000A552C44A4F2F3340194A0FB0254C1F367
:1003D000130141F48011C3F3130343F4801301FBB1
:1003E000024400FB034E840A970A44EA815447EA18
:1003F0008357A4FB076802958D0A05FB07854FEA22
:10040000932C04FB0C542705029D4FEA065847EA3B
:100410001637B5EB08056EEB070C870E920E47EA10
:10042000811742EA8312A7FB0201B6EB0B0164EBD2
:1004300000042B0D43EA0C335E1844EB1C50DA46E3
:100440005146E7FB0201C5F313044FEA0B3343EABD
:1004500014534FEA0432019C43EA0603A4F10C044E
:100460000294009CCDE900B400F0F3F803B0BDE8BD
:10047000F08F00200146F9E72DE9F04D81EA0304F1
:1004800004F0004B21F0004514464FF0000A23F021
:10049000004150EA050220D054EA01021DD0C5F304
:1004A0000A570246C5F31303C1F31300C1F30A56FA
:1004B00040F4801543F48013A7EB0608101BD646C2
:1004C00008F2FD3873EB050002D308F1010801E0E2
:1004D00092185B41B8F1000F03DA00200146BDE835
:1004E000F08D00204FF48011064684460EE0171B65
:1004F00073EB050705D3121B63EB050306434CEAB8
:10050000010C49084FEA300092185B4150EA01079C
:10051000EDD152EA030012D082EA040083EA050119
:10052000084305D0101BAB4106D20122002306E090
:1005300000224FF0004302E06FF0010253101AEB6B
:1005400006004CEB085110EB0A0041EB0B01BDE833
:10055000F04D00F06FB8C10F80EAE0700844CA07A0
:100560009623002100F038B800F0004230F000403F
:100570000AD0C10D01F56071C0F3160042EA0151C5
:10058000C20840071143704700200146704701F040
:10059000004330B421F0004150EA010206D00A0DB8
:1005A000A2F56072C1F31301002A02DC30BC002006
:1005B0007047440F44EAC104C100E01830BC00EBAE
:1005C000C250AFF300800029A8BF7047401C49000B
:1005D00008BF20F00100704710B4B0FA80FC00FAA8
:1005E0000CF050EA010404BF10BC704749B1CCF1D3
:1005F000200421FA04F411FA0CF118BF012121435F
:100600000843A3EB0C01CB1D4FEA00614FEA102019
:1006100042BF002010BC704700EBC35010440029BB
:10062000A4BF10BC7047401C490008BF20F0010067
:1006300010BC704710B5141E73F1000408DA401C9A
:1006400041F1000192185B411A4301D120F00100F1
:1006500010BD2DE9F04D92469B4611B1B1FA81F2E1
:1006600002E0B0FA80F22032904600F053F80446DF
:100670000F4640EA0A0041EA0B0153465A46084336
:1006800013D0114653EA010019D0C8F14002504678
:10069000FFF7B6FD05460E4650465946424600F065
:1006A00039F8084305D0012004E020463946BDE86A
:1006B000F08D0020054346EAE0762C4337430A9844
:1006C0006305E40AA0EB08000022FD0A44EA47544F
:1006D0000A3002D500200146E9E7010510196941F9
:1006E000DDE9084500196941BDE8F04DA2E70000C9
:1006F000064C074D06E0E06840F0010394E807006F
:1007000098471034AC42F6D3FFF716FD404C000872
:10071000604C0008202A04DB203A00FA02F1002095
:1007200070479140C2F1200320FA03F3194390402F
:100730007047FEE7014800F0E3B80000DC0300204A
:10074000014800F0DDB8000020040020014800F05E
:10075000D7B8000064040020014800F0D1B80000C0
:1007600098030020704710B54FF4804000F02CFA39
:10077000BDE810404FF4004000F026BA72B6FEE724
:100780000A2003F09DFBFBE710B590F82110002232
:10079000022905D00421816380F82020012010BDAA
:1007A00001680B6823F00E030B6001680B6823F0EF
:1007B00001030B6090F84030012404FA03F1C36B8D
:1007C000596080F8214080F82020104610BD0000BC
:1007D0002DE9F05F90F821100024022903D00421B4
:1007E0008163012485E001680A6822F00E020A6034
:1007F00001680A6822F001020A603F4E3E4FB215BE
:10080000DFF8F4C0DFF8F090DFF8ECA0DFF8E8B034
:10081000DFF8E4E00168783F13011502ACF1640CE5
:10082000A9F15009AAF13C0AABF1280BAEF1140E64
:100830004FF48018B14227D9B9420ED0614512D089
:1008400049451DD0514518D0594518D0714501D1A1
:10085000424615E0294EB14201D1012210E0274E57
:100860001436B14201D110220AE0244E2836B1429A
:1008700006D0224A3C32914201D11A4600E02A4673
:100880001E49091F0A602BE0B94213D0614517D0F9
:10089000494522D051451DD059451DD0714501D142
:1008A00042461AE0B14202D14FF0807215E0134E79
:1008B000B14201D1012210E0104E1436B14201D1F3
:1008C00010220AE00D4E2836B14206D00B4A3C32C7
:1008D000914201D11A4600E02A46074980394A6010
:1008E000012180F82110002180F82010416B01B116
:1008F00088472046BDE8F09F80000240080402407F
:100900002DE9F05FC16B0B6801680A68046C4FF059
:10091000040808FA04F8844D844E854FDFF814C2A9
:10092000DFF81492DFF814A2DFF814B2DFF814E253
:1009300018EA030F65D05FEA427862D50A6892062A
:1009400003D40A6822F004020A60DFF8F0814FF451
:100950008062016808F1140813011402414524D98A
:10096000A9420DD0B1420FD0B9421AD0614515D07D
:10097000494515D0514501D1120312E0594501D125
:1009800004220EE0714501D140220AE06D4D14357C
:10099000A94206D06B4A2832914201D11A4600E0A2
:1009A00022466749091F0A6029E0A94213D0B142D3
:1009B00015D0B94220D061451BD049451BD05145C7
:1009C00002D14FF4800217E0414502D14FF080621E
:1009D00012E0594501D104220EE0714501D14022B7
:1009E0000AE0584D1435A94206D0564A28329142A1
:1009F00001D11A4600E022464B4908394A60C16AD3
:100A000071E04FF0020808FA04F818EA030F70D0FA
:100A10005FEA82786DD50A68920606D40A6822F0E9
:100A20000A020A60012180F82110DFF810814FF4DA
:100A30000072016808F1140813011402414524D919
:100A4000A9420DD0B1420FD0B9421AD0614515D09C
:100A5000494515D0514501D1120312E0594501D144
:100A600002220EE0714501D120220AE0354D1435F5
:100A7000A94206D0334A2832914201D11A4600E0F9
:100A800022462F49091F0A6029E0A94213D0B1422A
:100A900015D0B94220D061451BD049451BD05145E6
:100AA00002D14FF4001217E0414502D14FF000721D
:100AB00012E0594501D102220EE0714501D12022F8
:100AC0000AE0204D1435A94206D01E4A2832914230
:100AD00001D11A4600E02246134908394A60002134
:100AE00080F82010816A00291CD0BDE8F05F08471B
:100AF000FFE70825A5401D4214D0120712D50A6849
:100B000022F00E020A6090F84020C36B012101FA26
:100B100002F25A60816380F82110002180F82010D1
:100B2000016BE0E7BDE8F09F080002401C000240B6
:100B30003000024044000240580002406C00024075
:100B4000080402401C04024030B560B11A4B016831
:100B50001422994209D2194B0B44B3FBF2F29200D2
:100B60000264174A0AE0012030BD134B5B420B447C
:100B7000B3FBF2F2920002640F4A083AC263022207
:100B800080F821200A6843F6F0739A43F0E90134B3
:100B90002343D0E902452C4323430469234344699A
:100BA00023438469234313430B60002141630122E3
:100BB00042770177084630BD08040240F8FFFDBFC8
:100BC0000000024070470000044910B50A68024264
:100BD00002D00860FFF7F6FF10BD000014040140CA
:100BE0002DE9F84FDFF8C0910024A9F1040B23464A
:100BF0004FF00F0809F1040AABF1040ECCE0012715
:100C0000A7403A40BA4272D1DFF8A0C14D68A5EBC7
:100C10000C0665452BD00DDC032D34D005DC35B337
:100C2000012D19D0022D2FD11BE0112D16D0122D20
:100C30002AD119E0B6F5881F19D006DCB6F5803F39
:100C400015D0B6F5801F1FD111E0B6F5001F0ED0EC
:100C5000B6F5041F18D10AE0CB6815E0CB681B1D60
:100C600012E0CB6808330FE0CB680C330CE08B68E4
:100C70002BB1012B4FF0080303D0476104E004239C
:100C800002E0076100E00023FF2A01D8064601E0E8
:100C900000F104064FEA840501D9A5F12005376863
:100CA00008FA05FC27EA0C0703FA05F547EA0507E9
:100CB00037604D68ED006ED53D4DAE6946F00106DA
:100CC000AE61AD6924F0030605F001050095394DCC
:100CD0007719BE68A5072D0F08FA05FC26EA0C0651
:100CE000DFF8D4C0604503D14FF0000C25E052E09E
:100CF000DFF8C8C0604502D14FF0010C1DE0DFF8FD
:100D0000C0C0604502D14FF0020C16E0DFF8B4C05D
:100D1000604502D14FF0030C0FE0DFF8ACC0604536
:100D200002D14FF0040C08E0DFF8A0C0604502D10A
:100D30004FF0050C01E04FF0060C0CFA05FC4CEAF4
:100D4000060CC7F808C04D68D9F80060ED024D46A2
:100D500001D5164300E096432E604D68DAF8006036
:100D6000AD02554601D5164300E096432E604D680E
:100D7000DBF80060AD035D4601D5164300E0964305
:100D80002E604D68DEF80060ED03754601D5164310
:100D900000E096432E60641C0A6832FA04F57FF482
:100DA0002EAFBDE8F88F00000804014000001110CC
:100DB000001002400000014000080140000C01400A
:100DC000001001400014014000180140001C0140C7
:100DD000C26821EA02030A4043EA02410161704706
:100DE0000AB1016170470904FBE70000014880680F
:100DF000704700002000002070B5040025D094F852
:100E00003D00002520B984F83C50204600F0B8F899
:100E1000242084F83D002068016821F00101016070
:100E20002068016841F4004101602068016821F4F4
:100E30000041016000F07EFA4D4B6168994201D893
:100E40004C4900E04C49884201D2012070BD4B4919
:100E50002268B0FBF1F1566826F03F060E4356605B
:100E600062689A4206D94FF4967251434FF47A72EF
:100E7000B1FBF2F12268491C166A26F03F063143A5
:100E800011626168994210D84900401EB0FBF1F22E
:100E9000521CC2F30B02042A01D2042022E0B0FB50
:100EA000F1F0401CC0F30B001CE0A268F2B301EBB0
:100EB000C10303EB0116431EB3FBF6F35B1C43F4C3
:100EC00080431B0549D092B301EBC10202EB011133
:100ED000401EB0FBF1F0401CC0F30B0040F480401A
:100EE00040F400402168CA694CF6FF739A431043EE
:100EF000C861D4E9071001432068026822F0C002EB
:100F000011430160D4E9030101432068826848F27B
:100F1000FF339A4311438160D4E9051001432068EF
:100F2000C26822F0FF021143C16001E00EE016E04A
:100F30002068016841F0010101602564202084F8E7
:100F40003D00256384F83E50002070BD01EB410652
:100F5000431EB3FBF6F35B1CB3E70120C2E701EBD2
:100F60004101401EB0FBF1F0401CC0F30B00B7E79D
:100F7000A086010080841E0000093D0040420F0051
:100F800030B585B000210091019102910391214D6E
:100F90000168214C122203232048A9421DD1A169D6
:100FA00041F00801A161A169039301F008010491D6
:100FB0001902CDE900126946FFF712FE1849486888
:100FC00040F0E06040F002004860E06940F400104A
:100FD000E061E06900F4001019E0124DA94217D158
:100FE000A16941F00801A161A169039301F0080121
:100FF00004914FF44061CDE900126946FFF7F0FD1E
:10100000E06940F48000E061E06900F48000049051
:1010100005B030BD0054004000100240000C0140FB
:1010200000000140005800400248816802781144E5
:101030008160704720000020074810B5016841F02A
:1010400010010160032000F0A7F80F2000F006F85F
:1010500000F050F8002010BD0020024030B50546D9
:101060001F4887B0C16941F02001C161C06906A96C
:1010700000F020000590684600F03CF90398B0B1FC
:1010800000F058F940001749174AB0FBF1F1174832
:10109000491E0260416040F2E7320021C0E90321AD
:1010A0008160816100F082FB040003D015E000F054
:1010B00041F9E8E70D4800F0BBFB04000DD13720F3
:1010C00000F03CF8102D07D200222946372000F00E
:1010D00043F80748056000E0012407B0204630BD12
:1010E0000010024040420F0000140040A8040020FD
:1010F000240000200F4808B5816941F00101816199
:10110000816901F001010091C16941F08051C16123
:10111000C069002200F0805000900F21901E00F066
:101120001BF80549486820F0E06040F00070486016
:1011300008BD00000010024000000140002809DB4B
:1011400000F01F02012191404009800000F1E020E1
:10115000C0F8001170470000F0B40E4B1B68C3F3D9
:101160000223C3F10704042C00D904241D1D072DFC
:1011700001D2002300E0DB1E012606FA04F56D1EF5
:101180000D409D409E40761E164045EA0601F0BC8B
:1011900001F09DBF0CED00E0064A00F00701106869
:1011A0004FF6FF03184040EA01200349084310604E
:1011B000704700000CED00E00000FA052DE9F04753
:1011C0000D46040067D0DFF81881D8F8000000F061
:1011D0000700A8420CD2D8F8001021F007012943DB
:1011E000C8F80010D8F8000000F00700A84252D15B
:1011F00020683C4E810712D5400703D5706840F443
:10120000E06070602078000703D5706840F460509B
:1012100070607068A16820F0F0000843706020786A
:10122000C00727D06068012810D03168022810D08C
:10123000890700292FDA716821F0030101437160E9
:10124000FFF7D4FD074641F288390CE03168890385
:10125000EFE78901EDE7FFF7C9FDC11B494502D959
:101260000320BDE8F0877068616800F00C00B0EB07
:10127000810FF0D1D8F80010404601F00701A942D3
:101280000BD9016821F0070129430160006800F0D3
:101290000700A84201D00120E3E72078400705D5E8
:1012A0007068E16820F4E06008437060207800070F
:1012B00006D57068216920F4605040EAC100706072
:1012C00000F058F87168084AC1F30311515CC84036
:1012D0000649086006480068FFF7C0FE0020C0E726
:1012E0000020024000100240D24B00082C000020D9
:1012F000240000200F2202600C4A536803F003030D
:101300004360536803F0F0038360536803F4E063C1
:10131000C36052684FF4E06303EAD20202610448FA
:10132000006800F0070008607047000000100240ED
:10133000002002400448054900684968044AC1F396
:101340000221515CC84070472C0000200010024070
:10135000E24B00080448054900684968044AC1F3A3
:10136000C221515CC84070472C0000200010024090
:10137000E24B00080E4B59680E4801F00C02042A9B
:1013800011D0082A0FD10C48C1F38342C903805CF5
:101390000AD55968084AC1F34041921E515C054A7A
:1013A0005043B0FBF1F070470449484370470000D8
:1013B0000010024000127A00C24B000800093D00F4
:1013C0002DE9F84F04006FD02078BE4DC00747D0FC
:1013D0006868C0F38100012807D06868C0F3810005
:1013E000022809D16868C00306D52868800337D56C
:1013F00060680028E7D033E06068B0F5803F0BD02C
:1014000010B1B0F5A02F11D0286820F480302860EA
:10141000286820F4802002E0286840F480302860AA
:10142000606888B1FFF7E2FC064609E0286840F4EE
:1014300080202860F0E7FFF7D9FC801B642873D870
:1014400028688003F7D50BE0FFF7D0FC064604E0E0
:10145000FFF7CCFC801B6428F1D828688003F7D400
:101460002078DFF8648280074FF0010A4FF000090E
:1014700039D5686810F00C0F07D06868C0F3810098
:10148000022809D16868C00306D42868800714D5EB
:101490002069012808D110E02069B0B1C8F800A087
:1014A000FFF7A4FC064605E007E1FFF79FFC801B61
:1014B0000228C4D828688007F7D52868616920F019
:1014C000F80040EAC10028600DE0C8F80090FFF77E
:1014D0008DFC064604E0FFF789FC801B022823D818
:1014E00028688007F7D4207800072CD57748A169B1
:1014F000D9B1C0F800A0FFF779FC064604E0FFF779
:1015000075FC801B02280FD8686A8007F7D57048E1
:101510004FF4FA510068B0FBF1F0009000BF009862
:10152000411E0091FAD20EE07CE0C0F80090FFF777
:101530005DFC064604E0FFF759FC801B022871D8C9
:10154000686A8007F7D4207840075BD5E8690027F0
:10155000C00008D4E86940F08050E861E8690127DC
:1015600000F0805000905B480168C90511D4016803
:10157000834641F480710160FFF738FC064604E0C1
:10158000FFF734FC801B64284CD8DBF80000C00552
:10159000F6D5E06801280AD008B1052813D0286ADA
:1015A00020F001002862286A20F0040002E0286A86
:1015B00040F001002862E06841F2883B88B1FFF703
:1015C00015FC064609E0286A40F004002862EEE7B0
:1015D000FFF70CFC811B59455BD8286A8007F7D5BB
:1015E0000BE0FFF703FC064604E0FFF7FFFB811B5F
:1015F00059454ED8286A8007F7D41FB1E86920F012
:101600008050E861E069A8B36968C1F381010229EB
:1016100046D00228484606D0C8F86000FFF7E6FB2F
:10162000044639E035E04746C8F86000FFF7DEFBC6
:10163000064604E0FFF7DAFB801B022829D8286859
:101640008001F7D4206AB0F5803F05D16868A168B1
:1016500020F4003008436860D4E908010843696851
:1016600021F4741108436860C7F860A0FFF7BEFB5F
:10167000044605E023E0FFF7B9FB001B022808D869
:1016800028688001F7D51AE0FFF7B0FB001B02289D
:1016900002D90320BDE8F88F28688001F4D40EE059
:1016A0000128F7D06868226A00F48031914204D1A1
:1016B000616A00F47010884201D00120EAE700203E
:1016C000E8E700000010024000004242800442426D
:1016D0002C000020007000407047704710B590F853
:1016E0003C20012A22D0012280F83C20CA688C6864
:1016F00022F4407222434C6822F4806222430C6838
:1017000022F4006222430C6922F4805222434C6985
:1017100022F400522243C969002322F480420A4382
:1017200001684A6480F83C30002010BD022010BDE2
:1017300070B590F83C20012A2CD0012580F83C504F
:10174000022280F83D2002685368946823F07006F6
:101750000B6833435360104B02689A420ED00F4B14
:101760009A420BD0B2F1804F08D00D4B9A4205D06F
:101770000C4B9A4202D00C4B9A4204D1496824F097
:1017800080031943916080F83D50002180F83C109F
:10179000084670BD022070BD002C0140003401409D
:1017A0000004004000080040000C004010B5040098
:1017B00003D094F83D0010B107E0012010BD0020D7
:1017C00084F83C00204600F01FF8022084F83D0019
:1017D000211D206801F006FA012084F8460084F8F3
:1017E0003E0084F83F0084F8400084F8410084F80B
:1017F000420084F8430084F8440084F8450084F8EB
:101800003D00002010BD000008B500680649884270
:1018100008D10648C16941F00201C161C06900F008
:101820000200009008BD00000004004000100240CB
:1018300090F83D10012901D001207047022180F865
:101840003D100168CA6842F00102CA6000680E4992
:1018500088420ED00D4988420BD0B0F1804F08D09D
:101860000B49884205D00B49884202D00A49884278
:1018700004D1816801F00701062903D0016841F015
:101880000101016000207047002C0140003401403C
:101890000004004000080040000C004070B5044601
:1018A00090F83C000025012817D0012684F83C6000
:1018B000022084F83D002068826822F0770222F43A
:1018C0007F4282600868502838D00DDC20284FD035
:1018D00005DC90B3102811D14AE0022070BD3028F9
:1018E00046D040280AD13BE060282FD070280DD088
:1018F000B0F5805F03D0B0F5005F12D0012584F809
:101900003D60002084F83C00284670BDCB68D1E9DA
:101910000121206801F0C1F92068816841F0770158
:1019200009E0CB68D1E90121206801F0B6F920680F
:10193000816841F480418160E1E719E0CA68496843
:10194000206801F07FFA5021206806E0CA684968E3
:10195000206801F088FA6021206801F0A8F9CEE73C
:10196000CA684968206801F06DFA40212068F4E7F0
:10197000226801461046F0E72DE9F0410D460400CB
:1019800003D094F83D0018B108E00120BDE8F081D3
:10199000002084F83C00204600F040F8022084F843
:1019A0003D002068816844F2070291438160211D57
:1019B000206801F017F9206881688269066A2B683F
:1019C000AF690B4340F203318A4342EA0722A96818
:1019D000EF6911434FF6FC429143EA6841EA07215F
:1019E0000A4329692F6A090141EA073111436A68EC
:1019F0006D6926F0220646EA05152A4383602068B1
:101A0000816154F8460B0262012004F81F09E07559
:101A10002076E0762077A0750020B7E700B585B086
:101A200000210091019102910391194B026819491B
:101A300019489A4212D18A6942F400628A618A691D
:101A400002F4006204928A6942F004028A618969A0
:101A500001F0040104914FF4407113E0B2F1804FA2
:101A600014D1CA6942F00102CA61CA6902F00102D6
:101A700004928A6942F004028A61896901F00401D2
:101A80000491032100916946FFF7AAF805B000BD53
:101A9000002C0140001002400008014070B590F891
:101AA0003E50044690F83F3090F8422090F84300B2
:101AB000022621B104290BD0012D16D10FE0012DF2
:101AC00013D1012A11D184F83E6084F8426016E0F7
:101AD000012B0AD1012808D184F83F600DE0012BC9
:101AE00003D1012A01D1012801D0012070BD84F861
:101AF0003E6084F83F6084F8426084F8436091B1AE
:101B0000042904D001220021206801F0B9F8012243
:101B10000421206801F0B4F82068016841F0010157
:101B20000160002070BD012200212068F2E77047AB
:101B30002DE9F04104460068C66805694FF00007CA
:101B4000A90713D5B10711D5F91E0161012020772E
:101B5000206880698007204602D0FFF7E8FF04E094
:101B600000F0CCF8204600F071F92777680716D509
:101B7000700714D521686FF00400086102202077F7
:101B80002068806910F4407F204602D0FFF7CFFF25
:101B900004E000F0B3F8204600F058F92777280752
:101BA00015D5300713D521686FF0080008610420AF
:101BB00020772068C0698007204602D0FFF7B7FF72
:101BC00004E000F09BF8204600F040F92777E80693
:101BD00016D5F00614D521686FF0100008610820B2
:101BE00020772068C06910F4407F204602D0FFF7BC
:101BF0009EFF04E000F082F8204600F027F92777E6
:101C0000E80708D0F00706D021686FF001000861EE
:101C1000204600F07BF9280608D5300606D5216855
:101C20006FF0800008612046FFF756FD680608D572
:101C3000700606D521686FF040000861204600F06C
:101C40006FF9A8060AD5B00608D521686FF0200004
:101C500008612046BDE8F041FFF73FBDBDE8F081D7
:101C600030B585B0002100910191029103911D4A88
:101C700001681D48022491421ED1816941F004018E
:101C80008161816901F004010491816941F00801D9
:101C900081618069032500F008000490C020CDE92F
:101CA0000004694603951148FEF79AFFCDE90054F8
:101CB00069460F48039511E00E4A914210D181699F
:101CC00041F0100181618069694600F010000490C4
:101CD0004FF41070CDE9000407480394FEF780FF2D
:101CE00005B030BD00040040001002400008014073
:101CF000000C01400034014000100140704770B5F5
:101D0000044690F83C0000260D4601280FD0012023
:101D100084F83C006AB1042A1DD0082A2FD00C2A6E
:101D20003FD00126002084F83C00304670BD0220E0
:101D300070BD206800F0C4FF2068816941F008018F
:101D400081612068816921F00401816120688169D5
:101D50002A69114311E0206800F0E2FF20688169E0
:101D600041F4006181612068816921F480618161B1
:101D7000206881692A6941EA02218161D2E72068ED
:101D800001F004F82068C16941F00801C1612068D0
:101D9000C16921F00401C1612068C1692A69114348
:101DA00011E0206801F026F82068C16941F4006163
:101DB000C1612068C16921F48061C1612068C16985
:101DC0002A6941EA0221C161ACE710B5040003D0E1
:101DD00094F83D0010B107E0012010BD002084F808
:101DE0003C00204600F01EF8022084F83D00211D32
:101DF000206800F0F7FE012084F8460084F83E00D9
:101E000084F83F0084F8400084F8410084F84200E0
:101E100084F8430084F8440084F8450084F83D00C9
:101E2000002010BD08B500680649884208D1064860
:101E3000816941F400518161806900F40050009093
:101E400008BD00000034014000100240704700004F
:101E500010B5044649B104290AD008290BD094F8DA
:101E6000410001280AD0012010BD94F83E00F8E797
:101E700094F83F00F5E794F84000F2E7022081B3C0
:101E8000042932D0082933D084F841000122206887
:101E900000F0F6FE184A20681849904201D08842A6
:101EA00003D1436C43F400434364206890420DD057
:101EB00088420BD0B0F1804F08D01149884205D03C
:101EC0001049884202D01049884204D1816801F04B
:101ED0000701062903D0016841F0010101600020DB
:101EE00010BDFFE784F83E00D0E784F83F00CDE75F
:101EF00084F84000CAE70000002C01400034014093
:101F00000004004000080040000C00400068034945
:101F1000884201D1FFF788B87047000000140040E4
:101F20007047704770470000F8B5016804460868BC
:101F3000CA684B6910F00F0F4FF0000559D003F03D
:101F4000010602F49077374365D0C10705D0D1056B
:101F500003D5616C41F001016164410705D5D907E2
:101F600003D0616C41F002016164810705D5D90796
:101F700003D0616C41F004016164010707D502F0F0
:101F80002001314303D0616C41F008016164616C50
:101F900000293AD0800604D5900602D5204600F0EC
:101FA000B0FF20684069616CC0F38010090700D45D
:101FB00060B3204600F07EFF20684069400621D5CE
:101FC0002068143050E8001F21F0400140E8001262
:101FD000002AF5D1E06BA8B16D494163E06BFEF7D3
:101FE000F7FB002811D0E06B416B01B0BDE8F04079
:101FF000084783060FD593060DD52046BDE8F84067
:1020000000F07FBF2046FFF78DFFF8BD2046FFF7A9
:1020100089FF6564F8BD266B2023012E7CD1C6069E
:102020007AD5D60678D508684868009048694FF098
:102030000206400640D5E16B086840680004000CC9
:10204000E8D0A28D8242E5D9E085886920282DD08C
:1020500020680C3050E8001F21F4807140E8001225
:10206000002AF5D12068143050E8001F21F001014A
:1020700040E80012002AF5D12068143050E8001F13
:1020800021F0400140E80012002AF5D184F84230E6
:10209000256320680C3050E8001F21F0100140E853
:1020A0000012002AF5D1E06BFEF76EFB6663A08D8F
:1020B000E18D401A81B22AE0A08DE18D401A81B2F3
:1020C000E08D0028A6D00029A4D020680C3050E86C
:1020D000002F22F4907240E80027002FF5D12068ED
:1020E000143050E8002F22F0010240E80027002FB2
:1020F000F5D184F84230256320680C3050E8002F79
:1021000022F0100240E80023002BF5D16663204640
:10211000FFF707FFF8BDFFE705062BD5150629D504
:1021200094F841002128F5D1A068B0F5805F01D175
:102130002069B0B1206A411C2162216800784860A2
:10214000E08C401E0004000CE084E3D12068C168EC
:1021500021F08001C1602068C16841F04001C16088
:10216000D8E7206A0088C0F308004860206A801C15
:102170002062E5E74006CDD55006CBD5CA6820469B
:1021800022F04002CA6084F8413000F093F9C1E7C0
:10219000A52E000870B5040004D094F84100002575
:1021A00010B106E0012070BD84F84050204600F0D8
:1021B00023F8242084F841002068C16821F40051EC
:1021C000C160204600F0FEFE2068016921F49041C4
:1021D00001612068416921F02A0141612068C168DC
:1021E00041F40051C1606564202084F8410084F806
:1021F00042006563002070BDF0B585B000250095F4
:102200000195029503950446894F01688948022289
:10221000894B80264FF0030CB9423AD1C16941F491
:102220000021C161C16901F400210491816941F07B
:10223000100181618069694600F01000049050022D
:10224000CDE900021F46CDF80CC01846FEF7C8FCC9
:102250003001CDE90005694638460295FEF7C0FC1D
:10226000774F7648C7E90005C7E902563D617D61B1
:10227000BD613846FD61FEF767FC08B1FEF77EFAE6
:10228000E7630022052134207C62FEF765FF3420DD
:1022900032E0DFF8B0E10427714531D1C16941F482
:1022A0008011C161C16901F480110491816941F01B
:1022B00010018161816901F010010491816941F08F
:1022C000200181618069694600F020000490B80215
:1022D000CDE90002CDF80CC01846FEF781FCCDE92F
:1022E0000075694658480295FEF77AFC00220A21DB
:1022F0003520FEF731FF3520FEF720FF05B0F0BD99
:10230000524B994241D1816941F480418161816997
:1023100001F480410491816941F008018161806983
:102320004B4F00F0080004904020CDE900026946C0
:10233000CDF80CC03846FEF753FCCDE90065694680
:1023400038460295FEF74CFC4249486840F0E06090
:1023500040F0040048603A4F3F484437C7E9000561
:10236000C7E902563D617D61BD613846FD61FEF7FA
:10237000EBFB08B1FEF702FAE763002205212520F6
:102380007C62FEF7E9FE2520B6E7344B9942B5D1D1
:10239000C16941F40031C161C16901F400310491A6
:1023A000816941F0040181618069CDE9007200F02A
:1023B0000400CDE903C02A4F69463846FEF710FCF9
:1023C0000820CDE90005694638460295FEF708FC6D
:1023D0001B4F214888371430C7E90005C7E902566A
:1023E0003D617D61BD613846FD61FEF7ADFB08B121
:1023F000FEF7C4F9E7637C62114F1748CC372830E9
:1024000001C7102061C70E4847F81059CC307D61D4
:10241000BD61FD61FEF798FB08B1FEF7AFF9A76358
:102420000022052126207C62FEF796FE262063E727
:10243000004C0040001002400010014030040240F7
:102440009803002000500040001401400038014073
:10245000000C0140000001405800024000440040D0
:102460000008014090F84230202B01D00220704734
:1024700021B11AB10023036300F000BE01207047B0
:1024800010B50068084988420DD1006880060AD45A
:102490000121064800F03AFEBDE810400122034940
:1024A0000348FFF7DFBF10BD0050004000000020D0
:1024B000C00200207047FEE7194808B5416941F0A5
:1024C00002014161416901F002010091416941F05D
:1024D000010141614069002200F0010000900521E6
:1024E0000F20FEF739FE0F20FEF728FE00220521FF
:1024F0001020FEF731FE1020FEF720FE00220521FD
:102500001120FEF729FE1120FEF718FE00220521FA
:102510003A20FEF721FEBDE808403A20FEF70EBE45
:102520000010024010B5194A0021012000F092FE6F
:10253000174C164A012160611032084600F08AFEED
:10254000124AA061B43A0021124800F0D3FE0F4AAB
:102550002060903A0021104800F0CCFE0B4A6060E9
:102560006C3A00210D4800F0C5FE084AA060483AC8
:1025700000210B4800F0BEFE044AE060243A00212E
:10258000084800F0B7FE206110BD0000A04B000815
:102590000400002081070008592B0008512B000877
:1025A000252B0008352B0008F0B585B000242C48F9
:1025B0000094019402940394816941F020018161A7
:1025C000816901F020010491816941F0100181616C
:1025D000816901F010010491816941F00401816178
:1025E000816901F004010491816941F00801816170
:1025F00080691C4E00F0080004900022062130463D
:10260000FEF7EEFB184F012210213846FEF7E8FBDB
:10261000062000900125CDE9015402246946304688
:102620000394FEF7DDFA4FF4404000900F48CDE9E7
:10263000010469463846FEF7D3FA1020CDE90005BB
:10264000CDE9025469463846FEF7CAFA0022052150
:102650002820FEF781FD2820FEF770FD05B0F0BDB3
:102660000010024000100140000C01400000111059
:102670000D4810B50B4901600C49416000214FF431
:1026800080428160C0E9031241618161C1610162E0
:10269000FEF7B2FB002803D0BDE81040FEF76EB88D
:1026A00010BD000000540040B0000020A0860100D2
:1026B0000D4810B50B4901600C49416000214FF4F1
:1026C00080428160C0E9031241618161C1610162A0
:1026D000FEF792FB002803D0BDE81040FEF74EB88D
:1026E00010BD00000058004004010020A086010039
:1026F00010B58CB024216846FDF7ABFD00241748C7
:10270000099415490A94C0E900144FF6FF71C0E915
:1027100002410461446184610320CDE90004012089
:10272000CDE9020405210491CDE90540CDE9074139
:1027300069460A48FFF720F908B1FEF71FF8099427
:1027400009A906480A94FEF7F3FF002801D0FEF716
:1027500015F80CB010BD0000002C014058010020FD
:1027600010B58CB024216846FDF773FD002416488F
:1027700009944FF080410A94C0E900144FF6FF71AC
:10278000C0E90241046184610320CDE90004012015
:10279000CDE9020405210491CDE90540CDE90741C9
:1027A00069460948FFF7E8F808B1FDF7E7FF099423
:1027B00009A905480A94FEF7BBFF002801D0FDF7E0
:1027C000DDFF0CB010BD0000A001002010B58EB0E0
:1027D00000240794089409940A940B941C216846D9
:1027E0000C94FDF736FD2A48284901600821C0E90C
:1027F000011440F2E731C0E903148461FEF7D6FF0B
:1028000008B1FDF7BBFF4FF48050079007A920489F
:10281000FFF744F808B1FDF7B1FF1D48FFF7D5FAFF
:1028200008B1FDF7ABFF0B940BA919480C94FEF708
:102830007FFF08B1FDF7A2FF6020CDE900040294FC
:102840000022694612480494FFF759FA08B1FDF7CF
:1028500095FF042269460E48FFF751FA08B1FDF7CB
:102860008DFF082269460A48FFF749FA08B1FDF7CB
:1028700085FF0C2269460648FFF741FA08B1FDF7CB
:102880007DFF0348FFF7ECF90EB010BD00040040D7
:10289000E801002010B592B000240F941C21684676
:1028A0001094FDF7D6FC202107A8FDF7D2FC2448A0
:1028B0002249C0E900144FF6FF71C0E902410461EA
:1028C00044618461FFF781FA08B1FDF757FF0F9467
:1028D0000FA91B481094FEF72BFF08B1FDF74EFF20
:1028E0006020CDE90004029403940494059400222E
:1028F000694613480694FFF702FA08B1FDF73EFF58
:102900000C2269460E48FFF7FAF908B1FDF736FFC9
:102910000794089409944FF400500A94CDE90B40B1
:1029200007A907480E94FEF7D9FE08B1FDF726FF68
:102930000348FFF795F912B010BD000000340140C4
:10294000300200200C4810B50A4901604FF4E13113
:102950004160002181600C22C160C0E904128161E4
:10296000C161FFF717FC002803D0BDE81040FDF758
:1029700005BF10BD004C0040780200200C4810B587
:102980000A4901604FF4E1314160002181600C226D
:10299000C160C0E904128161C161FFF7FBFB00283F
:1029A00003D0BDE81040FDF7E9BE10BD0050004067
:1029B000C00200200C4810B50A4901604FF4E13113
:1029C0004160002181600C22C160C0E90412816174
:1029D000C161FFF7DFFB002803D0BDE81040FDF721
:1029E000CDBE10BD00380140080300200C4810B5D2
:1029F0000A4901604FF4E1314160002181600C22FD
:102A0000C160C0E904128161C161FFF7C3FB002806
:102A100003D0BDE81040FDF7B1BE10BD004400403A
:102A200050030020FEE700002DE9F05F3448016804
:102A3000486A00254D624EF66026B04202DDA0F5E0
:102A40007F40FF382F4C4FF4AF61206090FBF1F0D6
:102A5000FDF781FDFDF788FDDFF8AC80DFF8AC9075
:102A600042464B46FDF796FCDFF8A4A000225346F1
:102A7000FDF790FCFDF78BFD074639466068FDF7D2
:102A8000F3FB60603846FDF76FFD224FDFF888B03A
:102A90003A465B46FDF7F0FCFDF779FDA0601F4864
:102AA0000168486A4D62B04202DDA0F57F40FF3800
:102AB000144C40420C342060FDF74DFD1849FDF7E1
:102AC0002BFCFDF751FD42464B46FDF763FC00220F
:102AD0005346FDF75FFCFDF75AFD05462946606841
:102AE000FDF7C2FB60602846FDF73EFD3A465B46B7
:102AF000FDF7C2FCFDF74BFDA060BDE8F09F0000B4
:102B000058010020442400204AD8124DFB210940DE
:102B1000004050409A9999999999A93FA0010020A5
:102B20000000AF44FFF780FF322001F0C9F9F9E758
:102B3000FEE70000054C4FF47A7510212046FEF7A1
:102B400047F9284601F0BCF9F7E70000000C014006
:102B5000142001F0B5F9FBE70A2001F0B1F9FBE719
:102B600010B54FF0E020006901F010FE012803D0FD
:102B7000BDE8104001F0DCBA10BD30B58FB028219F
:102B80006846FDF766FB14210AA8FDF762FB0120E9
:102B9000010400248DE8130004904FF4E010CDE907
:102BA0000810022507956846FEF70AFC08B172B6C0
:102BB000FEE70F20CDE90A054FF48060CDE90C4017
:102BC00002210AA80E94FEF7F9FA002801D072B685
:102BD000FEE70FB030BD70470148FEF7A9BF000007
:102BE000A8040020F0B50268204D214E214FDFF8E7
:102BF00088C0224B4FF0804EA84209D0984207D09F
:102C0000704505D0B04203D0B84201D0604503D131
:102C100022F070044A682243A84209D0984207D0A3
:102C2000704505D0B04203D0B84201D0604503D111
:102C300022F44074CA6822434C6922F08002224385
:102C400002608A68C2620A688262A84201D0984221
:102C500001D109690163012141610169C90703D0FB
:102C6000016921F001010161F0BD0000002C01406B
:102C70000004004000080040000C00400034014007
:102C800010B501F01F010123046A8B409C430462CC
:102C9000036A8A401343036210BD10B5846842EA98
:102CA000032224F47F440A432243826010BD8268D9
:102CB00022F070020A4342F0070181607047000071
:102CC000F0B5026A036A23F0010303624368846972
:102CD000114E24F073050C68104F2C4322F00205AE
:102CE0008A682A43B04201D0B84205D122F00805D3
:102CF000CA682A4322F00402B04201D0B84205D18A
:102D00004D6923F440731D438B692B4343608461F9
:102D1000496841630262F0BD002C0140003401406B
:102D2000F0B5026A036A23F0100303624368846902
:102D30000D6824F4E64444EA05248D6822F020025C
:102D400042EA05120F4D104EA84201D0B04206D102
:102D5000CF6822F0800242EA071222F04002A84225
:102D600001D0B04207D14D6923F4406343EA8503A3
:102D70008D6943EA85034360846149688163026227
:102D8000F0BD0000002C014000340140F0B5026AA3
:102D9000036A23F4807303624368C46922F40072F7
:102DA00024F073050C68124E2C438D6842EA05220C
:102DB0000E4DA84201D0B04206D1CF6822F4006285
:102DC00042EA072222F48062A84201D0B04207D131
:102DD0004D6923F4405343EA05138D6943EA051313
:102DE0004360C4614968C1630262F0BD002C0140C8
:102DF0000034014030B5036A026A22F48052026254
:102E00004268C4690D6824F4E64444EA05248D68E8
:102E100023F4005343EA0533084DA84202D0084D7D
:102E2000A84204D14D6922F4804242EA85124260F0
:102E3000C46149680164036230BD0000002C014098
:102E40000034014010B5046A036A23F001030362F1
:102E5000836923F0F00343EA021324F00A020A43D1
:102E60008361026210BD10B5036A046A24F0100485
:102E70000462846923F0A00324F4704444EA02321B
:102E800043EA01118261016210BD00000148FFF7B1
:102E90004BB80000780200200148FFF745B8000059
:102EA000C002002010B5406A0021C185C184FFF72F
:102EB00039F810BD01680C3151E8002F22F49072EE
:102EC00041E80023002BF5D10168143151E8002FAF
:102ED00022F0010241E80023002BF5D1016B01290A
:102EE00009D101680C3151E8002F22F0100241E8AD
:102EF0000023002BF5D1202180F84210002101632E
:102F0000704708B590F84210222901D0022008BD70
:102F100081684FF48053994201D1026922B1826ADB
:102F200099421BD049B10AE00268816A5268C2F333
:102F300008020A80816A891C08E0016971B1016890
:102F4000496801F07F011170816A491C8162C18D5D
:102F5000491E0904090CC18503D01BE001684968BA
:102F6000F1E70168CA6822F02002CA600168CA68F5
:102F700022F48072CA6001684A6922F001024A6143
:102F8000202180F8421000214163026B012A03D006
:102F9000FFF776FA002008BD016301680C3151E8A3
:102FA000002F22F0100241E80023002BF5D1016828
:102FB0000A68D20602D50A6849680091818DFEF739
:102FC000B0FFE7E770B5044600680169E26821F4E4
:102FD000405111430161A1682069014360690143C7
:102FE0002068C26841F20C639A430A43C2602068B9
:102FF0004169A26921F44071114341611E49206871
:10300000884202D1FEF7A6F901E0FEF793F900EB42
:10301000C00101EB0011606864228000B1FBF0F395
:10302000B3FBF2F36FF018067343B1FBF0F5B1FB9D
:10303000F0F605EB8305322303EB0515B5FBF2F53E
:10304000B6FBF2F605F0F00505EB0615B1FBF0F660
:10305000B1FBF0F0B0FBF2F06FF01801484306EB63
:10306000800003EB0010B0FBF2F0216800F00F00CD
:103070002844886070BD000000380140816282856C
:10308000C28500214164222180F84210016921B1EA
:103090000168CA6842F48072CA6001684A6942F0F5
:1030A00001024A610068C16841F02001C16000204E
:1030B000704700000148FEF737BF000008030020FA
:1030C0000148FEF731BF000050030020FEE709076A
:1030D000090E002804DB00F1E02080F8001470479E
:1030E00000F00F0000F1E02080F8141D704702E0AE
:1030F00008C8121F08C1002AFAD170477047002083
:1031000001E001C1121F002AFBD1704770B50022F7
:103110000B4B10E0B3F88450845C5C55B3F88440EA
:10312000B3F88050641CB4FBF5F605FB1644521C42
:10313000A3F8844092B28A42ECD3002070BD000014
:10314000BC230020FDF778FFFFF717FDFFF72CFAEF
:10315000FFF7B2F9FFF7CCFAFFF7F4FBFFF70EFC2D
:10316000FFF728FCFFF742FCFFF782FAFFF7A0FA0F
:10317000FFF72CFBFFF7F4FAFFF78CFB012217494E
:103180001748FFF76FF915490122491E1548FFF747
:1031900069F9012211491448FFF764F93C211348E9
:1031A000FEF77CFC3C211248FEF778FC0021114818
:1031B000FEF74EFE04210F48FEF74AFE08210D4897
:1031C000FEF746FE0C210B48FEF742FE00F014F815
:1031D000FFF7A8F900F022F8FEE700000100002048
:1031E00050030020C0020020780200205801002077
:1031F000A0010020E8010020EFF3058010B16FF07E
:10320000050070470448016811B14FF0FF30704766
:1032100001210160002070478000002010B5EFF30D
:10322000058010B16FF0050010BD08480168012944
:1032300002D04FF0FF3010BD054A002182F8141D66
:103240000221016000F0A4FE002010BD80000020DB
:103250000BE000E0F8B514460E464FF00005EFF322
:10326000058191BB88B3864242D86A1E44B1A168E9
:103270000029E16803D0502903D3012201E001B9FC
:103280000022511C34D0012809D0012A27D0314610
:1032900000F064FF05002BD034B3216825E0012A3B
:1032A00014D003220021012000F095FF05001FD05B
:1032B000002EF1D000231A46194601F025F8012806
:1032C000EAD0284600F0AEFD002511E00320009072
:1032D000002211460120A36800F09EFFE6E7314678
:1032E000A26800F058FFD5E70021284600F088FDCD
:1032F0002846F8BD2DE9FF410B464FF00005EFF3DE
:103300000581039549BB40B38026182100244AB3A8
:10331000176807B13C46976907B139464F1E382FE9
:1033200002D21779FF0703D0002004B0BDE8F08176
:10333000576907B1BE08D2F808C0BCF1000F0DD024
:10334000D5685C2D18D312693AB137B18DE80610F3
:103350003246214601F0EDF903900DE0D7685FB9E0
:1033600012694AB903AACDE90012B2B2214601F0AE
:10337000B3F9012800D003950398D6E72DE9F04171
:10338000134E0F460446F5683068001D00F03AFC05
:10339000601C07D137B13168BDE8F0410D48091D07
:1033A00000F080BC30682C44AC424460316805D2E7
:1033B000B06BBDE8F041091D00F05CBC706B091DED
:1033C00000F058FCB06A844200D2B462BDE8F081DB
:1033D00030000020E00900202DE9F041054600F012
:1033E0006DFC2D4EB068401CB06030682B4F10B1A2
:1033F000706930B32BE03560B068012827D1002414
:1034000004EB840007EB800000F026FC641C382CE1
:10341000F6D3234800F020FC2148143000F01CFCB7
:103420001F48283000F018FC1D483C3000F014FC08
:103430001B48503000F010FC194870631430B06322
:1034400005E03068E96AC06A884200D83560706A71
:10345000401C70626864E86A3169884200D9306152
:1034600000EB800007EB8000291D00F01BFC00F042
:1034700045FC706900280CD03068E96AC06A88424F
:1034800007D208494FF080500860BFF34F8FBFF359
:103490006F8FBDE8F0810000300000203005002073
:1034A0009009002004ED00E038B500F007FC104C56
:1034B0002068C8B90F4800F0CFFB0E48143000F068
:1034C000CBFB0C48E060143020610A4B0020F03B3D
:1034D000009003F1500210210A2000F09DFE2060B0
:1034E00010B105A100F08CFCBDE8384000F006BC2E
:1034F0006C000020E40A0020546D725100000000AE
:1035000030B4026C0B46002A0BD0C1681144C16074
:103510008468A14201D30168C16030BC1846FCF741
:103520007FBE30BC70472DE9F041856B17460446DD
:103530000026026C82B1C7B1E068FCF771FEE16859
:10354000206C091AE1602268914202D2A168081A2F
:10355000E060022F16D017E02068A8B9A06801F03B
:103560008DF906460020A0600EE06068FCF758FE6A
:10357000216C606808446060A168884204D32068B8
:10358000606001E005B16D1E6D1CA5633046BDE8AD
:10359000F08110B5044690F8590058B101280CD0BC
:1035A00002280FD0502080F31188BFF34F8FBFF354
:1035B0006F8FFEE7206B00F0B5FB2046BDE81040A2
:1035C00000F0B0BB10BD00000F4841F2F8114207F7
:1035D00005D0C01D0C4A20F00700821A891A0B4A38
:1035E00000230144C2E900030839183A21F0070119
:1035F00011604B600B600B1AC0E9001393604FF031
:103600000040536050617047C41100209C000020AE
:10361000134E144DA6F29C474FF08058DFF84890A7
:1036200011E000F04BFBF068C468201D00F0EAFADE
:10363000A868401EA8606868401E686000F05EFBD5
:103640002046FFF7A6FF68680028EAD138680128FD
:10365000F9D9C9F80080BFF34F8FBFF36F8FF2E73E
:10366000CC0900203000002004ED00E070B51D46BC
:10367000049C49B12260C4E90F010121204600F0F9
:10368000FFFD84F84C5070BD2460F4E72DE9F05F35
:103690000E46DDE90B941746834691009A460A9D33
:1036A000A522206BFCF7CEFD6FF00301206B01EB30
:1036B0008701084420F00707780707D0502080F3DF
:1036C0001188BFF34F8FBFF36F8FFEE74FF00008F5
:1036D00066B100202218315C82F83410315C11B1DF
:1036E000401C1028F6D384F8438001E084F834802D
:1036F000382D00D33725E562C4E91358201D00F0AA
:10370000B6FA04F1180000F0B2FA2461C5F13800ED
:103710006462A061C4F8548084F8588052465946C7
:10372000384600F05DFA2060B9F1000F01D0C9F809
:103730000040BDE8F09F000030B5114900E011469F
:103740000A688242FBD34B685C18844203D140680C
:1037500018444860084643681C18944209D1084C34
:10376000183C2468A24209D052681A4442600A6890
:1037700012680260814200D0086030BD0460F9E741
:103780009C00002070B5002441600B4D0061914207
:1037900006D8D11A8269914206D2011D286907E034
:1037A0009A4203D2994201D3012403E0011DE86843
:1037B00000F060FA204670BD6C00002010B5044691
:1037C00000F07CFAA06B20B1002400F097FA2046AC
:1037D00010BD0124F9E7000030B587B03C4D6EE024
:1037E0000198002806DADDE90301029A9047019862
:1037F000002864DB039C606910B1201D00F002FA10
:1038000005A800F0D7F8024601980A2857D2DFE849
:1038100000F00505052D334A05052D3394F82800E1
:1038200040F0010084F828000298A1690346014491
:103830002046FFF7A7FF68B3216A2046884794F81F
:10384000280040073BD5002000900298A169002382
:1038500042181946204601F017F9D8B9502080F3D4
:103860001188BFF34F8FBFF36F8FFEE714F8280F57
:1038700020F00100207022E094F8280040F00100C0
:1038800084F828000298A06128B1811813462046C8
:10389000FFF778FF13E0502080F31188BFF34F8FBC
:1038A000BFF36F8FFEE794F82800810703D420460A
:1038B00000F038FA03E020F0010084F8280000222C
:1038C00001A9286800F032FE002889D107B030BD78
:1038D0006C0000202DE9FC410F46054600F09AFBE4
:1038E00001A800F067F80446019818B101F03CF80F
:1038F000BDE8FC81254EAFB130690068D0B3002728
:10390000291B3A46306800F0B9FA01F02DF800287A
:10391000EED11F494FF080500860BFF34F8FBFF3C7
:103920006F8FE5E7A542EBD801F01EF8F068274657
:10393000C068C468201D00F065F994F828004107AC
:1039400019D5A0692B4641193A462046FFF71AFFC0
:10395000A8B100200346014600902A46204601F007
:1039600093F860B9502080F31188BFF34F8FBFF3F5
:103970006F8FFEE707E020F0010084F82800216A3D
:1039800020468847B4E70127BAE700006C00002012
:1039900004ED00E00648416B096829B1416BC96834
:1039A000C9684968816270474FF0FF31FAE700004B
:1039B0003000002070B5054600F0F6FE064E0446C5
:1039C000B068844203D200F009F8012000E0002032
:1039D00028602046B46070BD6C000020F8B5194E18
:1039E00020E0C068C4680568201D00F00BF9216A5A
:1039F0002046884794F82800400713D5A06928443A
:103A0000A84206D924616060211DF06800F032F9F7
:103A100008E000200346014600902A46204601F0B7
:103A200033F838B1F06801680029DAD13169C6E9A4
:103A30000310F8BD502080F31188BFF34F8FBFF300
:103A40006F8FFEE76C00002008484068401C4FF074
:103A5000500080F3118804D0BFF34F8FBFF36F8FF6
:103A6000FEE7BFF34F8FBFF36F8FFEE7A400002088
:103A7000084CE068016839B1002139B10020FFF736
:103A800029FFFFF7A9FEF4E70121F6E7C068006807
:103A9000F5E700006C0000202DE9F041044600F03D
:103AA0000DF994F9455004F1240609E0606A48B123
:103AB000304600F021FF08B100F030FA6D1E6DB203
:103AC000002DF3DC4FF0FF3684F8456000F016F966
:103AD00000F0F4F894F9445004F1100709E020696B
:103AE00048B1384600F008FF08B100F017FA6D1E23
:103AF0006DB2002DF3DC84F84460BDE8F04100F0C5
:103B0000FDB800002DE9F0410546002600F082FADC
:103B1000324F386808B9FFF757FD786905424ED132
:103B2000C5B3083568070ED005F00700C0F10800DE
:103B30000544680707D0502080F31188BFF34F8FEA
:103B4000BFF36F8FFEE72DB37868854237D82349DE
:103B500018310846046801E0214604466068A8421E
:103B600002D220680028F7D13868844227D00E6836
:103B70002068086060680836411B10290FD9601959
:103B8000420708D0502080F31188BFF34F8FBFF356
:103B90006F8FFEE713E041606560FFF7CDFD616860
:103BA0007868401A7860BA68904200D2B860786944
:103BB00001430020C4E90001F868401CF86000F0EF
:103BC000D3FE700707D0502080F31188BFF34F8FCA
:103BD000BFF36F8FFEE73046BDE8F0818400002020
:103BE00010B5031F4FF080741C601B1F21F00101F2
:103BF0001960191F024B0B60143940380A6010BD60
:103C0000493A0008D0E9013201699A60D0E90123FC
:103C10005A604A68824201D182684A600022026189
:103C20000868401E0860086870470000034B036086
:103C300003F15C0008608020106070470C0B0020CE
:103C4000044B036003F15C0008604FF48070106067
:103C500070470000680D002000F108014FF0FF32AE
:103C6000C0E90112C16001610021016070470021BB
:103C70000161704730B50C68621C02D000F1080287
:103C800002E0026904E01A4653681D68A542FAD9A9
:103C900053684B6099608A60516008610168491CF3
:103CA000016030BD42684A6093688B6093685960D8
:103CB000916008610168491C01607047502080F3E1
:103CC0001188BFF34F8FBFF36F8F0A494868401CBC
:103CD000486001280CD10848006810F0FF0F07D099
:103CE000502080F31188BFF34F8FBFF36F8FFEE733
:103CF00070470000A400002004ED00E00849486877
:103D000028B1401E486001D180F3118870475020CF
:103D100080F31188BFF34F8FBFF36F8FFEE7000072
:103D2000A400002070B500282AD0164DA0F1080488
:103D300060686969084207D1502080F31188BFF399
:103D40004F8FBFF36F8FFEE722683AB1502080F3A8
:103D50001188BFF34F8FBFF36F8FFEE7884360601A
:103D600000F058F960686968084468602046FFF709
:103D7000E3FC2869401C2861BDE8704000F0F4BDF8
:103D800070BD0000840000204FF0E02000210161A0
:103D9000816105494FF47A720968B1FBF2F1491E5D
:103DA00041610721016170472C00002010B5FCF72C
:103DB00011FA114910280ED300F1E02090F8F00319
:103DC0000A78904207D2502080F31188BFF34F8FBA
:103DD000BFF36F8FFEE709480068896800F4E06070
:103DE000884207D9502080F31188BFF34F8FBFF36B
:103DF0006F8FFEE710BD0000A40000200CED00E076
:103E000010B5074B002253F832401CB1521C082A4F
:103E1000F9D310BD43F8321003EBC201486010BD66
:103E2000F004002010B504000AD000F013F894F854
:103E3000460000280CD12046BDE81040FFF772BFB5
:103E4000502080F31188BFF34F8FBFF36F8FFEE7D1
:103E500010BD0000084A002102EBC1035B688342E9
:103E600006D1002042F8310002EBC10148607047E2
:103E7000491C0829F0D37047F004002070B515469E
:103E80000E460446FFF71AFF94F944100020491C1F
:103E900001D184F8440094F94510491C01D184F8FB
:103EA0004500FFF72BFFA06B28B92A46314604F1E5
:103EB000240000F051F82046BDE87040FFF7ECBD4B
:103EC00010B5020014D00F48006B38B1502080F3B9
:103ED0001188BFF34F8FBFF36F8FFEE700F09AF8A2
:103EE00000211046FFF74AFA00F03EFD002807D1F6
:103EF00005494FF080500860BFF34F8FBFF36F8FBD
:103F000010BD00003000002004ED00E002490A6A04
:103F10000260C968416070473000002001490120FB
:103F2000C86170473000002010B50C4650B10949F7
:103F300009681831FFF79EFE2046BDE810400121B8
:103F4000FFF71CBA502080F31188BFF34F8FBFF3E7
:103F50006F8FFEE73000002070B514460D4668B143
:103F60000A4909681831FFF79DFE0CB14FF0FF3583
:103F700021462846BDE87040FFF700BA502080F384
:103F80001188BFF34F8FBFF36F8FFEE73000002023
:103F900030B587B00025039505AA04A903A80495A8
:103FA000FFF744FEDDE903010095CDE90110002390
:103FB00014A11648059A00F0BCFB154CE06218B13C
:103FC00000F032FD012809D0401C19D1502080F3A7
:103FD0001188BFF34F8FBFF36F8FFEE7502080F340
:103FE0001188BFF34F8FBFF36F8F4FF0FF30A06288
:103FF00001206061E56007B0BDE8304000F044B8E2
:1040000007B030BD49444C4500000000113600089F
:10401000300000200248016B491C0163704700001A
:1040200030000020164B10B5186B10B10120D8617C
:1040300010BD0020D8611869124901E0B8B1401ED6
:1040400000EB800251F82220002AF7D000EB80021A
:1040500001EB820101F108044A6852684A60A242F9
:1040600001D152684A60D1681960186110BD5020B2
:1040700080F31188BFF34F8FBFF36F8FFEE700000F
:1040800030000020300500201CB52649087801903A
:10409000FF20087008788DF800009DF800009DF85A
:1040A000002000F0F000904207D0502080F31188EB
:1040B000BFF34F8FBFF36F8FFEE79DF800001A4CE0
:1040C00000F0500020700720A06006E0401EA060B5
:1040D0009DF8000040008DF800009DF800000006EB
:1040E000A068F3D4032807D0502080F31188BFF3D1
:1040F0004F8FBFF36F8FFEE74FF44070A0600198C1
:1041000008700A48016841F470010160016841F0DB
:1041100070410160FFF738FE00206060FCF724F872
:1041200000201CBD00E400E0A400002020ED00E021
:1041300010B5502080F31188BFF34F8FBFF36F8FFE
:1041400000F038FB18B104494FF08050086000209F
:1041500080F3118810BD000004ED00E010B50C469E
:1041600048B184420FD9502080F31188BFF34F8F9C
:10417000BFF36F8FFEE7502080F31188BFF34F8F9E
:10418000BFF36F8FFEE70222002100F024F8002821
:1041900000D0846310BD38B50C4648B184420FD9B5
:1041A000502080F31188BFF34F8FBFF36F8FFEE76E
:1041B000502080F31188BFF34F8FBFF36F8FFEE75E
:1041C0000221134600220091114600F025F8002834
:1041D00000D0846338BDF8B517460E46050013D0ED
:1041E00005FB06F05030FFF78DFC04000AD00020DC
:1041F00084F8460004F150023B46314628460094BC
:10420000FFF734FA2046F8BD502080F31188BFF341
:104210004F8FBFF36F8FFEE738B5049D18B153B1D0
:10422000CAB181B120E0502080F31188BFF34F8FD5
:10423000BFF36F8FFEE7502080F31188BFF34F8FDD
:10424000BFF36F8FFEE7502080F31188BFF34F8FCD
:10425000BFF36F8FFEE739B1502080F31188BFF3B1
:104260004F8FBFF36F8FFEE750241C46012384F865
:1042700046302B460094FFF7F9F9204638BD000080
:1042800070B50D46040025D0FFF718FDD4E90F20C6
:10429000216802FB0011A1600021A1632168616017
:1042A0000A46D4E90F01401E00FB0121E1602146CE
:1042B0004FF0FF3001F8440F487004F110008DB149
:1042C000FFF7CAFC04F12400FFF7C6FCFFF716FD58
:1042D000012070BD502080F31188BFF34F8FBFF3D2
:1042E0006F8FFEE721690029F0D000F005FB002860
:1042F000ECD004494FF080500860BFF34F8FBFF3FC
:104300006F8FE3E704ED00E02DE9FF4F83B01F4618
:104310008B4604004FF0000603D0BBF1000F08D01D
:1043200011E0502080F31188BFF34F8FBFF36F8FE0
:10433000FEE7206C38B1502080F31188BFF34F8F17
:10434000BFF36F8FFEE7022F0AD1E06B012807D081
:10435000502080F31188BFF34F8FBFF36F8FFEE7BC
:1043600000F014FADFF800914FF0000A4FF0805887
:1043700048B9059838B1502080F31188BFF34F8FAA
:10438000BFF36F8FFEE7FFF799FCA06BE16B8842EC
:1043900005D3022F03D00598C8B1DEB11EE03A461E
:1043A00059462046FFF7BFF8616A19B104F12400AD
:1043B00000F0A2FA28B1C9F80080BFF34F8FBFF315
:1043C0006F8FFFF79BFC012007B0BDE8F08FFFF770
:1043D00095FC21E06846FFF799FD0126FFF78EFC6A
:1043E000FFF718FEFFF76AFC94F94400401C01D166
:1043F00084F844A094F94500401C01D184F845A0FC
:10440000FFF77CFC05A9684600F02CF930B1204686
:10441000FFF742FB00F0A8FA0020D5E7FFF74EFCBB
:10442000A06BE16B884201D1012500E00025FFF778
:1044300065FC95B104F110000599FFF775FD204664
:10444000FFF72AFB00F090FA00289CD1C9F8008001
:10445000BFF34F8FBFF36F8F95E72046FFF71CFB2D
:1044600000F082FA8FE7000004ED00E02DE9F0474C
:104470001F4690468946040003D0B9F1000F08D0CA
:1044800011E0502080F31188BFF34F8FBFF36F8F7F
:10449000FEE7206C38B1502080F31188BFF34F8FB6
:1044A000BFF36F8FFEE7022F0AD1E06B012807D020
:1044B000502080F31188BFF34F8FBFF36F8FFEE75B
:1044C000FFF774FC5020EFF3118680F31188BFF3DF
:1044D0004F8FBFF36F8FA06BE16B884206D3022F23
:1044E00004D0002086F31188BDE8F08794F9455088
:1044F000A06B3A4649462046FFF715F8681C04D0E1
:104500006D1C84F845500120ECE7606A0028FAD061
:1045100004F1240000F0F0F90028F4D0B8F1000F05
:10452000F1D00121C8F80010EDE700002DE9F747B0
:1045300083B08A4604004FF0000603D0BAF1000FA2
:1045400008D011E0502080F31188BFF34F8FBFF3E4
:104550006F8FFEE7206C38B1502080F31188BFF3D5
:104560004F8FBFF36F8FFEE700F010F9DFF8F09088
:1045700000274FF0805848B9059838B1502080F393
:104580001188BFF34F8FBFF36F8FFEE7FFF796FBE6
:10459000A56BC5B151462046FEF7B2FF6D1EA5635F
:1045A000206950B104F1100000F0A6F928B1C9F853
:1045B0000080BFF34F8FBFF36F8FFFF79FFB01208A
:1045C00006B0BDE8F087059808B11EB106E0FFF718
:1045D00095FB27E06846FFF799FC0126FFF78EFB65
:1045E000FFF718FDFFF76AFB94F94400401C01D166
:1045F00084F8447094F94500401C01D184F845705A
:10460000FFF77CFB05A9684600F02CF8002820463F
:104610000AD0FFF741FA00F0A7F92046FFF7CEF8DD
:104620000028B3D00020CBE7FFF7C8F890B104F121
:1046300024000599FFF778FC2046FFF72DFA00F0DB
:1046400093F90028A2D1C9F80080BFF34F8FBFF3C0
:104650006F8F9BE72046FFF71FFA00F085F995E77B
:1046600004ED00E02DE9F0410C46050011D0C4B185
:10467000FFF724FB174EF1686B682268C81A571CB5
:1046800017D02F68366AB74219D08B4217D8012449
:1046900010E0502080F31188BFF34F8FBFF36F8F6E
:1046A000FEE7502080F31188BFF34F8FBFF36F8F69
:1046B000FEE70024FFF722FB2046BDE8F08182429E
:1046C00005D9101A20602846FFF720FCF1E70020EA
:1046D0002060DCE7300000202DE9FF5F8346DDE944
:1046E0000E87994616468A469000FFF70BFA05009A
:1046F0001CD05C20FFF706FA040014D000202563CC
:1047000084F85900CDE90240CDE900874B46324696
:1047100051465846FEF7BAFF2046FEF75DFE0120DF
:1047200004B0BDE8F09F2846FFF7FCFA4FF0FF30D9
:10473000F6E7F0B585B00546DDE90B040A9EA8B1A1
:10474000E4B15C2700972063022084F85900002020
:10475000CDE9024004AF2846CDE90067FEF796FF99
:104760002046FEF739FE049805B0F0BD502080F3D6
:104770001188BFF34F8FBFF36F8FFEE7502080F398
:104780001188BFF34F8FBFF36F8FFEE70548416974
:1047900019B1006B18B1002070470120704702204A
:1047A00070470000300000200148C06870470000DA
:1047B000300000202DE9F0412E4F0026386B28B143
:1047C000B869401CB8613046BDE8F081FD686D1CD9
:1047D000FD6013D1786B006838B1502080F31188E8
:1047E000BFF34F8FBFF36F8FFEE7786BB96B7963C1
:1047F000B863386A401C3862FFF7CCF8B86ADFF853
:104800007880854209D3786B0068A0B1786BC06866
:10481000C4686068854211D2B8623868C06A00EB2B
:10482000800158F82100012800D90126F8690028E4
:10483000C9D00126C7E74FF0FF30EDE7201DFFF795
:10484000E1F9A06A18B104F11800FFF7DBF9E06A9A
:104850003969884200D9386100EB800108EB81009A
:10486000211DFFF71FFAE06A3968C96A8842CAD376
:104870000126C8E7300000203005002070B5040094
:104880004FF000002BD01A4D29688C4207D05020E1
:1048900080F31188BFF34F8FBFF36F8FFEE7216D59
:1048A000F1B1491E2165E36CE26A9A4217D00029F2
:1048B00015D1201DFFF7A6F9E06CE062C0F13800C9
:1048C000A061E06A2969884200D92861094900EBA2
:1048D000800001EB8000211DFFF7E4F9012070BD8D
:1048E000502080F31188BFF34F8FBFF36F8FFEE727
:1048F000300000203005002070B5C068C46854B195
:1049000004F118000646FFF77DF9144D286B50B1ED
:104910003146134815E0502080F31188BFF34F8FC4
:10492000BFF36F8FFEE7201DFFF76CF9E06A29697E
:10493000884200D928610B4900EB800001EB800020
:10494000211DFFF7AFF9E06A2968C96A884202D9D8
:104950000120E86170BD002070BD00003000002023
:10496000B8090020300500202DE9F0472B4D002428
:104970002746286B38B1FFF7A1F9286B401E286342
:10498000286B40B145E0502080F31188BFF34F8F72
:10499000BFF36F8FFEE7A86821490126C8B3A1F5D0
:1049A00091698846D8F80010E1B1D8F80C00C468C5
:1049B00004F11800FFF726F9201DFFF723F9E06A3C
:1049C0002969884200D9286100EB800109EB810048
:1049D000211DFFF767F9E06A2968C96A8842E1D3B7
:1049E000EE61DFE70CB1FEF7D5FFAC693CB1FFF734
:1049F000E1FE00B1EE61641EF9D10020A861E86912
:104A000038B10849012738070860BFF34F8FBFF35B
:104A10006F8FFFF773F93846BDE8F087300000204C
:104A2000B809002004ED00E010B586B0FEF73CFDAB
:104A3000114C2068B8B100200390049005AA04A985
:104A400003A8FFF7FDF8DDE9032102208DE8070048
:104A500000230AA10B48059AFFF76BFE606010B1B6
:104A600006B0012010BD502080F31188BFF34F8F96
:104A7000BFF36F8FFEE700006C000020546D7220C2
:104A800053766300713A00082DE9FF411F46030089
:104A90000A9E4FF0000015D0134D2C68002C0ED04C
:104AA0008DE80E00062917DAFFF770FE02284FF096
:104AB00000030FD0002269462868FFF725FC04B0E8
:104AC000BDE8F081502080F31188BFF34F8FBFF312
:104AD0006F8FFEE73246EEE700233A4669462046EE
:104AE000FFF7C4FCEBE700006C000020284C000836
:104AF00000000000000000000000000000000000B6
:104B0000000200001800000000000000000000008B
:104B1000344C00080000000000000000000000000D
:104B2000000000000002000008000000000000007B
:104B3000000000001C4C0008000000000000000005
:104B4000000000000000000000020000080000005B
:104B50000000000000000000044C000800000000FD
:104B60000000000000000000000000000002000043
:104B7000080000000000000000000000104C0008C9
:104B80000000000000000000000000000000000025
:104B9000000200000800000000000000000000000B
:104BA000EC4B0008000000000000000000000000C6
:104BB000F84B0008000000000000000000000000AA
:104BC000010202030405060708090A0B0C0D0E0F6B
:104BD000101000000000000000000102030406079E
:104BE0000809000000000102030400004341524490
:104BF0005F464C41470000005441534B5F464C41D7
:104C0000470000005049445F5441534B00000000EE
:104C1000434152445F5441534B0000004C494441CE
:104C2000525F5441534B00004745545F5441534B2E
:104C3000000000004D50555F5441534B00000000F0
:104C4000604C000800000020B0000000EE300008BA
:104C5000104D0008B0000020B0270000FE30000812
:104C60000000000000000000000000000000000044
:104C70000000000000000000000000000000000034
:104C800001000000100000000000000000127A0087
:104C90000000000000000000000000000000000014
:104CA0000000000000000000000000000000000004
:104CB00000000000000000000000000000000000F4
:104CC00000000000000000000000000000000000E4
:104CD00000000000000000000000000000000000D4
:104CE00000000000000000000000000000000000C4
:104CF00000000000000000000000000000000000B4
:104D00000000000000000000AAAAAAAA00000000FB
:0400000508000131BD
:00000001FF
