:020000040800F2
:10000000482A0020DD0100087D470008EF3B00087A
:100010000146000809130008F9510008000000001B
:100020000000000000000000000000004501000882
:10003000371700080000000089010008334A000853
:10004000F7010008F7010008F7010008F7010008B0
:10005000F7010008F7010008F7010008F7010008A0
:10006000F7010008F7010008F7010008F701000890
:10007000F7010008F7010008F7010008DD16000885
:10008000E9160008F5160008F7010008F701000856
:10009000F7010008F7010008F7010008F701000860
:1000A000F7010008F7010008F7010008F701000850
:1000B000F7010008F7010008F7010008F701000840
:1000C000F7010008F7010008F7010008F701000830
:1000D000F7010008E1510008ED510008F7010008A0
:1000E00039170008F7010008F7010008F7010008B8
:1000F000F7010008F7010008F7010008F701000800
:10010000F7010008F7010008F7010008F7010008EF
:10011000614D00086D4D0008F7010008AD4A000868
:10012000F7010008F701000801170008F7010008AF
:10013000DFF80CD000F026FF0048004745610008BA
:10014000482A0020224B19680868B0E8F00F80F3B5
:100150000988BFF36F8F4FF0000080F311884EF0D5
:100160000D0E70470000000006480068006880F32C
:10017000088862B661B6BFF34F8FBFF36F8F00DFA1
:1001800000BF00BF08ED00E0EFF30980BFF36F8F01
:100190000F4B1A6820E9F00F106008B54FF05000BF
:1001A00080F31188BFF34F8FBFF36F8F06F0AEFF60
:1001B0004FF0000080F31188BDE808401968086816
:1001C000B0E8F00F80F30988BFF36F8F704700BF6E
:1001D00058000020EFF30580704700000648804774
:1001E00006480047FEE7FEE7FEE7FEE7FEE7FEE71C
:1001F000FEE7FEE7FEE7FEE7AB4A00083101000834
:10020000202A04DB203A21FA02F00021704721FA6B
:1002100002F3D040C2F120029140084319467047D2
:1002200040EA01039B0703D009E008C9121F08C078
:10023000042AFAD203E011F8013B00F8013B521EF8
:10024000F9D27047D2B201E000F8012B491EFBD26F
:1002500070470022F6E710B513460A4604461946D1
:10026000FFF7F0FF204610BD10B5002200E0521C41
:10027000835C8C5CA34201D1002BF8D1D8B2E1B2EF
:10028000401A10BD0FB400B58DB010A909900B90A5
:1002900000914FF0FF300A9000200C900548069026
:1002A000054807906A4609A80F9900F06DFD0DB04A
:1002B0005DF814FBA50D0008C30D00082DE9FF5FD4
:1002C000D2E901A74FF00008916999461446DDF87C
:1002D00038B0464601988847054659EA0B0005D0D4
:1002E00009E0A169761C019888470546216A2846DD
:1002F00088470028F5D1681C03D05FEACA7005D092
:1003000015E04FF0FF3004B0BDE8F09F2068011DFC
:100310002160D0F800800AE05FEACA7001D108F8D5
:10032000015BA169761C7F1E019888470546002F56
:100330001ADD681C18D0B9F1000F0DD0E81705EBD5
:10034000D060421120F01F0059F822102A1A012013
:1003500090400142E0D107E0BBF1000FDCD1216AFF
:10036000284688470028D7D0E16901988847BBF123
:10037000000F07D1002E05DD5FEACA7002D100210F
:1003800088F80010A068B84203DDBBF1000F03D06D
:1003900017B16FF00100B6E73046B4E72DE9FF4F23
:1003A000087883B09946FF2805D0491C2D2804D031
:1003B0000024002008E000200BE00124F9E700EB16
:1003C000800003EB4000491C0B78FF2BF7D104B1F0
:1003D000404200230293147819461D462D2C01D06B
:1003E0002B2C04D1521C2D2C13D000240294AA468D
:1003F0001478FF2C0FD00A25A3FB057801FB05819B
:100400004FF0000C03FB0C11521CE3194AEB0101E5
:10041000EEE70124EAE7814453EA010002D019F52E
:10042000C87F06DA03980021C0E9001107B0BDE8D3
:10043000F08F0025AE4E2F46DFF8B882184600F048
:1004400065FDCDE90001B9F1000002DAC9F100044F
:1004500000E004460023A74A1AEB030B42EB045AC0
:1004600012E0E00707D02A4633463846414600F0FE
:10047000C0FA074688462A4633461046194600F019
:10048000B8FA05460E466410002CEAD1DDE90001F9
:10049000B9F1000F5A46534606DA00F01CFB3A4603
:1004A000434600F018FB05E000F0A3FA3A46434645
:1004B00000F09FFA029A0AB181F00041039AC2E962
:1004C0000001B3E72DE9FF4F1F468DB0D7E9014684
:1004D0004FF0FF382E2045464FF000090B90B969C8
:1004E0006D1C0E988847396A824688470028F6D1E5
:1004F000BAF1FF3F0AD024F4D064002E11DDBAF126
:100500002B0F08D0BAF12D0F0BD102E0404611B0ED
:100510008DE744F48064B9696D1C0E988847824663
:10052000761E6946600501D52D2000E02B208DF850
:10053000000001F1010B0DF1200809E0B9696D1C03
:100540000E98884782460F9844F40074761E056022
:10055000002E02DDBAF1300FF0D00B998A453ED162
:1005600044F0800406E00F99681CA9F1010944F4E5
:1005700000740860B9696D1C761E0E988847824623
:100580003028F0D02BE00B998A4505D1200603D402
:1005900044F08004761E18E0504605F085F808B354
:1005A0000DF11301761E44F400748B4508D2AAF1B4
:1005B00030000BF8010B200607D5A9F1010003E07C
:1005C000200602D409F101008146A00502D50F9949
:1005D000681C0860B9696D1C0E9888478246002E19
:1005E000D1DC53E0002E51DDBAF1650F02D0BAF133
:1005F000450F4BD1A00549D5B9696D1C24F4407451
:10060000761E0E9888478246002E0CDD2B2804D0DB
:10061000BAF12D0F07D144F48074B9696D1C0E989E
:1006200088478246761EE00501D52D2100E02B216A
:1006300008F8011BCDF82C8021E00DF12901761E70
:1006400044F4007488450CD2AAF1300010F0FF0089
:1006500088F8000002D10B99884509D908F10108F2
:1006600006E0E00501D5244801E042F20F70814622
:10067000B9696D1C0E98884782460F980560002E58
:1006800004DD504605F010F80028D6D1F9690E981F
:100690008847FF208BF8000088F8000000200690B3
:1006A00007904B466A4608A906A8FFF777FEA00503
:1006B00002D46FF001002AE714F0240F0AD0E007FB
:1006C00014D1DDE906123868031D3B600068C0E9FB
:1006D00000120BE0DDE9060100F0B8FA0146E00780
:1006E00004D13868021D3A600068016028460EE7B0
:1006F000000014400000F03FF1D8FFFFF0B480EAA2
:100700000102D40F4200B2EB410F02D2024608466A
:1007100011464A0042D0C30DDDB2C1F3C752AD1A33
:10072000202D35DAC1F3160141F4000204B1524222
:10073000C5F1200602FA06F12A411044B3EBD05F5E
:1007400023D0C4B1012DA0EBC35009DCF0BC4FF0A5
:10075000004202EAC352DBB200F5000000F04BBBDE
:10076000400000F1807000EBC350A0F1807040EABF
:10077000D170490009E0490841EAC071A0EBC350BB
:1007800000F50000400800EBC350F0BC00F02ABBAD
:100790006142012202EB4101001BF6E7F0BC704709
:1007A00081F00041AAE780F00040A7E780EA01025B
:1007B00010B502F00043400022D04A001FD0010EC5
:1007C00001EB1261C0F35600C2F3560240F4000080
:1007D00042F40002A0FB022000047F39140400D080
:1007E000401C50EA124001D44000491EC2B20C061F
:1007F00004EBD010401C4008802A02D003E0002007
:1008000010BD20F00100002900DA0020184310BDBF
:1008100030B480EA010202F0004530F0004221F0DD
:10082000004013D090B1C30DD40DC2F31601C0F334
:100830001600E41A41F4000140F400027D349142B4
:1008400001D3641C00E04900002C02DA30BC002017
:1008500070474FF400000023914201D3891A0343EB
:1008600040084FEA4101F7D151B1914202D14FF016
:10087000004105E002D24FF0010101E06FF00101FB
:1008800003EBC450284430BC00F0ACBA420005D0A1
:10089000C0F3C7525242914201DC0020704700EB86
:1008A000C15070472DE9FE4F804681EA0300C00F1A
:1008B0000C46009021F0004123F00045B8EB020007
:1008C000A94105D24046214690461C460B460246A9
:1008D00023F00040104347D0270DC7F30A00C3F3AD
:1008E0000A510290401A019040286BDAC3F31300BA
:1008F00040F4801B0098924620B10023D2EB030AFB
:1009000063EB0B0B01985946C0F14002504600F0D2
:1009100014FA06460D4650465946019A00F01CFA54
:1009200010EB08006141002487EA115284EAE77362
:100930001A4340D0009A62B3019A012A4FEA075243
:1009400015DC001B61EB02014FF0004202EA075286
:10095000CDE90042001C41F5801132462B4600F0E3
:1009600087FA03B0BDE8F08F40462146F9E7001B47
:1009700061EB0201001C41F5801300185B41201857
:10098000A2F5001747EB030140EAD570B6196D4197
:1009900011E06D084FEA360645EAC0754FEA075286
:1009A000001B61EB0201001C41F5801149084FEA70
:1009B00030000019514132462B4603B0BDE8F04FDC
:1009C00000F047BA0098012240000023D0EB020259
:1009D00063EBE073009821464FEAE074B8EB000047
:1009E00061EB0401E9E783F000435BE781F000413C
:1009F00058E72DE9FE4F81EA030404F0004421F09A
:100A0000004100944FF0000B23F0004350EA010432
:100A10005ED052EA03045BD0C3F30A54C1F30A5513
:100A20002C44A4F2F3340194A0FB0254C1F313014B
:100A300041F48011C3F3130343F4801301FB024418
:100A400000FB034E840A970A44EA815447EA83571D
:100A5000A4FB076802958D0A05FB07854FEA932CD6
:100A600004FB0C542705029D4FEA065847EA163747
:100A7000B5EB08056EEB070C870E920E47EA81175F
:100A800042EA8312A7FB0201B6EB0B0164EB000400
:100A90002B0D43EA0C335E1844EB1C50DA465146EA
:100AA000E7FB0201C5F313044FEA0B3343EA145387
:100AB0004FEA0432019C43EA0603A4F10C040294B9
:100AC000009CCDE900B400F0D3F903B0BDE8F08F8D
:100AD00000200146F9E72DE9F04D81EA030404F016
:100AE000004B21F0004514464FF0000A23F000416E
:100AF00050EA050220D054EA01021DD0C5F30A577E
:100B00000246C5F31303C1F31300C1F30A5640F4C0
:100B1000801543F48013A7EB0608101BD64608F295
:100B2000FD3873EB050002D308F1010801E09218CB
:100B30005B41B8F1000F03DA00200146BDE8F08DFB
:100B400000204FF48011064684460EE0171B73EB1D
:100B5000050705D3121B63EB050306434CEA010CA2
:100B600049084FEA300092185B4150EA0107EDD185
:100B700052EA030012D082EA040083EA0501084326
:100B800005D0101BAB4106D20122002306E0002253
:100B90004FF0004302E06FF0010253101AEB060021
:100BA0004CEB085110EB0A0041EB0B01BDE8F04D96
:100BB00000F04FB970B521F0004303430CD0C1F3EE
:100BC0000A550024D5EB040564EB0403D617AD1ACF
:100BD000B34102DB0020014670BD201841EB0251F9
:100BE00070BDC10F80EAE0700844CA079623002157
:100BF00000F001B996230022114600F0FCB820F065
:100C00000040C10DC0F3160040F400007F2901DA56
:100C100000207047962903DCC1F19601C840704757
:100C200096398840704700F0004230F000400AD00A
:100C3000C10D01F56071C0F3160042EA0151C2080E
:100C400040071143704700200146704701F0004300
:100C500030B421F0004150EA010206D00A0DA2F59D
:100C60006072C1F31301002A02DC30BC002070471F
:100C7000440F44EAC104C100E01830BC00EBC2508C
:100C800000F0B0B8002801DBC0F10040002901DB12
:100C9000C1F1004181427047002801DBC0F10040F2
:100CA000002901DBC1F100418842704730B50B4695
:100CB000014600202022012409E021FA02F59D428C
:100CC00005D303FA02F5491B04FA02F52844151E60
:100CD000A2F10102F1DC30BD2DE9F05F05460020F4
:100CE00092469B4688460646814640241BE028469D
:100CF000414647462246FFF783FA53465A46C01AF2
:100D0000914110D311461846224600F016F82D1ACC
:100D100067EB01084F4622460120002100F00DF844
:100D200017EB00094E41201EA4F10104DFDC484608
:100D300031462A464346BDE8F09F202A04DB203A8C
:100D400000FA02F1002070479140C2F1200320FA1E
:100D500003F3194390407047202A06DBCB17203A53
:100D600041FA02F043EAE07306E041FA02F3D040B0
:100D7000C2F12002914008431946704702681144AD
:100D80001378016018467047D160044951610449E5
:100D9000116200211161114600F00CB97D0D0008AF
:100DA000A90F0008426842B1016811F8013B23B164
:100DB000521EC0E90012184670470121C160881E0A
:100DC000704742685AB1C368016843B983688B426F
:100DD00005D0491E521CC0E90012002070474FF098
:100DE000FF3070470029A8BF7047401C490008BF6A
:100DF00020F00100704710B4B0FA80FC00FA0CF04B
:100E000050EA010404BF10BC704749B1CCF1200482
:100E100021FA04F411FA0CF118BF0121214308430F
:100E2000A3EB0C01CB1D4FEA00614FEA102042BF3B
:100E3000002010BC704700EBC35010440029A4BF31
:100E400010BC7047401C490008BF20F0010010BCD6
:100E5000704710B5141E73F1000408DA401C41F10C
:100E6000000192185B411A4301D120F0010010BD2E
:100E70002DE9F04D92469B4611B1B1FA81F202E0A4
:100E8000B0FA80F220329046FFF757FF04460F4633
:100E900040EA0A0041EA0B0153465A46084313D080
:100EA000114653EA010019D0C8F140025046FFF73D
:100EB000A7F905460E46504659464246FFF73DFF04
:100EC000084305D0012004E020463946BDE8F08DF6
:100ED0000020054346EAE0762C4337430A98630531
:100EE000E40AA0EB08000022FD0A44EA47540A3055
:100EF00002D500200146E9E7010510196941DDE945
:100F0000084500196941BDE8F04DA2E70EB540F271
:100F1000334202920022CDE900221346FFF7A8FFD8
:100F200003B000BDC1F30A52C1F3130140F2FF3315
:100F300041F480119A4202DA00200146704740F2E3
:100F400033439A42A2F2334202DC5242FFF758B9CD
:100F5000FFF7F3BE30B5041E71F1000404DB4FF05F
:100F60000044404264EB0101141E73F1000405DBF0
:100F70001C464FF00043524263EB0403994208BF02
:100F8000904230BD064C074D06E0E06840F001039A
:100F900094E8070098471034AC42F6D3FFF7CCF83A
:100FA0004C8000086C800008C0B24FF4F05100F093
:100FB00097B900002DE9F34F8BB04FF0000801F115
:100FC0000C000C464FF0010B46460DF1080A01904B
:100FD0006269012101989047051E2DD0252D2CD046
:100FE000216A8847C0B16269012101989047216A4E
:100FF00088470028F7D1411E62690198904700E0B8
:10100000761CA1690B988847216A88470028F7D188
:10101000E1690B988847DBE7A1690B988847074689
:10102000A84201D1761CD3E7E1690B9888477F1C61
:1010300002D1B8F1000F6FD046E1002762693D464A
:101040003946019890472A2804D162690121019804
:1010500090470125DFF88492626901210198904749
:10106000A0F130010A290AD24F45E5DC07EB8701E0
:1010700000EB4107303FDFD445F01005ECE7E9060F
:1010800001D46FF000476C280AD04C2814D068288F
:1010900015D06A280DD074281CD07A281AD01DE0EB
:1010A00062690121019890476C2802D045F004053F
:1010B00014E045F002050DE045F020050AE0626904
:1010C000012101989047682802D045F0080505E005
:1010D00045F400656269012101989047C4E9015710
:1010E00065283DD019DC58287AD00CDC452837D04B
:1010F00004DC252826D0412831D131E046282FD0E4
:1011000047282CD12CE05B2877D0612828D0632891
:101110007CD0642823D15AE0D0E06F2848D008DC86
:1011200066281DD067281BD0692821D06E2816D1CB
:1011300027E0702845D0732868D0752847D07828D4
:101140000DD14DE0A1690B988847054625283FF44D
:1011500069AFE1690B9888476D1C3FF46AAFB3E053
:1011600023466A466FF001000B99FFF7ABF99EE04A
:1011700045F040006060A80723464FF0000236D4D7
:101180003EE0E8077FF447AF2068011D216000685A
:10119000290501D506701BE7290701D5068017E749
:1011A000A90703D5F117C0E9006111E706600FE751
:1011B00045F040006060A80723464FF0080216D4AF
:1011C0001EE040F60E0125EA0100606016E045F0E1
:1011D00040006060A80723464FF00A0207D40FE0E2
:1011E00045F040006060A80708D5234610226FF044
:1011F00001000B99AFF3008059E007E0234610226D
:101200006FF001000B99AFF3008050E04FF0000940
:101210004F464B46632802D05B2806D040E0E806E4
:1012200001D40120A06001273AE062690121019800
:1012300090475E2805D14FF001096269494601983F
:101240009047216939B900210A46534643F82120C5
:10125000491C0829FADBB0B3216969B9C11700EB51
:10126000D16253110AEB830122F01F02821A01207E
:101270000B68904003430B6062690121019890471D
:101280005D28E8D1B9F1000F09D00020514651F88E
:101290002020D24341F82020401C0828F7DB02AB75
:1012A000224600976FF001000B99FFF707F800281E
:1012B0000CDA401C08D1BBF1000F05D04FF0FF3015
:1012C0000DB0BDE8F08FFFE74046F9E7E90701D12F
:1012D00008F1010806444FF0000B79E6CCCCCC0CA9
:1012E0007F2801D9002208E0064A02EB5002C0071D
:1012F000127800D1120902F00F020120904008403C
:1013000070470000627F0008FEE700002DE9F05FF3
:10131000234980460020886122488168204803F0E4
:10132000E1FA04461E48443003F0AEFAFFF77BFCB6
:101330004FF033321C4BFFF75CFB894606464F46A5
:101340002046FFF770FC4FF06632184BFFF751FB59
:101350008B4605465C464046FFF765FC8A4680465C
:1013600023462A46FFF73FFB3B463246FFF73BFB4F
:10137000FFF76CFC074634464E462A465B4640461D
:101380005146FFF78FFA22463346FFF78BFAFFF7F5
:101390005DFC0146384603F08DF90020BDE8F09F62
:1013A000BC2500203C0100203333D33F6666E63F76
:1013B0002DE9F04105462548254F0E46C5603C699C
:1013C00028462146FFF7ECF92249A0F500028A429F
:1013D00003D300F1FF40884208D80021084603F0FB
:1013E00011F903F0CDF90120BDE8F081214617483D
:1013F00003F020FA15490446CC31002088611348D7
:10140000B968CC3003F06EFA0746284686F00045EE
:1014100010F1FF4F06D231462046FFF73DFC07D2C0
:10142000344605E028462146FFF736FC00D22C461C
:1014300039462046FFF762F9054639462046FFF750
:10144000AFF9294603F036F90020CDE7F02400205B
:101450003C0100209A99193E2DE9F047144888B0C4
:101460004068FFF7E0FB8046124889464068FFF776
:10147000DAFBDFF844A006460F46DAF81000FFF763
:10148000D2FB04460D46DAF80800FFF7CCFB024613
:10149000AAF10C00437A007ACDE906038DE8F00347
:1014A0000B46064804F00EF808B0BDE8F0870000CF
:1014B000E4000020DC0000203C010020A47F0008A4
:1014C0002DE9F05F42480168486A00244C624EF6FC
:1014D0006025A84202DDA0F57F40FF38FFF781FBC1
:1014E000DFF8F0A05146FFF793F9FFF79CFBDFF818
:1014F000E8B03A4B5A46FFF77CFADFF8E480002266
:101500004346FFF776FAFFF7A1FB364F0646314612
:101510003868FFF7F3F8814638603046FFF783FB01
:10152000314A324BFFF7D7FAFFF790FB0646786057
:101530002F480168486A4C62A84202DDA0F57F404E
:10154000FF38FFF74EFB5146FFF762F9FFF76BFBE1
:101550005A46224BFFF74DFA00224346FFF749FA5D
:10156000FFF774FB1F4C0746083439462068FFF725
:10157000C5F8054620603846FFF755FB1A4A1B4B55
:10158000FFF7A9FAFFF762FB31466060FFF7B6F894
:101590004FF0FF363146FFF779F9164C07462946DA
:1015A00060604846FFF7AAF83146FFF76FF92061FF
:1015B0003846FFF738FB3246FFF7FCFA0022434675
:1015C000FFF789FAFFF742FB2060BDE8F09F0000BB
:1015D000F80100200000AF444AD8124DFB21094019
:1015E00000001A40DC0000209A9999999999A93F26
:1015F000400200203C0100202DE9F041274E1F460B
:101600001546B061304603F06DF90446FFF70BFB59
:10161000234AC2E90001706A224EB04202D2224936
:10162000884204DB214900F1FF40884208D80021AC
:10163000084602F0E7FF03F0A3F80120BDE8F081BF
:101640004FF40008444505DB29462046FFF724FBFC
:1016500000D22C4685F00045B44205D328462146E9
:10166000FFF71AFB00D22C46444505DB39462046DD
:10167000FFF708FB00D23C4687F00045B44205D393
:1016800028462146FFF7FEFA00D22C4684F000409F
:10169000214603F00FF80020D0E70000BC25002011
:1016A000F0000020000080809A99993E9A99193E96
:1016B00010B5034CE168FFF721F8E06010BD0000B1
:1016C0003C010020034900200860083108600249FD
:1016D00008617047DC0000203C010020014800F058
:1016E00095B900007C040020014800F08FB900008B
:1016F000C0040020014800F089B900000405002062
:10170000014800F083B900003804002030B590F89B
:1017100040500124AC40C56B6C6004686360436852
:10172000102B036803D099600068C26030BD9A60D6
:101730000068C16030BD704710B54FF4804000F0C4
:101740000BFBBDE810404FF4004000F005BB72B643
:10175000FEE7000086B02320244C0026244D8DF89F
:101760001000012704F11008207828B1012204A9F3
:10177000204802F0E5F92670607800B16670A07824
:1017800000B1A6700121E06A06F02CF8012829D1E9
:1017900003A8009002AB01AA17A11A48FEF772FD38
:1017A00019A101A8FEF760FD50B118A101A8FEF72C
:1017B0005BFD50B116A101A8FEF756FD60B111E026
:1017C0000298286088F800700CE00398686002981E
:1017D000E86088F8027005E0029828610398686064
:1017E00088F80370642005F095FBBDE70400002035
:1017F0001C010020F0030020255B5E7C5D7C2566DB
:101800007C2566001001002031000000320000003D
:10181000330000002DE9F047054680468146086008
:10182000501E17460E46C4B21FE000BF56F82400F3
:101830002946FFF731FA02D256F8245007E056F84D
:1018400024004146FFF71EFA01D256F8248056F8CC
:1018500024104846FEF752FF814606EB840050F8FC
:10186000040C46F82400641EE4B2002CDED1BF1E36
:10187000FCB229464846FEF793FF4146FEF790FF2B
:1018800005462046FFF7B6F901462846BDE8F04771
:10189000FEF7BEBF10B590F821100022022905D036
:1018A0000421816380F82020012010BD01680B68AD
:1018B00023F00E030B6001680B6823F001030B603B
:1018C00090F84030C46B012101FA03F3636080F8A3
:1018D000211080F82020104610BD00002DE9F05F97
:1018E00090F821100024022903D0042181630124EF
:1018F00085E001680A6822F00E020A6001680A6841
:1019000022F001020A603F4E3E4FB215DFF8F4C0EC
:10191000DFF8F090DFF8ECA0DFF8E8B0DFF8E4E003
:101920000168783F13011502ACF1640CA9F150096C
:10193000AAF13C0AABF1280BAEF1140E4FF480185B
:10194000B14227D9B9420ED0614512D049451DD0C8
:10195000514518D0594518D0714501D1424615E07E
:10196000294EB14201D1012210E0274E1436B14276
:1019700001D110220AE0244E2836B14206D0224A74
:101980003C32914201D11A4600E02A461E49091F05
:101990000A602BE0B94213D0614517D0494522D0E7
:1019A00051451DD059451DD0714501D142461AE01F
:1019B000B14202D14FF0807215E0134EB14201D115
:1019C000012210E0104E1436B14201D110220AE07B
:1019D0000D4E2836B14206D00B4A3C32914201D11D
:1019E0001A4600E02A46074980394A60012180F8FA
:1019F0002110002180F82010416B01B1884720465A
:101A0000BDE8F09F80000240080402402DE9F05F2D
:101A1000C16B0A6801680B68046C4FF0040808FA8F
:101A200004F8844D844E854FDFF814C2DFF8149219
:101A3000DFF814A2DFF814B2DFF814E218EA020F9C
:101A400065D05FEA437862D50A68920603D40A68D3
:101A500022F004020A60DFF8F0814FF4806201682E
:101A600008F1140813011402414524D9A9420DD0EC
:101A7000B1420FD0B9421AD0614515D0494515D0B1
:101A8000514501D1120312E0594501D104220EE063
:101A9000714501D140220AE06D4D1435A94206D0AE
:101AA0006B4A2832914201D11A4600E0224667492A
:101AB000091F0A6029E0A94213D0B14215D0B942EA
:101AC00020D061451BD049451BD0514502D14FF470
:101AD000800217E0414502D14FF0806212E0594583
:101AE00001D104220EE0714501D140220AE0584D97
:101AF0001435A94206D0564A2832914201D11A46DD
:101B000000E022464B4908394A60C16A71E04FF053
:101B1000020808FA04F818EA020F70D05FEA837826
:101B20006DD50A68920606D40A6822F00A020A6095
:101B3000012180F82110DFF810814FF40072016854
:101B400008F1140813011402414524D9A9420DD00B
:101B5000B1420FD0B9421AD0614515D0494515D0D0
:101B6000514501D1120312E0594501D102220EE084
:101B7000714501D120220AE0354D1435A94206D025
:101B8000334A2832914201D11A4600E022462F49B9
:101B9000091F0A6029E0A94213D0B14215D0B94209
:101BA00020D061451BD049451BD0514502D14FF48F
:101BB000001217E0414502D14FF0007212E0594582
:101BC00001D102220EE0714501D120220AE0204D10
:101BD0001435A94206D01E4A2832914201D11A4634
:101BE00000E02246134908394A60002180F820109D
:101BF000816A00291CD0BDE8F05F0847FFE708258F
:101C0000A540154214D01A0712D50A6822F00E0218
:101C10000A6090F84020C36B012101FA02F25A6079
:101C2000816380F82110002180F82010016BE0E72B
:101C3000BDE8F09F080002401C0002403000024056
:101C400044000240580002406C0002400804024078
:101C50001C04024030B560B11A4B026814219A424C
:101C600009D2194B1344B3FBF1F189000164174900
:101C70000AE0012030BD134B5B421344B3FBF1F18A
:101C8000890001640F490839C163022180F82110DD
:101C9000136843F6F0718B43F0E901142143D0E956
:101CA00002452C432143046921434469214384694B
:101CB00021431943116000214163012242770177DA
:101CC000084630BD08040240F8FFFDBF0000024096
:101CD00070B5044690F82000002501280CD00120A2
:101CE00084F8200094F821600020012E06D084F8AA
:101CF00020000225284670BD022070BD022684F80F
:101D00002160A0632068066826F001060660204670
:101D1000FFF7FCFCE06A00282068016802D041F06F
:101D20000E0106E021F0040101602068016841F025
:101D30000A0101602068016841F001010160D9E7F2
:101D4000B0F5004F02D0B0F5804F02D1014901201B
:101D50008870704704000020044910B50A680242E8
:101D600002D00860FFF7ECFF10BD00001404014032
:101D70002DE9F84FDFF8C8910024A9F1040B2346A0
:101D80000F2709F1040AABF1040ED1E00125A540AB
:101D900006EA0502AA4276D1DFF8A8C14E68A6EB92
:101DA0000C0866452BD00DDC032E34D005DC36B391
:101DB000012E19D0022E2FD11BE0112E16D0122E7B
:101DC0002AD119E0B8F5881F19D006DCB8F5803F94
:101DD00015D0B8F5801F1FD111E0B8F5001F0ED047
:101DE000B8F5041F18D10AE0CB6815E0CB681B1DBD
:101DF00012E0CB6808330FE0CB680C330CE08B6843
:101E00002BB1012B4FF0080303D0456104E00423FC
:101E100002E0056100E00023FF2A01D8064601E048
:101E200000F104064FEA840501D9A5F12005D6F892
:101E3000008007FA05FC28EA0C0803FA05F548EAD1
:101E40000508C6F800804D68ED0070D53E4DAE69BE
:101E500046F00106AE61AD6924F0030605F0010508
:101E600000953A4D06EB050CDCF80850A607360F36
:101E700007FA06F825EA0805DFF8D480404503D1C3
:101E80004FF0000825E052E0DFF8C880404502D15D
:101E90004FF001081DE0DFF8C080404502D14FF04F
:101EA000020816E0DFF8B480404502D14FF0030885
:101EB0000FE0DFF8AC80404502D14FF0040808E0A5
:101EC000DFF8A080404502D14FF0050801E04FF057
:101ED000060808FA06F848EA0508CCF808804D68B4
:101EE000D9F80060ED024D4601D5164300E0964357
:101EF0002E604D68DAF80060AD02554601D51643F4
:101F000000E096432E604D68DBF80060AD035D464F
:101F100001D5164300E096432E604D68DEF8006060
:101F2000ED03754601D5164300E096432E60641C10
:101F30000A681646E2407FF429AFBDE8F88F00003A
:101F40000804014000001110001002400000014090
:101F500000080140000C0140001001400014014045
:101F600000180140001C01400AB1016170470904DA
:101F7000FBE700000148806870470000480000202F
:101F800070B5040025D094F83D00002520B984F8F0
:101F90003C50204600F07EFA242084F83D00206862
:101FA000016821F0010101602068016841F40041ED
:101FB00001602068016821F40041016000F03EFCEE
:101FC0004D4A6168914201D84C4900E04C49884231
:101FD00001D2012070BD4B492368B0FBF1F15E686E
:101FE00026F03F060E435E606368934206D94FF4C5
:101FF000967359434FF47A73B1FBF3F12368491C8C
:102000001E6A26F03F06314319626168914210D87A
:102010004900401EB0FBF1F2521CC2F30B02042A2D
:1020200001D2042022E0B0FBF1F0401CC0F30B0011
:102030001CE0A268F2B301EBC10303EB0116431EDF
:10204000B3FBF6F35B1C43F480431B0549D092B30A
:1020500001EBC10202EB0111401EB0FBF1F0401C8C
:10206000C0F30B0040F4804040F400402168CA698E
:102070004CF6FF739A431043C861D4E9071001433B
:102080002068026822F0C00211430160D4E9030114
:1020900001432068826848F2FF339A43114381600C
:1020A000D4E9050108432168CA6822F0FF02104301
:1020B000C86001E00EE016E02068016841F001010F
:1020C00001602564202084F83D00256384F83E509B
:1020D000002070BD01EB4106431EB3FBF6F35B1C11
:1020E000B3E70120C2E701EB4101401EB0FBF1F074
:1020F000401CC0F30B00B7E7A086010080841E00DF
:1021000000093D0040420F002DE9FF4F83B000253C
:10211000DDE910799A4693460446DDF8488000953B
:10212000FFF728FF064694F83D0020287CD11923AC
:10213000012288492046009601F070FE0028F5D162
:1021400094F83C0001286FD0012084F83C002068FE
:102150000168C90703D1016841F0010101602068ED
:10216000016821F400610160222084F83D004020D4
:1021700084F83E0025646762A4F82A90608D20856B
:102180007548E062CDE9008653465A4620460499D8
:1021900001F046FD00287CD1208DDFF8C09120277A
:1021A00068B1012814D00228206801681ED041F4CB
:1021B000806101602068416980690090BCE020680E
:1021C000416981690091016841F400710160B3E0E7
:1021D0002068016821F48061016072B6206841695D
:1021E00081690091016841F400710AE041F40061E5
:1021F000016072B62068416981690091016821F42B
:102200008061016062B697E0032865D801280CD090
:10221000022843464FF000024946204600960BD064
:1022200001F0FCFDA8BB0CE091E03246414620469F
:1022300001F09AFE68BB72E001F0F0FD48BB72B697
:1022400033E02068016821F48061016072B6206883
:102250000069616A0870606A401C6062208D401EDF
:102260002085608D401E60853D4846F2A8110068BB
:10227000B0FBF1F0C0EBC00000EB80000090401E0E
:10228000009007D020684069C04340070DD50098F2
:10229000F5E727E044F8305F6773A573206940F0E5
:1022A0002000206162B625731CE02068016841F4BB
:1022B0000071016020680069616A0870606A401CF2
:1022C0006062218D491E2185618D491E618562B63E
:1022D00021680969017026E032464146204601F036
:1022E00043FE18B1012007B0BDE8F08F20680069F7
:1022F000616A0870606A401C6062208D401E81B275
:102300002185608D401E608520684269D243520756
:1023100012D4032903D1016821F48061016020688F
:102320000069616A0870606A401C6062208D401E0E
:102330002085608D401E6085208D00287FF464AF6D
:1023400084F83D7084F83E5084F83C50CBE702207E
:10235000C9E70000020010000000FFFF04000100B8
:10236000540000202DE9FF4F83B09A46DDE9119714
:1023700093460446DDF84080FFF7FCFD054694F8DF
:102380003D0020287FD11923012240492046009595
:1023900001F044FD002876D194F83C00012872D069
:1023A000012084F83C0020680168C90703D1016856
:1023B00041F0010101602068016821F400610160C1
:1023C000212084F83D00402084F83E000026266449
:1023D000C4F82480A4F82A90608D20852C48E062FF
:1023E000CDE9007553465A462046049901F096FC03
:1023F00070B930E02A463946204601F0EDFD58B16B
:10240000206C042804D12068016841F40071016047
:10241000012007B0BDE8F08F606A2168007808618C
:10242000606A401C6062218D491E89B22185628DDF
:10243000521E628522685369DB435B070BD469B186
:1024400000781061606A401C6062208D401E20850B
:10245000608D401E6085208D0028CBD12A463946EC
:10246000204601F0AFFC0028CAD154F83D0B0168AA
:1024700041F400710160202004F81E09E6776677B8
:102480000020C6E7FFE70220C3E7000002001000BB
:102490000000FFFF30B585B000210091019102914D
:1024A0000391214D0368214C122103222048AB42A5
:1024B0001DD1A36943F00803A361A369039203F04C
:1024C000080304931302CDE900316946FFF750FC7D
:1024D0001848416841F0E06141F002014160E06963
:1024E00040F40010E061E06900F4001019E0124DC2
:1024F000AB4217D1A36943F00803A361A369039218
:1025000003F0080304934FF44063CDE900316946BA
:10251000FFF72EFCE06940F48000E061E06900F420
:102520008000049005B030BD00540040001002400F
:10253000000C014000000140005800400248816842
:10254000027811448160704748000020074810B5A8
:10255000016841F010010160032000F0A7F80F208E
:1025600000F006F800F050F8002010BD00200240F6
:1025700030B505461F4887B0C16941F02001C161EF
:10258000C06906A900F02000009001A800F036F90B
:102590000498B0B100F052F940001749174AB0FB57
:1025A000F1F11748491E0260416040F2E732002114
:1025B000C0E903218160816100F080FB040003D049
:1025C00015E000F03BF9E8E70D4800F0B9FB040026
:1025D0000DD1372000F03CF8102D07D200222946FB
:1025E000372000F043F80748056000E0012407B0F9
:1025F000204630BD0010024040420F000014004051
:10260000480500204C0000200F4808B5816941F0C2
:1026100001018161816901F001010091C16941F00D
:102620008051C161C069002200F0805000900F21EC
:10263000901E00F01BF80548416821F0E06141F070
:102640000071416008BD0000001002400000014020
:10265000002809DB00F01F020121914040098000A1
:1026600000F1E020C0F8001170470000F0B40E4BFC
:102670001B680C46C3F30223C3F10705042D00D9E0
:102680000425191D072901D2002300E0DB1E0126C5
:1026900006FA05F1491E214099409E40761E1640DB
:1026A0003143F0BC02F01EBF0CED00E0064900F023
:1026B000070208684FF6FF03184040EA0220034A69
:1026C00010430860704700000CED00E00000FA05C0
:1026D0002DE9F0470F46050061D0434E306800F009
:1026E0000700B84209D2306820F007003843306054
:1026F000306800F00700B84251D128683B4C810790
:1027000012D5400703D5606840F4E0606060287827
:10271000000703D5606840F4605060606068A96895
:1027200020F0F000084360602878C00728D068686F
:10273000012810D02168022810D0890700292EDA3C
:10274000616821F0030101436160FFF713FC8046DB
:1027500041F288390DE021688903EFE78901EDE74F
:10276000FFF708FCA0EB0801494502D90320BDE8AA
:10277000F0876068696800F00C00B0EB810FEFD162
:10278000306800F00700B8420BD9306820F007002D
:1027900038433060306800F00700B84201D00120B3
:1027A000E5E72878400705D56068E96820F4E0602F
:1027B000084360602878000706D56068296920F41E
:1027C000605040EAC100606000F058F86168084A53
:1027D000C1F30311515CC84006490860064800680F
:1027E000FFF7C6FE0020C2E70020024000100240B2
:1027F0004A7F0008540000204C0000200F22026095
:102800000C4A536803F003034360536803F0F0037A
:102810008360536803F4E063C36052684FF4E0637D
:1028200003EAD20202610448006800F00700086071
:102830007047000000100240002002400448054993
:1028400000684968044AC1F30221515CC8407047DE
:1028500054000020001002405A7F00080448054937
:1028600000684968044AC1F3C221515CC8407047FE
:1028700054000020001002405A7F00080E4A5168A0
:102880000E4801F00C03042B11D0082B0FD10C487B
:10289000C1F38343C903C05C0AD55168084AC1F338
:1028A0004041921E515C054A5043B0FBF1F0704725
:1028B00004494843704700000010024000127A00AB
:1028C0003A7F000800093D002DE9F84F040070D060
:1028D0002078C04DC00749D06868C0F38100012846
:1028E00007D06868C0F38100022809D16868C00376
:1028F00006D52868800339D560680028E7D035E020
:102900006068B0F5803F0BD010B1B0F5A02F11D0AA
:10291000286820F480302860286820F4802002E0B5
:10292000286840F480302860606890B1FFF722FB8F
:1029300006460AE0286840F480202860F0E700BFDF
:10294000FFF718FB801B642873D828688003F7D52D
:102950000CE0FFF70FFB064605E000BFFFF70AFBA0
:10296000801B6428F0D828688003F7D420789A4E1A
:1029700080074FF001094FF0000839D5686810F062
:102980000C0F07D06868C0F38100022809D168687D
:10299000C00306D42868800714D52069012808D10F
:1029A00010E02069B0B1C6F80090FFF7E3FA0746DF
:1029B00005E00AE1FFF7DEFAC01B0228C4D8286848
:1029C0008007F7D52868616920F0F80040EAC10067
:1029D00028600DE0C6F80080FFF7CCFA074604E057
:1029E000FFF7C8FAC01B022823D828688007F7D44D
:1029F000207800072CD57948A169D9B1C0F800909A
:102A0000FFF7B8FA074604E0FFF7B4FAC01B022844
:102A10000FD8686A8007F7D571484FF4FA510068FB
:102A2000B0FBF1F0009000BF0098411E0091FAD277
:102A30000EE080E0C0F80080FFF79CFA074604E053
:102A4000FFF798FAC01B022875D8686A8007F7D488
:102A50002078400760D5E8690027C00008D4E869FD
:102A600040F08050E861E869012700F08050009054
:102A70005C480168C90513D40168834641F480713C
:102A80000160FFF777FA824606E000BFFFF772FAAF
:102A9000A0EB0A0064284ED8DBF80000C005F5D58D
:102AA000E06801280AD008B1052813D0286A20F070
:102AB00001002862286A20F0040002E0286A40F041
:102AC00001002862E06841F2883B98B1FFF752FAB2
:102AD00082460BE0286A40F004002862EEE700BF5F
:102AE000FFF748FAA0EB0A0159455AD8286A80072F
:102AF000F6D50CE0FFF73EFA824605E0FFF73AFA1A
:102B0000A0EB0A0159454CD8286A8007F6D41FB1BA
:102B1000E86920F08050E861E06988B36968C1F332
:102B20008101022944D00228C6F8608004D0FFF752
:102B300021FA044638E034E0FFF71CFA074604E0C7
:102B4000FFF718FAC01B02282BD828688001F7D499
:102B5000206AB0F5803F05D16868A16820F4003094
:102B600008436860D4E908010843696821F47411D6
:102B700008436860C6F86090FFF7FCF9044606E079
:102B800025E000BFFFF7F6F9001B022809D82868E6
:102B90008001F7D51BE000BFFFF7ECF9001B02280E
:102BA00002D90320BDE8F88F28688001F4D40EE034
:102BB0000128F7D06868226A00F48031914204D17C
:102BC000616A00F47010884201D00120EAE7002019
:102BD000E8E7000000100240000042428004424248
:102BE00054000020007000407047704710B590F806
:102BF0003C20012A22D0012280F83C20CA688C683F
:102C000022F4407222434C6822F4806222430C6812
:102C100022F4006222430C6922F4805222434C6960
:102C200022F400522243C969002322F480420A435D
:102C300001684A6480F83C30002010BD022010BDBD
:102C400070B590F83C20012A2CD0012480F83C403B
:102C5000022280F83D2003685A689D6822F07006C1
:102C60000A6832435A60104B02689A420ED00F4BEA
:102C70009A420BD0B2F1804F08D00D4B9A4205D04A
:102C80000C4B9A4202D00C4B9A4204D1496825F071
:102C900080031943916080F83D40002180F83C108A
:102CA000084670BD022070BD002C01400034014078
:102CB0000004004000080040000C004010B5040073
:102CC00003D094F83D0010B107E0012010BD0020B2
:102CD00084F83C00204600F01FF8022084F83D00F4
:102CE000211D206801F0E8FE012084F8460084F8E8
:102CF0003E0084F83F0084F8400084F8410084F8E6
:102D0000420084F8430084F8440084F8450084F8C5
:102D10003D00002010BD000008B50068064988424B
:102D200008D10648C16941F00201C161C06900F0E3
:102D30000200009008BD00000004004000100240A6
:102D400090F83D10012901D001207047022180F840
:102D50003D100168CA6842F00102CA6000680E496D
:102D600088420ED00D4988420BD0B0F1804F08D078
:102D70000B49884205D00B49884202D00A49884253
:102D800004D1816801F00701062903D0016841F0F0
:102D90000101016000207047002C01400034014017
:102DA0000004004000080040000C004070B50446DC
:102DB00090F83C000025012817D0012684F83C60DB
:102DC000022084F83D002068826822F0770222F415
:102DD0007F4282600868502838D00DDC20284FD010
:102DE00005DC90B3102811D14AE0022070BD3028D4
:102DF00046D040280AD13BE060282FD070280DD063
:102E0000B0F5805F03D0B0F5005F12D0012584F8E3
:102E10003D60002084F83C00284670BDCB68D1E9B5
:102E20000121206801F0A3FE2068816841F077014C
:102E300009E0CB68D1E90121206801F098FE206803
:102E4000816841F480418160E1E719E0CA6849681E
:102E5000206801F061FF5021206806E0CA684968D7
:102E6000206801F06AFF6021206801F08AFECEE749
:102E7000CA684968206801F04FFF40212068F4E7E4
:102E8000226801461046F0E72DE9F0410D460400A6
:102E900003D094F83D0018B108E00120BDE8F081AE
:102EA000002084F83C00204600F040F8022084F81E
:102EB0003D002068816844F2070291438160211D32
:102EC000206801F0F9FD226890689169166A2B6804
:102ED000AF69034340F20330814341EA0721A86808
:102EE000EF6908434FF6FC418843E96840EA072050
:102EF000014328692F6A000140EA073008436968E6
:102F00006D6926F0220646EA05152943936022687A
:102F1000906154F8460B0162012004F81F09E07526
:102F20002076E0762077A0750020B7E700B585B061
:102F300000210091019102910391194B02681949F6
:102F400019489A4212D18A6942F400628A618A69F8
:102F500002F4006204928A6942F004028A6189697B
:102F600001F0040104914FF4407113E0B2F1804F7D
:102F700014D1CA6942F00102CA61CA6902F00102B1
:102F800004928A6942F004028A61896901F00401AD
:102F90000491032100916946FEF7EAFE05B000BDE9
:102FA000002C0140001002400008014070B590F86C
:102FB0003E60044690F83F5090F8423090F843202D
:102FC000022021B104290ED0012E1BD114E0012EC4
:102FD00018D1012B16D184F83E0084F8420001225A
:102FE0000021206820E0012D0CD1012A0AD184F8AB
:102FF0003F0084F8430014E0012D03D1012B01D1DF
:10300000012A01D0012070BD84F83E0084F83F0001
:1030100084F8420084F8430001220021206801F076
:1030200099FD01220421206801F094FD20680168C7
:1030300041F001010160002070BD70472DE9F041B1
:1030400004460068C66805694FF00007A90713D554
:10305000B10711D5F91E0161012020772068806930
:103060008007204602D0FFF7E8FF04E000F0CCF82C
:10307000204600F071F92777680716D5700714D538
:1030800021686FF0040008610220207720688069C1
:1030900010F4407F204602D0FFF7CFFF04E000F09D
:1030A000B3F8204600F058F92777280715D53007E0
:1030B00013D521686FF0080008610420207720688C
:1030C000C0698007204602D0FFF7B7FF04E000F098
:1030D0009BF8204600F040F92777E80616D5F00661
:1030E00014D521686FF0100008610820207720684F
:1030F000C06910F4407F204602D0FFF79EFF04E035
:1031000000F082F8204600F027F92777E80708D07A
:10311000F00706D021686FF001000861204600F03A
:1031200077F9280608D5300606D521686FF08000AB
:1031300008612046FFF758FD680608D5700606D5D9
:1031400021686FF040000861204600F06BF9A80686
:103150000AD5B00608D521686FF020000861204626
:10316000BDE8F041FFF741BDBDE8F08130B585B065
:10317000002100910191029103911D4A01681D48AF
:10318000022591421ED1816941F00401816181696A
:1031900001F004010491816941F0080181618069B5
:1031A000032400F008000490C020CDE90005694622
:1031B00003941148FEF7DCFDCDE9004569460F4850
:1031C000039411E00E4A914210D1816941F010013F
:1031D00081618069694600F0100004904FF410701E
:1031E000CDE9000507480395FEF7C2FD05B030BDE7
:1031F000000400400010024000080140000C0140A3
:103200000034014000100140704770B5044690F84A
:103210003C0000260D4601280FD0012084F83C0018
:103220006AB1042A1DD0082A2FD00C2A3FD00126CB
:10323000002084F83C00304670BD022070BD20683C
:1032400001F0A8FC2068816941F0080181612068D3
:10325000816921F004018161206881692A69114333
:1032600011E0206801F0C6FC2068816941F400612A
:1032700081612068816921F48061816120688169B0
:103280002A6941EA02218161D2E7206801F0E8FC65
:103290002068C16941F00801C1612068C16921F05D
:1032A0000401C1612068C1692A69114311E02068E5
:1032B00001F00AFD2068C16941F40061C161206824
:1032C000C16921F48061C1612068C1692A6941EA4C
:1032D0000221C161ACE710B5040003D094F83D00B1
:1032E00010B107E0012010BD002084F83C0020460A
:1032F00000F01EF8022084F83D00211D206801F036
:10330000DBFB012084F8460084F83E0084F83F008F
:1033100084F8400084F8410084F8420084F84300B7
:1033200084F8440084F8450084F83D00002010BD76
:1033300008B500680649884208D10648816941F409
:1033400000518161806900F40050009008BD0000C8
:1033500000340140001002407047000010B50446E0
:10336000022249B104290ED0082913D094F8410053
:10337000012816D0012010BD94F83E000128F9D193
:1033800084F83E200FE094F83F000128F2D184F841
:103390003F2008E094F840000128EBD184F8402059
:1033A00001E084F841200122206801F0D3FB134999
:1033B0002068134A884201D0904203D1436C43F401
:1033C00000434364206888420DD090420BD0B0F196
:1033D000804F08D00B49884205D00B49884202D063
:1033E0000A49884204D1816801F00701062903D007
:1033F000016841F001010160002010BD002C014076
:10340000003401400004004000080040000C00406F
:1034100000680349884201D1FFF790B87047000067
:1034200000140040704738B5044690F84200202848
:1034300001D0022038BD51B14AB1012020630020E3
:103440006063204601F030FE216B012901D001208C
:1034500038BD21680A684968009121680C3151E83B
:10346000002F42F0100241E80023002BF5D138BDB7
:103470002DE9F04105461E481E4F1F4C4FF0805667
:10348000854216D114221D49FFF7CDFF1C48006864
:10349000016821F004010160A06A50B104F1080143
:1034A00004F0B5F8A06820B13E60BFF34F8FBFF3C2
:1034B0006F8F1448854218D10A221349FFF7B3FFD2
:1034C00012480068016821F004010160E06A0028E8
:1034D0000BD009490C3104F09AF8E068002804D0B8
:1034E0003E60BFF34F8FBFF36F8FBDE8F0810000E8
:1034F000A803002004ED00E004000020FC000020F0
:103500007C040020F003002010010020C0040020F3
:1035100070470000F8B5016804460868CA684B693E
:1035200010F00F0F4FF0000559D003F0010602F420
:103530009077374365D0C10705D0D10503D5616CBD
:1035400041F001016164410705D5D90703D0616CE1
:1035500041F002016164810705D5D90703D0616C90
:1035600041F004016164010707D502F020013143F5
:1035700003D0616C41F008016164616C00293AD0AC
:10358000800604D5900602D5204601F0CFFC2068C5
:103590004069616CC0F38010090700D460B3204615
:1035A00001F08FFC20684069400621D52068143066
:1035B00050E8001F21F0400140E80012002AF5D138
:1035C000E06BA8B16D494163E06BFEF787F9002815
:1035D00011D0E06B416B01B0BDE8F04008478306B5
:1035E0000FD593060DD52046BDE8F84001F09EBCEE
:1035F0002046FFF78DFFF8BD2046FFF789FF656481
:10360000F8BD266B2023012E7CD1C6067AD5D606BE
:1036100078D508684868009048694FF0020640066F
:1036200040D5E16B086840680004000CE8D0A28D2A
:103630008242E5D9E085886920282DD020680C30A9
:1036400050E8001F21F4807140E80012002AF5D1F3
:103650002068143050E8001F21F0010140E80012FA
:10366000002AF5D12068143050E8001F21F04001F5
:1036700040E80012002AF5D184F842302563206822
:103680000C3050E8001F21F0100140E80012002A21
:10369000F5D1E06BFEF7FEF86663A08DE18D401A70
:1036A00081B22AE0A08DE18D401A81B2E08D002820
:1036B000A6D00029A4D022680C3252E8000F20F4D2
:1036C000907042E80007002FF5D12068143050E8D0
:1036D000002F22F0010240E80027002FF5D184F8E6
:1036E0004230256320680C3050E8002F22F0100291
:1036F00040E80023002BF5D166632046FFF7B8FEB3
:10370000F8BDFFE705062BD5150629D594F841002D
:103710002128F5D1A068B0F5805F01D12069B0B152
:10372000206A411C2162216800784860E08C401EBC
:103730000004000CE084E3D12068C16821F080011E
:10374000C1602068C16841F04001C160D8E7206ACB
:103750000088C0F308004860206A801C2062E5E70A
:103760004006CDD55006CBD5CA68204622F040028F
:10377000CA6084F8413000F038FAC1E7794D00089A
:1037800070B5040004D094F84100002510B106E0A3
:10379000012070BD84F84050204600F023F824201A
:1037A00084F841002068C16821F40051C1602046BE
:1037B00001F01EFC2068016921F49041016120683C
:1037C000416921F02A0141612068C16841F400513A
:1037D000C1606564202084F8410084F8420065637C
:1037E000002070BDF0B585B00025009501950295CB
:1037F00003950446884ED0F800C088480221032370
:10380000874A8027B44539D1C66946F40026C66187
:10381000C66906F400260496866946F0100686619D
:103820008069039300F0100004904802CDE9000184
:10383000694616461046FEF79BFA3801CDE90005A9
:10384000694630460295FEF793FA774E7548C6E909
:103850000005C6E9025735617561B5613046F5610D
:10386000FEF7F8F908B1FDF772FFE66300220A21BE
:1038700034207462FEF7FAFE342031E0DFF8ACE168
:103880000426F44530D1C46944F48014C461C46989
:1038900004F480140494846944F0100484618469FD
:1038A00004F010040494846944F020048461806965
:1038B000039300F020000490B002CDE900016946B6
:1038C0001046FEF755FACDE900656946584802955D
:1038D000FEF74EFA00220A213520FEF7C7FE3520FA
:1038E000FEF7B6FE05B0F0BD524A944540D182695C
:1038F00042F480428261826902F4804204928269C9
:1039000042F00802826180694B4E00F0080004908A
:103910004020CDE90001039369463046FEF728FABE
:10392000CDE90075694630460295FEF721FA434815
:10393000416841F0E06141F0040141603A4E404885
:103940004436C6E90005C6E9025735617561B561BF
:103950003046F561FEF77EF908B1FDF7F8FEE66343
:103960000022052125207462FEF780FE2520B7E79E
:10397000344A9445B6D1C26942F40032C261C26988
:1039800002F400320492826942F00402826180698A
:10399000CDE9006100F00400CDE903302A4E69460C
:1039A0003046FEF7E5F90820CDE9000569463046C6
:1039B0000295FEF7DDF91C4E214888361430C6E921
:1039C0000005C6E9025735617561B5613046F5619C
:1039D000FEF740F908B1FDF7BAFEE6637462124ED5
:1039E0001748CC36283001C61020A1C60E4846F82C
:1039F0001059CC307561B561F561FEF72BF908B14E
:103A0000FDF7A5FEA6630022052126207462FEF7BD
:103A10002DFE262064E70000004C0040001002400C
:103A200000100140300402403804002000500040E3
:103A30000014014000380140000C0140000001402A
:103A400058000240004400400008014090F8423015
:103A5000202B01D00220704721B11AB1002303634B
:103A600001F06ABB0120704710B500680849884220
:103A70000DD1006880060AD40121064802F022FB1D
:103A8000BDE81040012203490348FFF7DFBF10BD26
:103A900000500040000000206003002070472DE926
:103AA000F843044690F84100984616460D462028F3
:103AB00002D00220BDE8F88385B17EB100206064A9
:103AC000212084F84100FEF755FAA6848146E68459
:103AD000A0682027B0F5805F02D003E00120E9E76D
:103AE000206910B12E4600250EE000260CE0802152
:103AF000204601F03CFBA8B9C6B116F8010B2168BD
:103B00004860E08C401EE084E08C4B464FF00002A1
:103B1000CDF800800028EAD14FF04001204601F0A6
:103B200026FB40B184F841700320C3E735F8020B4F
:103B3000C0F30800E3E784F841700020BAE7000012
:103B400070B5044690F84100202801D0022070BDD5
:103B500049B342B32162A284E2840020606421233D
:103B600084F84130A56B114BAB62A56B104BEB6237
:103B7000A56B104B2B63A36B5863256813462A1D56
:103B8000A06BFEF7A5F821686FF040000860206880
:103B9000143050E8001F41F0800140E80012002A74
:103BA000F5D1002070BD012070BD0000774E0008E7
:103BB000B94E0008894D000890F84130202B01D003
:103BC0000220704779B172B101628284C2840021FF
:103BD0004164212180F841100068C16841F08001F2
:103BE000C160002070470120704770477047FEE7B2
:103BF00001684A69D24352050FD46FF480624A616A
:103C0000002140F8301F202242738173026942F084
:103C10000402026101730120704700207047000018
:103C20002DE9F84F0446006889460B9D01689846C7
:103C3000174641F4806101602068016841F4807199
:103C4000016000954FF0011B0022594620460A9B57
:103C500000F0E4F84FF4007A40B120680068C00535
:103C600001D5C4F840A00320BDE8F88F216809F011
:103C7000FE0008612B46284920460A9A00F016F9F2
:103C8000F0BB20684169806900902A4620460A9965
:103C900000F0A2F940B1206C04283AD120680168F4
:103CA00041F40071016034E0FEB2B8F1010F09D0B7
:103CB0002168380A08612A4620460A9900F08CF9E2
:103CC0000028E8D1206806612A4620460A9900F0BB
:103CD00083F90028DFD12068016841F48071016018
:103CE00000950022594620460A9B00F097F80028CC
:103CF000B3D1216809F0FF0040F00100086100E045
:103D000007E02B46044920460A9A00F0CFF8002825
:103D1000AAD00120A8E70000020001002DE9F84325
:103D2000044600680D46DDE9089701689846164686
:103D300041F4807101604B4600224FF00111204692
:103D4000009700F06BF848B120680068C00502D504
:103D50004FF4007020640320BDE8F883216805F06B
:103D6000FE0008613B464A461549204600F09EF891
:103D700088B920684169806900903A4649462046E2
:103D800000F02AF948B1206C042804D120680168A9
:103D900041F4007101600120DEE7F5B2B8F1010FD6
:103DA00009D02168300A08613A464946204600F0A9
:103DB00013F90028E7D1206805610020CCE7000056
:103DC0000200010070B516460D4604461EE020466E
:103DD000FFF70EFF08B1012070BD681C16D0FEF77A
:103DE000C9F8801BA84200D885B920684069C04343
:103DF00040070BD5002044F8300F20216173A073D9
:103E0000216941F0200121612073E4E720684069C5
:103E1000C0434007DBD4002070BD00002DE9F0470F
:103E2000984617460D460446C1F30746DDF8209034
:103E30002AE000BFB8F1FF3F26D0FEF79BF8A0EBC9
:103E40000901414502D8B8F1000F1DD12068012EAB
:103E500016D0806925EA00000004000C12D0002072
:103E6000B84211D1002044F8300F20216173A073B3
:103E7000216941F02001216120730120BDE8F08714
:103E80004069E7E70120EBE72068012E0AD080694E
:103E900025EA00000004000C06D00020B842C9D07A
:103EA0000020EBE74069F3E70120F7E72DE9F04751
:103EB000984616460D4604464FF000094FF0200A7A
:103EC000C1F3074723E020684069C043400515D48B
:103ED0002068016841F40071016021686FF480601E
:103EE0004861C4F8309084F83DA084F83E90216C7D
:103EF00041F00401216484F83C9021E0701C06D05C
:103F0000FEF738F8A0EB0800B04203D816B1012F35
:103F10001FD021E02068012F15D0806925EA00001C
:103F20000004000C18D000BF44F8309F84F80DA0A6
:103F300084F80E90216941F02001216184F80C90F1
:103F40000120BDE8F087406925EA00000004000C6C
:103F5000EAD12068406901E02068806925EA000014
:103F60000004000CAFD1ECE72DE9F04100259046AC
:103F70000E460446202728E04069C043C0060CD402
:103F800054F8301B6FF01000486144F810596777FF
:103F9000A577206A2062257714E0FDF7EBFFA0EB00
:103FA0000800B04200D886B920684069C043400686
:103FB0000BD544F8305F6773A573206940F020008B
:103FC000206125730120BDE8F08120684169C94363
:103FD0004906D1D40020F6E770B516460D460446D2
:103FE0001EE02046FFF704FE08B1012070BD681CEA
:103FF00016D0FDF7BFFF801BA84200D885B9206806
:104000004069C04300060BD5002044F8300F202142
:104010006173A073216941F0200121612073E4E7FD
:1040200020684069C0430006DBD4002070BD2DE944
:10403000F041044641600068FCF7B2FB6062A56A8B
:10404000064601212846FCF721FC3146FCF7ABFB74
:10405000E16AFCF753FBA16BFCF7A8FB074631466E
:10406000606BFCF7A3FB804629463046FCF798FBC3
:10407000E16BFCF79BFB4146FCF740FB3946FCF744
:104080003DFBA168FCF73AFBA060C4E90A65BDE806
:10409000F0810000194808B5416941F00201416111
:1040A000416901F002010091416941F00101416162
:1040B0004069002200F00100009005210F20FEF76A
:1040C000D5FA0F20FEF7C4FA002205211020FEF7D2
:1040D000CDFA1020FEF7BCFA002205211120FEF7D0
:1040E000C5FA1120FEF7B4FA002205213A20FEF7A6
:1040F000BDFABDE808403A20FEF7AABA0010024017
:1041000010B5194A0021012002F0BEF8174C164ADA
:104110000021A0621032012002F0B6F8124AE062DB
:10412000B43A0021124802F0FBF80F4A6061903A5D
:104130000021104802F0F4F80B4AA0616C3A00210B
:104140000D4802F0EDF8084AE061483A00210B48BA
:1041500002F0E6F8044A2062243A0021084802F0FE
:10416000DFF8606210BD0000187F00080400002026
:1041700055170008C549000865490008F1460008C0
:1041800039490008F0B585B000252C480095019507
:1041900002950395816941F020018161816901F0F7
:1041A00020010491816941F010018161816901F070
:1041B00010010491816941F004018161816901F07C
:1041C00004010491816941F00801816180691C4EFC
:1041D00000F008000490002206213046FDF7C4FEDE
:1041E000184F012210213846FDF7BEFE062001249B
:1041F0008DE831000225694630460395FDF7B8FD8C
:104200004FF4404000901048CDE90105694638461A
:10421000FDF7AEFD1020CDE9000469463846CDE932
:104220000245FDF7A5FD002205212820FEF71EFA14
:104230002820FEF70DFA05B0F0BD00000010024086
:1042400000100140000C0140000011100D4810B595
:104250000B4901600C49416000214FF480428160AC
:10426000C0E9031241618161C1610162FDF788FE0D
:10427000002803D0BDE81040FDF769BA10BD00006A
:104280000054004050010020A08601000D4810B5E8
:104290000B4901600C49416000214FF4804281606C
:1042A000C0E9031241618161C1610162FDF768FEED
:1042B000002803D0BDE81040FDF749BA10BD00004A
:1042C00000580040A4010020A086010010B58CB069
:1042D00024216846FBF7BDFF0024174809941549BF
:1042E0000A94C0E900144FF6FF71C0E9024104616D
:1042F000446184610320CDE90004012005210222EC
:10430000CDE90204CDE904120690CDE907416946E2
:104310000948FEF7B9FD08B1FDF719FA099409A992
:1043200005480A94FEF78CFC002801D0FDF70FFA2F
:104330000CB010BD002C0140F801002010B58CB06D
:1043400024216846FBF785FF0024164809944FF0A6
:1043500080410A94C0E900144FF6FF71C0E90241A0
:10436000046184610320CDE90004012005210222BB
:10437000CDE90204CDE904120690CDE90741694672
:104380000848FEF781FD08B1FDF7E1F9099409A994
:1043900004480A94FEF754FC002801D0FDF7D7F931
:1043A0000CB010BD4002002010B58EB00024079460
:1043B000089409940A940B941C2168460C94FBF70A
:1043C00048FF2A48284901600821C0E9011440F249
:1043D000E731C0E903148461FEF770FC08B1FDF712
:1043E000B6F94FF48050079007A92048FEF7DEFC8D
:1043F00008B1FDF7ACF91D48FEF76DFF08B1FDF7F8
:10440000A6F90B940BA919480C94FEF719FC08B1F6
:10441000FDF79DF96020CDE9000402940022694671
:1044200012480494FEF7F1FE08B1FDF790F904225A
:1044300069460E48FEF7E9FE08B1FDF788F9082243
:1044400069460A48FEF7E1FE08B1FDF780F90C2243
:1044500069460648FEF7D9FE08B1FDF778F903482A
:10446000FEF784FE0EB010BD00040040880200205C
:1044700010B592B000240F941C2168461094FBF7ED
:10448000E8FE202107A8FBF7E4FE24482249C0E902
:1044900000144FF6FF71C0E9024104614461846178
:1044A000FEF719FF08B1FDF752F90F940FA91B4849
:1044B0001094FEF7C5FB08B1FDF749F96020CDE97E
:1044C000000402940394049405940022694613485E
:1044D0000694FEF79AFE08B1FDF739F90C226946F9
:1044E0000E48FEF792FE08B1FDF731F907940894E3
:1044F00009944FF400500A94CDE90B4007A90748EE
:104500000E94FEF773FB08B1FDF721F90348FEF79F
:104510002DFE12B010BD000000340140D00200207A
:104520000C4810B50A4901604FF4E13141600021A7
:1045300081600C22C160C0E904128161C161FFF792
:104540001FF9002803D0BDE81040FDF700B910BDE9
:10455000004C0040180300200C4810B50A490160C7
:104560004FF4E1314160002181600C22C160C0E95B
:1045700004128161C161FFF703F9002803D0BDE88F
:104580001040FDF7E4B810BD00500040600300206B
:104590000C4810B50A4901604FF4165141600021E2
:1045A00081600C22C160C0E904128161C161FFF722
:1045B000E7F8002803D0BDE81040FDF7C8B810BDEB
:1045C00000380140A80300200C4810B50A490160DA
:1045D0004FF4E1314160002181600C22C160C0E9EB
:1045E00004128161C161FFF7CBF8002803D0BDE858
:1045F0001040FDF7ACB810BD00440040F0030020AF
:10460000FEE700002DE9F0474FF40008DFF898A01E
:10461000264EDFF89C900C4605464FF47A774045CD
:104620000EDA30688763554500D955464946284615
:10463000FCF764F8FCF7E3FA3168486345450CDBA6
:104640003068476349468D4200DD4D462846FCF7F9
:10465000AAF8FCF7D4FA316888634546AC420EDA12
:1046600030680764544500D9544649462046FCF753
:1046700045F8FCF7C4FA3168C863AC4211DB306816
:10468000C7634846844201DD4C4603E014F1FF4F06
:1046900000D300242146FCF783F8FCF7B0FA316818
:1046A0000864BDE8F087000000007AC4880200209A
:1046B00000007A440B4A10B5106002F1440001601A
:1046C000094841681046FFF7B2FC044607484168B4
:1046D00004484430FFF7ABFC01462046BDE81040DB
:1046E000FFF790BF34250020DC000020E40000200C
:1046F00000F046F8204C1F4D4FF000080126A4F1B1
:10470000100700BFFCF7DCFE207830B12868FCF70A
:10471000FDFD10B384F800801CE0A07878B1154846
:104720006A6820304FF07C538168E868FCF764FFCA
:1047300098B184F80280E868FCF7BAFF0AE0E078F4
:1047400060B1FCF789FE69682869FCF731FE20B189
:1047500084F80380FCF7B6FF3E7006E0607820B175
:1047600000210846FFF7A6FFF4E7322002F0D2FB53
:10477000C8E700001C01002014000020FEE7000034
:1047800010B523490020234AC86008614861486287
:104790008862C1E90C02204A8A634FF04042CA6332
:1047A00044311E4A486041F8080B1D4B41F81C0B70
:1047B0004FF0824401C101C101C181E81D001449CB
:1047C0008831486041F8080B41F81C0B01C101C158
:1047D00001C181E81D000E49124ACC318861C861CF
:1047E000086248628862C862C1E90C020E4A8A63A4
:1047F0004FF07E52CA6344310C4AC8600861486178
:1048000048628862C1E90C0288630948C86310BD28
:10481000F0240020000040400AD7233C0000C040A4
:104820000AD7A33B3D0AD73EA69BC43A6666E63E3E
:10483000CDCC4C3F2DE9F04104460161C068FBF747
:10484000AFFF054660622946206BFBF757FF2063E8
:1048500007462846A16AFBF7A3FFE16BFBF7A6FF1B
:1048600006463946A06BFBF7A1FF07462946606B59
:10487000FBF79CFF3946FBF741FF3146FBF73EFF54
:10488000A5626061BDE8F0812DE9F041044614485D
:10489000017A407A081A2064FCF7A3F90546216BD7
:1048A000FBF72CFF206307462846A16AFBF778FF39
:1048B000E16BFBF77BFF06463946A06BFBF776FF03
:1048C00007462846616BFBF771FF3946FBF716FF79
:1048D0003146FBF713FFA5626061BDE8F08100007F
:1048E000300100202DE9F0410446C1618069FBF7E9
:1048F00057FF054660622946206BFBF7FFFE2063E9
:1049000007462846A16AFBF74BFFE16BFBF74EFF1A
:1049100006463946A06BFBF749FF07462946606B00
:10492000FBF744FF3946FBF7E9FE3146FBF7E6FEAD
:10493000A5622062BDE8F081084E094D4FF0FF37B7
:1049400000243946B06A02F04DFF0128F9D1002059
:104950002C54401C0428FBD9F3E70000040000207D
:10496000FC000020012000F048FC022000F045FC83
:1049700002F0CCF90A222D21104800F016FD02F0B9
:10498000E5F90E4C0E4D00BF02F0C0F9012000F019
:1049900057FD2178401A2072022000F051FD217944
:1049A000401A607202F0D2F90548044A3030696852
:1049B00000F02CF8232002F0ADFAE5E730010020EA
:1049C0000400002086B001F0E9FA142001F02EFB6B
:1049D0000C4C0D4DE060009001900290039004900B
:1049E0000F21094801F000FA05226946A868FCF782
:1049F00011FFE168FBF7D4FEA060142002F08AFAF0
:104A0000EEE700003C0100205C24002010B5137A82
:104A1000527A13440022491E06E000BF00EB8204D4
:104A2000646840F82240521C8A42F7DB40F821308B
:104A300010BD10B54FF0E020006903F021F8012807
:104A400003D0BDE8104002F0E7BB10BD30B58FB019
:104A500028216846FBF7FDFB14210AA8FBF7F9FBA8
:104A600001210804CDE900100024029402250491DC
:104A7000CDE907504FF4E01009906846FDF724FF98
:104A800008B172B6FEE70F20CDE90A054FF4806049
:104A9000CDE90C4002210AA80E94FDF719FE00286A
:104AA00001D072B6FEE70FB030BD70470148FEF787
:104AB000C5BA000048050020F0B50268204C214D21
:104AC000214E224F224B4FF0804CA04209D09842F9
:104AD00007D0604505D0A84203D0B04201D0B8420B
:104AE00004D122F0700E4A6842EA0E02A04209D0B8
:104AF000984207D0604505D0A84203D0B04201D00B
:104B0000B84203D122F44075CA682A434D6922F0A5
:104B100080022A4302608A68C2620A688262A042F6
:104B200001D0984201D10969016301214161016904
:104B3000C90703D0016921F001010161F0BD000046
:104B4000002C01400004004000080040000C004020
:104B50000034014010B501F01F030121046A99409F
:104B60008C430462016A9A401143016210BD10B582
:104B7000846842EA032224F47F440A432243826089
:104B800010BD826822F070020A4342F00701816082
:104B900070470000F0B5036A026A22F00102026267
:104BA00042688469124E24F073050C682C4323F08C
:104BB00002058B682B430D4DA84201D0B04205D1B0
:104BC00023F00807CB683B4323F00403A84201D03D
:104BD000B04205D14D6922F4407215438A692A43D7
:104BE00042608461496841630362F0BD002C01406A
:104BF00000340140F0B5026A036A23F01003036237
:104C0000436884690D6824F4E64444EA05248D6809
:104C100022F0200242EA05120F4D104EA84201D0A8
:104C2000B04206D1CF6822F0800242EA071222F099
:104C30004002A84201D0B04207D14D6923F440633D
:104C400043EA85038D6943EA8503436084614968CB
:104C500081630262F0BD0000002C0140003401407D
:104C6000F0B5026A036A23F4807303624368C4697F
:104C700022F4007224F073050C68124E2C438D68E8
:104C800042EA05220E4DA84201D0B04206D1CF68BB
:104C900022F4006242EA072222F48062A84201D094
:104CA000B04207D14D6923F4405343EA05138D699F
:104CB00043EA05134360C4614968C1630262F0BD01
:104CC000002C01400034014030B5046A026A22F42D
:104CD000805202624268C3690D6823F4E64343EAE6
:104CE00005238D6824F4005444EA0534084DA84295
:104CF00002D0084DA84204D14D6922F4804242EA14
:104D000085124260C36149680164046230BD0000DD
:104D1000002C01400034014010B5036A046A24F0FD
:104D200001040462846924F0F00444EA021423F0CC
:104D30000A020A438461026210BD10B5036A046A64
:104D400024F010040462846923F0A00324F4704466
:104D500044EA023243EA01118261016210BD00009F
:104D60000148FEF7D7BB0000180300200148FEF7FA
:104D7000D1BB00006003002010B5406A0021C1854E
:104D8000C184FEF7C5FB10BD70B5446A2068406958
:104D900094F84110C0F3C0100025212904D118B1A6
:104DA000E584204600F0B4F82068406994F8421089
:104DB000C0F38010222904D118B1E585204600F007
:104DC00080F8606C40F0100060642046FEF7A0FBA5
:104DD00070BD10B50146406A096809684FF00002CD
:104DE00089062ED4C28501680C3151E8003F23F4B6
:104DF000807341E80034002CF5D10168143151E88A
:104E0000003F23F0010341E80034002CF5D1016894
:104E1000143151E8003F23F0400341E80034002CF6
:104E2000F5D1202180F84210016B012909D10168D8
:104E30000C3151E8003F23F0100341E80034002C0E
:104E4000F5D14263016B012902D0FEF70DFE10BDC2
:104E5000818DFEF70DFB10BD10B5406A0121416345
:104E6000016B012902D0FEF719FE10BD818D4908A2
:104E7000FEF7FEFA10BD10B50146406A09680968E0
:104E8000890616D40021C1840168143151E8002F2D
:104E900022F0800241E80023002BF5D101680C319B
:104EA00051E8002F42F0400241E80023002BF5D1E9
:104EB00010BDFEF79AFE10BD10B5406AFEF796FED3
:104EC00010BD01680C3151E8002F22F4907241E8C6
:104ED0000023002BF5D10168143151E8002F22F096
:104EE000010241E80023002BF5D1016B012909D112
:104EF00001680C3151E8002F22F0100241E8002334
:104F0000002BF5D1202180F8421000210163704769
:104F100001680C3151E8002F22F0C00241E8002363
:104F2000002BF5D1202180F84110704708B590F88A
:104F30004210222901D0022008BD82684FF480531C
:104F40009A4201D1016921B1816A9A421BD04AB1CA
:104F50000AE00268816A5268C2F308020A80816A24
:104F6000891C08E0026972B10268526802F07F028F
:104F70000A70816A491C8162C18D491E0904090CAD
:104F8000C18503D01BE002685268F1E70168CA6876
:104F900022F02002CA600168CA6822F48072CA60E6
:104FA00001684A6922F001024A61202180F842101A
:104FB00000214163026B012A03D0FEF755FD00205A
:104FC00008BD016301680C3151E8002F22F0100286
:104FD00041E80023002BF5D101680A68D20602D50A
:104FE0000A6849680091818DFEF742FAE7E7000000
:104FF00070B5044600680169E26821F4405111432C
:1050000001612169A0680843616908432168CA6891
:1050100041F20C639A430243CA6020684169A26965
:1050200021F44071114341611E492068884202D138
:10503000FDF714FC01E0FDF701FC00EBC00101EB02
:105040000012606864218000B2FBF0F3B3FBF1F35F
:105050006FF018067343B2FBF0F5B2FBF0F605EB08
:105060008305322303EB0515B5FBF1F5B6FBF1F62D
:1050700005F0F00505EB0615B2FBF0F6B2FBF0F01B
:10508000B0FBF1F06FF01802504306EB800003EB29
:105090000010B0FBF1F0216800F00F002844886098
:1050A00070BD00000038014038B581620446828539
:1050B000002013466064222284F84220E56B1B4ADC
:1050C000AA62E56B1A4AEA62E56B1A4A2A63E26B46
:1050D00050630A462168E06B091DFCF7F9FD206862
:1050E000016840680090206948B120680C3050E8A1
:1050F000001F41F4807140E80012002AF5D12068B9
:10510000143050E8001F41F0010140E80012002A6D
:10511000F5D12068143050E8001F41F0400140E80C
:105120000012002AF5D1002038BD0000D34D000840
:10513000594E0008894D000881628285C285002190
:105140004164222180F84210016921B10168CA68D6
:1051500042F48072CA6001684A6942F001024A6101
:105160000068C16841F02001C160002070472DE94E
:10517000F843984617460D460446089E24E0701CE6
:1051800022D0FCF7F7FEA0EB0800B0421AD8CEB14F
:105190002068C168490717D5802D15D0402D13D040
:1051A0000168C94309070FD40168002540680090D1
:1051B0002046FFF786FE0820606484F840500120F6
:1051C000BDE8F8830320FBE72068006835EA0000AB
:1051D00004D00020B842D2D00020F1E70120F9E746
:1051E0000148FEF797B90000A80300200148FEF728
:1051F00091B90000F0030020FEE710B5044600F06E
:105200001BF9B42801D0012010BD2246012140F233
:10521000072000F035F9224601214FF4027000F01A
:105220002FF922460021962000F02AF92246FD217E
:10523000972000F025F922460021E32000F020F914
:1052400022460421E42000F01BF922460221E52039
:1052500000F016F922460121E62000F011F922465D
:105260000321E72000F00CF922460221F52000F08E
:1052700007F922460521D92000F002F92246CE2165
:10528000DB2000F0FDF822460321DC2000F0F8F8D6
:105290002246F821DD2000F0F3F8224600219F206D
:1052A00000F0EEF822463C21A32000F0E9F8224667
:1052B0000021B72000F0E4F822463C21BB2000F09A
:1052C000DFF822460921B22000F0DAF8224609214F
:1052D000CA2000F0D5F8224601214FF4CC7000F02E
:1052E000CFF8224617214FF4D87000F0C9F82246B3
:1052F000002140F2AD1000F0C3F822460521FF2046
:1053000000F0BEF8224605214FF4807000F0B8F896
:105310002246052140F2991000F0B2F822461B21E6
:105320004FF4D37000F0ACF822463E214FF4D67013
:1053300000F0A6F822461F2140F2A71000F0A0F8C6
:1053400022460021302000F09BF822461021112037
:1053500000F096F8224630214FF4857000F090F866
:10536000224646213F2000F08BF82246FF213120C3
:1053700000F086F822466321402000F081F82246A2
:1053800001212E2000F07CF8224609211B2000F08C
:1053900077F8224631213E2000F072F8224624217F
:1053A000142000F06DF8002010BD2DE9F041002719
:1053B00014460E468046012504E0012000F040F826
:1053C00007446D1CA542F8DD97FBF4F0811B002714
:1053D0000125C8F8001004E0022000F031F807446D
:1053E0006D1CA542F8DD97FBF4F0811BC8F8041092
:1053F000BDE8F0811FB50522012303AC022902D0CC
:10540000012908D010E00094CDE9013210230246B2
:105410005321074806E00094CDE9013202461023EB
:1054200053210448FCF770FE9DF80C0004B010BD39
:10543000A40100205001002001460020FFF7DABF40
:1054400070B5054629464D20FFF7D4FFC007F9D0B7
:105450002A460121182000F013F829464F20FFF7B3
:10546000C9FF4007F9D529466220FFF7C3FF04466C
:105470002A460721152000F003F8204670BD0000E1
:1054800017B583B00521012304AC022A02D0012AFA
:1054900008D010E00094CDE90131102302465221DA
:1054A000064806E00094CDE901310246102352215E
:1054B0000348FCF757FF06B0002010BDA4010020F0
:1054C000500100200FB4054B10B503A9044A0298FF
:1054D00000F0F2F810BC5DF814FB00002D6100082C
:1054E000F80000200907090E002804DB00F1E02085
:1054F00080F80014704700F00F0000F1E02080F801
:10550000141D704702E008C8121F08C1002AFAD112
:1055100070477047002001E001C1121F002AFBD133
:10552000704700002DE9FF5F82B00021DDE9043003
:10553000020DDDF840B0034318D044F61050A2F23B
:10554000FF3242431514119801281FD0A5EB0B0020
:10555000401C5FEA000A4FF000064E4FDFF838911A
:10556000B046504615D5CAF1000413E01198012445
:105570004AA3012801D16FEA0B010298119AC0E9F0
:105580000031C0E9024206B0BDE8F09FCBF1000057
:10559000DFE704460021404A491842EB0450CDE9B8
:1055A000001012E0E00707D032463B46404649462D
:1055B000FBF71FFA8046894632463B46104619469D
:1055C000FBF717FA06460F466410002CEAD1DDE916
:1055D0000401DDE90023BAF1000F06DAFBF709FA4E
:1055E00042464B46FBF705FA05E0FBF774FA4246E4
:1055F0004B46FBF770FA04460E460022284BFBF799
:10560000A9FC03D84FF0FF30014607E00022254BEC
:1056100020463146FBF746F9FBF784FC102409E0ED
:10562000002C0ADB0A220023FBF756FB039B3032D7
:105630001A55641E50EA0102F2D1641C039AC4F1A7
:1056400011031444119A012A03D0012208430DD1F9
:105650000AE0084304D000204FF0110B119072E7CC
:10566000A3EB0B056D1E0DE05B4504DD4FF0000262
:1056700005F1010504E003DA4FF00002A5F1010590
:10568000002AECD002981199C0E90231C0E9004526
:1056900079E70000000014400000F03F30000000F7
:1056A0000000F0430000E03F30380A2801D201201A
:1056B00070470020704700002DE9FF4F95B09B46D2
:1056C0008946064600250FE2252877D10024274683
:1056D000F84A0121059400E0044316F8013F203BFD
:1056E00001FA03F01042F7D130782A2811D06FF078
:1056F0002F033078A0F13002092A16D8059A44F019
:10570000020402EB820203EB42021044761C059075
:10571000EFE759F8042B0592002A03DA504244F4CB
:105720000054059044F00204761C30782E2816D1DF
:1057300016F8010F44F004042A280DD06FF02F0250
:105740003078A0F13003092B09D807EB870302EB6F
:105750004303C718761CF3E759F8047B761C3078AE
:105760006C280FD006DC4C2817D068280DD06A288A
:1057700014D104E0742810D07A280FD10DE044F43D
:1057800000140AE044F4801401E044F440147278F8
:10579000824202D104F58014761C761C307866288B
:1057A0000BD013DC582877D009DC002875D04528A9
:1057B000F6D04628F4D047281AD19DE118E0632896
:1057C00035D0642879D0652812D195E1702873D03E
:1057D00008DC6728F1D069286FD06E280DD06F28BB
:1057E00006D1B5E073282CD0752875D0782874D0F0
:1057F0005A46179990476D1C75E1C4F30250022870
:1058000009D003280DD0D9F8001004280DD00D6060
:1058100009F1040967E1D9F80010EA17C1E900525B
:10582000F6E7D9F800100D80F2E70D70F0E719F8EF
:10583000041B8DF8001000208DF80100EA460120BD
:1058400003E059F804AB4FF0FF3061074FF000015F
:1058500002D40DE008F101018846B9420FDA804513
:10586000F8DB1AF808100029F4D108E008F101016A
:1058700088468142FADB1AF808100029F6D105980B
:105880005B46A0EB080721463846179A00F094FAC9
:10589000284400EB080507E04DE029E10DE01AF887
:1058A000010B5A4617999047B8F10108F7D25B46A9
:1058B00021463846179A13E142E00A220092C4F3C7
:1058C00002524FF0000A022A08D059F804CB032AEA
:1058D0004FEAEC710AD00DE029E02AE009F1070156
:1058E00021F00702F2E802C1914609E00FFA8CFCB0
:1058F0004FEAEC71042A03D14FFA8CFC4FEAEC71A9
:10590000002907DA0A460021DCF1000C61EB0201F4
:105910002D2202E0220504D52B228DF8042001223D
:1059200003E0E20701D02022F7E7904659E00A2180
:1059300002E010220DE010214FF0000A00910BE070
:1059400010224FF0000A44F004040827009203E0FC
:1059500008224FF0000A0092C4F30252022A05D036
:1059600059F804CB0021032A08D009E009F1070106
:1059700021F00702F2E802C1914605E01FFA8CFC13
:10598000042A01D10CF0FF0C4FF00008220728D5A3
:10599000702806D0009B83F0100353EA0A0305D059
:1059A0000EE040228DF80420012208E05CEA0102AA
:1059B00006D030228DF804208DF805000222904692
:1059C000009B83F0080353EA0A030AD15CEA010250
:1059D00001D1620705D530228DF804204FF001086F
:1059E0007F1E582804D034A003900EA802900DE02A
:1059F00036A0F9E753466046009AFBF76DF98446F6
:105A00000398825C0298401E029002705CEA0100DA
:105A1000F0D1029806A9081A00F1200A600702D501
:105A200024F4803400E00127574502DDA7EB0A008B
:105A300000E0002000EB0A01009005984144401A64
:105A40000590E00306D45B462146179A059800F0BE
:105A5000B3F90544002706E001A85A46C05D17992E
:105A600090476D1C7F1C4745F6DBE0030CD55B4679
:105A70002146179A059800F09FF9054404E030206C
:105A80005A46179990476D1C0099481E00900029AE
:105A9000F5DC08E0029802995A460078491C029108
:105AA000179990476D1CBAF10001AAF1010AF1DCC7
:105AB00065E10000092801003031323334353637D2
:105AC000383961626364656600000000303132334A
:105AD00034353637383941424344454600000000EA
