:020000040800F2
:10000000E8290020DD01000831370008452D0008EF
:10001000FD3600083B0800080D4000080000000005
:100020000000000000000000000000004501000882
:10003000CF0900080000000089010008913800087D
:10004000F7010008F7010008F7010008F7010008B0
:10005000F7010008F7010008F7010008F7010008A0
:10006000F7010008F7010008F7010008F701000890
:10007000F7010008F7010008F701000875090008FA
:10008000810900088D090008F7010008F701000840
:10009000F7010008F7010008F7010008F701000860
:1000A000F7010008F7010008F7010008F701000850
:1000B000F7010008F7010008F7010008F701000840
:1000C000F7010008F7010008F7010008F701000830
:1000D000F7010008F53F000801400008F70100089B
:1000E000D1090008F7010008F7010008F70100082E
:1000F000F7010008F7010008F7010008F701000800
:10010000F7010008F7010008F7010008F7010008EF
:10011000C13B0008CD3B0008F70100080D3900087D
:10012000F7010008F701000899090008F701000825
:10013000DFF80CD000F060FB004800479147000852
:10014000E8290020224B19680868B0E8F00F80F316
:100150000988BFF36F8F4FF0000080F311884EF0D5
:100160000D0E70470000000006480068006880F32C
:10017000088862B661B6BFF34F8FBFF36F8F00DFA1
:1001800000BF00BF08ED00E0EFF30980BFF36F8F01
:100190000F4B1A6820E9F00F106008B54FF05000BF
:1001A00080F31188BFF34F8FBFF36F8F05F0CEFA46
:1001B0004FF0000080F31188BDE808401968086816
:1001C000B0E8F00F80F30988BFF36F8F704700BF6E
:1001D00040000020EFF3058070470000064880478C
:1001E00006480047FEE7FEE7FEE7FEE7FEE7FEE71C
:1001F000FEE7FEE7FEE7FEE70939000831010008E7
:10020000202A04DB203A21FA02F00021704721FA6B
:1002100002F3D040C2F120029140084319467047D2
:1002200040EA01039B0703D009E008C9121F08C078
:10023000042AFAD203E011F8013B00F8013B521EF8
:10024000F9D27047D2B201E000F8012B491EFBD26F
:1002500070470022F6E710B513460A4604461946D1
:10026000FFF7F0FF204610BDF0B480EA0102D40F82
:100270004200B2EB410F02D20246084611464A0044
:1002800042D0C30DDDB2C1F3C752AD1A202D35DA0D
:10029000C1F3160141F4000204B15242C5F1200637
:1002A00002FA06F12A411044B3EBD05F23D0C4B167
:1002B000012DA0EBC35009DCF0BC4FF0004202EA74
:1002C000C352DBB200F5000000F00BBA400000F1B1
:1002D000807000EBC350A0F1807040EAD1704900FB
:1002E00009E0490841EAC071A0EBC35000F50000E5
:1002F000400800EBC350F0BC00F0EAB961420122B3
:1003000002EB4101001BF6E7F0BC704781F00041B1
:10031000AAE780F00040A7E780EA010210B502F0EA
:100320000043400022D04A001FD0010E01EB1261B1
:10033000C0F35600C2F3560240F4000042F400023B
:10034000A0FB022000047F39140400D0401C50EAB6
:10035000124001D44000491EC2B20C0604EBD0107A
:10036000401C4008802A02D003E0002010BD20F08D
:100370000100002900DA0020184310BD30B480EAE3
:10038000010202F0004530F0004221F0004013D09D
:1003900090B1C30DD40DC2F31601C0F31600E41AD8
:1003A00041F4000140F400027D34914201D3641C09
:1003B00000E04900002C02DA30BC002070474FF406
:1003C00000000023914201D3891A034340084FEAF9
:1003D0004101F7D151B1914202D14FF0004105E006
:1003E00002D24FF0010101E06FF0010103EBC450B4
:1003F000284430BC00F06CB9420005D0C0F3C752AD
:100400005242914201DC0020704700EBC15070471E
:100410002DE9FE4F81EA030404F0004421F000417D
:1004200000944FF0000B23F0004350EA01045ED02B
:1004300052EA03045BD0C3F30A54C1F30A552C44B7
:10044000A4F2F3340194A0FB0254C1F3130141F46C
:100450008011C3F3130343F4801301FB024400FB38
:10046000034E840A970A44EA815447EA8357A4FB5F
:10047000076802958D0A05FB07854FEA932C04FB5C
:100480000C542705029D4FEA065847EA1637B5EB8C
:1004900008056EEB070C870E920E47EA811742EAB9
:1004A0008312A7FB0201B6EB0B0164EB00042B0DDA
:1004B00043EA0C335E1844EB1C50DA465146E7FB26
:1004C0000201C5F313044FEA0B3343EA14534FEA16
:1004D0000432019C43EA0603A4F10C040294009C3C
:1004E000CDE900B400F03AF903B0BDE8F08F002088
:1004F0000146F9E72DE9F04D81EA030404F0004BD1
:1005000021F0004514464FF0000A23F0004150EA64
:10051000050220D054EA01021DD0C5F30A57024655
:10052000C5F31303C1F31300C1F30A5640F4801559
:1005300043F48013A7EB0608101BD64608F2FD38DB
:1005400073EB050002D308F1010801E092185B414A
:10055000B8F1000F03DA00200146BDE8F08D00205D
:100560004FF48011064684460EE0171B73EB050717
:1005700005D3121B63EB050306434CEA010C490843
:100580004FEA300092185B4150EA0107EDD152EA80
:10059000030012D082EA040083EA0501084305D073
:1005A000101BAB4106D20122002306E000224FF0CF
:1005B000004302E06FF0010253101AEB06004CEB0F
:1005C000085110EB0A0041EB0B01BDE8F04D00F0C3
:1005D000B6B870B521F0004303430CD0C1F30A55FF
:1005E0000024D5EB040564EB0403D617AD1AB34120
:1005F00002DB0020014670BD201841EB025170BDA6
:10060000C10F80EAE0700844CA079623002100F079
:1006100068B896230022114600F063B800F000424B
:1006200030F000400AD0C10D01F56071C0F3160032
:1006300042EA0151C20840071143704700200146B9
:10064000704701F0004330B421F0004150EA01024C
:1006500006D00A0DA2F56072C1F31301002A02DC74
:1006600030BC00207047440F44EAC104C100E018C8
:1006700030BC00EBC25000F02BB80000002801DBBA
:10068000C0F10040002901DBC1F100418142704707
:10069000002801DBC0F10040002901DBC1F100416D
:1006A0008842704730B50B460146002020220124C5
:1006B00009E021FA02F59D4205D303FA02F5491B30
:1006C00004FA02F52844151EA2F10102F1DC30BD46
:1006D0000029A8BF7047401C490008BF20F0010056
:1006E000704710B4B0FA80FC00FA0CF050EA010434
:1006F00004BF10BC704749B1CCF1200421FA04F4C6
:1007000011FA0CF118BF012121430843A3EB0C019E
:10071000CB1D4FEA00614FEA102042BF002010BC01
:10072000704700EBC35010440029A4BF10BC7047B1
:10073000401C490008BF20F0010010BC704710B5F4
:10074000141E73F1000408DA401C41F100019218F4
:100750005B411A4301D120F0010010BD2DE9F04D9D
:1007600092469B4611B1B1FA81F202E0B0FA80F2F2
:100770002032904600F052F804460F4640EA0A0044
:1007800041EA0B0153465A46084313D0114653EA37
:10079000010019D0C8F140025046FFF731FD05466F
:1007A0000E4650465946424600F038F8084305D0F8
:1007B000012004E020463946BDE8F08D00200543C5
:1007C00046EAE0762C4337430A986305E40AA0EB37
:1007D00008000022FD0A44EA47540A3002D50020EE
:1007E0000146E9E7010510196941DDE908450019ED
:1007F0006941BDE8F04DA2E7064C074D06E0E06810
:1008000040F0010394E8070098471034AC42F6D357
:10081000FFF792FC1466000834660008202A04DB07
:10082000203A00FA02F1002070479140C2F1200303
:1008300020FA03F3194390407047FEE72DE9F05F7B
:1008400042480168486A00244C624EF66025A8427E
:1008500002DDA0F57F40FF38FFF7D2FEDFF8F0A001
:100860005146FFF78BFDFFF7D9FEDFF8E8B03A4BB2
:100870005A46FFF7CDFDDFF8E48000224346FFF73C
:10088000C7FDFFF7DEFE364F064631463868FFF7F4
:10089000EBFC814638603046FFF7C0FE314A324BF0
:1008A000FFF728FEFFF7CDFE064678602F48016867
:1008B000486A4C62A84202DDA0F57F40FF38FFF78E
:1008C0009FFE5146FFF75AFDFFF7A8FE5A46224BFE
:1008D000FFF79EFD00224346FFF79AFDFFF7B1FEAA
:1008E0001F4C0746083439462068FFF7BDFC054613
:1008F00020603846FFF792FE1A4A1B4BFFF7FAFDBD
:10090000FFF79FFE31466060FFF7AEFC4FF0FF3609
:100910003146FFF771FD164C074629466060484690
:10092000FFF7A2FC3146FFF767FD20613846FFF76D
:1009300075FE3246FFF74DFE00224346FFF7DAFD13
:10094000FFF77FFE2060BDE8F09F0000B0010020AF
:100950000000AF444AD8124DFB21094000001A4064
:10096000C00000209A9999999999A93FF80100200F
:10097000F4000020014800F041B9000034040020D8
:10098000014800F03BB9000078040020014800F065
:1009900035B90000BC040020014800F02FB9000068
:1009A000F003002030B590F840500124AC40C56BF6
:1009B0006C60046863604368102B036803D099601F
:1009C0000068C26030BD9A600068C16030BD704789
:1009D00010B54FF4804000F0DDFABDE810404FF450
:1009E000004000F0D7BA72B6FEE70000044C1021B8
:1009F000204600F0D7FB642004F0ACFDF7E70000D0
:100A0000000C01402DE9F04705468046814608600C
:100A1000501E17460E46C4B21FE000BF56F8240011
:100A20002946FFF735FE02D256F8245007E056F863
:100A300024004146FFF722FE01D256F8248056F8E2
:100A400024104846FFF710FC814606EB840050F85E
:100A5000040C46F82400641EE4B2002CDED1BF1E54
:100A6000FCB229464846FFF751FC4146FFF74EFCD1
:100A700005462046FFF7CDFD01462846BDE8F04774
:100A8000FFF77CBC10B590F821100022022905D098
:100A90000421816380F82020012010BD01680B68CB
:100AA00023F00E030B6001680B6823F001030B6059
:100AB00090F84030C46B012101FA03F3636080F8C1
:100AC000211080F82020104610BD00002DE9F05FB5
:100AD00090F821100024022903D00421816301240D
:100AE00085E001680A6822F00E020A6001680A685F
:100AF00022F001020A603F4E3E4FB215DFF8F4C00B
:100B0000DFF8F090DFF8ECA0DFF8E8B0DFF8E4E021
:100B10000168783F13011502ACF1640CA9F150098A
:100B2000AAF13C0AABF1280BAEF1140E4FF4801879
:100B3000B14227D9B9420ED0614512D049451DD0E6
:100B4000514518D0594518D0714501D1424615E09C
:100B5000294EB14201D1012210E0274E1436B14294
:100B600001D110220AE0244E2836B14206D0224A92
:100B70003C32914201D11A4600E02A461E49091F23
:100B80000A602BE0B94213D0614517D0494522D005
:100B900051451DD059451DD0714501D142461AE03D
:100BA000B14202D14FF0807215E0134EB14201D133
:100BB000012210E0104E1436B14201D110220AE099
:100BC0000D4E2836B14206D00B4A3C32914201D13B
:100BD0001A4600E02A46074980394A60012180F818
:100BE0002110002180F82010416B01B18847204678
:100BF000BDE8F09F80000240080402402DE9F05F4C
:100C0000C16B0A6801680B68046C4FF0040808FAAD
:100C100004F8844D844E854FDFF814C2DFF8149237
:100C2000DFF814A2DFF814B2DFF814E218EA020FBA
:100C300065D05FEA437862D50A68920603D40A68F1
:100C400022F004020A60DFF8F0814FF4806201684C
:100C500008F1140813011402414524D9A9420DD00A
:100C6000B1420FD0B9421AD0614515D0494515D0CF
:100C7000514501D1120312E0594501D104220EE081
:100C8000714501D140220AE06D4D1435A94206D0CC
:100C90006B4A2832914201D11A4600E02246674948
:100CA000091F0A6029E0A94213D0B14215D0B94208
:100CB00020D061451BD049451BD0514502D14FF48E
:100CC000800217E0414502D14FF0806212E05945A1
:100CD00001D104220EE0714501D140220AE0584DB5
:100CE0001435A94206D0564A2832914201D11A46FB
:100CF00000E022464B4908394A60C16A71E04FF072
:100D0000020808FA04F818EA020F70D05FEA837844
:100D10006DD50A68920606D40A6822F00A020A60B3
:100D2000012180F82110DFF810814FF40072016872
:100D300008F1140813011402414524D9A9420DD029
:100D4000B1420FD0B9421AD0614515D0494515D0EE
:100D5000514501D1120312E0594501D102220EE0A2
:100D6000714501D120220AE0354D1435A94206D043
:100D7000334A2832914201D11A4600E022462F49D7
:100D8000091F0A6029E0A94213D0B14215D0B94227
:100D900020D061451BD049451BD0514502D14FF4AD
:100DA000001217E0414502D14FF0007212E05945A0
:100DB00001D102220EE0714501D120220AE0204D2E
:100DC0001435A94206D01E4A2832914201D11A4652
:100DD00000E02246134908394A60002180F82010BB
:100DE000816A00291CD0BDE8F05F0847FFE70825AD
:100DF000A540154214D01A0712D50A6822F00E0237
:100E00000A6090F84020C36B012101FA02F25A6097
:100E1000816380F82110002180F82010016BE0E749
:100E2000BDE8F09F080002401C0002403000024074
:100E300044000240580002406C0002400804024096
:100E40001C04024030B560B11A4B026814219A426A
:100E500009D2194B1344B3FBF1F18900016417491E
:100E60000AE0012030BD134B5B421344B3FBF1F1A8
:100E7000890001640F490839C163022180F82110FB
:100E8000136843F6F0718B43F0E901142143D0E974
:100E900002452C4321430469214344692143846969
:100EA00021431943116000214163012242770177F8
:100EB000084630BD08040240F8FFFDBF00000240B4
:100EC00070B5044690F82000002501280CD00120C0
:100ED00084F8200094F821600020012E06D084F8C8
:100EE00020000225284670BD022070BD022684F82D
:100EF0002160A0632068066826F00106066020468F
:100F0000FFF750FDE06A00282068016802D041F038
:100F10000E0106E021F0040101602068016841F043
:100F20000A0101602068016841F001010160D9E710
:100F300070B5044600F044F90546601C02D0044830
:100F40000078044400F03CF9401BA042FAD370BD85
:100F50003000002010B5B0F5004F02D0B0F5804F42
:100F600012D10A4C206A00280ED02146A06A04F053
:100F70006EFE2068002807D005494FF080500860B9
:100F8000BFF34F8FBFF36F8F10BD00000400002030
:100F900004ED00E0044910B50A68024202D008607E
:100FA000FFF7D8FF10BD0000140401402DE9F84FF1
:100FB000DFF8C8910024A9F1040B23460F2709F19B
:100FC000040AABF1040ED1E00125A54006EA0502B2
:100FD000AA4276D1DFF8A8C14E68A6EB0C08664598
:100FE0002BD00DDC032E34D005DC36B3012E19D006
:100FF000022E2FD11BE0112E16D0122E2AD119E06D
:10100000B8F5881F19D006DCB8F5803F15D0B8F5C3
:10101000801F1FD111E0B8F5001F0ED0B8F5041FD6
:1010200018D10AE0CB6815E0CB681B1D12E0CB6835
:1010300008330FE0CB680C330CE08B682BB1012B2D
:101040004FF0080303D0456104E0042302E005618A
:1010500000E00023FF2A01D8064601E000F1040663
:101060004FEA840501D9A5F12005D6F8008007FADA
:1010700005FC28EA0C0803FA05F548EA0508C6F855
:1010800000804D68ED0070D53E4DAE6946F001061A
:10109000AE61AD6924F0030605F0010500953A4DF7
:1010A00006EB050CDCF80850A607360F07FA06F821
:1010B00025EA0805DFF8D480404503D14FF0000849
:1010C00025E052E0DFF8C880404502D14FF001082A
:1010D0001DE0DFF8C080404502D14FF0020816E065
:1010E000DFF8B480404502D14FF003080FE0DFF88D
:1010F000AC80404502D14FF0040808E0DFF8A08042
:10110000404502D14FF0050801E04FF0060808FA0B
:1011100006F848EA0508CCF808804D68D9F8006060
:10112000ED024D4601D5164300E096432E604D6812
:10113000DAF80060AD02554601D5164300E096434B
:101140002E604D68DBF80060AD035D4601D51643A7
:1011500000E096432E604D68DEF80060ED037546B2
:1011600001D5164300E096432E60641C0A681646BB
:10117000E2407FF429AFBDE8F88F00000804014089
:101180000000111000100240000001400008014062
:10119000000C014000100140001401400018014003
:1011A000001C0140C26821EA02030A4043EA0241EE
:1011B000016170470AB1016170470904FBE7000053
:1011C00001488068704700003000002070B50400BE
:1011D00025D094F83D00002520B984F83C502046E5
:1011E00000F07EFA242084F83D002068016821F098
:1011F000010101602068016841F40041016020683C
:10120000016821F40041016000F03EFC4D4A616834
:10121000914201D84C4900E04C49884201D201205A
:1012200070BD4B492368B0FBF1F15E6826F03F06C4
:101230000E435E606368934206D94FF49673594338
:101240004FF47A73B1FBF3F12368491C1E6A26F050
:101250003F06314319626168914210D84900401E2F
:10126000B0FBF1F2521CC2F30B02042A01D204209B
:1012700022E0B0FBF1F0401CC0F30B001CE0A268C0
:10128000F2B301EBC10303EB0116431EB3FBF6F30C
:101290005B1C43F480431B0549D092B301EBC102B0
:1012A00002EB0111401EB0FBF1F0401CC0F30B003B
:1012B00040F4804040F400402168CA694CF6FF7356
:1012C0009A431043C861D4E90710014320680268BB
:1012D00022F0C00211430160D4E9030101432068F8
:1012E000826848F2FF339A4311438160D4E90501D3
:1012F00008432168CA6822F0FF021043C86001E079
:101300000EE016E02068016841F0010101602564EB
:10131000202084F83D00256384F83E50002070BDF5
:1013200001EB4106431EB3FBF6F35B1CB3E7012060
:10133000C2E701EB4101401EB0FBF1F0401CC0F3DD
:101340000B00B7E7A086010080841E0000093D0065
:1013500040420F002DE9FF4F83B00025DDE91079F1
:101360009A4693460446DDF848800095FFF728FF2B
:10137000064694F83D0020287CD119230122884993
:101380002046009601F0F4FD0028F5D194F83C00C9
:1013900001286FD0012084F83C0020680168C9074B
:1013A00003D1016841F0010101602068016821F466
:1013B00000610160222084F83D00402084F83E0056
:1013C00025646762A4F82A90608D20857548E062E4
:1013D000CDE9008653465A462046049901F0CAFCDE
:1013E00000287CD1208DDFF8C091202768B101282A
:1013F00014D00228206801681ED041F48061016089
:101400002068416980690090BCE020684169816979
:101410000091016841F400710160B3E02068016847
:1014200021F48061016072B6206841698169009190
:10143000016841F400710AE041F40061016072B694
:101440002068416981690091016821F4806101602F
:1014500062B697E0032865D801280CD002284346DD
:101460004FF000024946204600960BD001F080FD67
:10147000A8BB0CE091E032464146204601F01EFE3A
:1014800068BB72E001F074FD48BB72B633E02068BF
:10149000016821F48061016072B620680069616AA8
:1014A0000870606A401C6062208D401E2085608D3F
:1014B000401E60853D4846F2A8110068B0FBF1F07F
:1014C000C0EBC00000EB80000090401E009007D0F1
:1014D00020684069C04340070DD50098F5E727E034
:1014E00044F8305F6773A573206940F020002061E5
:1014F00062B625731CE02068016841F40071016048
:1015000020680069616A0870606A401C6062218D11
:10151000491E2185618D491E618562B62168096970
:10152000017026E032464146204601F0C7FD18B161
:10153000012007B0BDE8F08F20680069616A08707B
:10154000606A401C6062208D401E81B22185608DE2
:10155000401E608520684269D243520712D4032995
:1015600003D1016821F48061016020680069616A2B
:101570000870606A401C6062208D401E2085608D6E
:10158000401E6085208D00287FF464AF84F83D7094
:1015900084F83E5084F83C50CBE70220C9E70000B5
:1015A000020010000000FFFF040001003C000020CA
:1015B0002DE9FF4F83B09A46DDE911979346044623
:1015C000DDF84080FFF7FCFD054694F83D0020283B
:1015D0007FD11923012240492046009501F0C8FC23
:1015E000002876D194F83C00012872D0012084F8BC
:1015F0003C0020680168C90703D1016841F001017E
:1016000001602068016821F400610160212084F8F4
:101610003D00402084F83E0000262664C4F8248063
:10162000A4F82A90608D20852C48E062CDE90075F1
:1016300053465A462046049901F01AFC70B930E02E
:101640002A463946204601F071FD58B1206C042825
:1016500004D12068016841F400710160012007B0E5
:10166000BDE8F08F606A216800780861606A401CFC
:101670006062218D491E89B22185628D521E62856C
:1016800022685369DB435B070BD469B100781061B2
:10169000606A401C6062208D401E2085608D401E67
:1016A0006085208D0028CBD12A463946204601F09E
:1016B00033FC0028CAD154F83D0B016841F4007195
:1016C0000160202004F81E09E67766770020C6E74F
:1016D000FFE70220C3E70000020010000000FFFF48
:1016E00030B585B000210091019102910391214D07
:1016F0000368214C122103222048AB421DD1A3696B
:1017000043F00803A361A369039203F00803049361
:101710001302CDE900316946FFF748FC18484168DB
:1017200041F0E06141F002014160E06940F40010E5
:10173000E061E06900F4001019E0124DAB4217D1EE
:10174000A36943F00803A361A369039203F00803AC
:1017500004934FF44063CDE900316946FFF726FC5E
:10176000E06940F48000E061E06900F480000490EA
:1017700005B030BD0054004000100240000C014094
:10178000000001400058004002488168027811447E
:101790008160704730000020074810B5016841F0B3
:1017A00010010160032000F0A7F80F2000F006F8F8
:1017B00000F050F8002010BD0020024030B5054672
:1017C0001F4887B0C16941F02001C161C06906A905
:1017D00000F02000009001A800F036F90498B0B1A4
:1017E00000F052F940001749174AB0FBF1F11748D1
:1017F000491E0260416040F2E7320021C0E9032146
:101800008160816100F080FB040003D015E000F0EE
:101810003BF9E8E70D4800F0B9FB04000DD1372093
:1018200000F03CF8102D07D200222946372000F0A6
:1018300043F80748056000E0012407B0204630BDAA
:101840000010024040420F0000140040000500203C
:10185000340000200F4808B5816941F00101816121
:10186000816901F001010091C16941F08051C161BC
:10187000C069002200F0805000900F21901E00F0FF
:101880001BF80548416821F0E06141F000714160BA
:1018900008BD00000010024000000140002809DBE4
:1018A00000F01F02012191404009800000F1E0207A
:1018B000C0F8001170470000F0B40E4B1B680C46D6
:1018C000C3F30223C3F10705042D00D90425191D14
:1018D000072901D2002300E0DB1E012606FA05F1EC
:1018E000491E214099409E40761E16403143F0BC6F
:1018F00002F002BD0CED00E0064900F007020868A6
:101900004FF6FF03184040EA0220034A10430860E4
:10191000704700000CED00E00000FA052DE9F047EB
:101920000F46050061D0434E306800F00700B84212
:1019300009D2306820F0070038433060306800F08A
:101940000700B84251D128683B4C810712D54007A7
:1019500003D5606840F4E06060602878000703D534
:10196000606840F4605060606068A96820F0F00032
:10197000084360602878C00728D06868012810D024
:101980002168022810D0890700292EDA616821F029
:10199000030101436160FFF713FC804641F288397F
:1019A0000DE021688903EFE78901EDE7FFF708FC07
:1019B000A0EB0801494502D90320BDE8F087606823
:1019C000696800F00C00B0EB810FEFD1306800F0D7
:1019D0000700B8420BD9306820F007003843306068
:1019E000306800F00700B84201D00120E5E7287810
:1019F000400705D56068E96820F4E060084360604E
:101A00002878000706D56068296920F4605040EA0C
:101A1000C100606000F058F86168084AC1F3031122
:101A2000515CC8400649086006480068FFF7C6FEDA
:101A30000020C2E700200240001002409A65000822
:101A40003C000020340000200F2202600C4A536842
:101A500003F003034360536803F0F00383605368AB
:101A600003F4E063C36052684FF4E06303EAD20218
:101A700002610448006800F0070008607047000039
:101A800000100240002002400448054900684968EF
:101A9000044AC1F30221515CC84070473C00002059
:101AA00000100240AA65000804480549006849681A
:101AB000044AC1F3C221515CC84070473C00002079
:101AC00000100240AA6500080E4A51680E4801F055
:101AD0000C03042B11D0082B0FD10C48C1F3834306
:101AE000C903C05C0AD55168084AC1F34041921E3F
:101AF000515C054A5043B0FBF1F07047044948433C
:101B0000704700000010024000127A008A65000849
:101B100000093D002DE9F84F040070D02078C04D39
:101B2000C00749D06868C0F38100012807D0686801
:101B3000C0F38100022809D16868C00306D528686F
:101B4000800339D560680028E7D035E06068B0F5DB
:101B5000803F0BD010B1B0F5A02F11D0286820F431
:101B600080302860286820F4802002E0286840F453
:101B700080302860606890B1FFF722FB06460AE0DB
:101B8000286840F480202860F0E700BFFFF718FBCA
:101B9000801B642873D828688003F7D50CE0FFF712
:101BA0000FFB064605E000BFFFF70AFB801B642819
:101BB000F0D828688003F7D420789A4E80074FF039
:101BC00001094FF0000839D5686810F00C0F07D0F4
:101BD0006868C0F38100022809D16868C00306D490
:101BE0002868800714D52069012808D110E02069F1
:101BF000B0B1C6F80090FFF7E3FA074605E00AE146
:101C0000FFF7DEFAC01B0228C4D828688007F7D582
:101C10002868616920F0F80040EAC10028600DE002
:101C2000C6F80080FFF7CCFA074604E0FFF7C8FAD1
:101C3000C01B022823D828688007F7D42078000723
:101C40002CD57948A169D9B1C0F80090FFF7B8FA4E
:101C5000074604E0FFF7B4FAC01B02280FD8686AF1
:101C60008007F7D571484FF4FA510068B0FBF1F0E6
:101C7000009000BF0098411E0091FAD20EE080E073
:101C8000C0F80080FFF79CFA074604E0FFF798FAD7
:101C9000C01B022875D8686A8007F7D420784007EF
:101CA00060D5E8690027C00008D4E86940F080509A
:101CB000E861E869012700F0805000905C48016805
:101CC000C90513D40168834641F480710160FFF7B0
:101CD00077FA824606E000BFFFF772FAA0EB0A002F
:101CE00064284ED8DBF80000C005F5D5E06801286F
:101CF0000AD008B1052813D0286A20F00100286214
:101D0000286A20F0040002E0286A40F001002862FE
:101D1000E06841F2883B98B1FFF752FA82460BE047
:101D2000286A40F004002862EEE700BFFFF748FA97
:101D3000A0EB0A0159455AD8286A8007F6D50CE06D
:101D4000FFF73EFA824605E0FFF73AFAA0EB0A01F8
:101D500059454CD8286A8007F6D41FB1E86920F0AD
:101D60008050E861E06988B36968C1F381010229A4
:101D700044D00228C6F8608004D0FFF721FA044658
:101D800038E034E0FFF71CFA074604E0FFF718FAE2
:101D9000C01B02282BD828688001F7D4206AB0F530
:101DA000803F05D16868A16820F40030084368606E
:101DB000D4E908010843696821F474110843686094
:101DC000C6F86090FFF7FCF9044606E025E000BF86
:101DD000FFF7F6F9001B022809D828688001F7D51B
:101DE0001BE000BFFFF7ECF9001B022802D903201B
:101DF000BDE8F88F28688001F4D40EE00128F7D000
:101E00006868226A00F48031914204D1616A00F46A
:101E10007010884201D00120EAE70020E8E70000C6
:101E20000010024000004242800442423C00002078
:101E3000007000407047704710B590F83C20012AB0
:101E400022D0012280F83C20CA688C6822F44072BB
:101E500022434C6822F4806222430C6822F4006220
:101E600022430C6922F4805222434C6922F400522E
:101E70002243C969002322F480420A4301684A646C
:101E800080F83C30002010BD022010BD70B590F8E5
:101E90003C20012A2CD0012480F83C40022280F80A
:101EA0003D2003685A689D6822F070060A68324334
:101EB0005A60104B02689A420ED00F4B9A420BD0D8
:101EC000B2F1804F08D00D4B9A4205D00C4B9A428C
:101ED00002D00C4B9A4204D1496825F08003194383
:101EE000916080F83D40002180F83C10084670BDAC
:101EF000022070BD002C014000340140000400406D
:101F000000080040000C004010B5040003D094F815
:101F10003D0010B107E0012010BD002084F83C0016
:101F2000204600F01FF8022084F83D00211D2068A3
:101F300001F0F2FC012084F8460084F83E0084F8A9
:101F40003F0084F8400084F8410084F8420084F89F
:101F5000430084F8440084F8450084F83D000020E4
:101F600010BD000008B500680649884208D106483F
:101F7000C16941F00201C161C06900F00200009036
:101F800008BD0000000400400010024090F83D1021
:101F9000012901D001207047022180F83D1001681D
:101FA000CA6842F00102CA6000680E4988420ED039
:101FB0000D4988420BD0B0F1804F08D00B498842C0
:101FC00005D00B49884202D00A49884204D1816871
:101FD00001F00701062903D0016841F00101016009
:101FE00000207047002C01400034014000040040F4
:101FF00000080040000C004070B5044690F83C001A
:102000000025012817D0012684F83C60022084F8BE
:102010003D002068826822F0770222F47F428260CD
:102020000868502838D00DDC20284FD005DC90B34C
:10203000102811D14AE0022070BD302846D0402837
:102040000AD13BE060282FD070280DD0B0F5805F1A
:1020500003D0B0F5005F12D0012584F83D60002068
:1020600084F83C00284670BDCB68D1E90121206886
:1020700001F0ADFC2068816841F0770109E0CB6890
:10208000D1E90121206801F0A2FC2068816841F4B7
:1020900080418160E1E719E0CA684968206801F081
:1020A0006BFD5021206806E0CA684968206801F08D
:1020B00074FD6021206801F094FCCEE7CA6849688D
:1020C000206801F059FD40212068F4E722680146AC
:1020D0001046F0E72DE9F0410D46040003D094F8D6
:1020E0003D0018B108E00120BDE8F081002084F82F
:1020F0003C00204600F040F8022084F83D002068B3
:10210000816844F2070291438160211D206801F03B
:1021100003FC226890689169166A2B68AF690343D3
:1021200040F20330814341EA0721A868EF69084380
:102130004FF6FC418843E96840EA072001432869DB
:102140002F6A000140EA0730084369686D6926F08C
:10215000220646EA0515294393602268906154F8E7
:10216000460B0162012004F81F09E0752076E07635
:102170002077A0750020B7E700B585B00021009159
:10218000019102910391194B0268194919489A4229
:1021900012D18A6942F400628A618A6902F400629B
:1021A00004928A6942F004028A61896901F004019B
:1021B00004914FF4407113E0B2F1804F14D1CA6919
:1021C00042F00102CA61CA6902F0010204928A69FE
:1021D00042F004028A61896901F00401049103213B
:1021E00000916946FEF7E2FE05B000BD002C0140FB
:1021F000001002400008014070B590F83E600446AF
:1022000090F83F5090F8423090F84320022021B1DE
:1022100004290ED0012E1BD114E0012E18D1012B60
:1022200016D184F83E0084F8420001220021206883
:1022300020E0012D0CD1012A0AD184F83F0084F856
:10224000430014E0012D03D1012B01D1012A01D05B
:10225000012070BD84F83E0084F83F0084F84200FD
:1022600084F8430001220021206801F0A3FB012231
:102270000421206801F09EFB2068016841F0010103
:102280000160002070BD70472DE9F04104460068F0
:10229000C66805694FF00007A90713D5B10711D526
:1022A000F91E01610120207720688069800720469F
:1022B00002D0FFF7E8FF04E000F0CCF8204600F081
:1022C00071F92777680716D5700714D521686FF064
:1022D00004000861022020772068806910F4407FA4
:1022E000204602D0FFF7CFFF04E000F0B3F820460D
:1022F00000F058F92777280715D5300713D521683E
:102300006FF008000861042020772068C06980070A
:10231000204602D0FFF7B7FF04E000F09BF820460C
:1023200000F040F92777E80616D5F00614D52168A5
:102330006FF010000861082020772068C06910F451
:10234000407F204602D0FFF79EFF04E000F082F8B5
:10235000204600F027F92777E80708D0F00706D0D5
:1023600021686FF001000861204600F077F9280627
:1023700008D5300606D521686FF080000861204638
:10238000FFF758FD680608D5700606D521686FF07E
:1023900040000861204600F06BF9A8060AD5B00697
:1023A00008D521686FF0200008612046BDE8F041A3
:1023B000FFF741BDBDE8F08130B585B00021009147
:1023C0000191029103911D4A01681D480225914225
:1023D0001ED1816941F004018161816901F004012C
:1023E0000491816941F0080181618069032400F052
:1023F00008000490C020CDE9000569460394114807
:10240000FEF7D4FDCDE9004569460F48039411E07D
:102410000E4A914210D1816941F0100181618069B9
:10242000694600F0100004904FF41070CDE90005EB
:1024300007480395FEF7BAFD05B030BD0004004023
:102440000010024000080140000C0140003401402F
:1024500000100140704770B5044690F83C0000261B
:102460000D4601280FD0012084F83C006AB1042AEF
:102470001DD0082A2FD00C2A3FD00126002084F836
:102480003C00304670BD022070BD206801F0B2FAF9
:102490002068816941F0080181612068816921F02B
:1024A00004018161206881692A69114311E0206873
:1024B00001F0D0FA2068816941F4006181612068EF
:1024C000816921F480618161206881692A6941EA1A
:1024D00002218161D2E7206801F0F2FA2068C16927
:1024E00041F00801C1612068C16921F00401C161A6
:1024F0002068C1692A69114311E0206801F014FBCA
:102500002068C16941F40061C1612068C16921F49A
:102510008061C1612068C1692A6941EA0221C16103
:10252000ACE710B5040003D094F83D0010B107E00B
:10253000012010BD002084F83C00204600F01EF869
:10254000022084F83D00211D206801F0E5F90120FA
:1025500084F8460084F83E0084F83F0084F8400088
:1025600084F8410084F8420084F8430084F8440071
:1025700084F8450084F83D00002010BD08B50068CF
:102580000649884208D10648816941F400518161B9
:10259000806900F40050009008BD00000034014044
:1025A000001002407047000010B50446022249B1F5
:1025B00004290ED0082913D094F84100012816D020
:1025C000012010BD94F83E000128F9D184F83E2086
:1025D0000FE094F83F000128F2D184F83F2008E092
:1025E00094F840000128EBD184F8402001E084F801
:1025F00041200122206801F0DDF913492068134AC7
:10260000884201D0904203D1436C43F400434364B9
:10261000206888420DD090420BD0B0F1804F08D096
:102620000B49884205D00B49884202D00A498842AA
:1026300004D1816801F00701062903D0016841F047
:1026400001010160002010BD002C01400034014058
:102650000004004000080040000C004000680349EE
:10266000884201D1FFF790B8704700000014004085
:10267000704738B5044690F84200202801D0022067
:1026800038BD51B14AB1012020630020606320466B
:1026900001F014FC216B012901D0012038BD216813
:1026A0000A684968009121680C3151E8002F42F016
:1026B000100241E80023002BF5D138BD104910B5B8
:1026C00088421CD114220F490D48FFF7D2FF0E4853
:1026D0000068016821F0040101600C4C206A0028A8
:1026E0000DD0211D03F0B3FA6068002807D0084917
:1026F0004FF080500860BFF34F8FBFF36F8F10BD56
:1027000060030020D40000203404002004000020D6
:1027100004ED00E070470000F8B501680446086861
:10272000CA684B6910F00F0F4FF0000559D003F045
:10273000010602F49077374365D0C10705D0D10573
:1027400003D5616C41F001016164410705D5D907EA
:1027500003D0616C41F002016164810705D5D9079E
:1027600003D0616C41F004016164010707D502F0F8
:102770002001314303D0616C41F008016164616C58
:1027800000293AD0800604D5900602D5204601F0F3
:10279000D7FA20684069616CC0F38010090700D443
:1027A00060B3204601F097FA20684069400621D5C1
:1027B0002068143050E8001F21F0400140E800126A
:1027C000002AF5D1E06BA8B16D494163E06BFEF7DB
:1027D0007DF9002811D0E06B416B01B0BDE8F040FD
:1027E000084783060FD593060DD52046BDE8F8406F
:1027F00001F0A6BA2046FFF78DFFF8BD2046FFF78F
:1028000089FF6564F8BD266B2023012E7CD1C606A6
:102810007AD5D60678D508684868009048694FF0A0
:102820000206400640D5E16B086840680004000CD1
:10283000E8D0A28D8242E5D9E085886920282DD094
:1028400020680C3050E8001F21F4807140E800122D
:10285000002AF5D12068143050E8001F21F0010152
:1028600040E80012002AF5D12068143050E8001F1B
:1028700021F0400140E80012002AF5D184F84230EE
:10288000256320680C3050E8001F21F0100140E85B
:102890000012002AF5D1E06BFEF7F4F86663A08D14
:1028A000E18D401A81B22AE0A08DE18D401A81B2FB
:1028B000E08D0028A6D00029A4D022680C3252E86E
:1028C000000F20F4907042E80007002FF5D1206837
:1028D000143050E8002F22F0010240E80027002FBA
:1028E000F5D184F84230256320680C3050E8002F81
:1028F00022F0100240E80023002BF5D16663204649
:10290000FFF7DCFEF8BDFFE705062BD5150629D538
:1029100094F841002128F5D1A068B0F5805F01D17D
:102920002069B0B1206A411C2162216800784860AA
:10293000E08C401E0004000CE084E3D12068C168F4
:1029400021F08001C1602068C16841F04001C16090
:10295000D8E7206A0088C0F308004860206A801C1D
:102960002062E5E74006CDD55006CBD5CA682046A3
:1029700022F04002CA6084F8413000F0E2F9C1E779
:10298000D93B000870B5040004D094F8410000253C
:1029900010B106E0012070BD84F84050204600F0E0
:1029A00023F8242084F841002068C16821F40051F4
:1029B000C160204601F026FA2068016921F49041A7
:1029C00001612068416921F02A0141612068C168E4
:1029D00041F40051C1606564202084F8410084F80E
:1029E00042006563002070BDF0B585B000250095FC
:1029F0000195029503950446884ED0F800C088489A
:102A000002210323874A8027B44539D1C66946F499
:102A10000026C661C66906F400260496866946F05B
:102A2000100686618069039300F01000049048024C
:102A3000CDE90001694616461046FEF7B7FA38019F
:102A4000CDE90005694630460295FEF7AFFA774EAC
:102A50007548C6E90005C6E9025735617561B5617B
:102A60003046F561FEF7EEF908B1FDF7BCFFE6630D
:102A70000022052134207462FEF71EFF342031E06D
:102A8000DFF8ACE10426F44530D1C46944F4801485
:102A9000C461C46904F480140494846944F010048B
:102AA0008461846904F010040494846944F020046F
:102AB00084618069039300F020000490B002CDE9A6
:102AC000000169461046FEF771FACDE900656946D6
:102AD00058480295FEF76AFA00220A213520FEF7CF
:102AE000EBFE3520FEF7DAFE05B0F0BD524A944504
:102AF00040D1826942F480428261826902F480425C
:102B00000492826942F00802826180694B4E00F0B3
:102B1000080004904020CDE9000103936946304647
:102B2000FEF744FACDE90075694630460295FEF796
:102B30003DFA4348416841F0E06141F004014160E1
:102B40003A4E40484436C6E90005C6E902573561A9
:102B50007561B5613046F561FEF774F908B1FDF7AE
:102B600042FFE6630022052125207462FEF7A4FEE1
:102B70002520B7E7344A9445B6D1C26942F4003201
:102B8000C261C26902F400320492826942F0040216
:102B900082618069CDE9006100F00400CDE9033075
:102BA0002A4E69463046FEF701FA0820CDE90005B5
:102BB000694630460295FEF7F9F91C4E21488836E1
:102BC0001430C6E90005C6E9025735617561B56183
:102BD0003046F561FEF736F908B1FDF704FFE6630C
:102BE0007462124E1748CC36283001C61020A1C698
:102BF0000E4846F81059CC307561B561F561FEF7A5
:102C000021F908B1FDF7EFFEA66300220521262079
:102C10007462FEF751FE262064E70000004C00407D
:102C2000001002400010014030040240F003002078
:102C3000005000400014014000380140000C0140E9
:102C400000000140580002400044004000080140DC
:102C500090F84230202B01D00220704721B11AB1E8
:102C60000023036301F072B90120704710B50068BA
:102C7000084988420DD1006880060AD4012106481F
:102C800001F04EFDBDE81040012203490348FFF763
:102C9000DFBF10BD005000400000002018030020DE
:102CA00070472DE9F843044690F8410098461646CF
:102CB0000D46202802D00220BDE8F88385B17EB100
:102CC00000206064212084F84100FEF779FAA68490
:102CD0008146E684A0682027B0F5805F02D003E03B
:102CE0000120E9E7206910B12E4600250EE00026FC
:102CF0000CE08021204601F044F9A8B9C6B116F8CD
:102D0000010B21684860E08C401EE084E08C4B465B
:102D10004FF00002CDF800800028EAD14FF04001CA
:102D2000204601F02EF940B184F841700320C3E73A
:102D300035F8020BC0F30800E3E784F84170002087
:102D4000BAE77047FEE701684A69D24352050FD4DB
:102D50006FF480624A61002140F8301F20224273E4
:102D60008173026942F0040202610173012070471D
:102D7000002070472DE9F84F0446006889460B9DF6
:102D800001689846174641F4806101602068016837
:102D900041F48071016000954FF0011B00225946FB
:102DA00020460A9B00F0E4F84FF4007A40B1206816
:102DB0000068C00501D5C4F840A00320BDE8F88F25
:102DC000216809F0FE0008612B46284920460A9A2E
:102DD00000F016F9F0BB20684169806900902A462E
:102DE00020460A9900F0A2F940B1206C04283AD19B
:102DF0002068016841F40071016034E0FEB2B8F16E
:102E0000010F09D02168380A08612A4620460A992C
:102E100000F08CF90028E8D1206806612A46204697
:102E20000A9900F083F90028DFD12068016841F495
:102E30008071016000950022594620460A9B00F0EF
:102E400097F80028B3D1216809F0FF0040F0010095
:102E5000086100E007E02B46044920460A9A00F08A
:102E6000CFF80028AAD00120A8E700000200010046
:102E70002DE9F843044600680D46DDE9089701682E
:102E80009846164641F4807101604B4600224FF08F
:102E900001112046009700F06BF848B120680068E7
:102EA000C00502D54FF4007020640320BDE8F8830C
:102EB000216805F0FE0008613B464A461549204658
:102EC00000F09EF888B920684169806900903A4610
:102ED0004946204600F02AF948B1206C042804D164
:102EE0002068016841F4007101600120DEE7F5B25D
:102EF000B8F1010F09D02168300A08613A46494605
:102F0000204600F013F90028E7D120680561002071
:102F1000CCE700000200010070B516460D460446DD
:102F20001EE02046FFF70FFF08B1012070BD681CAE
:102F300016D0FEF745F9801BA84200D885B9206855
:102F40004069C04340070BD5002044F8300F2021D2
:102F50006173A073216941F0200121612073E4E7CE
:102F600020684069C0434007DBD4002070BD0000EA
:102F70002DE9F047984617460D460446C1F307462B
:102F8000DDF820902AE000BFB8F1FF3F26D0FEF721
:102F900017F9A0EB0901414502D8B8F1000F1DD186
:102FA0002068012E16D0806925EA00000004000C7C
:102FB00012D00020B84211D1002044F8300F202157
:102FC0006173A073216941F0200121612073012008
:102FD000BDE8F0874069E7E70120EBE72068012EB4
:102FE0000AD0806925EA00000004000C06D0002009
:102FF000B842C9D00020EBE74069F3E70120F7E7CA
:103000002DE9F047984616460D4604464FF0000954
:103010004FF0200AC1F3074723E020684069C0430E
:10302000400515D42068016841F4007101602168F1
:103030006FF480604861C4F8309084F83DA084F853
:103040003E90216C41F00401216484F83C9021E021
:10305000701C06D0FEF7B4F8A0EB0800B04203D80D
:1030600016B1012F1FD021E02068012F15D08069F3
:1030700025EA00000004000C18D000BF44F8309F7F
:1030800084F80DA084F80E90216941F0200121619F
:1030900084F80C900120BDE8F087406925EA000023
:1030A0000004000CEAD12068406901E020688069D2
:1030B00025EA00000004000CAFD1ECE72DE9F04157
:1030C000002590460E460446202728E04069C0436C
:1030D000C0060CD454F8301B6FF01000486144F85F
:1030E00010596777A577206A2062257714E0FEF7EC
:1030F00067F8A0EB0800B04200D886B920684069A4
:10310000C04340060BD544F8305F6773A573206950
:1031100040F02000206125730120BDE8F081206887
:103120004169C9434906D1D40020F6E770B5164677
:103130000D4604461EE02046FFF705FE08B10120BB
:1031400070BD681C16D0FEF73BF8801BA84200D863
:1031500085B920684069C04300060BD5002044F8BB
:10316000300F20216173A073216941F0200121619A
:103170002073E4E720684069C0430006DBD40020E8
:1031800070BD0000194808B5416941F00201416174
:10319000416901F002010091416941F00101416181
:1031A0004069002200F00100009005210F20FEF789
:1031B00083FB0F20FEF772FB002205211020FEF793
:1031C0007BFB1020FEF76AFB002205211120FEF791
:1031D00073FB1120FEF762FB002205213A20FEF767
:1031E0006BFBBDE808403A20FEF758BB00100240D8
:1031F00010B51C4A0021012001F066FB1A4C194A47
:10320000012120621032084601F05EFB154A60621F
:1032100020320021012001F057FB124AA062B43A8B
:103220000021124801F09CFB0E4AE060903A002118
:103230000F4801F095FB0B4A20616C3A00210D48C4
:1032400001F08EFB074A6061483A00210A4801F00C
:1032500087FB044AA061243A0021084801F080FB62
:10326000E06110BD5865000804000020ED09000869
:10327000593800081D38000801370008E1370008F8
:10328000F0B585B000252C48009501950295039571
:10329000816941F020018161816901F0200104917F
:1032A000816941F010018161816901F0100104918F
:1032B000816941F004018161816901F00401049197
:1032C000816941F00801816180691C4E00F00800AD
:1032D0000490002206213046FDF76CFF184F0122B2
:1032E00010213846FDF766FF062001248DE83100E5
:1032F0000225694630460395FDF758FE4FF44040DD
:1033000000901048CDE9010569463846FDF74EFEAC
:103310001020CDE9000469463846CDE90245FDF7A5
:1033200045FE002205212820FEF7C6FA2820FEF7D8
:10333000B5FA05B0F0BD00000010024000100140D9
:10334000000C0140000011100D4810B50B49016040
:103350000C49416000214FF480428160C0E90312B2
:1033600041618161C1610162FDF730FF002803D036
:10337000BDE81040FDF737BB10BD00000054004011
:1033800008010020A08601000D4810B50B4901601E
:103390000C49416000214FF480428160C0E9031272
:1033A00041618161C1610162FDF710FF002803D016
:1033B000BDE81040FDF717BB10BD000000580040ED
:1033C0005C010020A086010010B58CB02421684665
:1033D000FCF73FFF00241748099415490A94C0E9F7
:1033E00000144FF6FF71C0E9024104614461846139
:1033F0000320CDE90004012005210222CDE90204C9
:10340000CDE904120690CDE9074169460948FEF767
:1034100061FE08B1FDF7E7FA099409A905480A9485
:10342000FEF734FD002801D0FDF7DDFA0CB010BD29
:10343000002C0140B001002010B58CB0242168465A
:10344000FCF707FF0024164809944FF080410A94C6
:10345000C0E900144FF6FF71C0E9024104618461C4
:103460000320CDE90004012005210222CDE9020458
:10347000CDE904120690CDE9074169460848FEF7F8
:1034800029FE08B1FDF7AFFA099409A904480A9486
:10349000FEF7FCFC002801D0FDF7A5FA0CB010BD2A
:1034A000F801002010B58EB0002407940894099408
:1034B0000A940B941C2168460C94FCF7CAFE2A4817
:1034C000284901600821C0E9011440F2E731C0E950
:1034D00003148461FEF718FD08B1FDF784FA4FF478
:1034E0008050079007A92048FEF786FD08B1FDF738
:1034F0007AFA1D48FFF715F808B1FDF774FA0B9436
:103500000BA919480C94FEF7C1FC08B1FDF76BFA42
:103510006020CDE900040294002269461248049418
:10352000FEF799FF08B1FDF75EFA042269460E48DE
:10353000FEF791FF08B1FDF756FA082269460A48DE
:10354000FEF789FF08B1FDF74EFA0C2269460648DE
:10355000FEF781FF08B1FDF746FA0348FEF72CFF9E
:103560000EB010BD000400404002002010B592B023
:1035700000240F941C2168461094FCF76AFE202159
:1035800007A8FCF766FE24482249C0E900144FF65C
:10359000FF71C0E90241046144618461FEF7C1FF2B
:1035A00008B1FDF720FA0F940FA91B481094FEF7FD
:1035B0006DFC08B1FDF717FA6020CDE90004029414
:1035C0000394049405940022694613480694FEF778
:1035D00042FF08B1FDF707FA0C2269460E48FEF7D4
:1035E0003AFF08B1FDF7FFF90794089409944FF4E6
:1035F00000500A94CDE90B4007A907480E94FEF746
:103600001BFC08B1FDF7EFF90348FEF7D5FE12B039
:1036100010BD000000340140880200200C4810B5A5
:103620000A4901604FF4E1314160002181600C22C0
:10363000C160C0E904128161C161FFF7A3F90028EC
:1036400003D0BDE81040FDF7CEB910BD004C0040DE
:10365000D00200200C4810B50A4901604FF4E13156
:103660004160002181600C22C160C0E904128161C7
:10367000C161FFF787F9002803D0BDE81040FDF7CE
:10368000B2B910BD00500040180300200C4810B51E
:103690000A4901604FF416514160002181600C22FB
:1036A000C160C0E904128161C161FFF76BF90028B4
:1036B00003D0BDE81040FDF796B910BD00380140B9
:1036C000600300200C4810B50A4901604FF4E13155
:1036D0004160002181600C22C160C0E90412816157
:1036E000C161FFF74FF9002803D0BDE81040FDF796
:1036F0007AB910BD00440040A8030020FEE7000096
:1037000000F018F8094C00BFFDF798F82078002861
:10371000FAD1A0780028F7D160780028F4D1E078B9
:103720000028F1D1322001F015FFEDE70C00002058
:10373000FEE7000010B521490020214AC860086159
:10374000486148628862C1E90C021E4A8A634FF0F0
:103750007C52CA6340311C4A486041F8080B1B4B3D
:1037600041F81C0B1A4C01C101C101C181E81D00C7
:1037700012498031486041F8080B41F81C0B01C127
:1037800001C101C181E81D000C49124AC0318861A4
:10379000C861086248628862C862C1E90C020E4AC8
:1037A0008A630E4ACA634031C86008614861486252
:1037B0008862086348638863C86310BDA82400203A
:1037C000CDCC6C400AD7A33C000020406F12833A56
:1037D000000040409A99193E17B7D1388FC2753C06
:1037E0004FF0FF380A4F0B4D00264146386A02F071
:1037F00019FB012808D1002407A0295D00F06CFD09
:103800002E55641C042CF7D9642001F0A3FEECE7CC
:1038100004000020D400002025640000012000F0F6
:10382000F6FB022000F0F3FB1E223221094800F0D3
:10383000C6FC084C012000F00DFD2178401A2072D2
:10384000022000F007FD2179401A60721E2001F06D
:1038500081FEEFE7E80000208AB000F023FF0A4C69
:103860000A4DE0600F21094800F042FE0A22694635
:10387000A868FDF7C7F8E168FCF748FDA0601420D0
:1038800001F068FEEEE70000F400002014240020A0
:1038900010B54FF0E020006902F012FC012803D0BF
:1038A000BDE8104001F0D8BF10BD30B58FB0282161
:1038B0006846FCF7CEFC14210AA8FCF7CAFC0121DB
:1038C0000804CDE900100024029402250491CDE9FA
:1038D00007504FF4E01009906846FEF71BF908B155
:1038E00072B6FEE70F20CDE90A054FF48060CDE9FE
:1038F0000C4002210AA80E94FEF710F8002801D00F
:1039000072B6FEE70FB030BD704700000148FEF709
:10391000BBBC000000050020F0B50268204C214D22
:10392000214E224F224B4FF0804CA04209D09842AA
:1039300007D0604505D0A84203D0B04201D0B842BC
:1039400004D122F0700E4A6842EA0E02A04209D069
:10395000984207D0604505D0A84203D0B04201D0BC
:10396000B84203D122F44075CA682A434D6922F057
:1039700080022A4302608A68C2620A688262A042A8
:1039800001D0984201D109690163012141610169B6
:10399000C90703D0016921F001010161F0BD0000F8
:1039A000002C01400004004000080040000C0040D2
:1039B0000034014010B501F01F030121046A994051
:1039C0008C430462016A9A401143016210BD10B534
:1039D000846842EA032224F47F440A43224382603B
:1039E00010BD826822F070020A4342F00701816034
:1039F00070470000F0B5036A026A22F00102026219
:103A000042688469124E24F073050C682C4323F03D
:103A100002058B682B430D4DA84201D0B04205D161
:103A200023F00807CB683B4323F00403A84201D0EE
:103A3000B04205D14D6922F4407215438A692A4388
:103A400042608461496841630362F0BD002C01401B
:103A500000340140F0B5026A036A23F010030362E8
:103A6000436884690D6824F4E64444EA05248D68BB
:103A700022F0200242EA05120F4D104EA84201D05A
:103A8000B04206D1CF6822F0800242EA071222F04B
:103A90004002A84201D0B04207D14D6923F44063EF
:103AA00043EA85038D6943EA85034360846149687D
:103AB00081630262F0BD0000002C0140003401402F
:103AC000F0B5026A036A23F4807303624368C46931
:103AD00022F4007224F073050C68124E2C438D689A
:103AE00042EA05220E4DA84201D0B04206D1CF686D
:103AF00022F4006242EA072222F48062A84201D046
:103B0000B04207D14D6923F4405343EA05138D6950
:103B100043EA05134360C4614968C1630262F0BDB2
:103B2000002C01400034014030B5046A026A22F4DE
:103B3000805202624268C3690D6823F4E64343EA97
:103B400005238D6824F4005444EA0534084DA84246
:103B500002D0084DA84204D14D6922F4804242EAC5
:103B600085124260C36149680164046230BD00008F
:103B7000002C01400034014010B5036A046A24F0AF
:103B800001040462846924F0F00444EA021423F07E
:103B90000A020A438461026210BD10B5036A046A16
:103BA00024F010040462846923F0A00324F4704418
:103BB00044EA023243EA01118261016210BD000051
:103BC0000148FEF7A9BD0000D00200200148FEF721
:103BD000A3BD00001803002010B5406A0021C18574
:103BE000C184FEF797FD10BD70B5446A2068406936
:103BF00094F84110C0F3C0100025212904D118B158
:103C0000E584204600F08EF82068406994F8421060
:103C1000C0F38010222904D118B1E585204600F0B8
:103C20005AF8606C40F0100060642046FEF772FDA8
:103C300070BD10B50146406A096809684FF000027E
:103C400089062ED4C28501680C3151E8003F23F467
:103C5000807341E80034002CF5D10168143151E83B
:103C6000003F23F0010341E80034002CF5D1016846
:103C7000143151E8003F23F0400341E80034002CA8
:103C8000F5D1202180F84210016B012909D101688A
:103C90000C3151E8003F23F0100341E80034002CC0
:103CA000F5D14263016B012902D0FEF7DFFF10BDA1
:103CB000818DFEF703FD10BD10B5406A01214163FF
:103CC000016B012902D0FEF7EBFF10BD818D490881
:103CD000FEF7F4FC10BD01680C3151E8002F22F40E
:103CE000907241E80023002BF5D10168143151E8AE
:103CF000002F22F0010241E80023002BF5D1016BD7
:103D0000012909D101680C3151E8002F22F010027D
:103D100041E80023002BF5D1202180F8421000213A
:103D20000163704701680C3151E8002F22F0C00296
:103D300041E80023002BF5D1202180F84110704785
:103D400008B590F84210222901D0022008BD8268EF
:103D50004FF480539A4201D1016921B1816A9A429C
:103D60001BD04AB10AE00268816A5268C2F30802B5
:103D70000A80816A891C08E0026972B1026852688F
:103D800002F07F020A70816A491C8162C18D491E5E
:103D90000904090CC18503D01BE002685268F1E7F1
:103DA0000168CA6822F02002CA600168CA6822F469
:103DB0008072CA6001684A6922F001024A612021CA
:103DC00080F8421000214163026B012A03D0FEF704
:103DD0004DFF002008BD016301680C3151E8002F40
:103DE00022F0100241E80023002BF5D101680A6897
:103DF000D20602D50A6849680091818DFEF75EFC03
:103E0000E7E7000070B5044600680169E26821F444
:103E10004051114301612169A06808436169084369
:103E20002168CA6841F20C639A430243CA60206861
:103E30004169A26921F44071114341611E49206822
:103E4000884202D1FDF730FE01E0FDF71DFE00EBD8
:103E5000C00101EB0012606864218000B2FBF0F346
:103E6000B3FBF1F36FF018067343B2FBF0F5B2FB4E
:103E7000F0F605EB8305322303EB0515B5FBF1F5F1
:103E8000B6FBF1F605F0F00505EB0615B2FBF0F612
:103E9000B2FBF0F0B0FBF1F06FF01802504306EB0C
:103EA000800003EB0010B0FBF1F0216800F00F0080
:103EB0002844886070BD00000038014038B5816238
:103EC00004468285002013466064222284F8422042
:103ED000E56B1B4AAA62E56B1A4AEA62E56B1A4A6D
:103EE0002A63E26B50630A462168E06B091DFCF708
:103EF000E7FF2068016840680090206948B12068A9
:103F00000C3050E8001F41F4807140E80012002A94
:103F1000F5D12068143050E8001F41F0010140E85D
:103F20000012002AF5D12068143050E8001F41F03B
:103F3000400140E80012002AF5D1002038BD000001
:103F4000333C0008B93C0008E93B000881628285E7
:103F5000C28500214164222180F84210016921B10B
:103F60000168CA6842F48072CA6001684A6942F016
:103F700001024A610068C16841F02001C16000206F
:103F800070472DE9F843984617460D460446089EAB
:103F900024E0701C22D0FDF713F9A0EB0800B0421A
:103FA0001AD8CEB12068C168490717D5802D15D021
:103FB000402D13D00168C94309070FD401680025BB
:103FC000406800902046FFF786FE0820606484F871
:103FD00040500120BDE8F8830320FBE7206800681B
:103FE00035EA000004D00020B842D2D00020F1E72A
:103FF0000120F9E70148FEF78FBB000060030020B5
:104000000148FEF789BB0000A8030020FEE710B5B9
:10401000044600F01BF9B42801D0012010BD22464F
:10402000012140F2072000F035F9224601214FF42A
:10403000027000F02FF922460021962000F02AF9A4
:104040002246FD21972000F025F922460021E32099
:1040500000F020F922460421E42000F01BF922465A
:104060000221E52000F016F922460121E62000F0A9
:1040700011F922460321E72000F00CF92246022123
:10408000F52000F007F922460521D92000F002F9B9
:104090002246CE21DB2000F0FDF822460321DC2061
:1040A00000F0F8F82246F821DD2000F0F3F822466F
:1040B00000219F2000F0EEF822463C21A32000F0D2
:1040C000E9F822460021B72000F0E4F822463C211E
:1040D000BB2000F0DFF822460921B22000F0DAF818
:1040E00022460921CA2000F0D5F8224601214FF4CA
:1040F000CC7000F0CFF8224617214FF4D87000F0B2
:10410000C9F82246002140F2AD1000F0C3F8224663
:104110000521FF2000F0BEF8224605214FF48070F3
:1041200000F0B8F82246052140F2991000F0B2F8EC
:1041300022461B214FF4D37000F0ACF822463E21FA
:104140004FF4D67000F0A6F822461F2140F2A710C7
:1041500000F0A0F822460021302000F09BF8224613
:104160001021112000F096F8224630214FF485707E
:1041700000F090F8224646213F2000F08BF82246BE
:10418000FF21312000F086F822466321402000F014
:1041900081F8224601212E2000F07CF822460921D8
:1041A0001B2000F077F8224631213E2000F072F803
:1041B00022462421142000F06DF8002010BD2DE9C6
:1041C000F041002714460E468046012504E00120F8
:1041D00000F040F807446D1CA542F8DD97FBF4F0B1
:1041E000811B00270125C8F8001004E0022000F020
:1041F00031F807446D1CA542F8DD97FBF4F0811BF4
:10420000C8F80410BDE8F0811FB50A22012303ACF1
:10421000022902D0012908D010E00094CDE9013232
:10422000102302465321074806E00094CDE90132ED
:104230000246102353210448FDF78CF89DF80C002A
:1042400004B010BD5C0100200801002001460020E0
:10425000FFF7DABF70B5054629464D20FFF7D4FFBA
:10426000C007F9D02A460121182000F013F829468A
:104270004F20FFF7C9FF4007F9D529466220FFF715
:10428000C3FF04462A460721152000F003F8204604
:1042900070BD000017B583B00A21012304AC022AC7
:1042A00002D0012A08D010E00094CDE9013110239A
:1042B00002465221064806E00094CDE9013102464B
:1042C000102352210348FDF773F906B0002010BDFA
:1042D0005C010020080100200FB4054B10B503A9B4
:1042E000044A029800F028F810BC5DF814FB0000A6
:1042F00079470008D00000200907090E002804DBD8
:1043000000F1E02080F80014704700F00F0000F189
:10431000E02080F8141D704702E008C8121F08C191
:10432000002AFAD170477047002001E001C1121F36
:10433000002AFBD1704700002DE9FF4F8BB09A4651
:104340000F460546002606E025280BD052460D995B
:1043500090476D1C761C28780028F5D10FB03046A8
:10436000BDE8F08F0024A0460122604900E004432C
:1043700015F8013F203B02FA03F00842F7D12878F4
:104380002E2817D115F8010F44F004042A280ED066
:104390006FF02F022878A0F1300109290AD808EB24
:1043A000880102EB410100EB01086D1CF2E757F8B0
:1043B000048B6D1C287869283ED006DC0028CDD0FF
:1043C00063280BD0642804D136E0732810D07528F8
:1043D0004BD052460D999047761C85E017F8040B98
:1043E0008DF8000000208DF80100E946012003E06F
:1043F00057F8049B4FF0FF3061074FF0000401D4E1
:104400000AE0641C44450DDA8442FADB19F8041012
:104410000029F6D106E0641C8442FCDB19F8041084
:104420000029F8D1264404E019F8010B52460D99F1
:104430009047641EF8D257E001CF4FF00A0B0028D6
:1044400002DA40422D2102E0210504D52B218DF80E
:104450002410012103E0E10705D02021F7E70DF149
:10446000200908910CE00021F9E701CF4FF00A0B79
:10447000F9E75946FCF716F901F1300209F8012D68
:104480000028F6D1ADEB090000F1200B600701D444
:104490004FF00108D84502DDA8EB0B0000E000203A
:1044A0008046002406E009A85246005D0D99904719
:1044B000641C761C08988442F5DB04E030205246E8
:1044C0000D999047761CB8F10001A8F10108F5DCC0
:1044D00005E019F8010B52460D999047761CBBF187
:1044E0000001ABF1010BF4DC6D1C34E7092801007D
:1044F00070B58AB00D46044624216846FBF7A9FE34
:1045000034B12B4600220121684600F03BF810B17F
:1045100001200AB070BD9DF805009DF8041000024E
:1045200000B20843FCF76CF86FF00E052946FBF764
:1045300063FF134E3146FBF7EFFE20609DF8070046
:104540009DF80610000200B20843FCF759F829460E
:10455000FBF752FF3146FBF7DFFE60609DF8090074
:104560009DF80810000200B20843FCF749F82946FC
:10457000FBF742FF3146FBF7CFFEA0600020C8E703
:10458000000034432DE9F84F00241F4692468B4625
:104590008146264625464FF47A786FB10121684658
:1045A00000F094F8C0B3042C44D008DC64B1012CB2
:1045B00014D0022C42D130E00320BDE8F88F082C43
:1045C0004AD0162C3AD159E09DF80000552835D133
:1045D00089F8000089F82000012457E05FEA0A000A
:1045E00004D0BAF1010F0BD00220E6E79DF80000DD
:1045F000552823D189F8010099F82000553008E0AA
:104600009DF80000AF2819D189F8010099F8200021
:10461000AF3089F82000022438E09DF800005845AA
:104620000CD189F8020099F820100424084489F874
:1046300020002BE09DF800001C2801D9002425E073
:1046400089F8030099F82010014489F8201008B176
:1046500008241BE0162419E009EB06019DF8000070
:10466000087199F82010761C084489F8200099F800
:104670000300F6B2B04209D10026EBE799F820001A
:104680009DF800108842D9D1002096E7012000F063
:1046900063F86D1CADB245457FF47FAF00257F1EEA
:1046A0007BE7000030B5084D85B000240F21064897
:1046B000FFF71EFF05226946A868FCF7A3F9641CF2
:1046C000142CF3DD05B030BD1424002070B5054670
:1046D00012480446B0F88420B0F88230B4F8804024
:1046E0009A4201D3D21A01E0E31A1A4492B29142DB
:1046F00000D9114600220CE0B0F88230C65CAE54FE
:104700005B1CB3FBF4F604FB1633521CA0F882309A
:1047100092B28A42F0D3084670BD000020240020E7
:1047200070B500220B4B10E0B3F88450845C5C55EC
:10473000B3F88440B3F88050641CB4FBF5F605FB75
:104740001644521CA3F8844092B28A42ECD3002053
:1047500070BD0000202400200CB500210B22009128
:1047600007E011460192491E0191FCD10099491CB4
:1047700000918142F5D30CBD13B54FF0FF330122F8
:1047800069460248FEF78DFA00981CBDD002002051
:10479000FDF702F8FFF789F8C820FCF7C9FBFEF720
:1047A0006FFDFEF7EFFCFEF70FFEFEF737FFFEF79B
:1047B00051FFFEF76BFFFEF785FFFEF7C5FDFEF725
:1047C000E3FDFEF76FFEFEF737FEFEF7CFFE012298
:1047D0001C491D48FEF73CFA1A490122491E1B4894
:1047E000FEF736FA012217491948FEF731FA14226A
:1047F00018491948FDF73DFF18480068016821F085
:10480000040101603C211648FDF7F6FC3C211548E7
:10481000FDF7F2FC00211448FDF7C6FE0421124802
:10482000FDF7C2FE08211048FDF7BEFE0C210E4820
:10483000FDF7BAFE00F01AF8FEF7DAFC00F028F8EF
:10484000FEE7000001000020A8030020180300205C
:10485000D0020020D4000020600300203404002097
:10486000B0010020F801002040020020EFF3058095
:1048700010B16FF0050070470448016811B14FF0A6
:10488000FF30704701210160002070479000002038
:1048900010B5EFF3058010B16FF0050010BD0848AA
:1048A0000168012902D04FF0FF3010BD054A0021F8
:1048B00082F8141D0221016000F0FCFE002010BDF2
:1048C000900000200BE000E0F8B5144603460E46C9
:1048D0004FF00005EFF3058098BB93B39E423DD89F
:1048E0004CB1A0680028E06803D0502836D30120DE
:1048F00002E008B132E00020012B05D010B31846C9
:10490000A26800F0DCFF20E040B10320009000220C
:1049100011460120A36801F013F804E003220021EE
:10492000012000F0ECFF050018D086B100231A46E4
:10493000194601F07DF8012809D0284600F0BCFD99
:1049400000250BE0184600F09DFF050006D00CB1D5
:10495000216800E00021284600F09AFD2846F8BDB5
:104960002DE9FF414FEA01034FF00005EFF3058108
:10497000039549BB40B38027182100244AB3166829
:1049800006B1344696691EB13146761E382E02D2E3
:104990001679F60703D0002004B0BDE8F08156690F
:1049A00006B1B708D2F808C0BCF1000F0DD0D56829
:1049B0005C2D18D312693AB136B18DE806103A462B
:1049C000214601F052FB03900DE0D6685EB91269F2
:1049D0004AB903AACDE90012BAB2214601F018FB88
:1049E000012800D003950398D6E700002DE9F04197
:1049F000134C0F460546E6682068001D00F04AFC8F
:104A0000681C07D137B12168BDE8F0410D48091D88
:104A100000F090BC20683544B5424560216805D25D
:104A2000A06BBDE8F041091D00F06CBC606B091D76
:104A300000F068FCA06A854200D2A562BDE8F08162
:104A400040000020380A00202DE9F041054600F022
:104A50007DFC2D4CA068401CA06020682B4F10B13D
:104A6000606930B32BE02560A068012827D10026BB
:104A700006EB860007EB800000F036FC761C382E33
:104A8000F6D3234800F030FC2148143000F02CFC11
:104A90001F48283000F028FC1D483C3000F024FC62
:104AA0001B48503000F020FC194860631430A063AC
:104AB00005E02068E96AC06A884200D82560606A1B
:104AC000401C60626864E86A2169884200D92061FC
:104AD00000EB800007EB8000291D00F02BFC00F0AC
:104AE00055FC606900280CD02068E96AC06A8842D9
:104AF00007D208494FF080500860BFF34F8FBFF3D3
:104B00006F8FBDE8F0810000400000208805002084
:104B1000E809002004ED00E038B500F017FC104C67
:104B20002068C8B90F4800F0DFFB0E48143000F0D1
:104B3000DBFB0C48E060143020610A4B0020F03BA6
:104B4000009003F1500210210A2000F0F9FE2060CD
:104B500010B105A100F09CFCBDE8384000F016BC87
:104B60007C0000203C0B0020546D725100000000BE
:104B700030B4026C0B46002A0BD0C1681144C160EE
:104B80008468A14201D30168C16030BC1846FBF7BC
:104B900047BB30BC70472DE9F041856B1746044692
:104BA0000026026C82B1C7B1E068FBF739FBE1680F
:104BB000206C091AE1602268914202D2A168081AA9
:104BC000E060022F16D017E02068A8B9A06801F0B5
:104BD000EFFA06460020A0600EE06068FBF720FBBD
:104BE000216C606808446060A168884204D3206832
:104BF000606001E005B16D1E6D1CA5633046BDE827
:104C0000F08110B5044690F8590058B101280CD035
:104C100002280FD0502080F31188BFF34F8FBFF3CD
:104C20006F8FFEE7206B00F0C5FB2046BDE810400B
:104C300000F0C0BB10BD00000F4841F2F811420760
:104C400005D0C01D0C4A20F00700821A891A0B4AB1
:104C500000230144C2E900030839183A21F0070192
:104C600011604B600B600B1AC0E9001393604FF0AA
:104C700000405360506170471C120020AC000020BF
:104C8000144E154CA6F29C474FF08058DFF84C901C
:104C900012E000BF00F05AFBF068C568281D00F064
:104CA000F9FAA068401EA0606068401E606000F0D5
:104CB0006DFB2846FFF7A5FF60680028EAD1386839
:104CC0000128F9D9C9F80080BFF34F8FBFF36F8F68
:104CD000F2E70000240A00204000002004ED00E07C
:104CE00070B51D46049C51B1C4F80020C4E90F0101
:104CF0000121204600F058FE84F84C5070BD24601D
:104D0000F4E700002DE9F05F8846DDE90B941546D5
:104D1000834691009A460A9EA522206BFBF792FAE1
:104D20006FF00301206B01EB8501084420F00707B9
:104D3000780707D0502080F31188BFF34F8FBFF35F
:104D40006F8FFEE70025B8F1000F0FD05FF0000075
:104D5000221818F8001082F8341018F8001011B159
:104D6000401C1028F4D384F8435001E084F83450F8
:104D7000382E00D33726E662C4E91365201D00F003
:104D8000BEFA04F1180000F0BAFA2461C6F1380046
:104D90006462A061656584F85850524659463846A9
:104DA00000F066FA2060B9F1000F01D0C9F80040A8
:104DB000BDE8F09F30B5114900E011460A68824213
:104DC000FBD34B685C18844203D1406818444860A8
:104DD000084643681C18944209D1084C183C2468C2
:104DE000A24209D052681A4442600A6812680260FE
:104DF000814200D0086030BD0460F9E7AC000020BB
:104E000070B5002441600B4D0061914206D8D11A63
:104E10008269914206D2011D286907E09A4203D2B5
:104E2000994201D3012403E0011DE86800F06AFA09
:104E3000204670BD7C00002010B5044600F086FAC4
:104E4000A06B28B15FF0000400F0A0FA204610BD6E
:104E50000124F9E730B589B03C4D6EE00498002894
:104E600006DADDE90601059A90470498002864DB1C
:104E7000069C606910B1201D00F00CFA03A800F038
:104E8000D7F8024604980A2857D2DFE800F0050553
:104E9000052D334A05052D3394F8280040F0010014
:104EA00084F828000599A069059B01442046FFF776
:104EB000A7FF68B3216A2046884794F82800400776
:104EC0003BD5002000900598A1690023421819469F
:104ED000204601F0B3FAD8B9502080F31188BFF30F
:104EE0004F8FBFF36F8FFEE714F8280F20F00100FB
:104EF000207022E094F8280040F0010084F8280097
:104F00000598A06128B1811813462046FFF778FF65
:104F100013E0502080F31188BFF34F8FBFF36F8FE2
:104F2000FEE794F82800810703D4204600F042FAF7
:104F300003E020F0010084F82800002204A928687A
:104F400000F0D4FE002889D109B030BD7C000020DB
:104F50002DE9FC410F46054600F0F0FB01A800F0EA
:104F600067F80446019818B101F0D6F9BDE8FC8154
:104F7000254EAFB130690068D0B30027291B3A46EF
:104F8000306800F0C5FA01F0C7F90028EED11F49DA
:104F90004FF080500860BFF34F8FBFF36F8FE5E78E
:104FA000A542EBD801F0B8F9F0682746C068C4689C
:104FB000201D00F06FF994F82800410719D5A06969
:104FC0002B4641193A462046FFF71AFFA8B10020A8
:104FD0000346014600902A46204601F02FFA60B9A8
:104FE000502080F31188BFF34F8FBFF36F8FFEE720
:104FF00007E020F0010084F82800216A2046884755
:10500000B4E70127BAE700007C00002004ED00E0CF
:105010000648416B096829B1416BC968C96849688C
:10502000816270474FF0FF31FAE700004000002036
:1050300070B5054601F052F8064E0446B068844249
:1050400003D200F009F8012000E00020286020468B
:10505000B46070BD7C000020F8B5194D20E0C06838
:10506000C4680668201D00F015F9216A20468847AB
:1050700094F82800400713D5A0693044B04206D9FF
:1050800024616060211DE86800F03CF908E0002020
:105090000346014600903246204601F0CFF938B170
:1050A000E86801680029DAD12969C5E90310F8BD6B
:1050B000502080F31188BFF34F8FBFF36F8FFEE74F
:1050C0007C00002008484068401C4FF0500080F3EE
:1050D000118804D0BFF34F8FBFF36F8FFEE7BFF38C
:1050E0004F8FBFF36F8FFEE7B4000020074CE068DE
:1050F000016841B1C0680021D0F80000FFF728FF27
:10510000FFF7A8FEF3E701210020F7E77C0000206D
:105110002DE9F041044600F019F994F9455004F1E5
:10512000240609E0606A48B1304601F0BDF808B1D4
:1051300000F03EFA6D1E6DB2002DF3DC4FF0FF362D
:1051400084F8456000F022F900F000F994F9445029
:1051500004F1100709E0206948B1384601F0A4F8CD
:1051600008B100F025FA6D1E6DB2002DF3DC84F855
:105170004460BDE8F04100F009B900002DE9F041BC
:105180000546002700F0DAFA324E306808B9FFF71A
:1051900053FD706905424ED1C5B3083568070ED07E
:1051A00005F00700C0F108000544680707D050204B
:1051B00080F31188BFF34F8FBFF36F8FFEE72DB3DE
:1051C0007068854237D82348183001460C6801E0E2
:1051D00020460C466168A94202D221680029F7D115
:1051E00031688C4227D00768216801606068083701
:1051F000411B10290FD96019420708D0502080F3B5
:105200001188BFF34F8FBFF36F8FFEE713E041604C
:105210006560FFF7CFFD61687068401A7060B26822
:10522000904200D2B060706901430020C4E90001DF
:10523000F068401CF06001F06FF8780707D050204C
:1052400080F31188BFF34F8FBFF36F8FFEE73846AF
:10525000BDE8F081940000200449086818B108688E
:10526000026D521C02650868704700004000002073
:1052700010B5031F4FF080741C601B1F21F001014B
:105280001960191F024B0B60143940380A6010BDB9
:10529000C5500008D0E9013201699A60D0E90123C4
:1052A0005A604A68824201D182684A6000220261E3
:1052B0000868401E0860086870470000034B0360E0
:1052C00003F15C000860802010607047640B0020D0
:1052D000044B036003F15C0008604FF480701060C1
:1052E00070470000C00D002000F108014FF0FF32B0
:1052F000C0E90112C1600161002101607047002115
:105300000161704730B50B685A1C02D000F10802E9
:1053100002E0026904E02246546825689D42FAD9F9
:1053200053684B6099608A60516008610168491C4C
:10533000016030BD42684A6093688B609368596031
:10534000916008610168491C01607047502080F33A
:105350001188BFF34F8FBFF36F8F0A494868401C15
:10536000486001280CD10848006810F0FF0F07D0F2
:10537000502080F31188BFF34F8FBFF36F8FFEE78C
:1053800070470000B400002004ED00E008494868C0
:1053900028B1401E486001D180F311887047502029
:1053A00080F31188BFF34F8FBFF36F8FFEE70000CC
:1053B000B400002070B500282AD0164DA0F10804D2
:1053C00060686969084207D1502080F31188BFF3F3
:1053D0004F8FBFF36F8FFEE722683AB1502080F302
:1053E0001188BFF34F8FBFF36F8FFEE78843606074
:1053F00000F0A4F960686968084468602046FFF717
:10540000D9FC2869401C2861BDE8704000F084BFC9
:1054100070BD0000940000204FF0E02000210161E9
:10542000816105494FF47A720968B1FBF2F1491EB6
:1054300041610721016170473C00002010B5FAF777
:10544000C9FE114910280ED300F1E02090F8F003B6
:105450000A78904207D2502080F31188BFF34F8F13
:10546000BFF36F8FFEE709480068896800F4E060C9
:10547000884207D9502080F31188BFF34F8FBFF3C4
:105480006F8FFEE710BD0000B40000200CED00E0BF
:1054900010B5084B002200BF53F832401CB1521C1B
:1054A000082AF9D310BD43F8321003EBC20148605B
:1054B00010BD00004805002010B504000AD000F01F
:1054C00013F894F8460000280CD12046BDE810409F
:1054D000FFF770BF502080F31188BFF34F8FBFF3E9
:1054E0006F8FFEE710BD0000084A002102EBC103E8
:1054F0005B68834206D1002042F8310002EBC10113
:1055000048607047491C0829F0D3704748050020BF
:1055100070B515460E460446FFF718FF94F944107F
:105520000020491C01D184F8440094F94510491C1D
:1055300001D184F84500FFF729FFA06B28B92A465E
:10554000314604F1240000F051F82046BDE87040D7
:10555000FFF7DEBD10B5020014D00F48006B38B164
:10556000502080F31188BFF34F8FBFF36F8FFEE79A
:1055700000F0E4F800211046FFF738FA00F0CCFE06
:10558000002807D105494FF080500860BFF34F8FC6
:10559000BFF36F8F10BD00004000002004ED00E05D
:1055A00002490A6A0260C9684160704740000020F1
:1055B00001490120C86170474000002010B50C4629
:1055C00050B1094909681831FFF79CFE2046BDE833
:1055D00010400121FFF70ABA502080F31188BFF371
:1055E0004F8FBFF36F8FFEE74000002070B5144669
:1055F0000D4668B10A4909681831FFF79BFE0CB1E6
:105600004FF0FF3521462846BDE87040FFF7EEB960
:10561000502080F31188BFF34F8FBFF36F8FFEE7E9
:105620004000002070B504003ED0226DA2B1E06CB5
:10563000884200D30146E06A884235D0012A33D13E
:105640001A4D2A6894420FD1502080F31188BFF37D
:105650004F8FBFF36F8FFEE7502080F31188BFF3A9
:105660004F8FBFF36F8FFEE7E162A269002A02DB72
:10567000C1F13801A1610E4E00EB8000616906EBBB
:105680008000814210D1201DFFF704FEE06A2969E5
:10569000884200D9286100EB800006EB8000211DC4
:1056A000BDE87040FFF746BE70BD0000400000201E
:1056B0008805002030B587B00024039405AA04A90A
:1056C00003A80494FFF7FAFDDDE903010094CDE996
:1056D0000110002315A11748059A00F0C6FC164DCD
:1056E0000028E8621FD000F079FE012809D0401C94
:1056F00019D1502080F31188BFF34F8FBFF36F8F04
:10570000FEE7502080F31188BFF34F8FBFF36F8FF8
:105710004FF0FF30A86201206861EC6007B0BDE87F
:10572000304000F045B807B030BD000049444C455A
:1057300000000000814C0008400000200248016B7E
:10574000491C01637047000040000020164810B556
:10575000016B11B10121C16110BD0021C16101695D
:10576000124A01E0B9B1491E01EB810352F823301E
:10577000002BF7D001EB810302EB830202F1080456
:1057800053685B685360A34201D15B685360DA6879
:105790000260016110BD502080F31188BFF34F8F6C
:1057A000BFF36F8FFEE70000400000208805002057
:1057B0001CB5264908780190FF20087008788DF8FC
:1057C00000009DF800009DF8002000F0F0009042DD
:1057D00007D0502080F31188BFF34F8FBFF36F8F36
:1057E000FEE79DF800001A4C00F0500020700720E2
:1057F000A06005E09DF8002052008DF80020401EBA
:105800009DF800201206F5D4A060032807D0502090
:1058100080F31188BFF34F8FBFF36F8FFEE74FF414
:105820004070A060019808700A48016841F4700156
:105830000160016841F070410160FFF7EDFD00205B
:105840006060FAF791FC00201CBD000000E400E05D
:10585000B400002020ED00E010B5502080F3118846
:10586000BFF34F8FBFF36F8F00F03EFC18B10449B8
:105870004FF080500860002080F3118810BD0000B8
:1058800004ED00E010B50C4648B184420FD9502019
:1058900080F31188BFF34F8FBFF36F8FFEE7502067
:1058A00080F31188BFF34F8FBFF36F8FFEE70222A3
:1058B000002100F024F8002800D0846310BD38B522
:1058C0000C4648B184420FD9502080F31188BFF3B1
:1058D0004F8FBFF36F8FFEE7502080F31188BFF327
:1058E0004F8FBFF36F8FFEE7022113460022009116
:1058F000114600F025F8002800D0846338BDF8B5C3
:1059000017460E46050013D005FB06F05030FFF792
:1059100035FC04000AD0002084F8460004F150024F
:105920003B46314628460094FFF7DAF92046F8BD99
:10593000502080F31188BFF34F8FBFF36F8FFEE7C6
:1059400038B5049D18B153B1CAB181B120E05020DF
:1059500080F31188BFF34F8FBFF36F8FFEE75020A6
:1059600080F31188BFF34F8FBFF36F8FFEE7502096
:1059700080F31188BFF34F8FBFF36F8FFEE739B10C
:10598000502080F31188BFF34F8FBFF36F8FFEE776
:1059900050241C46012384F846302B460094FFF720
:1059A0009FF9204638BD000070B50D46040025D093
:1059B000FFF7CCFCD4E90F20216802FB0011A160A5
:1059C0000021A163216861600A46D4E90F01401EED
:1059D00000FB0121E16021464FF0FF3001F8440F48
:1059E000487004F110008DB1FFF77EFC04F1240033
:1059F000FFF77AFCFFF7CAFC012070BD502080F34E
:105A00001188BFF34F8FBFF36F8FFEE72169002925
:105A1000F0D000F049FC0028ECD004494FF0805051
:105A20000860BFF34F8FBFF36F8FE3E704ED00E033
:105A30002DE9FF4782B01D468A464FF0000804005A
:105A400003D0BAF1000F08D011E0502080F3118884
:105A5000BFF34F8FBFF36F8FFEE7206C38B150203C
:105A600080F31188BFF34F8FBFF36F8FFEE7022DD6
:105A70000AD1E06B012807D0502080F31188BFF3D2
:105A80004F8FBFF36F8FFEE700F01AFB3F4F4FF0D1
:105A900000094FF0805648B9049838B1502080F37F
:105AA0001188BFF34F8FBFF36F8FFEE7FFF74EFCF8
:105AB000A06BE16B884207D3022D05D00498D0B1CA
:105AC000B8F1000F1AD01EE02A4651462046FFF7D3
:105AD00062F8616A19B104F1240000F0E5FB20B11D
